{"contracts/PriceOracle.sol":{"PriceOracle":{"abi":[{"inputs":[{"internalType":"address","name":"_pyth","type":"address"},{"internalType":"bytes32","name":"_btcUsdPriceId","type":"bytes32"}],"stateMutability":"nonpayable","type":"constructor"},{"anonymous":false,"inputs":[{"indexed":false,"internalType":"uint256","name":"activationId","type":"uint256"},{"indexed":false,"internalType":"uint256","name":"price","type":"uint256"},{"indexed":false,"internalType":"bool","name":"settled","type":"bool"}],"name":"ActivationProcessed","type":"event"},{"anonymous":false,"inputs":[{"indexed":false,"internalType":"uint256","name":"amount","type":"uint256"},{"indexed":false,"internalType":"uint256","name":"totalReleased","type":"uint256"},{"indexed":false,"internalType":"uint256","name":"remaining","type":"uint256"}],"name":"CoinsReleased","type":"event"},{"anonymous":false,"inputs":[{"indexed":false,"internalType":"uint256","name":"newPrice","type":"uint256"},{"indexed":false,"internalType":"uint256","name":"tokensMinted","type":"uint256"}],"name":"PriceUpdated","type":"event"},{"anonymous":false,"inputs":[{"indexed":false,"internalType":"uint256","name":"activationId","type":"uint256"}],"name":"SettlementFailed","type":"event"},{"anonymous":false,"inputs":[{"indexed":false,"internalType":"uint256","name":"proofOfFaith","type":"uint256"},{"indexed":false,"internalType":"uint256","name":"xymMinted","type":"uint256"},{"indexed":false,"internalType":"uint256","name":"xymNextPrice","type":"uint256"}],"name":"TokenomicsUpdated","type":"event"},{"inputs":[],"name":"COIN_DIVIDE","outputs":[{"internalType":"uint256","name":"","type":"uint256"}],"stateMutability":"view","type":"function"},{"inputs":[],"name":"COIN_RELEASE_TARGET","outputs":[{"internalType":"uint256","name":"","type":"uint256"}],"stateMutability":"view","type":"function"},{"inputs":[],"name":"COIN_SUPPLY","outputs":[{"internalType":"uint256","name":"","type":"uint256"}],"stateMutability":"view","type":"function"},{"inputs":[],"name":"GROWTH_FACTOR","outputs":[{"internalType":"uint256","name":"","type":"uint256"}],"stateMutability":"view","type":"function"},{"inputs":[],"name":"NETWORK_FEE_PERCENT","outputs":[{"internalType":"uint256","name":"","type":"uint256"}],"stateMutability":"view","type":"function"},{"inputs":[],"name":"PHI","outputs":[{"internalType":"uint256","name":"","type":"uint256"}],"stateMutability":"view","type":"function"},{"inputs":[],"name":"SATOSHI_PRECISION","outputs":[{"internalType":"uint256","name":"","type":"uint256"}],"stateMutability":"view","type":"function"},{"inputs":[],"name":"STARTING_PRICE","outputs":[{"internalType":"uint256","name":"","type":"uint256"}],"stateMutability":"view","type":"function"},{"inputs":[],"name":"activateToken","outputs":[],"stateMutability":"nonpayable","type":"function"},{"inputs":[],"name":"activationCount","outputs":[{"internalType":"uint256","name":"","type":"uint256"}],"stateMutability":"view","type":"function"},{"inputs":[{"internalType":"uint256","name":"","type":"uint256"}],"name":"activationPrices","outputs":[{"internalType":"uint256","name":"","type":"uint256"}],"stateMutability":"view","type":"function"},{"inputs":[{"internalType":"uint256","name":"","type":"uint256"}],"name":"activationSettled","outputs":[{"internalType":"bool","name":"","type":"bool"}],"stateMutability":"view","type":"function"},{"inputs":[],"name":"btcUsdPriceId","outputs":[{"internalType":"bytes32","name":"","type":"bytes32"}],"stateMutability":"view","type":"function"},{"inputs":[{"internalType":"uint256","name":"amount","type":"uint256"}],"name":"calculateNetworkFee","outputs":[{"internalType":"uint256","name":"","type":"uint256"}],"stateMutability":"pure","type":"function"},{"inputs":[{"internalType":"uint256","name":"_tokensMinted","type":"uint256"}],"name":"calculatePrice","outputs":[{"internalType":"uint256","name":"","type":"uint256"}],"stateMutability":"view","type":"function"},{"inputs":[],"name":"currentPrice","outputs":[{"internalType":"uint256","name":"","type":"uint256"}],"stateMutability":"view","type":"function"},{"inputs":[],"name":"deactivateToken","outputs":[],"stateMutability":"nonpayable","type":"function"},{"inputs":[],"name":"getBtcPrice","outputs":[{"internalType":"uint256","name":"","type":"uint256"}],"stateMutability":"view","type":"function"},{"inputs":[],"name":"getCoinDistributionStatus","outputs":[{"internalType":"bool","name":"canReleaseCoins","type":"bool"},{"internalType":"uint256","name":"nextReleaseAmount","type":"uint256"},{"internalType":"uint256","name":"releaseTarget","type":"uint256"},{"internalType":"uint256","name":"totalReleased","type":"uint256"},{"internalType":"uint256","name":"remaining","type":"uint256"}],"stateMutability":"view","type":"function"},{"inputs":[],"name":"getCurrentPrice","outputs":[{"internalType":"uint256","name":"","type":"uint256"}],"stateMutability":"view","type":"function"},{"inputs":[],"name":"getTokenomicsState","outputs":[{"internalType":"uint256","name":"_proofOfFaith","type":"uint256"},{"internalType":"uint256","name":"_xymMinted","type":"uint256"},{"internalType":"uint256","name":"_xymNextPrice","type":"uint256"},{"internalType":"uint256","name":"_xymPrevPrice","type":"uint256"},{"internalType":"uint256","name":"_xyDivisor","type":"uint256"},{"internalType":"uint256","name":"_xyReleased","type":"uint256"},{"internalType":"uint256","name":"_xyRemaining","type":"uint256"},{"internalType":"uint256","name":"_xyReleaseTarget","type":"uint256"},{"internalType":"uint256","name":"_xyNextAmount","type":"uint256"}],"stateMutability":"view","type":"function"},{"inputs":[{"internalType":"bool","name":"settlementSuccess","type":"bool"}],"name":"processActivationWithSettlement","outputs":[],"stateMutability":"nonpayable","type":"function"},{"inputs":[],"name":"proofOfFaith","outputs":[{"internalType":"uint256","name":"","type":"uint256"}],"stateMutability":"view","type":"function"},{"inputs":[],"name":"pyth","outputs":[{"internalType":"contract IPyth","name":"","type":"address"}],"stateMutability":"view","type":"function"},{"inputs":[{"internalType":"uint256","name":"_tokensMinted","type":"uint256"}],"name":"setTokensMinted","outputs":[],"stateMutability":"nonpayable","type":"function"},{"inputs":[],"name":"tokensMinted","outputs":[{"internalType":"uint256","name":"","type":"uint256"}],"stateMutability":"view","type":"function"},{"inputs":[],"name":"updatePrice","outputs":[],"stateMutability":"nonpayable","type":"function"},{"inputs":[],"name":"xyDivisor","outputs":[{"internalType":"uint256","name":"","type":"uint256"}],"stateMutability":"view","type":"function"},{"inputs":[],"name":"xyNextAmount","outputs":[{"internalType":"uint256","name":"","type":"uint256"}],"stateMutability":"view","type":"function"},{"inputs":[],"name":"xyReleaseTarget","outputs":[{"internalType":"uint256","name":"","type":"uint256"}],"stateMutability":"view","type":"function"},{"inputs":[],"name":"xyReleased","outputs":[{"internalType":"uint256","name":"","type":"uint256"}],"stateMutability":"view","type":"function"},{"inputs":[],"name":"xyRemaining","outputs":[{"internalType":"uint256","name":"","type":"uint256"}],"stateMutability":"view","type":"function"},{"inputs":[],"name":"xymMinted","outputs":[{"internalType":"uint256","name":"","type":"uint256"}],"stateMutability":"view","type":"function"},{"inputs":[],"name":"xymNextPrice","outputs":[{"internalType":"uint256","name":"","type":"uint256"}],"stateMutability":"view","type":"function"},{"inputs":[],"name":"xymPrevPrice","outputs":[{"internalType":"uint256","name":"","type":"uint256"}],"stateMutability":"view","type":"function"}],"evm":{"bytecode":{"linkReferences":{},"object":"60c060405260016000556000600155600060025560006003556000600455600160055560006006556009633b9ac9ff6100389190610094565b6007556000600855633b9ac9ff600955610171600a556009600b5534801561005f57600080fd5b50604051610b86380380610b8683398101604081905261007e916100b6565b6001600160a01b0390911660805260a0526100f0565b6000826100b157634e487b7160e01b600052601260045260246000fd5b500490565b600080604083850312156100c957600080fd5b82516001600160a01b03811681146100e057600080fd5b6020939093015192949293505050565b60805160a051610a7161011560003960006103fd0152600061045f0152610a716000f3fe608060405234801561001057600080fd5b50600436106102115760003560e01c80636d97e46b11610125578063b2a84502116100ad578063d74030141161007c578063d740301414610438578063d7ea53ae14610441578063eb91d37e1461044a578063f957417e14610452578063f98d06f01461045a57600080fd5b8063b2a84502146103f8578063c17614e41461041f578063cbd8283314610427578063d12f70291461043057600080fd5b806383e24813116100f457806383e24813146103b557806386647b5e146103c05780639d1b464a146103c9578063a8aecfe5146103d2578063ae104265146103e557600080fd5b80636d97e46b146103675780636de9f32b146103725780637a7fb5351461037b578063806fff1c146103ad57600080fd5b80633a82d516116101a85780635c09a9f6116101775780635c09a9f6146103235780635ce7e0301461034357806366afe4b31461023b578063673a7e28146103565780636af411cd1461035e57600080fd5b80633a82d516146102a95780633ddb13b6146103085780634c1583b214610311578063583ee5bf1461031a57600080fd5b80632650487d116101e45780632650487d1461024d57806334e7f4a51461028057806339ce25081461028a5780633a3610bc1461029d57600080fd5b80630654273614610216578063207f12191461023257806320c8d7d81461023b57806322f6f96114610244575b600080fd5b61021f60045481565b6040519081526020015b60405180910390f35b61021f600b5481565b61021f61065281565b61021f60055481565b61027061025b366004610938565b600d6020526000908152604090205460ff1681565b6040519015158152602001610229565b610288610499565b005b610288610298366004610951565b6104c0565b65048c2739500061021f565b600354600454600554600654600754600854600954600a54600b5460408051998a5260208a0198909852968801959095526060870193909352608086019190915260a085015260c084015260e083015261010082015261012001610229565b61021f60075481565b61021f60095481565b61021f61017181565b61021f610331366004610938565b600c6020526000908152604090205481565b610288610351366004610938565b6105ac565b6102886105bc565b61021f60025481565b61021f633b9ac9ff81565b61021f60015481565b61038361060b565b6040805195151586526020860194909452928401919091526060830152608082015260a001610229565b61021f600381565b61021f6305f5e10081565b61021f60085481565b61021f60005481565b61021f6103e0366004610938565b610644565b61021f6103f3366004610938565b6106ac565b61021f7f000000000000000000000000000000000000000000000000000000000000000081565b61021f600981565b61021f60035481565b61021f600181565b61021f600a5481565b61021f60065481565b60005461021f565b610288610729565b6104817f000000000000000000000000000000000000000000000000000000000000000081565b6040516001600160a01b039091168152602001610229565b600154156104be57600180549060006104b183610990565b91905055506104be6105bc565b565b806105055760405162461bcd60e51b815260206004820152601160248201527014d95d1d1b195b595b9d0819985a5b1959607a1b604482015260640160405180910390fd5b60028054906000610515836109a7565b90915550506001805490600061052a836109a7565b91905055506105376105bc565b60008054600280548352600c602090815260408085209390935581548452600d8152828420805460ff1916600190811790915591549354835194855290840152908201527f897d7b656908c4bea6dd14a762d00075fce0e9b4271d2a4d3bcd493a4d72d531906060015b60405180910390a150565b60018190556105b96105bc565b50565b60006105c96001546106ac565b60008190556001546040519192507f945c1c4e99aa89f648fbfe3df471b916f719e16d960fcec0737d4d56bd696838916105a191848252602082015260400190565b6000806000806000806009541180156106275750600a54600554115b9450600b549350600a549250600854915060095490509091929394565b60008060646106546003856109c0565b61065e91906109ed565b90508060000361066c575060015b61067a6305f5e10082610a01565b156106a6576305f5e10061068e81836109ed565b610699906001610a15565b6106a391906109c0565b90505b92915050565b6000816000036106be57506001919050565b60055460006103e86106d1856001610a15565b6106dd906106526109c0565b6106e791906109ed565b9050806000036106f8575092915050565b600061070482846109ed565b905060006107128285610a15565b905080600003610720575060015b95945050505050565b60028054906000610739836109a7565b90915550506001805490600061074e836109a7565b909155505060048054906000610763836109a7565b909155505060055460068190556004546000906103e890610786906106526109c0565b61079091906109ed565b905080156107b55760006107a482846109ed565b90506107b08184610a15565b600555505b81600360008282546107c79190610a15565b9091555050600954158015906107e05750600a54600554115b156108a2576000600b54905080600860008282546107fe9190610a15565b9091555050600754610812906002906109ed565b60075560085461082690633b9ac9ff610a28565b6009819055600754610837916109ed565b600b55600a546103e89061084e90610652906109c0565b61085891906109ed565b600a556008546009546040805184815260208101939093528201527f12b902226ea54a21aefb31c6dfb064bc1c4779d293391c832b415c484f4f3a509060600160405180910390a1505b6005546000818155600254604080519182526020820193909352918201527f897d7b656908c4bea6dd14a762d00075fce0e9b4271d2a4d3bcd493a4d72d5319060600160405180910390a160035460045460055460408051938452602084019290925282820152517f31ba426b73c86859899c292355b9e963ab7f78b00e6df209addf169517554e1f9181900360600190a15050565b60006020828403121561094a57600080fd5b5035919050565b60006020828403121561096357600080fd5b8135801515811461097357600080fd5b9392505050565b634e487b7160e01b600052601160045260246000fd5b60008161099f5761099f61097a565b506000190190565b6000600182016109b9576109b961097a565b5060010190565b80820281158282048414176106a6576106a661097a565b634e487b7160e01b600052601260045260246000fd5b6000826109fc576109fc6109d7565b500490565b600082610a1057610a106109d7565b500690565b808201808211156106a6576106a661097a565b818103818111156106a6576106a661097a56fea2646970667358221220718c74368a4b2e1cd2c06911a7234355ca2e7caceb06fdee24609e6d55ff86b664736f6c63430008130033","opcodes":"PUSH1 0xC0 PUSH1 0x40 MSTORE PUSH1 0x1 PUSH1 0x0 SSTORE PUSH1 0x0 PUSH1 0x1 SSTORE PUSH1 0x0 PUSH1 0x2 SSTORE PUSH1 0x0 PUSH1 0x3 SSTORE PUSH1 0x0 PUSH1 0x4 SSTORE PUSH1 0x1 PUSH1 0x5 SSTORE PUSH1 0x0 PUSH1 0x6 SSTORE PUSH1 0x9 PUSH4 0x3B9AC9FF PUSH2 0x38 SWAP2 SWAP1 PUSH2 0x94 JUMP JUMPDEST PUSH1 0x7 SSTORE PUSH1 0x0 PUSH1 0x8 SSTORE PUSH4 0x3B9AC9FF PUSH1 0x9 SSTORE PUSH2 0x171 PUSH1 0xA SSTORE PUSH1 0x9 PUSH1 0xB SSTORE CALLVALUE DUP1 ISZERO PUSH2 0x5F JUMPI PUSH1 0x0 DUP1 REVERT JUMPDEST POP PUSH1 0x40 MLOAD PUSH2 0xB86 CODESIZE SUB DUP1 PUSH2 0xB86 DUP4 CODECOPY DUP2 ADD PUSH1 0x40 DUP2 SWAP1 MSTORE PUSH2 0x7E SWAP2 PUSH2 0xB6 JUMP JUMPDEST PUSH1 0x1 PUSH1 0x1 PUSH1 0xA0 SHL SUB SWAP1 SWAP2 AND PUSH1 0x80 MSTORE PUSH1 0xA0 MSTORE PUSH2 0xF0 JUMP JUMPDEST PUSH1 0x0 DUP3 PUSH2 0xB1 JUMPI PUSH4 0x4E487B71 PUSH1 0xE0 SHL PUSH1 0x0 MSTORE PUSH1 0x12 PUSH1 0x4 MSTORE PUSH1 0x24 PUSH1 0x0 REVERT JUMPDEST POP DIV SWAP1 JUMP JUMPDEST PUSH1 0x0 DUP1 PUSH1 0x40 DUP4 DUP6 SUB SLT ISZERO PUSH2 0xC9 JUMPI PUSH1 0x0 DUP1 REVERT JUMPDEST DUP3 MLOAD PUSH1 0x1 PUSH1 0x1 PUSH1 0xA0 SHL SUB DUP2 AND DUP2 EQ PUSH2 0xE0 JUMPI PUSH1 0x0 DUP1 REVERT JUMPDEST PUSH1 0x20 SWAP4 SWAP1 SWAP4 ADD MLOAD SWAP3 SWAP5 SWAP3 SWAP4 POP POP POP JUMP JUMPDEST PUSH1 0x80 MLOAD PUSH1 0xA0 MLOAD PUSH2 0xA71 PUSH2 0x115 PUSH1 0x0 CODECOPY PUSH1 0x0 PUSH2 0x3FD ADD MSTORE PUSH1 0x0 PUSH2 0x45F ADD MSTORE PUSH2 0xA71 PUSH1 0x0 RETURN INVALID PUSH1 0x80 PUSH1 0x40 MSTORE CALLVALUE DUP1 ISZERO PUSH2 0x10 JUMPI PUSH1 0x0 DUP1 REVERT JUMPDEST POP PUSH1 0x4 CALLDATASIZE LT PUSH2 0x211 JUMPI PUSH1 0x0 CALLDATALOAD PUSH1 0xE0 SHR DUP1 PUSH4 0x6D97E46B GT PUSH2 0x125 JUMPI DUP1 PUSH4 0xB2A84502 GT PUSH2 0xAD JUMPI DUP1 PUSH4 0xD7403014 GT PUSH2 0x7C JUMPI DUP1 PUSH4 0xD7403014 EQ PUSH2 0x438 JUMPI DUP1 PUSH4 0xD7EA53AE EQ PUSH2 0x441 JUMPI DUP1 PUSH4 0xEB91D37E EQ PUSH2 0x44A JUMPI DUP1 PUSH4 0xF957417E EQ PUSH2 0x452 JUMPI DUP1 PUSH4 0xF98D06F0 EQ PUSH2 0x45A JUMPI PUSH1 0x0 DUP1 REVERT JUMPDEST DUP1 PUSH4 0xB2A84502 EQ PUSH2 0x3F8 JUMPI DUP1 PUSH4 0xC17614E4 EQ PUSH2 0x41F JUMPI DUP1 PUSH4 0xCBD82833 EQ PUSH2 0x427 JUMPI DUP1 PUSH4 0xD12F7029 EQ PUSH2 0x430 JUMPI PUSH1 0x0 DUP1 REVERT JUMPDEST DUP1 PUSH4 0x83E24813 GT PUSH2 0xF4 JUMPI DUP1 PUSH4 0x83E24813 EQ PUSH2 0x3B5 JUMPI DUP1 PUSH4 0x86647B5E EQ PUSH2 0x3C0 JUMPI DUP1 PUSH4 0x9D1B464A EQ PUSH2 0x3C9 JUMPI DUP1 PUSH4 0xA8AECFE5 EQ PUSH2 0x3D2 JUMPI DUP1 PUSH4 0xAE104265 EQ PUSH2 0x3E5 JUMPI PUSH1 0x0 DUP1 REVERT JUMPDEST DUP1 PUSH4 0x6D97E46B EQ PUSH2 0x367 JUMPI DUP1 PUSH4 0x6DE9F32B EQ PUSH2 0x372 JUMPI DUP1 PUSH4 0x7A7FB535 EQ PUSH2 0x37B JUMPI DUP1 PUSH4 0x806FFF1C EQ PUSH2 0x3AD JUMPI PUSH1 0x0 DUP1 REVERT JUMPDEST DUP1 PUSH4 0x3A82D516 GT PUSH2 0x1A8 JUMPI DUP1 PUSH4 0x5C09A9F6 GT PUSH2 0x177 JUMPI DUP1 PUSH4 0x5C09A9F6 EQ PUSH2 0x323 JUMPI DUP1 PUSH4 0x5CE7E030 EQ PUSH2 0x343 JUMPI DUP1 PUSH4 0x66AFE4B3 EQ PUSH2 0x23B JUMPI DUP1 PUSH4 0x673A7E28 EQ PUSH2 0x356 JUMPI DUP1 PUSH4 0x6AF411CD EQ PUSH2 0x35E JUMPI PUSH1 0x0 DUP1 REVERT JUMPDEST DUP1 PUSH4 0x3A82D516 EQ PUSH2 0x2A9 JUMPI DUP1 PUSH4 0x3DDB13B6 EQ PUSH2 0x308 JUMPI DUP1 PUSH4 0x4C1583B2 EQ PUSH2 0x311 JUMPI DUP1 PUSH4 0x583EE5BF EQ PUSH2 0x31A JUMPI PUSH1 0x0 DUP1 REVERT JUMPDEST DUP1 PUSH4 0x2650487D GT PUSH2 0x1E4 JUMPI DUP1 PUSH4 0x2650487D EQ PUSH2 0x24D JUMPI DUP1 PUSH4 0x34E7F4A5 EQ PUSH2 0x280 JUMPI DUP1 PUSH4 0x39CE2508 EQ PUSH2 0x28A JUMPI DUP1 PUSH4 0x3A3610BC EQ PUSH2 0x29D JUMPI PUSH1 0x0 DUP1 REVERT JUMPDEST DUP1 PUSH4 0x6542736 EQ PUSH2 0x216 JUMPI DUP1 PUSH4 0x207F1219 EQ PUSH2 0x232 JUMPI DUP1 PUSH4 0x20C8D7D8 EQ PUSH2 0x23B JUMPI DUP1 PUSH4 0x22F6F961 EQ PUSH2 0x244 JUMPI JUMPDEST PUSH1 0x0 DUP1 REVERT JUMPDEST PUSH2 0x21F PUSH1 0x4 SLOAD DUP2 JUMP JUMPDEST PUSH1 0x40 MLOAD SWAP1 DUP2 MSTORE PUSH1 0x20 ADD JUMPDEST PUSH1 0x40 MLOAD DUP1 SWAP2 SUB SWAP1 RETURN JUMPDEST PUSH2 0x21F PUSH1 0xB SLOAD DUP2 JUMP JUMPDEST PUSH2 0x21F PUSH2 0x652 DUP2 JUMP JUMPDEST PUSH2 0x21F PUSH1 0x5 SLOAD DUP2 JUMP JUMPDEST PUSH2 0x270 PUSH2 0x25B CALLDATASIZE PUSH1 0x4 PUSH2 0x938 JUMP JUMPDEST PUSH1 0xD PUSH1 0x20 MSTORE PUSH1 0x0 SWAP1 DUP2 MSTORE PUSH1 0x40 SWAP1 KECCAK256 SLOAD PUSH1 0xFF AND DUP2 JUMP JUMPDEST PUSH1 0x40 MLOAD SWAP1 ISZERO ISZERO DUP2 MSTORE PUSH1 0x20 ADD PUSH2 0x229 JUMP JUMPDEST PUSH2 0x288 PUSH2 0x499 JUMP JUMPDEST STOP JUMPDEST PUSH2 0x288 PUSH2 0x298 CALLDATASIZE PUSH1 0x4 PUSH2 0x951 JUMP JUMPDEST PUSH2 0x4C0 JUMP JUMPDEST PUSH6 0x48C27395000 PUSH2 0x21F JUMP JUMPDEST PUSH1 0x3 SLOAD PUSH1 0x4 SLOAD PUSH1 0x5 SLOAD PUSH1 0x6 SLOAD PUSH1 0x7 SLOAD PUSH1 0x8 SLOAD PUSH1 0x9 SLOAD PUSH1 0xA SLOAD PUSH1 0xB SLOAD PUSH1 0x40 DUP1 MLOAD SWAP10 DUP11 MSTORE PUSH1 0x20 DUP11 ADD SWAP9 SWAP1 SWAP9 MSTORE SWAP7 DUP9 ADD SWAP6 SWAP1 SWAP6 MSTORE PUSH1 0x60 DUP8 ADD SWAP4 SWAP1 SWAP4 MSTORE PUSH1 0x80 DUP7 ADD SWAP2 SWAP1 SWAP2 MSTORE PUSH1 0xA0 DUP6 ADD MSTORE PUSH1 0xC0 DUP5 ADD MSTORE PUSH1 0xE0 DUP4 ADD MSTORE PUSH2 0x100 DUP3 ADD MSTORE PUSH2 0x120 ADD PUSH2 0x229 JUMP JUMPDEST PUSH2 0x21F PUSH1 0x7 SLOAD DUP2 JUMP JUMPDEST PUSH2 0x21F PUSH1 0x9 SLOAD DUP2 JUMP JUMPDEST PUSH2 0x21F PUSH2 0x171 DUP2 JUMP JUMPDEST PUSH2 0x21F PUSH2 0x331 CALLDATASIZE PUSH1 0x4 PUSH2 0x938 JUMP JUMPDEST PUSH1 0xC PUSH1 0x20 MSTORE PUSH1 0x0 SWAP1 DUP2 MSTORE PUSH1 0x40 SWAP1 KECCAK256 SLOAD DUP2 JUMP JUMPDEST PUSH2 0x288 PUSH2 0x351 CALLDATASIZE PUSH1 0x4 PUSH2 0x938 JUMP JUMPDEST PUSH2 0x5AC JUMP JUMPDEST PUSH2 0x288 PUSH2 0x5BC JUMP JUMPDEST PUSH2 0x21F PUSH1 0x2 SLOAD DUP2 JUMP JUMPDEST PUSH2 0x21F PUSH4 0x3B9AC9FF DUP2 JUMP JUMPDEST PUSH2 0x21F PUSH1 0x1 SLOAD DUP2 JUMP JUMPDEST PUSH2 0x383 PUSH2 0x60B JUMP JUMPDEST PUSH1 0x40 DUP1 MLOAD SWAP6 ISZERO ISZERO DUP7 MSTORE PUSH1 0x20 DUP7 ADD SWAP5 SWAP1 SWAP5 MSTORE SWAP3 DUP5 ADD SWAP2 SWAP1 SWAP2 MSTORE PUSH1 0x60 DUP4 ADD MSTORE PUSH1 0x80 DUP3 ADD MSTORE PUSH1 0xA0 ADD PUSH2 0x229 JUMP JUMPDEST PUSH2 0x21F PUSH1 0x3 DUP2 JUMP JUMPDEST PUSH2 0x21F PUSH4 0x5F5E100 DUP2 JUMP JUMPDEST PUSH2 0x21F PUSH1 0x8 SLOAD DUP2 JUMP JUMPDEST PUSH2 0x21F PUSH1 0x0 SLOAD DUP2 JUMP JUMPDEST PUSH2 0x21F PUSH2 0x3E0 CALLDATASIZE PUSH1 0x4 PUSH2 0x938 JUMP JUMPDEST PUSH2 0x644 JUMP JUMPDEST PUSH2 0x21F PUSH2 0x3F3 CALLDATASIZE PUSH1 0x4 PUSH2 0x938 JUMP JUMPDEST PUSH2 0x6AC JUMP JUMPDEST PUSH2 0x21F PUSH32 0x0 DUP2 JUMP JUMPDEST PUSH2 0x21F PUSH1 0x9 DUP2 JUMP JUMPDEST PUSH2 0x21F PUSH1 0x3 SLOAD DUP2 JUMP JUMPDEST PUSH2 0x21F PUSH1 0x1 DUP2 JUMP JUMPDEST PUSH2 0x21F PUSH1 0xA SLOAD DUP2 JUMP JUMPDEST PUSH2 0x21F PUSH1 0x6 SLOAD DUP2 JUMP JUMPDEST PUSH1 0x0 SLOAD PUSH2 0x21F JUMP JUMPDEST PUSH2 0x288 PUSH2 0x729 JUMP JUMPDEST PUSH2 0x481 PUSH32 0x0 DUP2 JUMP JUMPDEST PUSH1 0x40 MLOAD PUSH1 0x1 PUSH1 0x1 PUSH1 0xA0 SHL SUB SWAP1 SWAP2 AND DUP2 MSTORE PUSH1 0x20 ADD PUSH2 0x229 JUMP JUMPDEST PUSH1 0x1 SLOAD ISZERO PUSH2 0x4BE JUMPI PUSH1 0x1 DUP1 SLOAD SWAP1 PUSH1 0x0 PUSH2 0x4B1 DUP4 PUSH2 0x990 JUMP JUMPDEST SWAP2 SWAP1 POP SSTORE POP PUSH2 0x4BE PUSH2 0x5BC JUMP JUMPDEST JUMP JUMPDEST DUP1 PUSH2 0x505 JUMPI PUSH1 0x40 MLOAD PUSH3 0x461BCD PUSH1 0xE5 SHL DUP2 MSTORE PUSH1 0x20 PUSH1 0x4 DUP3 ADD MSTORE PUSH1 0x11 PUSH1 0x24 DUP3 ADD MSTORE PUSH17 0x14D95D1D1B195B595B9D0819985A5B1959 PUSH1 0x7A SHL PUSH1 0x44 DUP3 ADD MSTORE PUSH1 0x64 ADD PUSH1 0x40 MLOAD DUP1 SWAP2 SUB SWAP1 REVERT JUMPDEST PUSH1 0x2 DUP1 SLOAD SWAP1 PUSH1 0x0 PUSH2 0x515 DUP4 PUSH2 0x9A7 JUMP JUMPDEST SWAP1 SWAP2 SSTORE POP POP PUSH1 0x1 DUP1 SLOAD SWAP1 PUSH1 0x0 PUSH2 0x52A DUP4 PUSH2 0x9A7 JUMP JUMPDEST SWAP2 SWAP1 POP SSTORE POP PUSH2 0x537 PUSH2 0x5BC JUMP JUMPDEST PUSH1 0x0 DUP1 SLOAD PUSH1 0x2 DUP1 SLOAD DUP4 MSTORE PUSH1 0xC PUSH1 0x20 SWAP1 DUP2 MSTORE PUSH1 0x40 DUP1 DUP6 KECCAK256 SWAP4 SWAP1 SWAP4 SSTORE DUP2 SLOAD DUP5 MSTORE PUSH1 0xD DUP2 MSTORE DUP3 DUP5 KECCAK256 DUP1 SLOAD PUSH1 0xFF NOT AND PUSH1 0x1 SWAP1 DUP2 OR SWAP1 SWAP2 SSTORE SWAP2 SLOAD SWAP4 SLOAD DUP4 MLOAD SWAP5 DUP6 MSTORE SWAP1 DUP5 ADD MSTORE SWAP1 DUP3 ADD MSTORE PUSH32 0x897D7B656908C4BEA6DD14A762D00075FCE0E9B4271D2A4D3BCD493A4D72D531 SWAP1 PUSH1 0x60 ADD JUMPDEST PUSH1 0x40 MLOAD DUP1 SWAP2 SUB SWAP1 LOG1 POP JUMP JUMPDEST PUSH1 0x1 DUP2 SWAP1 SSTORE PUSH2 0x5B9 PUSH2 0x5BC JUMP JUMPDEST POP JUMP JUMPDEST PUSH1 0x0 PUSH2 0x5C9 PUSH1 0x1 SLOAD PUSH2 0x6AC JUMP JUMPDEST PUSH1 0x0 DUP2 SWAP1 SSTORE PUSH1 0x1 SLOAD PUSH1 0x40 MLOAD SWAP2 SWAP3 POP PUSH32 0x945C1C4E99AA89F648FBFE3DF471B916F719E16D960FCEC0737D4D56BD696838 SWAP2 PUSH2 0x5A1 SWAP2 DUP5 DUP3 MSTORE PUSH1 0x20 DUP3 ADD MSTORE PUSH1 0x40 ADD SWAP1 JUMP JUMPDEST PUSH1 0x0 DUP1 PUSH1 0x0 DUP1 PUSH1 0x0 DUP1 PUSH1 0x9 SLOAD GT DUP1 ISZERO PUSH2 0x627 JUMPI POP PUSH1 0xA SLOAD PUSH1 0x5 SLOAD GT JUMPDEST SWAP5 POP PUSH1 0xB SLOAD SWAP4 POP PUSH1 0xA SLOAD SWAP3 POP PUSH1 0x8 SLOAD SWAP2 POP PUSH1 0x9 SLOAD SWAP1 POP SWAP1 SWAP2 SWAP3 SWAP4 SWAP5 JUMP JUMPDEST PUSH1 0x0 DUP1 PUSH1 0x64 PUSH2 0x654 PUSH1 0x3 DUP6 PUSH2 0x9C0 JUMP JUMPDEST PUSH2 0x65E SWAP2 SWAP1 PUSH2 0x9ED JUMP JUMPDEST SWAP1 POP DUP1 PUSH1 0x0 SUB PUSH2 0x66C JUMPI POP PUSH1 0x1 JUMPDEST PUSH2 0x67A PUSH4 0x5F5E100 DUP3 PUSH2 0xA01 JUMP JUMPDEST ISZERO PUSH2 0x6A6 JUMPI PUSH4 0x5F5E100 PUSH2 0x68E DUP2 DUP4 PUSH2 0x9ED JUMP JUMPDEST PUSH2 0x699 SWAP1 PUSH1 0x1 PUSH2 0xA15 JUMP JUMPDEST PUSH2 0x6A3 SWAP2 SWAP1 PUSH2 0x9C0 JUMP JUMPDEST SWAP1 POP JUMPDEST SWAP3 SWAP2 POP POP JUMP JUMPDEST PUSH1 0x0 DUP2 PUSH1 0x0 SUB PUSH2 0x6BE JUMPI POP PUSH1 0x1 SWAP2 SWAP1 POP JUMP JUMPDEST PUSH1 0x5 SLOAD PUSH1 0x0 PUSH2 0x3E8 PUSH2 0x6D1 DUP6 PUSH1 0x1 PUSH2 0xA15 JUMP JUMPDEST PUSH2 0x6DD SWAP1 PUSH2 0x652 PUSH2 0x9C0 JUMP JUMPDEST PUSH2 0x6E7 SWAP2 SWAP1 PUSH2 0x9ED JUMP JUMPDEST SWAP1 POP DUP1 PUSH1 0x0 SUB PUSH2 0x6F8 JUMPI POP SWAP3 SWAP2 POP POP JUMP JUMPDEST PUSH1 0x0 PUSH2 0x704 DUP3 DUP5 PUSH2 0x9ED JUMP JUMPDEST SWAP1 POP PUSH1 0x0 PUSH2 0x712 DUP3 DUP6 PUSH2 0xA15 JUMP JUMPDEST SWAP1 POP DUP1 PUSH1 0x0 SUB PUSH2 0x720 JUMPI POP PUSH1 0x1 JUMPDEST SWAP6 SWAP5 POP POP POP POP POP JUMP JUMPDEST PUSH1 0x2 DUP1 SLOAD SWAP1 PUSH1 0x0 PUSH2 0x739 DUP4 PUSH2 0x9A7 JUMP JUMPDEST SWAP1 SWAP2 SSTORE POP POP PUSH1 0x1 DUP1 SLOAD SWAP1 PUSH1 0x0 PUSH2 0x74E DUP4 PUSH2 0x9A7 JUMP JUMPDEST SWAP1 SWAP2 SSTORE POP POP PUSH1 0x4 DUP1 SLOAD SWAP1 PUSH1 0x0 PUSH2 0x763 DUP4 PUSH2 0x9A7 JUMP JUMPDEST SWAP1 SWAP2 SSTORE POP POP PUSH1 0x5 SLOAD PUSH1 0x6 DUP2 SWAP1 SSTORE PUSH1 0x4 SLOAD PUSH1 0x0 SWAP1 PUSH2 0x3E8 SWAP1 PUSH2 0x786 SWAP1 PUSH2 0x652 PUSH2 0x9C0 JUMP JUMPDEST PUSH2 0x790 SWAP2 SWAP1 PUSH2 0x9ED JUMP JUMPDEST SWAP1 POP DUP1 ISZERO PUSH2 0x7B5 JUMPI PUSH1 0x0 PUSH2 0x7A4 DUP3 DUP5 PUSH2 0x9ED JUMP JUMPDEST SWAP1 POP PUSH2 0x7B0 DUP2 DUP5 PUSH2 0xA15 JUMP JUMPDEST PUSH1 0x5 SSTORE POP JUMPDEST DUP2 PUSH1 0x3 PUSH1 0x0 DUP3 DUP3 SLOAD PUSH2 0x7C7 SWAP2 SWAP1 PUSH2 0xA15 JUMP JUMPDEST SWAP1 SWAP2 SSTORE POP POP PUSH1 0x9 SLOAD ISZERO DUP1 ISZERO SWAP1 PUSH2 0x7E0 JUMPI POP PUSH1 0xA SLOAD PUSH1 0x5 SLOAD GT JUMPDEST ISZERO PUSH2 0x8A2 JUMPI PUSH1 0x0 PUSH1 0xB SLOAD SWAP1 POP DUP1 PUSH1 0x8 PUSH1 0x0 DUP3 DUP3 SLOAD PUSH2 0x7FE SWAP2 SWAP1 PUSH2 0xA15 JUMP JUMPDEST SWAP1 SWAP2 SSTORE POP POP PUSH1 0x7 SLOAD PUSH2 0x812 SWAP1 PUSH1 0x2 SWAP1 PUSH2 0x9ED JUMP JUMPDEST PUSH1 0x7 SSTORE PUSH1 0x8 SLOAD PUSH2 0x826 SWAP1 PUSH4 0x3B9AC9FF PUSH2 0xA28 JUMP JUMPDEST PUSH1 0x9 DUP2 SWAP1 SSTORE PUSH1 0x7 SLOAD PUSH2 0x837 SWAP2 PUSH2 0x9ED JUMP JUMPDEST PUSH1 0xB SSTORE PUSH1 0xA SLOAD PUSH2 0x3E8 SWAP1 PUSH2 0x84E SWAP1 PUSH2 0x652 SWAP1 PUSH2 0x9C0 JUMP JUMPDEST PUSH2 0x858 SWAP2 SWAP1 PUSH2 0x9ED JUMP JUMPDEST PUSH1 0xA SSTORE PUSH1 0x8 SLOAD PUSH1 0x9 SLOAD PUSH1 0x40 DUP1 MLOAD DUP5 DUP2 MSTORE PUSH1 0x20 DUP2 ADD SWAP4 SWAP1 SWAP4 MSTORE DUP3 ADD MSTORE PUSH32 0x12B902226EA54A21AEFB31C6DFB064BC1C4779D293391C832B415C484F4F3A50 SWAP1 PUSH1 0x60 ADD PUSH1 0x40 MLOAD DUP1 SWAP2 SUB SWAP1 LOG1 POP JUMPDEST PUSH1 0x5 SLOAD PUSH1 0x0 DUP2 DUP2 SSTORE PUSH1 0x2 SLOAD PUSH1 0x40 DUP1 MLOAD SWAP2 DUP3 MSTORE PUSH1 0x20 DUP3 ADD SWAP4 SWAP1 SWAP4 MSTORE SWAP2 DUP3 ADD MSTORE PUSH32 0x897D7B656908C4BEA6DD14A762D00075FCE0E9B4271D2A4D3BCD493A4D72D531 SWAP1 PUSH1 0x60 ADD PUSH1 0x40 MLOAD DUP1 SWAP2 SUB SWAP1 LOG1 PUSH1 0x3 SLOAD PUSH1 0x4 SLOAD PUSH1 0x5 SLOAD PUSH1 0x40 DUP1 MLOAD SWAP4 DUP5 MSTORE PUSH1 0x20 DUP5 ADD SWAP3 SWAP1 SWAP3 MSTORE DUP3 DUP3 ADD MSTORE MLOAD PUSH32 0x31BA426B73C86859899C292355B9E963AB7F78B00E6DF209ADDF169517554E1F SWAP2 DUP2 SWAP1 SUB PUSH1 0x60 ADD SWAP1 LOG1 POP POP JUMP JUMPDEST PUSH1 0x0 PUSH1 0x20 DUP3 DUP5 SUB SLT ISZERO PUSH2 0x94A JUMPI PUSH1 0x0 DUP1 REVERT JUMPDEST POP CALLDATALOAD SWAP2 SWAP1 POP JUMP JUMPDEST PUSH1 0x0 PUSH1 0x20 DUP3 DUP5 SUB SLT ISZERO PUSH2 0x963 JUMPI PUSH1 0x0 DUP1 REVERT JUMPDEST DUP2 CALLDATALOAD DUP1 ISZERO ISZERO DUP2 EQ PUSH2 0x973 JUMPI PUSH1 0x0 DUP1 REVERT JUMPDEST SWAP4 SWAP3 POP POP POP JUMP JUMPDEST PUSH4 0x4E487B71 PUSH1 0xE0 SHL PUSH1 0x0 MSTORE PUSH1 0x11 PUSH1 0x4 MSTORE PUSH1 0x24 PUSH1 0x0 REVERT JUMPDEST PUSH1 0x0 DUP2 PUSH2 0x99F JUMPI PUSH2 0x99F PUSH2 0x97A JUMP JUMPDEST POP PUSH1 0x0 NOT ADD SWAP1 JUMP JUMPDEST PUSH1 0x0 PUSH1 0x1 DUP3 ADD PUSH2 0x9B9 JUMPI PUSH2 0x9B9 PUSH2 0x97A JUMP JUMPDEST POP PUSH1 0x1 ADD SWAP1 JUMP JUMPDEST DUP1 DUP3 MUL DUP2 ISZERO DUP3 DUP3 DIV DUP5 EQ OR PUSH2 0x6A6 JUMPI PUSH2 0x6A6 PUSH2 0x97A JUMP JUMPDEST PUSH4 0x4E487B71 PUSH1 0xE0 SHL PUSH1 0x0 MSTORE PUSH1 0x12 PUSH1 0x4 MSTORE PUSH1 0x24 PUSH1 0x0 REVERT JUMPDEST PUSH1 0x0 DUP3 PUSH2 0x9FC JUMPI PUSH2 0x9FC PUSH2 0x9D7 JUMP JUMPDEST POP DIV SWAP1 JUMP JUMPDEST PUSH1 0x0 DUP3 PUSH2 0xA10 JUMPI PUSH2 0xA10 PUSH2 0x9D7 JUMP JUMPDEST POP MOD SWAP1 JUMP JUMPDEST DUP1 DUP3 ADD DUP1 DUP3 GT ISZERO PUSH2 0x6A6 JUMPI PUSH2 0x6A6 PUSH2 0x97A JUMP JUMPDEST DUP2 DUP2 SUB DUP2 DUP2 GT ISZERO PUSH2 0x6A6 JUMPI PUSH2 0x6A6 PUSH2 0x97A JUMP INVALID LOG2 PUSH5 0x6970667358 0x22 SLT KECCAK256 PUSH18 0x8C74368A4B2E1CD2C06911A7234355CA2E7C 0xAC 0xEB MOD REVERT 0xEE 0x24 PUSH1 0x9E PUSH14 0x55FF86B664736F6C634300081300 CALLER "},"methodIdentifiers":{"COIN_DIVIDE()":"c17614e4","COIN_RELEASE_TARGET()":"583ee5bf","COIN_SUPPLY()":"6d97e46b","GROWTH_FACTOR()":"20c8d7d8","NETWORK_FEE_PERCENT()":"806fff1c","PHI()":"66afe4b3","SATOSHI_PRECISION()":"83e24813","STARTING_PRICE()":"d12f7029","activateToken()":"f957417e","activationCount()":"6af411cd","activationPrices(uint256)":"5c09a9f6","activationSettled(uint256)":"2650487d","btcUsdPriceId()":"b2a84502","calculateNetworkFee(uint256)":"a8aecfe5","calculatePrice(uint256)":"ae104265","currentPrice()":"9d1b464a","deactivateToken()":"34e7f4a5","getBtcPrice()":"3a3610bc","getCoinDistributionStatus()":"7a7fb535","getCurrentPrice()":"eb91d37e","getTokenomicsState()":"3a82d516","processActivationWithSettlement(bool)":"39ce2508","proofOfFaith()":"cbd82833","pyth()":"f98d06f0","setTokensMinted(uint256)":"5ce7e030","tokensMinted()":"6de9f32b","updatePrice()":"673a7e28","xyDivisor()":"3ddb13b6","xyNextAmount()":"207f1219","xyReleaseTarget()":"d7403014","xyReleased()":"86647b5e","xyRemaining()":"4c1583b2","xymMinted()":"06542736","xymNextPrice()":"22f6f961","xymPrevPrice()":"d7ea53ae"}}}}}