{"contracts/ChainDepositContract.sol":{"ChainDepositContract":{"abi":[{"inputs":[{"internalType":"address","name":"_depositManager","type":"address"},{"internalType":"address","name":"_priceOracle","type":"address"}],"stateMutability":"nonpayable","type":"constructor"},{"anonymous":false,"inputs":[{"indexed":true,"internalType":"address","name":"token","type":"address"},{"indexed":false,"internalType":"uint256","name":"amount","type":"uint256"},{"indexed":false,"internalType":"uint256","name":"btcEquivalent","type":"uint256"}],"name":"BtcEquivalentCalculated","type":"event"},{"anonymous":false,"inputs":[{"indexed":true,"internalType":"uint256","name":"depositId","type":"uint256"},{"indexed":false,"internalType":"uint256","name":"oracleCosts","type":"uint256"},{"indexed":false,"internalType":"uint256","name":"contractCosts","type":"uint256"},{"indexed":false,"internalType":"uint256","name":"networkFees","type":"uint256"},{"indexed":false,"internalType":"uint256","name":"totalCosts","type":"uint256"}],"name":"CostsCalculated","type":"event"},{"anonymous":false,"inputs":[{"indexed":true,"internalType":"uint256","name":"depositId","type":"uint256"},{"indexed":true,"internalType":"address","name":"user","type":"address"},{"indexed":true,"internalType":"address","name":"token","type":"address"},{"indexed":false,"internalType":"uint256","name":"amount","type":"uint256"},{"indexed":false,"internalType":"uint256","name":"btcEquivalent","type":"uint256"},{"indexed":false,"internalType":"uint256","name":"costs","type":"uint256"},{"indexed":false,"internalType":"uint256","name":"netBtcEquivalent","type":"uint256"}],"name":"DepositCreated","type":"event"},{"anonymous":false,"inputs":[{"indexed":true,"internalType":"uint256","name":"depositId","type":"uint256"},{"indexed":false,"internalType":"uint256","name":"activationId","type":"uint256"},{"indexed":false,"internalType":"string","name":"intentData","type":"string"}],"name":"IntentCreated","type":"event"},{"anonymous":false,"inputs":[{"indexed":true,"internalType":"address","name":"previousOwner","type":"address"},{"indexed":true,"internalType":"address","name":"newOwner","type":"address"}],"name":"OwnershipTransferred","type":"event"},{"inputs":[{"internalType":"address","name":"token","type":"address"},{"internalType":"uint256","name":"decimals","type":"uint256"}],"name":"addSupportedToken","outputs":[],"stateMutability":"nonpayable","type":"function"},{"inputs":[{"internalType":"address","name":"token","type":"address"},{"internalType":"uint256","name":"amount","type":"uint256"}],"name":"calculateBtcEquivalent","outputs":[{"internalType":"uint256","name":"","type":"uint256"}],"stateMutability":"nonpayable","type":"function"},{"inputs":[{"internalType":"uint256","name":"btcAmount","type":"uint256"}],"name":"calculateCosts","outputs":[{"internalType":"uint256","name":"","type":"uint256"}],"stateMutability":"view","type":"function"},{"inputs":[{"internalType":"uint256","name":"depositId","type":"uint256"}],"name":"createIntent","outputs":[{"internalType":"uint256","name":"","type":"uint256"}],"stateMutability":"nonpayable","type":"function"},{"inputs":[{"internalType":"address","name":"token","type":"address"},{"internalType":"uint256","name":"amount","type":"uint256"}],"name":"deposit","outputs":[{"internalType":"uint256","name":"","type":"uint256"}],"stateMutability":"nonpayable","type":"function"},{"inputs":[],"name":"depositManager","outputs":[{"internalType":"contract DepositManager","name":"","type":"address"}],"stateMutability":"view","type":"function"},{"inputs":[{"internalType":"uint256","name":"","type":"uint256"}],"name":"deposits","outputs":[{"internalType":"uint256","name":"id","type":"uint256"},{"internalType":"address","name":"user","type":"address"},{"internalType":"address","name":"token","type":"address"},{"internalType":"uint256","name":"amount","type":"uint256"},{"internalType":"uint256","name":"btcEquivalent","type":"uint256"},{"internalType":"uint256","name":"costs","type":"uint256"},{"internalType":"uint256","name":"netBtcEquivalent","type":"uint256"},{"internalType":"uint256","name":"timestamp","type":"uint256"},{"internalType":"bool","name":"processed","type":"bool"}],"stateMutability":"view","type":"function"},{"inputs":[{"internalType":"address","name":"token","type":"address"},{"internalType":"uint256","name":"amount","type":"uint256"}],"name":"emergencyWithdraw","outputs":[],"stateMutability":"nonpayable","type":"function"},{"inputs":[{"internalType":"uint256","name":"depositId","type":"uint256"}],"name":"getDeposit","outputs":[{"components":[{"internalType":"uint256","name":"id","type":"uint256"},{"internalType":"address","name":"user","type":"address"},{"internalType":"address","name":"token","type":"address"},{"internalType":"uint256","name":"amount","type":"uint256"},{"internalType":"uint256","name":"btcEquivalent","type":"uint256"},{"internalType":"uint256","name":"costs","type":"uint256"},{"internalType":"uint256","name":"netBtcEquivalent","type":"uint256"},{"internalType":"uint256","name":"timestamp","type":"uint256"},{"internalType":"bool","name":"processed","type":"bool"}],"internalType":"struct ChainDepositContract.Deposit","name":"","type":"tuple"}],"stateMutability":"view","type":"function"},{"inputs":[],"name":"getStats","outputs":[{"internalType":"uint256","name":"totalDepositsCount","type":"uint256"},{"internalType":"uint256","name":"totalBtcEquivalentAmount","type":"uint256"},{"internalType":"uint256","name":"totalCostsAmount","type":"uint256"},{"internalType":"uint256","name":"totalNetBtcEquivalentAmount","type":"uint256"},{"internalType":"uint256","name":"nextDepositIdValue","type":"uint256"}],"stateMutability":"view","type":"function"},{"inputs":[{"internalType":"address","name":"user","type":"address"}],"name":"getUserDeposits","outputs":[{"internalType":"uint256[]","name":"","type":"uint256[]"}],"stateMutability":"view","type":"function"},{"inputs":[],"name":"nextDepositId","outputs":[{"internalType":"uint256","name":"","type":"uint256"}],"stateMutability":"view","type":"function"},{"inputs":[],"name":"owner","outputs":[{"internalType":"address","name":"","type":"address"}],"stateMutability":"view","type":"function"},{"inputs":[],"name":"priceOracle","outputs":[{"internalType":"contract PriceOracle","name":"","type":"address"}],"stateMutability":"view","type":"function"},{"inputs":[{"internalType":"address","name":"token","type":"address"}],"name":"removeSupportedToken","outputs":[],"stateMutability":"nonpayable","type":"function"},{"inputs":[],"name":"renounceOwnership","outputs":[],"stateMutability":"nonpayable","type":"function"},{"inputs":[{"internalType":"address","name":"","type":"address"}],"name":"supportedTokens","outputs":[{"internalType":"bool","name":"","type":"bool"}],"stateMutability":"view","type":"function"},{"inputs":[{"internalType":"address","name":"","type":"address"}],"name":"tokenDecimals","outputs":[{"internalType":"uint256","name":"","type":"uint256"}],"stateMutability":"view","type":"function"},{"inputs":[],"name":"totalBtcEquivalent","outputs":[{"internalType":"uint256","name":"","type":"uint256"}],"stateMutability":"view","type":"function"},{"inputs":[],"name":"totalCosts","outputs":[{"internalType":"uint256","name":"","type":"uint256"}],"stateMutability":"view","type":"function"},{"inputs":[],"name":"totalDeposits","outputs":[{"internalType":"uint256","name":"","type":"uint256"}],"stateMutability":"view","type":"function"},{"inputs":[],"name":"totalNetBtcEquivalent","outputs":[{"internalType":"uint256","name":"","type":"uint256"}],"stateMutability":"view","type":"function"},{"inputs":[{"internalType":"address","name":"newOwner","type":"address"}],"name":"transferOwnership","outputs":[],"stateMutability":"nonpayable","type":"function"},{"inputs":[{"internalType":"address","name":"","type":"address"},{"internalType":"uint256","name":"","type":"uint256"}],"name":"userDeposits","outputs":[{"internalType":"uint256","name":"","type":"uint256"}],"stateMutability":"view","type":"function"}],"evm":{"bytecode":{"linkReferences":{},"object":"60c060405260016006556000600755600060085560006009556000600a553480156200002a57600080fd5b506040516200180c3803806200180c8339810160408190526200004d91620000e4565b60016000556200005d3362000075565b6001600160a01b039182166080521660a0526200011c565b600180546001600160a01b038381166001600160a01b0319831681179093556040519116919082907f8be0079c531659141344cd1fd0a4f28419497f9722a3daafe3b4186f6b6457e090600090a35050565b80516001600160a01b0381168114620000df57600080fd5b919050565b60008060408385031215620000f857600080fd5b6200010383620000c7565b91506200011360208401620000c7565b90509250929050565b60805160a0516116bc62000150600039600081816101880152610da20152600081816102420152610bee01526116bc6000f3fe608060405234801561001057600080fd5b50600436106101585760003560e01c80638da5cb5b116100c3578063bee5e5d21161007c578063bee5e5d2146103cc578063c59d4847146103d5578063ca56a8211461040c578063f2fde38b1461041f578063fb8c452814610432578063ff6f4a7a1461044557600080fd5b80638da5cb5b146102a45780638ee573ac146102b557806395ccea67146102d55780639f9fb968146102e8578063b02c43d014610308578063b8bc0ed4146103c357600080fd5b80636c7ac9d8116101155780636c7ac9d81461023d578063715018a614610264578063763191901461026c5780637d8820971461027f5780637ec1d421146102885780638070a4bd1461029b57600080fd5b806308f433331461015d5780632630c12f146101835780632a5bf6d2146101c257806347e7ef24146101e25780634d8e3d3b146101f557806368c4ac261461020a575b600080fd5b61017061016b366004611170565b61044e565b6040519081526020015b60405180910390f35b6101aa7f000000000000000000000000000000000000000000000000000000000000000081565b6040516001600160a01b03909116815260200161017a565b6101d56101d036600461119a565b61047f565b60405161017a91906111bc565b6101706101f0366004611170565b6104eb565b610208610203366004611170565b610873565b005b61022d61021836600461119a565b60026020526000908152604090205460ff1681565b604051901515815260200161017a565b6101aa7f000000000000000000000000000000000000000000000000000000000000000081565b6102086108ac565b61020861027a36600461119a565b6108c0565b61017060075481565b610170610296366004611200565b6108f4565b61017060065481565b6001546001600160a01b03166101aa565b6101706102c336600461119a565b60036020526000908152604090205481565b6102086102e3366004611170565b610964565b6102fb6102f6366004611200565b610a03565b60405161017a9190611219565b610371610316366004611200565b600460208190526000918252604090912080546001820154600283015460038401549484015460058501546006860154600787015460089097015495976001600160a01b039586169794909516959293919290919060ff1689565b60408051998a526001600160a01b0398891660208b015296909716958801959095526060870193909352608086019190915260a085015260c084015260e083015215156101008201526101200161017a565b61017060095481565b610170600a5481565b600754600854600954600a54600654604080519586526020860194909452928401919091526060830152608082015260a00161017a565b61017061041a366004611200565b610af1565b61020861042d36600461119a565b610d24565b610170610440366004611170565b610d9d565b61017060085481565b6005602052816000526040600020818154811061046a57600080fd5b90600052602060002001600091509150505481565b6001600160a01b0381166000908152600560209081526040918290208054835181840281018401909452808452606093928301828280156104df57602002820191906000526020600020905b8154815260200190600101908083116104cb575b50505050509050919050565b60006104f5610eba565b6001600160a01b03831660009081526002602052604090205460ff166105585760405162461bcd60e51b8152602060048201526013602482015272151bdad95b881b9bdd081cdd5c1c1bdc9d1959606a1b60448201526064015b60405180910390fd5b600082116105a85760405162461bcd60e51b815260206004820152601760248201527f416d6f756e74206d75737420626520706f736974697665000000000000000000604482015260640161054f565b6040516323b872dd60e01b8152336004820152306024820152604481018390526001600160a01b038416906323b872dd906064016020604051808303816000875af11580156105fb573d6000803e3d6000fd5b505050506040513d601f19601f8201168201806040525081019061061f9190611296565b50600061062c8484610d9d565b90506000610639826108f4565b9050600081831161064b576000610655565b61065582846112ce565b9050600081116106a75760405162461bcd60e51b815260206004820152601c60248201527f496e73756666696369656e742042544320616674657220636f73747300000000604482015260640161054f565b60068054600091826106b8836112e1565b9091555060408051610120810182528281523360208083018281526001600160a01b038d8116858701908152606086018e8152608087018d815260a088018d815260c089018d81524260e08b0190815260006101008c018181528e82526004808c528e83209d518e55995160018e81018054928c166001600160a01b0319938416179055985160028f01805491909b16911617909855945160038c01559251968a0196909655516005808a0191909155945160068901555160078089019190915592516008909701805497151560ff19989098169790971790965593855290825293832080549283018155835282200183905581549293506107b9836112e1565b919050555083600860008282546107d091906112fa565b9250508190555082600960008282546107e991906112fa565b9250508190555081600a600082825461080291906112fa565b90915550506040805187815260208101869052908101849052606081018390526001600160a01b03881690339083907f45abae59bf04f3f741265bfaf6b4752f95a0e485e3776ece4918f6b40aaed32b9060800160405180910390a4935050505061086d6001600055565b92915050565b61087b610f13565b6001600160a01b039091166000908152600260209081526040808320805460ff191660011790556003909152902055565b6108b4610f13565b6108be6000610f6d565b565b6108c8610f13565b6001600160a01b03166000908152600260209081526040808320805460ff191690556003909152812055565b60006103e86107d082606461090a86600361130d565b610914919061133a565b90506000606461092587600361130d565b61092f919061134e565b1115610943576109406001826112fa565b90505b60008161095084866112fa565b61095a91906112fa565b9695505050505050565b61096c610f13565b816001600160a01b031663a9059cbb61098d6001546001600160a01b031690565b6040516001600160e01b031960e084901b1681526001600160a01b039091166004820152602481018490526044016020604051808303816000875af11580156109da573d6000803e3d6000fd5b505050506040513d601f19601f820116820180604052508101906109fe9190611296565b505050565b610a666040518061012001604052806000815260200160006001600160a01b0316815260200160006001600160a01b0316815260200160008152602001600081526020016000815260200160008152602001600081526020016000151581525090565b506000908152600460208181526040928390208351610120810185528154815260018201546001600160a01b039081169382019390935260028201549092169382019390935260038301546060820152908201546080820152600582015460a0820152600682015460c0820152600782015460e082015260089091015460ff16151561010082015290565b60006006548210610b395760405162461bcd60e51b8152602060048201526012602482015271125b9d985b1a590819195c1bdcda5d08125160721b604482015260640161054f565b60008281526004602052604090206008015460ff1615610b8f5760405162461bcd60e51b8152602060048201526011602482015270105b1c9958591e481c1c9bd8d95cdcd959607a1b604482015260640161054f565b600082815260046020819052604080832060088101805460ff1916600190811790915581015460038201546006830154935163df6ac84760e01b81526001600160a01b03928316958101959095526024850152604484019290925292917f00000000000000000000000000000000000000000000000000000000000000009091169063df6ac847906064016020604051808303816000875af1158015610c39573d6000803e3d6000fd5b505050506040513d601f19601f82011682018060405250810190610c5d9190611362565b60408051610120810182528454815260018501546001600160a01b039081166020830152600286015416918101919091526003840154606082015260048401546080820152600584015460a0820152600684015460c0820152600784015460e0820152600884015460ff161515610100820152909150600090610ce09083610fbf565b9050847f4ba4b720167a4219371ec9aa5bc12a0d7429bbee941422e03a1edadc76b50ebd8383604051610d1492919061139f565b60405180910390a2509392505050565b610d2c610f13565b6001600160a01b038116610d915760405162461bcd60e51b815260206004820152602660248201527f4f776e61626c653a206e6577206f776e657220697320746865207a65726f206160448201526564647265737360d01b606482015260840161054f565b610d9a81610f6d565b50565b6000807f00000000000000000000000000000000000000000000000000000000000000006001600160a01b0316633a3610bc6040518163ffffffff1660e01b8152600401602060405180830381865afa158015610dfe573d6000803e3d6000fd5b505050506040513d601f19601f82011682018060405250810190610e229190611362565b6001600160a01b038516600090815260036020526040812054919250819003610e49575060125b6000610e5682600a6114bd565b610e60848761130d565b610e6a919061133a565b60408051878152602081018390529192506001600160a01b038816917f5f7a9cc87cfc2edd3896984872540c526fb600059d1883f5dd59221d968db52a910160405180910390a295945050505050565b600260005403610f0c5760405162461bcd60e51b815260206004820152601f60248201527f5265656e7472616e637947756172643a207265656e7472616e742063616c6c00604482015260640161054f565b6002600055565b6001546001600160a01b031633146108be5760405162461bcd60e51b815260206004820181905260248201527f4f776e61626c653a2063616c6c6572206973206e6f7420746865206f776e6572604482015260640161054f565b600180546001600160a01b038381166001600160a01b0319831681179093556040519116919082907f8be0079c531659141344cd1fd0a4f28419497f9722a3daafe3b4186f6b6457e090600090a35050565b6060610fce8360000151611037565b610fd783611037565b610fe48560200151611140565b610ff18660400151611140565b610ffe8760600151611037565b61100b8860800151611037565b604051602001611020969594939291906114e5565b604051602081830303815290604052905092915050565b60608160000361105e5750506040805180820190915260018152600360fc1b602082015290565b8160005b81156110885780611072816112e1565b91506110819050600a8361133a565b9150611062565b60008167ffffffffffffffff8111156110a3576110a361165a565b6040519080825280601f01601f1916602001820160405280156110cd576020820181803683370190505b5090505b8415611138576110e26001836112ce565b91506110ef600a8661134e565b6110fa9060306112fa565b60f81b81838151811061110f5761110f611670565b60200101906001600160f81b031916908160001a905350611131600a8661133a565b94506110d1565b949350505050565b606061086d826001600160a01b0316611037565b80356001600160a01b038116811461116b57600080fd5b919050565b6000806040838503121561118357600080fd5b61118c83611154565b946020939093013593505050565b6000602082840312156111ac57600080fd5b6111b582611154565b9392505050565b6020808252825182820181905260009190848201906040850190845b818110156111f4578351835292840192918401916001016111d8565b50909695505050505050565b60006020828403121561121257600080fd5b5035919050565b60006101208201905082518252602083015160018060a01b0380821660208501528060408601511660408501525050606083015160608301526080830151608083015260a083015160a083015260c083015160c083015260e083015160e08301526101008084015161128e8285018215159052565b505092915050565b6000602082840312156112a857600080fd5b815180151581146111b557600080fd5b634e487b7160e01b600052601160045260246000fd5b8181038181111561086d5761086d6112b8565b6000600182016112f3576112f36112b8565b5060010190565b8082018082111561086d5761086d6112b8565b808202811582820484141761086d5761086d6112b8565b634e487b7160e01b600052601260045260246000fd5b60008261134957611349611324565b500490565b60008261135d5761135d611324565b500690565b60006020828403121561137457600080fd5b5051919050565b60005b8381101561139657818101518382015260200161137e565b50506000910152565b82815260406020820152600082518060408401526113c481606085016020870161137b565b601f01601f1916919091016060019392505050565b600181815b808511156114145781600019048211156113fa576113fa6112b8565b8085161561140757918102915b93841c93908002906113de565b509250929050565b60008261142b5750600161086d565b816114385750600061086d565b816001811461144e576002811461145857611474565b600191505061086d565b60ff841115611469576114696112b8565b50506001821b61086d565b5060208310610133831016604e8410600b8410161715611497575081810a61086d565b6114a183836113d9565b80600019048211156114b5576114b56112b8565b029392505050565b60006111b5838361141c565b600081516114db81856020860161137b565b9290920192915050565b7f7b2274797065223a226272696467655f65786563757465222c0000000000000081526b113232b837b9b4ba24b2111d60a11b60198201528651600090611533816025850160208c0161137b565b600b60fa1b60259184019182018190526e1130b1ba34bb30ba34b7b724b2111d60891b6026830152885161156e816035850160208d0161137b565b603592019182015267113ab9b2b9111d1160c11b6036820152865161159a81603e840160208b0161137b565b61164c61163f61163961161d61161061160a6115f56115e76115e16115cc603e8b8d010161088b60f21b815260020190565b68113a37b5b2b7111d1160b91b815260090190565b8f6114c9565b61088b60f21b815260020190565b681130b6b7bab73a111d60b91b815260090190565b8b6114c9565b600b60fa1b815260010190565b6f11313a31a2b8bab4bb30b632b73a111d60811b815260100190565b876114c9565b607d60f81b815260010190565b9a9950505050505050505050565b634e487b7160e01b600052604160045260246000fd5b634e487b7160e01b600052603260045260246000fdfea2646970667358221220ba5d6a63df45fc71abae49c649a1e0483c9aa53d5dc4bbd549d4bf96d35c999f64736f6c63430008130033","opcodes":"PUSH1 0xC0 PUSH1 0x40 MSTORE PUSH1 0x1 PUSH1 0x6 SSTORE PUSH1 0x0 PUSH1 0x7 SSTORE PUSH1 0x0 PUSH1 0x8 SSTORE PUSH1 0x0 PUSH1 0x9 SSTORE PUSH1 0x0 PUSH1 0xA SSTORE CALLVALUE DUP1 ISZERO PUSH3 0x2A JUMPI PUSH1 0x0 DUP1 REVERT JUMPDEST POP PUSH1 0x40 MLOAD PUSH3 0x180C CODESIZE SUB DUP1 PUSH3 0x180C DUP4 CODECOPY DUP2 ADD PUSH1 0x40 DUP2 SWAP1 MSTORE PUSH3 0x4D SWAP2 PUSH3 0xE4 JUMP JUMPDEST PUSH1 0x1 PUSH1 0x0 SSTORE PUSH3 0x5D CALLER PUSH3 0x75 JUMP JUMPDEST PUSH1 0x1 PUSH1 0x1 PUSH1 0xA0 SHL SUB SWAP2 DUP3 AND PUSH1 0x80 MSTORE AND PUSH1 0xA0 MSTORE PUSH3 0x11C JUMP JUMPDEST PUSH1 0x1 DUP1 SLOAD PUSH1 0x1 PUSH1 0x1 PUSH1 0xA0 SHL SUB DUP4 DUP2 AND PUSH1 0x1 PUSH1 0x1 PUSH1 0xA0 SHL SUB NOT DUP4 AND DUP2 OR SWAP1 SWAP4 SSTORE PUSH1 0x40 MLOAD SWAP2 AND SWAP2 SWAP1 DUP3 SWAP1 PUSH32 0x8BE0079C531659141344CD1FD0A4F28419497F9722A3DAAFE3B4186F6B6457E0 SWAP1 PUSH1 0x0 SWAP1 LOG3 POP POP JUMP JUMPDEST DUP1 MLOAD PUSH1 0x1 PUSH1 0x1 PUSH1 0xA0 SHL SUB DUP2 AND DUP2 EQ PUSH3 0xDF JUMPI PUSH1 0x0 DUP1 REVERT JUMPDEST SWAP2 SWAP1 POP JUMP JUMPDEST PUSH1 0x0 DUP1 PUSH1 0x40 DUP4 DUP6 SUB SLT ISZERO PUSH3 0xF8 JUMPI PUSH1 0x0 DUP1 REVERT JUMPDEST PUSH3 0x103 DUP4 PUSH3 0xC7 JUMP JUMPDEST SWAP2 POP PUSH3 0x113 PUSH1 0x20 DUP5 ADD PUSH3 0xC7 JUMP JUMPDEST SWAP1 POP SWAP3 POP SWAP3 SWAP1 POP JUMP JUMPDEST PUSH1 0x80 MLOAD PUSH1 0xA0 MLOAD PUSH2 0x16BC PUSH3 0x150 PUSH1 0x0 CODECOPY PUSH1 0x0 DUP2 DUP2 PUSH2 0x188 ADD MSTORE PUSH2 0xDA2 ADD MSTORE PUSH1 0x0 DUP2 DUP2 PUSH2 0x242 ADD MSTORE PUSH2 0xBEE ADD MSTORE PUSH2 0x16BC PUSH1 0x0 RETURN INVALID PUSH1 0x80 PUSH1 0x40 MSTORE CALLVALUE DUP1 ISZERO PUSH2 0x10 JUMPI PUSH1 0x0 DUP1 REVERT JUMPDEST POP PUSH1 0x4 CALLDATASIZE LT PUSH2 0x158 JUMPI PUSH1 0x0 CALLDATALOAD PUSH1 0xE0 SHR DUP1 PUSH4 0x8DA5CB5B GT PUSH2 0xC3 JUMPI DUP1 PUSH4 0xBEE5E5D2 GT PUSH2 0x7C JUMPI DUP1 PUSH4 0xBEE5E5D2 EQ PUSH2 0x3CC JUMPI DUP1 PUSH4 0xC59D4847 EQ PUSH2 0x3D5 JUMPI DUP1 PUSH4 0xCA56A821 EQ PUSH2 0x40C JUMPI DUP1 PUSH4 0xF2FDE38B EQ PUSH2 0x41F JUMPI DUP1 PUSH4 0xFB8C4528 EQ PUSH2 0x432 JUMPI DUP1 PUSH4 0xFF6F4A7A EQ PUSH2 0x445 JUMPI PUSH1 0x0 DUP1 REVERT JUMPDEST DUP1 PUSH4 0x8DA5CB5B EQ PUSH2 0x2A4 JUMPI DUP1 PUSH4 0x8EE573AC EQ PUSH2 0x2B5 JUMPI DUP1 PUSH4 0x95CCEA67 EQ PUSH2 0x2D5 JUMPI DUP1 PUSH4 0x9F9FB968 EQ PUSH2 0x2E8 JUMPI DUP1 PUSH4 0xB02C43D0 EQ PUSH2 0x308 JUMPI DUP1 PUSH4 0xB8BC0ED4 EQ PUSH2 0x3C3 JUMPI PUSH1 0x0 DUP1 REVERT JUMPDEST DUP1 PUSH4 0x6C7AC9D8 GT PUSH2 0x115 JUMPI DUP1 PUSH4 0x6C7AC9D8 EQ PUSH2 0x23D JUMPI DUP1 PUSH4 0x715018A6 EQ PUSH2 0x264 JUMPI DUP1 PUSH4 0x76319190 EQ PUSH2 0x26C JUMPI DUP1 PUSH4 0x7D882097 EQ PUSH2 0x27F JUMPI DUP1 PUSH4 0x7EC1D421 EQ PUSH2 0x288 JUMPI DUP1 PUSH4 0x8070A4BD EQ PUSH2 0x29B JUMPI PUSH1 0x0 DUP1 REVERT JUMPDEST DUP1 PUSH4 0x8F43333 EQ PUSH2 0x15D JUMPI DUP1 PUSH4 0x2630C12F EQ PUSH2 0x183 JUMPI DUP1 PUSH4 0x2A5BF6D2 EQ PUSH2 0x1C2 JUMPI DUP1 PUSH4 0x47E7EF24 EQ PUSH2 0x1E2 JUMPI DUP1 PUSH4 0x4D8E3D3B EQ PUSH2 0x1F5 JUMPI DUP1 PUSH4 0x68C4AC26 EQ PUSH2 0x20A JUMPI JUMPDEST PUSH1 0x0 DUP1 REVERT JUMPDEST PUSH2 0x170 PUSH2 0x16B CALLDATASIZE PUSH1 0x4 PUSH2 0x1170 JUMP JUMPDEST PUSH2 0x44E JUMP JUMPDEST PUSH1 0x40 MLOAD SWAP1 DUP2 MSTORE PUSH1 0x20 ADD JUMPDEST PUSH1 0x40 MLOAD DUP1 SWAP2 SUB SWAP1 RETURN JUMPDEST PUSH2 0x1AA PUSH32 0x0 DUP2 JUMP JUMPDEST PUSH1 0x40 MLOAD PUSH1 0x1 PUSH1 0x1 PUSH1 0xA0 SHL SUB SWAP1 SWAP2 AND DUP2 MSTORE PUSH1 0x20 ADD PUSH2 0x17A JUMP JUMPDEST PUSH2 0x1D5 PUSH2 0x1D0 CALLDATASIZE PUSH1 0x4 PUSH2 0x119A JUMP JUMPDEST PUSH2 0x47F JUMP JUMPDEST PUSH1 0x40 MLOAD PUSH2 0x17A SWAP2 SWAP1 PUSH2 0x11BC JUMP JUMPDEST PUSH2 0x170 PUSH2 0x1F0 CALLDATASIZE PUSH1 0x4 PUSH2 0x1170 JUMP JUMPDEST PUSH2 0x4EB JUMP JUMPDEST PUSH2 0x208 PUSH2 0x203 CALLDATASIZE PUSH1 0x4 PUSH2 0x1170 JUMP JUMPDEST PUSH2 0x873 JUMP JUMPDEST STOP JUMPDEST PUSH2 0x22D PUSH2 0x218 CALLDATASIZE PUSH1 0x4 PUSH2 0x119A JUMP JUMPDEST PUSH1 0x2 PUSH1 0x20 MSTORE PUSH1 0x0 SWAP1 DUP2 MSTORE PUSH1 0x40 SWAP1 KECCAK256 SLOAD PUSH1 0xFF AND DUP2 JUMP JUMPDEST PUSH1 0x40 MLOAD SWAP1 ISZERO ISZERO DUP2 MSTORE PUSH1 0x20 ADD PUSH2 0x17A JUMP JUMPDEST PUSH2 0x1AA PUSH32 0x0 DUP2 JUMP JUMPDEST PUSH2 0x208 PUSH2 0x8AC JUMP JUMPDEST PUSH2 0x208 PUSH2 0x27A CALLDATASIZE PUSH1 0x4 PUSH2 0x119A JUMP JUMPDEST PUSH2 0x8C0 JUMP JUMPDEST PUSH2 0x170 PUSH1 0x7 SLOAD DUP2 JUMP JUMPDEST PUSH2 0x170 PUSH2 0x296 CALLDATASIZE PUSH1 0x4 PUSH2 0x1200 JUMP JUMPDEST PUSH2 0x8F4 JUMP JUMPDEST PUSH2 0x170 PUSH1 0x6 SLOAD DUP2 JUMP JUMPDEST PUSH1 0x1 SLOAD PUSH1 0x1 PUSH1 0x1 PUSH1 0xA0 SHL SUB AND PUSH2 0x1AA JUMP JUMPDEST PUSH2 0x170 PUSH2 0x2C3 CALLDATASIZE PUSH1 0x4 PUSH2 0x119A JUMP JUMPDEST PUSH1 0x3 PUSH1 0x20 MSTORE PUSH1 0x0 SWAP1 DUP2 MSTORE PUSH1 0x40 SWAP1 KECCAK256 SLOAD DUP2 JUMP JUMPDEST PUSH2 0x208 PUSH2 0x2E3 CALLDATASIZE PUSH1 0x4 PUSH2 0x1170 JUMP JUMPDEST PUSH2 0x964 JUMP JUMPDEST PUSH2 0x2FB PUSH2 0x2F6 CALLDATASIZE PUSH1 0x4 PUSH2 0x1200 JUMP JUMPDEST PUSH2 0xA03 JUMP JUMPDEST PUSH1 0x40 MLOAD PUSH2 0x17A SWAP2 SWAP1 PUSH2 0x1219 JUMP JUMPDEST PUSH2 0x371 PUSH2 0x316 CALLDATASIZE PUSH1 0x4 PUSH2 0x1200 JUMP JUMPDEST PUSH1 0x4 PUSH1 0x20 DUP2 SWAP1 MSTORE PUSH1 0x0 SWAP2 DUP3 MSTORE PUSH1 0x40 SWAP1 SWAP2 KECCAK256 DUP1 SLOAD PUSH1 0x1 DUP3 ADD SLOAD PUSH1 0x2 DUP4 ADD SLOAD PUSH1 0x3 DUP5 ADD SLOAD SWAP5 DUP5 ADD SLOAD PUSH1 0x5 DUP6 ADD SLOAD PUSH1 0x6 DUP7 ADD SLOAD PUSH1 0x7 DUP8 ADD SLOAD PUSH1 0x8 SWAP1 SWAP8 ADD SLOAD SWAP6 SWAP8 PUSH1 0x1 PUSH1 0x1 PUSH1 0xA0 SHL SUB SWAP6 DUP7 AND SWAP8 SWAP5 SWAP1 SWAP6 AND SWAP6 SWAP3 SWAP4 SWAP2 SWAP3 SWAP1 SWAP2 SWAP1 PUSH1 0xFF AND DUP10 JUMP JUMPDEST PUSH1 0x40 DUP1 MLOAD SWAP10 DUP11 MSTORE PUSH1 0x1 PUSH1 0x1 PUSH1 0xA0 SHL SUB SWAP9 DUP10 AND PUSH1 0x20 DUP12 ADD MSTORE SWAP7 SWAP1 SWAP8 AND SWAP6 DUP9 ADD SWAP6 SWAP1 SWAP6 MSTORE PUSH1 0x60 DUP8 ADD SWAP4 SWAP1 SWAP4 MSTORE PUSH1 0x80 DUP7 ADD SWAP2 SWAP1 SWAP2 MSTORE PUSH1 0xA0 DUP6 ADD MSTORE PUSH1 0xC0 DUP5 ADD MSTORE PUSH1 0xE0 DUP4 ADD MSTORE ISZERO ISZERO PUSH2 0x100 DUP3 ADD MSTORE PUSH2 0x120 ADD PUSH2 0x17A JUMP JUMPDEST PUSH2 0x170 PUSH1 0x9 SLOAD DUP2 JUMP JUMPDEST PUSH2 0x170 PUSH1 0xA SLOAD DUP2 JUMP JUMPDEST PUSH1 0x7 SLOAD PUSH1 0x8 SLOAD PUSH1 0x9 SLOAD PUSH1 0xA SLOAD PUSH1 0x6 SLOAD PUSH1 0x40 DUP1 MLOAD SWAP6 DUP7 MSTORE PUSH1 0x20 DUP7 ADD SWAP5 SWAP1 SWAP5 MSTORE SWAP3 DUP5 ADD SWAP2 SWAP1 SWAP2 MSTORE PUSH1 0x60 DUP4 ADD MSTORE PUSH1 0x80 DUP3 ADD MSTORE PUSH1 0xA0 ADD PUSH2 0x17A JUMP JUMPDEST PUSH2 0x170 PUSH2 0x41A CALLDATASIZE PUSH1 0x4 PUSH2 0x1200 JUMP JUMPDEST PUSH2 0xAF1 JUMP JUMPDEST PUSH2 0x208 PUSH2 0x42D CALLDATASIZE PUSH1 0x4 PUSH2 0x119A JUMP JUMPDEST PUSH2 0xD24 JUMP JUMPDEST PUSH2 0x170 PUSH2 0x440 CALLDATASIZE PUSH1 0x4 PUSH2 0x1170 JUMP JUMPDEST PUSH2 0xD9D JUMP JUMPDEST PUSH2 0x170 PUSH1 0x8 SLOAD DUP2 JUMP JUMPDEST PUSH1 0x5 PUSH1 0x20 MSTORE DUP2 PUSH1 0x0 MSTORE PUSH1 0x40 PUSH1 0x0 KECCAK256 DUP2 DUP2 SLOAD DUP2 LT PUSH2 0x46A JUMPI PUSH1 0x0 DUP1 REVERT JUMPDEST SWAP1 PUSH1 0x0 MSTORE PUSH1 0x20 PUSH1 0x0 KECCAK256 ADD PUSH1 0x0 SWAP2 POP SWAP2 POP POP SLOAD DUP2 JUMP JUMPDEST PUSH1 0x1 PUSH1 0x1 PUSH1 0xA0 SHL SUB DUP2 AND PUSH1 0x0 SWAP1 DUP2 MSTORE PUSH1 0x5 PUSH1 0x20 SWAP1 DUP2 MSTORE PUSH1 0x40 SWAP2 DUP3 SWAP1 KECCAK256 DUP1 SLOAD DUP4 MLOAD DUP2 DUP5 MUL DUP2 ADD DUP5 ADD SWAP1 SWAP5 MSTORE DUP1 DUP5 MSTORE PUSH1 0x60 SWAP4 SWAP3 DUP4 ADD DUP3 DUP3 DUP1 ISZERO PUSH2 0x4DF JUMPI PUSH1 0x20 MUL DUP3 ADD SWAP2 SWAP1 PUSH1 0x0 MSTORE PUSH1 0x20 PUSH1 0x0 KECCAK256 SWAP1 JUMPDEST DUP2 SLOAD DUP2 MSTORE PUSH1 0x20 ADD SWAP1 PUSH1 0x1 ADD SWAP1 DUP1 DUP4 GT PUSH2 0x4CB JUMPI JUMPDEST POP POP POP POP POP SWAP1 POP SWAP2 SWAP1 POP JUMP JUMPDEST PUSH1 0x0 PUSH2 0x4F5 PUSH2 0xEBA JUMP JUMPDEST PUSH1 0x1 PUSH1 0x1 PUSH1 0xA0 SHL SUB DUP4 AND PUSH1 0x0 SWAP1 DUP2 MSTORE PUSH1 0x2 PUSH1 0x20 MSTORE PUSH1 0x40 SWAP1 KECCAK256 SLOAD PUSH1 0xFF AND PUSH2 0x558 JUMPI PUSH1 0x40 MLOAD PUSH3 0x461BCD PUSH1 0xE5 SHL DUP2 MSTORE PUSH1 0x20 PUSH1 0x4 DUP3 ADD MSTORE PUSH1 0x13 PUSH1 0x24 DUP3 ADD MSTORE PUSH19 0x151BDAD95B881B9BDD081CDD5C1C1BDC9D1959 PUSH1 0x6A SHL PUSH1 0x44 DUP3 ADD MSTORE PUSH1 0x64 ADD JUMPDEST PUSH1 0x40 MLOAD DUP1 SWAP2 SUB SWAP1 REVERT JUMPDEST PUSH1 0x0 DUP3 GT PUSH2 0x5A8 JUMPI PUSH1 0x40 MLOAD PUSH3 0x461BCD PUSH1 0xE5 SHL DUP2 MSTORE PUSH1 0x20 PUSH1 0x4 DUP3 ADD MSTORE PUSH1 0x17 PUSH1 0x24 DUP3 ADD MSTORE PUSH32 0x416D6F756E74206D75737420626520706F736974697665000000000000000000 PUSH1 0x44 DUP3 ADD MSTORE PUSH1 0x64 ADD PUSH2 0x54F JUMP JUMPDEST PUSH1 0x40 MLOAD PUSH4 0x23B872DD PUSH1 0xE0 SHL DUP2 MSTORE CALLER PUSH1 0x4 DUP3 ADD MSTORE ADDRESS PUSH1 0x24 DUP3 ADD MSTORE PUSH1 0x44 DUP2 ADD DUP4 SWAP1 MSTORE PUSH1 0x1 PUSH1 0x1 PUSH1 0xA0 SHL SUB DUP5 AND SWAP1 PUSH4 0x23B872DD SWAP1 PUSH1 0x64 ADD PUSH1 0x20 PUSH1 0x40 MLOAD DUP1 DUP4 SUB DUP2 PUSH1 0x0 DUP8 GAS CALL ISZERO DUP1 ISZERO PUSH2 0x5FB JUMPI RETURNDATASIZE PUSH1 0x0 DUP1 RETURNDATACOPY RETURNDATASIZE PUSH1 0x0 REVERT JUMPDEST POP POP POP POP PUSH1 0x40 MLOAD RETURNDATASIZE PUSH1 0x1F NOT PUSH1 0x1F DUP3 ADD AND DUP3 ADD DUP1 PUSH1 0x40 MSTORE POP DUP2 ADD SWAP1 PUSH2 0x61F SWAP2 SWAP1 PUSH2 0x1296 JUMP JUMPDEST POP PUSH1 0x0 PUSH2 0x62C DUP5 DUP5 PUSH2 0xD9D JUMP JUMPDEST SWAP1 POP PUSH1 0x0 PUSH2 0x639 DUP3 PUSH2 0x8F4 JUMP JUMPDEST SWAP1 POP PUSH1 0x0 DUP2 DUP4 GT PUSH2 0x64B JUMPI PUSH1 0x0 PUSH2 0x655 JUMP JUMPDEST PUSH2 0x655 DUP3 DUP5 PUSH2 0x12CE JUMP JUMPDEST SWAP1 POP PUSH1 0x0 DUP2 GT PUSH2 0x6A7 JUMPI PUSH1 0x40 MLOAD PUSH3 0x461BCD PUSH1 0xE5 SHL DUP2 MSTORE PUSH1 0x20 PUSH1 0x4 DUP3 ADD MSTORE PUSH1 0x1C PUSH1 0x24 DUP3 ADD MSTORE PUSH32 0x496E73756666696369656E742042544320616674657220636F73747300000000 PUSH1 0x44 DUP3 ADD MSTORE PUSH1 0x64 ADD PUSH2 0x54F JUMP JUMPDEST PUSH1 0x6 DUP1 SLOAD PUSH1 0x0 SWAP2 DUP3 PUSH2 0x6B8 DUP4 PUSH2 0x12E1 JUMP JUMPDEST SWAP1 SWAP2 SSTORE POP PUSH1 0x40 DUP1 MLOAD PUSH2 0x120 DUP2 ADD DUP3 MSTORE DUP3 DUP2 MSTORE CALLER PUSH1 0x20 DUP1 DUP4 ADD DUP3 DUP2 MSTORE PUSH1 0x1 PUSH1 0x1 PUSH1 0xA0 SHL SUB DUP14 DUP2 AND DUP6 DUP8 ADD SWAP1 DUP2 MSTORE PUSH1 0x60 DUP7 ADD DUP15 DUP2 MSTORE PUSH1 0x80 DUP8 ADD DUP14 DUP2 MSTORE PUSH1 0xA0 DUP9 ADD DUP14 DUP2 MSTORE PUSH1 0xC0 DUP10 ADD DUP14 DUP2 MSTORE TIMESTAMP PUSH1 0xE0 DUP12 ADD SWAP1 DUP2 MSTORE PUSH1 0x0 PUSH2 0x100 DUP13 ADD DUP2 DUP2 MSTORE DUP15 DUP3 MSTORE PUSH1 0x4 DUP1 DUP13 MSTORE DUP15 DUP4 KECCAK256 SWAP14 MLOAD DUP15 SSTORE SWAP10 MLOAD PUSH1 0x1 DUP15 DUP2 ADD DUP1 SLOAD SWAP3 DUP13 AND PUSH1 0x1 PUSH1 0x1 PUSH1 0xA0 SHL SUB NOT SWAP4 DUP5 AND OR SWAP1 SSTORE SWAP9 MLOAD PUSH1 0x2 DUP16 ADD DUP1 SLOAD SWAP2 SWAP1 SWAP12 AND SWAP2 AND OR SWAP1 SWAP9 SSTORE SWAP5 MLOAD PUSH1 0x3 DUP13 ADD SSTORE SWAP3 MLOAD SWAP7 DUP11 ADD SWAP7 SWAP1 SWAP7 SSTORE MLOAD PUSH1 0x5 DUP1 DUP11 ADD SWAP2 SWAP1 SWAP2 SSTORE SWAP5 MLOAD PUSH1 0x6 DUP10 ADD SSTORE MLOAD PUSH1 0x7 DUP1 DUP10 ADD SWAP2 SWAP1 SWAP2 SSTORE SWAP3 MLOAD PUSH1 0x8 SWAP1 SWAP8 ADD DUP1 SLOAD SWAP8 ISZERO ISZERO PUSH1 0xFF NOT SWAP9 SWAP1 SWAP9 AND SWAP8 SWAP1 SWAP8 OR SWAP1 SWAP7 SSTORE SWAP4 DUP6 MSTORE SWAP1 DUP3 MSTORE SWAP4 DUP4 KECCAK256 DUP1 SLOAD SWAP3 DUP4 ADD DUP2 SSTORE DUP4 MSTORE DUP3 KECCAK256 ADD DUP4 SWAP1 SSTORE DUP2 SLOAD SWAP3 SWAP4 POP PUSH2 0x7B9 DUP4 PUSH2 0x12E1 JUMP JUMPDEST SWAP2 SWAP1 POP SSTORE POP DUP4 PUSH1 0x8 PUSH1 0x0 DUP3 DUP3 SLOAD PUSH2 0x7D0 SWAP2 SWAP1 PUSH2 0x12FA JUMP JUMPDEST SWAP3 POP POP DUP2 SWAP1 SSTORE POP DUP3 PUSH1 0x9 PUSH1 0x0 DUP3 DUP3 SLOAD PUSH2 0x7E9 SWAP2 SWAP1 PUSH2 0x12FA JUMP JUMPDEST SWAP3 POP POP DUP2 SWAP1 SSTORE POP DUP2 PUSH1 0xA PUSH1 0x0 DUP3 DUP3 SLOAD PUSH2 0x802 SWAP2 SWAP1 PUSH2 0x12FA JUMP JUMPDEST SWAP1 SWAP2 SSTORE POP POP PUSH1 0x40 DUP1 MLOAD DUP8 DUP2 MSTORE PUSH1 0x20 DUP2 ADD DUP7 SWAP1 MSTORE SWAP1 DUP2 ADD DUP5 SWAP1 MSTORE PUSH1 0x60 DUP2 ADD DUP4 SWAP1 MSTORE PUSH1 0x1 PUSH1 0x1 PUSH1 0xA0 SHL SUB DUP9 AND SWAP1 CALLER SWAP1 DUP4 SWAP1 PUSH32 0x45ABAE59BF04F3F741265BFAF6B4752F95A0E485E3776ECE4918F6B40AAED32B SWAP1 PUSH1 0x80 ADD PUSH1 0x40 MLOAD DUP1 SWAP2 SUB SWAP1 LOG4 SWAP4 POP POP POP POP PUSH2 0x86D PUSH1 0x1 PUSH1 0x0 SSTORE JUMP JUMPDEST SWAP3 SWAP2 POP POP JUMP JUMPDEST PUSH2 0x87B PUSH2 0xF13 JUMP JUMPDEST PUSH1 0x1 PUSH1 0x1 PUSH1 0xA0 SHL SUB SWAP1 SWAP2 AND PUSH1 0x0 SWAP1 DUP2 MSTORE PUSH1 0x2 PUSH1 0x20 SWAP1 DUP2 MSTORE PUSH1 0x40 DUP1 DUP4 KECCAK256 DUP1 SLOAD PUSH1 0xFF NOT AND PUSH1 0x1 OR SWAP1 SSTORE PUSH1 0x3 SWAP1 SWAP2 MSTORE SWAP1 KECCAK256 SSTORE JUMP JUMPDEST PUSH2 0x8B4 PUSH2 0xF13 JUMP JUMPDEST PUSH2 0x8BE PUSH1 0x0 PUSH2 0xF6D JUMP JUMPDEST JUMP JUMPDEST PUSH2 0x8C8 PUSH2 0xF13 JUMP JUMPDEST PUSH1 0x1 PUSH1 0x1 PUSH1 0xA0 SHL SUB AND PUSH1 0x0 SWAP1 DUP2 MSTORE PUSH1 0x2 PUSH1 0x20 SWAP1 DUP2 MSTORE PUSH1 0x40 DUP1 DUP4 KECCAK256 DUP1 SLOAD PUSH1 0xFF NOT AND SWAP1 SSTORE PUSH1 0x3 SWAP1 SWAP2 MSTORE DUP2 KECCAK256 SSTORE JUMP JUMPDEST PUSH1 0x0 PUSH2 0x3E8 PUSH2 0x7D0 DUP3 PUSH1 0x64 PUSH2 0x90A DUP7 PUSH1 0x3 PUSH2 0x130D JUMP JUMPDEST PUSH2 0x914 SWAP2 SWAP1 PUSH2 0x133A JUMP JUMPDEST SWAP1 POP PUSH1 0x0 PUSH1 0x64 PUSH2 0x925 DUP8 PUSH1 0x3 PUSH2 0x130D JUMP JUMPDEST PUSH2 0x92F SWAP2 SWAP1 PUSH2 0x134E JUMP JUMPDEST GT ISZERO PUSH2 0x943 JUMPI PUSH2 0x940 PUSH1 0x1 DUP3 PUSH2 0x12FA JUMP JUMPDEST SWAP1 POP JUMPDEST PUSH1 0x0 DUP2 PUSH2 0x950 DUP5 DUP7 PUSH2 0x12FA JUMP JUMPDEST PUSH2 0x95A SWAP2 SWAP1 PUSH2 0x12FA JUMP JUMPDEST SWAP7 SWAP6 POP POP POP POP POP POP JUMP JUMPDEST PUSH2 0x96C PUSH2 0xF13 JUMP JUMPDEST DUP2 PUSH1 0x1 PUSH1 0x1 PUSH1 0xA0 SHL SUB AND PUSH4 0xA9059CBB PUSH2 0x98D PUSH1 0x1 SLOAD PUSH1 0x1 PUSH1 0x1 PUSH1 0xA0 SHL SUB AND SWAP1 JUMP JUMPDEST PUSH1 0x40 MLOAD PUSH1 0x1 PUSH1 0x1 PUSH1 0xE0 SHL SUB NOT PUSH1 0xE0 DUP5 SWAP1 SHL AND DUP2 MSTORE PUSH1 0x1 PUSH1 0x1 PUSH1 0xA0 SHL SUB SWAP1 SWAP2 AND PUSH1 0x4 DUP3 ADD MSTORE PUSH1 0x24 DUP2 ADD DUP5 SWAP1 MSTORE PUSH1 0x44 ADD PUSH1 0x20 PUSH1 0x40 MLOAD DUP1 DUP4 SUB DUP2 PUSH1 0x0 DUP8 GAS CALL ISZERO DUP1 ISZERO PUSH2 0x9DA JUMPI RETURNDATASIZE PUSH1 0x0 DUP1 RETURNDATACOPY RETURNDATASIZE PUSH1 0x0 REVERT JUMPDEST POP POP POP POP PUSH1 0x40 MLOAD RETURNDATASIZE PUSH1 0x1F NOT PUSH1 0x1F DUP3 ADD AND DUP3 ADD DUP1 PUSH1 0x40 MSTORE POP DUP2 ADD SWAP1 PUSH2 0x9FE SWAP2 SWAP1 PUSH2 0x1296 JUMP JUMPDEST POP POP POP JUMP JUMPDEST PUSH2 0xA66 PUSH1 0x40 MLOAD DUP1 PUSH2 0x120 ADD PUSH1 0x40 MSTORE DUP1 PUSH1 0x0 DUP2 MSTORE PUSH1 0x20 ADD PUSH1 0x0 PUSH1 0x1 PUSH1 0x1 PUSH1 0xA0 SHL SUB AND DUP2 MSTORE PUSH1 0x20 ADD PUSH1 0x0 PUSH1 0x1 PUSH1 0x1 PUSH1 0xA0 SHL SUB AND DUP2 MSTORE PUSH1 0x20 ADD PUSH1 0x0 DUP2 MSTORE PUSH1 0x20 ADD PUSH1 0x0 DUP2 MSTORE PUSH1 0x20 ADD PUSH1 0x0 DUP2 MSTORE PUSH1 0x20 ADD PUSH1 0x0 DUP2 MSTORE PUSH1 0x20 ADD PUSH1 0x0 DUP2 MSTORE PUSH1 0x20 ADD PUSH1 0x0 ISZERO ISZERO DUP2 MSTORE POP SWAP1 JUMP JUMPDEST POP PUSH1 0x0 SWAP1 DUP2 MSTORE PUSH1 0x4 PUSH1 0x20 DUP2 DUP2 MSTORE PUSH1 0x40 SWAP3 DUP4 SWAP1 KECCAK256 DUP4 MLOAD PUSH2 0x120 DUP2 ADD DUP6 MSTORE DUP2 SLOAD DUP2 MSTORE PUSH1 0x1 DUP3 ADD SLOAD PUSH1 0x1 PUSH1 0x1 PUSH1 0xA0 SHL SUB SWAP1 DUP2 AND SWAP4 DUP3 ADD SWAP4 SWAP1 SWAP4 MSTORE PUSH1 0x2 DUP3 ADD SLOAD SWAP1 SWAP3 AND SWAP4 DUP3 ADD SWAP4 SWAP1 SWAP4 MSTORE PUSH1 0x3 DUP4 ADD SLOAD PUSH1 0x60 DUP3 ADD MSTORE SWAP1 DUP3 ADD SLOAD PUSH1 0x80 DUP3 ADD MSTORE PUSH1 0x5 DUP3 ADD SLOAD PUSH1 0xA0 DUP3 ADD MSTORE PUSH1 0x6 DUP3 ADD SLOAD PUSH1 0xC0 DUP3 ADD MSTORE PUSH1 0x7 DUP3 ADD SLOAD PUSH1 0xE0 DUP3 ADD MSTORE PUSH1 0x8 SWAP1 SWAP2 ADD SLOAD PUSH1 0xFF AND ISZERO ISZERO PUSH2 0x100 DUP3 ADD MSTORE SWAP1 JUMP JUMPDEST PUSH1 0x0 PUSH1 0x6 SLOAD DUP3 LT PUSH2 0xB39 JUMPI PUSH1 0x40 MLOAD PUSH3 0x461BCD PUSH1 0xE5 SHL DUP2 MSTORE PUSH1 0x20 PUSH1 0x4 DUP3 ADD MSTORE PUSH1 0x12 PUSH1 0x24 DUP3 ADD MSTORE PUSH18 0x125B9D985B1A590819195C1BDCDA5D081251 PUSH1 0x72 SHL PUSH1 0x44 DUP3 ADD MSTORE PUSH1 0x64 ADD PUSH2 0x54F JUMP JUMPDEST PUSH1 0x0 DUP3 DUP2 MSTORE PUSH1 0x4 PUSH1 0x20 MSTORE PUSH1 0x40 SWAP1 KECCAK256 PUSH1 0x8 ADD SLOAD PUSH1 0xFF AND ISZERO PUSH2 0xB8F JUMPI PUSH1 0x40 MLOAD PUSH3 0x461BCD PUSH1 0xE5 SHL DUP2 MSTORE PUSH1 0x20 PUSH1 0x4 DUP3 ADD MSTORE PUSH1 0x11 PUSH1 0x24 DUP3 ADD MSTORE PUSH17 0x105B1C9958591E481C1C9BD8D95CDCD959 PUSH1 0x7A SHL PUSH1 0x44 DUP3 ADD MSTORE PUSH1 0x64 ADD PUSH2 0x54F JUMP JUMPDEST PUSH1 0x0 DUP3 DUP2 MSTORE PUSH1 0x4 PUSH1 0x20 DUP2 SWAP1 MSTORE PUSH1 0x40 DUP1 DUP4 KECCAK256 PUSH1 0x8 DUP2 ADD DUP1 SLOAD PUSH1 0xFF NOT AND PUSH1 0x1 SWAP1 DUP2 OR SWAP1 SWAP2 SSTORE DUP2 ADD SLOAD PUSH1 0x3 DUP3 ADD SLOAD PUSH1 0x6 DUP4 ADD SLOAD SWAP4 MLOAD PUSH4 0xDF6AC847 PUSH1 0xE0 SHL DUP2 MSTORE PUSH1 0x1 PUSH1 0x1 PUSH1 0xA0 SHL SUB SWAP3 DUP4 AND SWAP6 DUP2 ADD SWAP6 SWAP1 SWAP6 MSTORE PUSH1 0x24 DUP6 ADD MSTORE PUSH1 0x44 DUP5 ADD SWAP3 SWAP1 SWAP3 MSTORE SWAP3 SWAP2 PUSH32 0x0 SWAP1 SWAP2 AND SWAP1 PUSH4 0xDF6AC847 SWAP1 PUSH1 0x64 ADD PUSH1 0x20 PUSH1 0x40 MLOAD DUP1 DUP4 SUB DUP2 PUSH1 0x0 DUP8 GAS CALL ISZERO DUP1 ISZERO PUSH2 0xC39 JUMPI RETURNDATASIZE PUSH1 0x0 DUP1 RETURNDATACOPY RETURNDATASIZE PUSH1 0x0 REVERT JUMPDEST POP POP POP POP PUSH1 0x40 MLOAD RETURNDATASIZE PUSH1 0x1F NOT PUSH1 0x1F DUP3 ADD AND DUP3 ADD DUP1 PUSH1 0x40 MSTORE POP DUP2 ADD SWAP1 PUSH2 0xC5D SWAP2 SWAP1 PUSH2 0x1362 JUMP JUMPDEST PUSH1 0x40 DUP1 MLOAD PUSH2 0x120 DUP2 ADD DUP3 MSTORE DUP5 SLOAD DUP2 MSTORE PUSH1 0x1 DUP6 ADD SLOAD PUSH1 0x1 PUSH1 0x1 PUSH1 0xA0 SHL SUB SWAP1 DUP2 AND PUSH1 0x20 DUP4 ADD MSTORE PUSH1 0x2 DUP7 ADD SLOAD AND SWAP2 DUP2 ADD SWAP2 SWAP1 SWAP2 MSTORE PUSH1 0x3 DUP5 ADD SLOAD PUSH1 0x60 DUP3 ADD MSTORE PUSH1 0x4 DUP5 ADD SLOAD PUSH1 0x80 DUP3 ADD MSTORE PUSH1 0x5 DUP5 ADD SLOAD PUSH1 0xA0 DUP3 ADD MSTORE PUSH1 0x6 DUP5 ADD SLOAD PUSH1 0xC0 DUP3 ADD MSTORE PUSH1 0x7 DUP5 ADD SLOAD PUSH1 0xE0 DUP3 ADD MSTORE PUSH1 0x8 DUP5 ADD SLOAD PUSH1 0xFF AND ISZERO ISZERO PUSH2 0x100 DUP3 ADD MSTORE SWAP1 SWAP2 POP PUSH1 0x0 SWAP1 PUSH2 0xCE0 SWAP1 DUP4 PUSH2 0xFBF JUMP JUMPDEST SWAP1 POP DUP5 PUSH32 0x4BA4B720167A4219371EC9AA5BC12A0D7429BBEE941422E03A1EDADC76B50EBD DUP4 DUP4 PUSH1 0x40 MLOAD PUSH2 0xD14 SWAP3 SWAP2 SWAP1 PUSH2 0x139F JUMP JUMPDEST PUSH1 0x40 MLOAD DUP1 SWAP2 SUB SWAP1 LOG2 POP SWAP4 SWAP3 POP POP POP JUMP JUMPDEST PUSH2 0xD2C PUSH2 0xF13 JUMP JUMPDEST PUSH1 0x1 PUSH1 0x1 PUSH1 0xA0 SHL SUB DUP2 AND PUSH2 0xD91 JUMPI PUSH1 0x40 MLOAD PUSH3 0x461BCD PUSH1 0xE5 SHL DUP2 MSTORE PUSH1 0x20 PUSH1 0x4 DUP3 ADD MSTORE PUSH1 0x26 PUSH1 0x24 DUP3 ADD MSTORE PUSH32 0x4F776E61626C653A206E6577206F776E657220697320746865207A65726F2061 PUSH1 0x44 DUP3 ADD MSTORE PUSH6 0x646472657373 PUSH1 0xD0 SHL PUSH1 0x64 DUP3 ADD MSTORE PUSH1 0x84 ADD PUSH2 0x54F JUMP JUMPDEST PUSH2 0xD9A DUP2 PUSH2 0xF6D JUMP JUMPDEST POP JUMP JUMPDEST PUSH1 0x0 DUP1 PUSH32 0x0 PUSH1 0x1 PUSH1 0x1 PUSH1 0xA0 SHL SUB AND PUSH4 0x3A3610BC PUSH1 0x40 MLOAD DUP2 PUSH4 0xFFFFFFFF AND PUSH1 0xE0 SHL DUP2 MSTORE PUSH1 0x4 ADD PUSH1 0x20 PUSH1 0x40 MLOAD DUP1 DUP4 SUB DUP2 DUP7 GAS STATICCALL ISZERO DUP1 ISZERO PUSH2 0xDFE JUMPI RETURNDATASIZE PUSH1 0x0 DUP1 RETURNDATACOPY RETURNDATASIZE PUSH1 0x0 REVERT JUMPDEST POP POP POP POP PUSH1 0x40 MLOAD RETURNDATASIZE PUSH1 0x1F NOT PUSH1 0x1F DUP3 ADD AND DUP3 ADD DUP1 PUSH1 0x40 MSTORE POP DUP2 ADD SWAP1 PUSH2 0xE22 SWAP2 SWAP1 PUSH2 0x1362 JUMP JUMPDEST PUSH1 0x1 PUSH1 0x1 PUSH1 0xA0 SHL SUB DUP6 AND PUSH1 0x0 SWAP1 DUP2 MSTORE PUSH1 0x3 PUSH1 0x20 MSTORE PUSH1 0x40 DUP2 KECCAK256 SLOAD SWAP2 SWAP3 POP DUP2 SWAP1 SUB PUSH2 0xE49 JUMPI POP PUSH1 0x12 JUMPDEST PUSH1 0x0 PUSH2 0xE56 DUP3 PUSH1 0xA PUSH2 0x14BD JUMP JUMPDEST PUSH2 0xE60 DUP5 DUP8 PUSH2 0x130D JUMP JUMPDEST PUSH2 0xE6A SWAP2 SWAP1 PUSH2 0x133A JUMP JUMPDEST PUSH1 0x40 DUP1 MLOAD DUP8 DUP2 MSTORE PUSH1 0x20 DUP2 ADD DUP4 SWAP1 MSTORE SWAP2 SWAP3 POP PUSH1 0x1 PUSH1 0x1 PUSH1 0xA0 SHL SUB DUP9 AND SWAP2 PUSH32 0x5F7A9CC87CFC2EDD3896984872540C526FB600059D1883F5DD59221D968DB52A SWAP2 ADD PUSH1 0x40 MLOAD DUP1 SWAP2 SUB SWAP1 LOG2 SWAP6 SWAP5 POP POP POP POP POP JUMP JUMPDEST PUSH1 0x2 PUSH1 0x0 SLOAD SUB PUSH2 0xF0C JUMPI PUSH1 0x40 MLOAD PUSH3 0x461BCD PUSH1 0xE5 SHL DUP2 MSTORE PUSH1 0x20 PUSH1 0x4 DUP3 ADD MSTORE PUSH1 0x1F PUSH1 0x24 DUP3 ADD MSTORE PUSH32 0x5265656E7472616E637947756172643A207265656E7472616E742063616C6C00 PUSH1 0x44 DUP3 ADD MSTORE PUSH1 0x64 ADD PUSH2 0x54F JUMP JUMPDEST PUSH1 0x2 PUSH1 0x0 SSTORE JUMP JUMPDEST PUSH1 0x1 SLOAD PUSH1 0x1 PUSH1 0x1 PUSH1 0xA0 SHL SUB AND CALLER EQ PUSH2 0x8BE JUMPI PUSH1 0x40 MLOAD PUSH3 0x461BCD PUSH1 0xE5 SHL DUP2 MSTORE PUSH1 0x20 PUSH1 0x4 DUP3 ADD DUP2 SWAP1 MSTORE PUSH1 0x24 DUP3 ADD MSTORE PUSH32 0x4F776E61626C653A2063616C6C6572206973206E6F7420746865206F776E6572 PUSH1 0x44 DUP3 ADD MSTORE PUSH1 0x64 ADD PUSH2 0x54F JUMP JUMPDEST PUSH1 0x1 DUP1 SLOAD PUSH1 0x1 PUSH1 0x1 PUSH1 0xA0 SHL SUB DUP4 DUP2 AND PUSH1 0x1 PUSH1 0x1 PUSH1 0xA0 SHL SUB NOT DUP4 AND DUP2 OR SWAP1 SWAP4 SSTORE PUSH1 0x40 MLOAD SWAP2 AND SWAP2 SWAP1 DUP3 SWAP1 PUSH32 0x8BE0079C531659141344CD1FD0A4F28419497F9722A3DAAFE3B4186F6B6457E0 SWAP1 PUSH1 0x0 SWAP1 LOG3 POP POP JUMP JUMPDEST PUSH1 0x60 PUSH2 0xFCE DUP4 PUSH1 0x0 ADD MLOAD PUSH2 0x1037 JUMP JUMPDEST PUSH2 0xFD7 DUP4 PUSH2 0x1037 JUMP JUMPDEST PUSH2 0xFE4 DUP6 PUSH1 0x20 ADD MLOAD PUSH2 0x1140 JUMP JUMPDEST PUSH2 0xFF1 DUP7 PUSH1 0x40 ADD MLOAD PUSH2 0x1140 JUMP JUMPDEST PUSH2 0xFFE DUP8 PUSH1 0x60 ADD MLOAD PUSH2 0x1037 JUMP JUMPDEST PUSH2 0x100B DUP9 PUSH1 0x80 ADD MLOAD PUSH2 0x1037 JUMP JUMPDEST PUSH1 0x40 MLOAD PUSH1 0x20 ADD PUSH2 0x1020 SWAP7 SWAP6 SWAP5 SWAP4 SWAP3 SWAP2 SWAP1 PUSH2 0x14E5 JUMP JUMPDEST PUSH1 0x40 MLOAD PUSH1 0x20 DUP2 DUP4 SUB SUB DUP2 MSTORE SWAP1 PUSH1 0x40 MSTORE SWAP1 POP SWAP3 SWAP2 POP POP JUMP JUMPDEST PUSH1 0x60 DUP2 PUSH1 0x0 SUB PUSH2 0x105E JUMPI POP POP PUSH1 0x40 DUP1 MLOAD DUP1 DUP3 ADD SWAP1 SWAP2 MSTORE PUSH1 0x1 DUP2 MSTORE PUSH1 0x3 PUSH1 0xFC SHL PUSH1 0x20 DUP3 ADD MSTORE SWAP1 JUMP JUMPDEST DUP2 PUSH1 0x0 JUMPDEST DUP2 ISZERO PUSH2 0x1088 JUMPI DUP1 PUSH2 0x1072 DUP2 PUSH2 0x12E1 JUMP JUMPDEST SWAP2 POP PUSH2 0x1081 SWAP1 POP PUSH1 0xA DUP4 PUSH2 0x133A JUMP JUMPDEST SWAP2 POP PUSH2 0x1062 JUMP JUMPDEST PUSH1 0x0 DUP2 PUSH8 0xFFFFFFFFFFFFFFFF DUP2 GT ISZERO PUSH2 0x10A3 JUMPI PUSH2 0x10A3 PUSH2 0x165A JUMP JUMPDEST PUSH1 0x40 MLOAD SWAP1 DUP1 DUP3 MSTORE DUP1 PUSH1 0x1F ADD PUSH1 0x1F NOT AND PUSH1 0x20 ADD DUP3 ADD PUSH1 0x40 MSTORE DUP1 ISZERO PUSH2 0x10CD JUMPI PUSH1 0x20 DUP3 ADD DUP2 DUP1 CALLDATASIZE DUP4 CALLDATACOPY ADD SWAP1 POP JUMPDEST POP SWAP1 POP JUMPDEST DUP5 ISZERO PUSH2 0x1138 JUMPI PUSH2 0x10E2 PUSH1 0x1 DUP4 PUSH2 0x12CE JUMP JUMPDEST SWAP2 POP PUSH2 0x10EF PUSH1 0xA DUP7 PUSH2 0x134E JUMP JUMPDEST PUSH2 0x10FA SWAP1 PUSH1 0x30 PUSH2 0x12FA JUMP JUMPDEST PUSH1 0xF8 SHL DUP2 DUP4 DUP2 MLOAD DUP2 LT PUSH2 0x110F JUMPI PUSH2 0x110F PUSH2 0x1670 JUMP JUMPDEST PUSH1 0x20 ADD ADD SWAP1 PUSH1 0x1 PUSH1 0x1 PUSH1 0xF8 SHL SUB NOT AND SWAP1 DUP2 PUSH1 0x0 BYTE SWAP1 MSTORE8 POP PUSH2 0x1131 PUSH1 0xA DUP7 PUSH2 0x133A JUMP JUMPDEST SWAP5 POP PUSH2 0x10D1 JUMP JUMPDEST SWAP5 SWAP4 POP POP POP POP JUMP JUMPDEST PUSH1 0x60 PUSH2 0x86D DUP3 PUSH1 0x1 PUSH1 0x1 PUSH1 0xA0 SHL SUB AND PUSH2 0x1037 JUMP JUMPDEST DUP1 CALLDATALOAD PUSH1 0x1 PUSH1 0x1 PUSH1 0xA0 SHL SUB DUP2 AND DUP2 EQ PUSH2 0x116B JUMPI PUSH1 0x0 DUP1 REVERT JUMPDEST SWAP2 SWAP1 POP JUMP JUMPDEST PUSH1 0x0 DUP1 PUSH1 0x40 DUP4 DUP6 SUB SLT ISZERO PUSH2 0x1183 JUMPI PUSH1 0x0 DUP1 REVERT JUMPDEST PUSH2 0x118C DUP4 PUSH2 0x1154 JUMP JUMPDEST SWAP5 PUSH1 0x20 SWAP4 SWAP1 SWAP4 ADD CALLDATALOAD SWAP4 POP POP POP JUMP JUMPDEST PUSH1 0x0 PUSH1 0x20 DUP3 DUP5 SUB SLT ISZERO PUSH2 0x11AC JUMPI PUSH1 0x0 DUP1 REVERT JUMPDEST PUSH2 0x11B5 DUP3 PUSH2 0x1154 JUMP JUMPDEST SWAP4 SWAP3 POP POP POP JUMP JUMPDEST PUSH1 0x20 DUP1 DUP3 MSTORE DUP3 MLOAD DUP3 DUP3 ADD DUP2 SWAP1 MSTORE PUSH1 0x0 SWAP2 SWAP1 DUP5 DUP3 ADD SWAP1 PUSH1 0x40 DUP6 ADD SWAP1 DUP5 JUMPDEST DUP2 DUP2 LT ISZERO PUSH2 0x11F4 JUMPI DUP4 MLOAD DUP4 MSTORE SWAP3 DUP5 ADD SWAP3 SWAP2 DUP5 ADD SWAP2 PUSH1 0x1 ADD PUSH2 0x11D8 JUMP JUMPDEST POP SWAP1 SWAP7 SWAP6 POP POP POP POP POP POP JUMP JUMPDEST PUSH1 0x0 PUSH1 0x20 DUP3 DUP5 SUB SLT ISZERO PUSH2 0x1212 JUMPI PUSH1 0x0 DUP1 REVERT JUMPDEST POP CALLDATALOAD SWAP2 SWAP1 POP JUMP JUMPDEST PUSH1 0x0 PUSH2 0x120 DUP3 ADD SWAP1 POP DUP3 MLOAD DUP3 MSTORE PUSH1 0x20 DUP4 ADD MLOAD PUSH1 0x1 DUP1 PUSH1 0xA0 SHL SUB DUP1 DUP3 AND PUSH1 0x20 DUP6 ADD MSTORE DUP1 PUSH1 0x40 DUP7 ADD MLOAD AND PUSH1 0x40 DUP6 ADD MSTORE POP POP PUSH1 0x60 DUP4 ADD MLOAD PUSH1 0x60 DUP4 ADD MSTORE PUSH1 0x80 DUP4 ADD MLOAD PUSH1 0x80 DUP4 ADD MSTORE PUSH1 0xA0 DUP4 ADD MLOAD PUSH1 0xA0 DUP4 ADD MSTORE PUSH1 0xC0 DUP4 ADD MLOAD PUSH1 0xC0 DUP4 ADD MSTORE PUSH1 0xE0 DUP4 ADD MLOAD PUSH1 0xE0 DUP4 ADD MSTORE PUSH2 0x100 DUP1 DUP5 ADD MLOAD PUSH2 0x128E DUP3 DUP6 ADD DUP3 ISZERO ISZERO SWAP1 MSTORE JUMP JUMPDEST POP POP SWAP3 SWAP2 POP POP JUMP JUMPDEST PUSH1 0x0 PUSH1 0x20 DUP3 DUP5 SUB SLT ISZERO PUSH2 0x12A8 JUMPI PUSH1 0x0 DUP1 REVERT JUMPDEST DUP2 MLOAD DUP1 ISZERO ISZERO DUP2 EQ PUSH2 0x11B5 JUMPI PUSH1 0x0 DUP1 REVERT JUMPDEST PUSH4 0x4E487B71 PUSH1 0xE0 SHL PUSH1 0x0 MSTORE PUSH1 0x11 PUSH1 0x4 MSTORE PUSH1 0x24 PUSH1 0x0 REVERT JUMPDEST DUP2 DUP2 SUB DUP2 DUP2 GT ISZERO PUSH2 0x86D JUMPI PUSH2 0x86D PUSH2 0x12B8 JUMP JUMPDEST PUSH1 0x0 PUSH1 0x1 DUP3 ADD PUSH2 0x12F3 JUMPI PUSH2 0x12F3 PUSH2 0x12B8 JUMP JUMPDEST POP PUSH1 0x1 ADD SWAP1 JUMP JUMPDEST DUP1 DUP3 ADD DUP1 DUP3 GT ISZERO PUSH2 0x86D JUMPI PUSH2 0x86D PUSH2 0x12B8 JUMP JUMPDEST DUP1 DUP3 MUL DUP2 ISZERO DUP3 DUP3 DIV DUP5 EQ OR PUSH2 0x86D JUMPI PUSH2 0x86D PUSH2 0x12B8 JUMP JUMPDEST PUSH4 0x4E487B71 PUSH1 0xE0 SHL PUSH1 0x0 MSTORE PUSH1 0x12 PUSH1 0x4 MSTORE PUSH1 0x24 PUSH1 0x0 REVERT JUMPDEST PUSH1 0x0 DUP3 PUSH2 0x1349 JUMPI PUSH2 0x1349 PUSH2 0x1324 JUMP JUMPDEST POP DIV SWAP1 JUMP JUMPDEST PUSH1 0x0 DUP3 PUSH2 0x135D JUMPI PUSH2 0x135D PUSH2 0x1324 JUMP JUMPDEST POP MOD SWAP1 JUMP JUMPDEST PUSH1 0x0 PUSH1 0x20 DUP3 DUP5 SUB SLT ISZERO PUSH2 0x1374 JUMPI PUSH1 0x0 DUP1 REVERT JUMPDEST POP MLOAD SWAP2 SWAP1 POP JUMP JUMPDEST PUSH1 0x0 JUMPDEST DUP4 DUP2 LT ISZERO PUSH2 0x1396 JUMPI DUP2 DUP2 ADD MLOAD DUP4 DUP3 ADD MSTORE PUSH1 0x20 ADD PUSH2 0x137E JUMP JUMPDEST POP POP PUSH1 0x0 SWAP2 ADD MSTORE JUMP JUMPDEST DUP3 DUP2 MSTORE PUSH1 0x40 PUSH1 0x20 DUP3 ADD MSTORE PUSH1 0x0 DUP3 MLOAD DUP1 PUSH1 0x40 DUP5 ADD MSTORE PUSH2 0x13C4 DUP2 PUSH1 0x60 DUP6 ADD PUSH1 0x20 DUP8 ADD PUSH2 0x137B JUMP JUMPDEST PUSH1 0x1F ADD PUSH1 0x1F NOT AND SWAP2 SWAP1 SWAP2 ADD PUSH1 0x60 ADD SWAP4 SWAP3 POP POP POP JUMP JUMPDEST PUSH1 0x1 DUP2 DUP2 JUMPDEST DUP1 DUP6 GT ISZERO PUSH2 0x1414 JUMPI DUP2 PUSH1 0x0 NOT DIV DUP3 GT ISZERO PUSH2 0x13FA JUMPI PUSH2 0x13FA PUSH2 0x12B8 JUMP JUMPDEST DUP1 DUP6 AND ISZERO PUSH2 0x1407 JUMPI SWAP2 DUP2 MUL SWAP2 JUMPDEST SWAP4 DUP5 SHR SWAP4 SWAP1 DUP1 MUL SWAP1 PUSH2 0x13DE JUMP JUMPDEST POP SWAP3 POP SWAP3 SWAP1 POP JUMP JUMPDEST PUSH1 0x0 DUP3 PUSH2 0x142B JUMPI POP PUSH1 0x1 PUSH2 0x86D JUMP JUMPDEST DUP2 PUSH2 0x1438 JUMPI POP PUSH1 0x0 PUSH2 0x86D JUMP JUMPDEST DUP2 PUSH1 0x1 DUP2 EQ PUSH2 0x144E JUMPI PUSH1 0x2 DUP2 EQ PUSH2 0x1458 JUMPI PUSH2 0x1474 JUMP JUMPDEST PUSH1 0x1 SWAP2 POP POP PUSH2 0x86D JUMP JUMPDEST PUSH1 0xFF DUP5 GT ISZERO PUSH2 0x1469 JUMPI PUSH2 0x1469 PUSH2 0x12B8 JUMP JUMPDEST POP POP PUSH1 0x1 DUP3 SHL PUSH2 0x86D JUMP JUMPDEST POP PUSH1 0x20 DUP4 LT PUSH2 0x133 DUP4 LT AND PUSH1 0x4E DUP5 LT PUSH1 0xB DUP5 LT AND OR ISZERO PUSH2 0x1497 JUMPI POP DUP2 DUP2 EXP PUSH2 0x86D JUMP JUMPDEST PUSH2 0x14A1 DUP4 DUP4 PUSH2 0x13D9 JUMP JUMPDEST DUP1 PUSH1 0x0 NOT DIV DUP3 GT ISZERO PUSH2 0x14B5 JUMPI PUSH2 0x14B5 PUSH2 0x12B8 JUMP JUMPDEST MUL SWAP4 SWAP3 POP POP POP JUMP JUMPDEST PUSH1 0x0 PUSH2 0x11B5 DUP4 DUP4 PUSH2 0x141C JUMP JUMPDEST PUSH1 0x0 DUP2 MLOAD PUSH2 0x14DB DUP2 DUP6 PUSH1 0x20 DUP7 ADD PUSH2 0x137B JUMP JUMPDEST SWAP3 SWAP1 SWAP3 ADD SWAP3 SWAP2 POP POP JUMP JUMPDEST PUSH32 0x7B2274797065223A226272696467655F65786563757465222C00000000000000 DUP2 MSTORE PUSH12 0x113232B837B9B4BA24B2111D PUSH1 0xA1 SHL PUSH1 0x19 DUP3 ADD MSTORE DUP7 MLOAD PUSH1 0x0 SWAP1 PUSH2 0x1533 DUP2 PUSH1 0x25 DUP6 ADD PUSH1 0x20 DUP13 ADD PUSH2 0x137B JUMP JUMPDEST PUSH1 0xB PUSH1 0xFA SHL PUSH1 0x25 SWAP2 DUP5 ADD SWAP2 DUP3 ADD DUP2 SWAP1 MSTORE PUSH15 0x1130B1BA34BB30BA34B7B724B2111D PUSH1 0x89 SHL PUSH1 0x26 DUP4 ADD MSTORE DUP9 MLOAD PUSH2 0x156E DUP2 PUSH1 0x35 DUP6 ADD PUSH1 0x20 DUP14 ADD PUSH2 0x137B JUMP JUMPDEST PUSH1 0x35 SWAP3 ADD SWAP2 DUP3 ADD MSTORE PUSH8 0x113AB9B2B9111D11 PUSH1 0xC1 SHL PUSH1 0x36 DUP3 ADD MSTORE DUP7 MLOAD PUSH2 0x159A DUP2 PUSH1 0x3E DUP5 ADD PUSH1 0x20 DUP12 ADD PUSH2 0x137B JUMP JUMPDEST PUSH2 0x164C PUSH2 0x163F PUSH2 0x1639 PUSH2 0x161D PUSH2 0x1610 PUSH2 0x160A PUSH2 0x15F5 PUSH2 0x15E7 PUSH2 0x15E1 PUSH2 0x15CC PUSH1 0x3E DUP12 DUP14 ADD ADD PUSH2 0x88B PUSH1 0xF2 SHL DUP2 MSTORE PUSH1 0x2 ADD SWAP1 JUMP JUMPDEST PUSH9 0x113A37B5B2B7111D11 PUSH1 0xB9 SHL DUP2 MSTORE PUSH1 0x9 ADD SWAP1 JUMP JUMPDEST DUP16 PUSH2 0x14C9 JUMP JUMPDEST PUSH2 0x88B PUSH1 0xF2 SHL DUP2 MSTORE PUSH1 0x2 ADD SWAP1 JUMP JUMPDEST PUSH9 0x1130B6B7BAB73A111D PUSH1 0xB9 SHL DUP2 MSTORE PUSH1 0x9 ADD SWAP1 JUMP JUMPDEST DUP12 PUSH2 0x14C9 JUMP JUMPDEST PUSH1 0xB PUSH1 0xFA SHL DUP2 MSTORE PUSH1 0x1 ADD SWAP1 JUMP JUMPDEST PUSH16 0x11313A31A2B8BAB4BB30B632B73A111D PUSH1 0x81 SHL DUP2 MSTORE PUSH1 0x10 ADD SWAP1 JUMP JUMPDEST DUP8 PUSH2 0x14C9 JUMP JUMPDEST PUSH1 0x7D PUSH1 0xF8 SHL DUP2 MSTORE PUSH1 0x1 ADD SWAP1 JUMP JUMPDEST SWAP11 SWAP10 POP POP POP POP POP POP POP POP POP POP JUMP JUMPDEST PUSH4 0x4E487B71 PUSH1 0xE0 SHL PUSH1 0x0 MSTORE PUSH1 0x41 PUSH1 0x4 MSTORE PUSH1 0x24 PUSH1 0x0 REVERT JUMPDEST PUSH4 0x4E487B71 PUSH1 0xE0 SHL PUSH1 0x0 MSTORE PUSH1 0x32 PUSH1 0x4 MSTORE PUSH1 0x24 PUSH1 0x0 REVERT INVALID LOG2 PUSH5 0x6970667358 0x22 SLT KECCAK256 0xBA 0x5D PUSH11 0x63DF45FC71ABAE49C649A1 0xE0 BASEFEE EXTCODECOPY SWAP11 0xA5 RETURNDATASIZE 0x5D 0xC4 0xBB 0xD5 0x49 0xD4 0xBF SWAP7 0xD3 0x5C SWAP10 SWAP16 PUSH5 0x736F6C6343 STOP ADDMOD SGT STOP CALLER "},"methodIdentifiers":{"addSupportedToken(address,uint256)":"4d8e3d3b","calculateBtcEquivalent(address,uint256)":"fb8c4528","calculateCosts(uint256)":"7ec1d421","createIntent(uint256)":"ca56a821","deposit(address,uint256)":"47e7ef24","depositManager()":"6c7ac9d8","deposits(uint256)":"b02c43d0","emergencyWithdraw(address,uint256)":"95ccea67","getDeposit(uint256)":"9f9fb968","getStats()":"c59d4847","getUserDeposits(address)":"2a5bf6d2","nextDepositId()":"8070a4bd","owner()":"8da5cb5b","priceOracle()":"2630c12f","removeSupportedToken(address)":"76319190","renounceOwnership()":"715018a6","supportedTokens(address)":"68c4ac26","tokenDecimals(address)":"8ee573ac","totalBtcEquivalent()":"ff6f4a7a","totalCosts()":"b8bc0ed4","totalDeposits()":"7d882097","totalNetBtcEquivalent()":"bee5e5d2","transferOwnership(address)":"f2fde38b","userDeposits(address,uint256)":"08f43333"}}}}}