{"contracts/PriceOracle.sol":{"PriceOracle":{"abi":[{"inputs":[{"internalType":"address","name":"_pyth","type":"address"},{"internalType":"bytes32","name":"_btcUsdPriceId","type":"bytes32"}],"stateMutability":"nonpayable","type":"constructor"},{"anonymous":false,"inputs":[{"indexed":false,"internalType":"uint256","name":"activationId","type":"uint256"},{"indexed":false,"internalType":"uint256","name":"price","type":"uint256"},{"indexed":false,"internalType":"bool","name":"settled","type":"bool"}],"name":"ActivationProcessed","type":"event"},{"anonymous":false,"inputs":[{"indexed":false,"internalType":"uint256","name":"newPrice","type":"uint256"},{"indexed":false,"internalType":"uint256","name":"tokensMinted","type":"uint256"}],"name":"PriceUpdated","type":"event"},{"anonymous":false,"inputs":[{"indexed":false,"internalType":"uint256","name":"activationId","type":"uint256"}],"name":"SettlementFailed","type":"event"},{"inputs":[],"name":"NETWORK_FEE_PERCENT","outputs":[{"internalType":"uint256","name":"","type":"uint256"}],"stateMutability":"view","type":"function"},{"inputs":[],"name":"PHI","outputs":[{"internalType":"uint256","name":"","type":"uint256"}],"stateMutability":"view","type":"function"},{"inputs":[],"name":"SATOSHI_PRECISION","outputs":[{"internalType":"uint256","name":"","type":"uint256"}],"stateMutability":"view","type":"function"},{"inputs":[],"name":"STARTING_PRICE","outputs":[{"internalType":"uint256","name":"","type":"uint256"}],"stateMutability":"view","type":"function"},{"inputs":[],"name":"activateToken","outputs":[],"stateMutability":"nonpayable","type":"function"},{"inputs":[],"name":"activationCount","outputs":[{"internalType":"uint256","name":"","type":"uint256"}],"stateMutability":"view","type":"function"},{"inputs":[{"internalType":"uint256","name":"","type":"uint256"}],"name":"activationPrices","outputs":[{"internalType":"uint256","name":"","type":"uint256"}],"stateMutability":"view","type":"function"},{"inputs":[{"internalType":"uint256","name":"","type":"uint256"}],"name":"activationSettled","outputs":[{"internalType":"bool","name":"","type":"bool"}],"stateMutability":"view","type":"function"},{"inputs":[],"name":"btcUsdPriceId","outputs":[{"internalType":"bytes32","name":"","type":"bytes32"}],"stateMutability":"view","type":"function"},{"inputs":[{"internalType":"uint256","name":"amount","type":"uint256"}],"name":"calculateNetworkFee","outputs":[{"internalType":"uint256","name":"","type":"uint256"}],"stateMutability":"pure","type":"function"},{"inputs":[{"internalType":"uint256","name":"_tokensMinted","type":"uint256"}],"name":"calculatePrice","outputs":[{"internalType":"uint256","name":"","type":"uint256"}],"stateMutability":"pure","type":"function"},{"inputs":[],"name":"currentPrice","outputs":[{"internalType":"uint256","name":"","type":"uint256"}],"stateMutability":"view","type":"function"},{"inputs":[],"name":"deactivateToken","outputs":[],"stateMutability":"nonpayable","type":"function"},{"inputs":[],"name":"getBtcPrice","outputs":[{"internalType":"uint256","name":"","type":"uint256"}],"stateMutability":"view","type":"function"},{"inputs":[],"name":"getCurrentPrice","outputs":[{"internalType":"uint256","name":"","type":"uint256"}],"stateMutability":"view","type":"function"},{"inputs":[{"internalType":"bool","name":"settlementSuccess","type":"bool"}],"name":"processActivationWithSettlement","outputs":[],"stateMutability":"nonpayable","type":"function"},{"inputs":[],"name":"pyth","outputs":[{"internalType":"contract IPyth","name":"","type":"address"}],"stateMutability":"view","type":"function"},{"inputs":[{"internalType":"uint256","name":"_tokensMinted","type":"uint256"}],"name":"setTokensMinted","outputs":[],"stateMutability":"nonpayable","type":"function"},{"inputs":[],"name":"tokensMinted","outputs":[{"internalType":"uint256","name":"","type":"uint256"}],"stateMutability":"view","type":"function"},{"inputs":[],"name":"updatePrice","outputs":[],"stateMutability":"nonpayable","type":"function"}],"evm":{"bytecode":{"linkReferences":{},"object":"60c060405260016000556000600155600060025534801561001f57600080fd5b5060405161077d38038061077d83398101604081905261003e91610054565b6001600160a01b0390911660805260a05261008e565b6000806040838503121561006757600080fd5b82516001600160a01b038116811461007e57600080fd5b6020939093015192949293505050565b60805160a0516106ca6100b360003960006102390152600061027801526106ca6000f3fe608060405234801561001057600080fd5b506004361061012c5760003560e01c8063806fff1c116100ad578063b2a8450211610071578063b2a8450214610234578063d12f70291461025b578063eb91d37e14610263578063f957417e1461026b578063f98d06f01461027357600080fd5b8063806fff1c146101f257806383e24813146101fa5780639d1b464a14610205578063a8aecfe51461020e578063ae1042651461022157600080fd5b80635ce7e030116100f45780635ce7e030146101bc57806366afe4b3146101cf578063673a7e28146101d85780636af411cd146101e05780636de9f32b146101e957600080fd5b80632650487d1461013157806334e7f4a51461016957806339ce2508146101735780633a3610bc146101865780635c09a9f61461019c575b600080fd5b61015461013f3660046105a4565b60046020526000908152604090205460ff1681565b60405190151581526020015b60405180910390f35b6101716102b2565b005b6101716101813660046105bd565b6102d9565b65048c273950005b604051908152602001610160565b61018e6101aa3660046105a4565b60036020526000908152604090205481565b6101716101ca3660046105a4565b6103c5565b61018e61065281565b6101716103d5565b61018e60025481565b61018e60015481565b61018e600381565b61018e6305f5e10081565b61018e60005481565b61018e61021c3660046105a4565b610424565b61018e61022f3660046105a4565b61048c565b61018e7f000000000000000000000000000000000000000000000000000000000000000081565b61018e600181565b60005461018e565b61017161052a565b61029a7f000000000000000000000000000000000000000000000000000000000000000081565b6040516001600160a01b039091168152602001610160565b600154156102d757600180549060006102ca836105fc565b91905055506102d76103d5565b565b8061031e5760405162461bcd60e51b815260206004820152601160248201527014d95d1d1b195b595b9d0819985a5b1959607a1b604482015260640160405180910390fd5b6002805490600061032e83610613565b90915550506001805490600061034383610613565b91905055506103506103d5565b60008054600280548352600360209081526040808520939093558154845260048152828420805460ff1916600190811790915591549354835194855290840152908201527f897d7b656908c4bea6dd14a762d00075fce0e9b4271d2a4d3bcd493a4d72d531906060015b60405180910390a150565b60018190556103d26103d5565b50565b60006103e260015461048c565b60008190556001546040519192507f945c1c4e99aa89f648fbfe3df471b916f719e16d960fcec0737d4d56bd696838916103ba91848252602082015260400190565b600080606461043460038561062c565b61043e9190610659565b90508060000361044c575060015b61045a6305f5e1008261066d565b15610486576305f5e10061046e8183610659565b610479906001610681565b610483919061062c565b90505b92915050565b60008160000361049e57506001919050565b6103e86000816104b08561065261062c565b6104ba9190610659565b9050806000036104ce575060019392505050565b60006104da8284610659565b9050806000036104e8575060015b6104f66305f5e1008261066d565b15610522576305f5e10061050a8183610659565b610515906001610681565b61051f919061062c565b90505b949350505050565b6002805490600061053a83610613565b90915550506001805490600061054f83610613565b919050555061055c6103d5565b600254600080546040805193845260208401919091528201527f897d7b656908c4bea6dd14a762d00075fce0e9b4271d2a4d3bcd493a4d72d5319060600160405180910390a1565b6000602082840312156105b657600080fd5b5035919050565b6000602082840312156105cf57600080fd5b813580151581146105df57600080fd5b9392505050565b634e487b7160e01b600052601160045260246000fd5b60008161060b5761060b6105e6565b506000190190565b600060018201610625576106256105e6565b5060010190565b8082028115828204841417610486576104866105e6565b634e487b7160e01b600052601260045260246000fd5b60008261066857610668610643565b500490565b60008261067c5761067c610643565b500690565b80820180821115610486576104866105e656fea2646970667358221220f1e4544b218106f7cce04655ba84333c0c11f4c866ea1992842d161190481bf364736f6c63430008130033","opcodes":"PUSH1 0xC0 PUSH1 0x40 MSTORE PUSH1 0x1 PUSH1 0x0 SSTORE PUSH1 0x0 PUSH1 0x1 SSTORE PUSH1 0x0 PUSH1 0x2 SSTORE CALLVALUE DUP1 ISZERO PUSH2 0x1F JUMPI PUSH1 0x0 DUP1 REVERT JUMPDEST POP PUSH1 0x40 MLOAD PUSH2 0x77D CODESIZE SUB DUP1 PUSH2 0x77D DUP4 CODECOPY DUP2 ADD PUSH1 0x40 DUP2 SWAP1 MSTORE PUSH2 0x3E SWAP2 PUSH2 0x54 JUMP JUMPDEST PUSH1 0x1 PUSH1 0x1 PUSH1 0xA0 SHL SUB SWAP1 SWAP2 AND PUSH1 0x80 MSTORE PUSH1 0xA0 MSTORE PUSH2 0x8E JUMP JUMPDEST PUSH1 0x0 DUP1 PUSH1 0x40 DUP4 DUP6 SUB SLT ISZERO PUSH2 0x67 JUMPI PUSH1 0x0 DUP1 REVERT JUMPDEST DUP3 MLOAD PUSH1 0x1 PUSH1 0x1 PUSH1 0xA0 SHL SUB DUP2 AND DUP2 EQ PUSH2 0x7E JUMPI PUSH1 0x0 DUP1 REVERT JUMPDEST PUSH1 0x20 SWAP4 SWAP1 SWAP4 ADD MLOAD SWAP3 SWAP5 SWAP3 SWAP4 POP POP POP JUMP JUMPDEST PUSH1 0x80 MLOAD PUSH1 0xA0 MLOAD PUSH2 0x6CA PUSH2 0xB3 PUSH1 0x0 CODECOPY PUSH1 0x0 PUSH2 0x239 ADD MSTORE PUSH1 0x0 PUSH2 0x278 ADD MSTORE PUSH2 0x6CA PUSH1 0x0 RETURN INVALID PUSH1 0x80 PUSH1 0x40 MSTORE CALLVALUE DUP1 ISZERO PUSH2 0x10 JUMPI PUSH1 0x0 DUP1 REVERT JUMPDEST POP PUSH1 0x4 CALLDATASIZE LT PUSH2 0x12C JUMPI PUSH1 0x0 CALLDATALOAD PUSH1 0xE0 SHR DUP1 PUSH4 0x806FFF1C GT PUSH2 0xAD JUMPI DUP1 PUSH4 0xB2A84502 GT PUSH2 0x71 JUMPI DUP1 PUSH4 0xB2A84502 EQ PUSH2 0x234 JUMPI DUP1 PUSH4 0xD12F7029 EQ PUSH2 0x25B JUMPI DUP1 PUSH4 0xEB91D37E EQ PUSH2 0x263 JUMPI DUP1 PUSH4 0xF957417E EQ PUSH2 0x26B JUMPI DUP1 PUSH4 0xF98D06F0 EQ PUSH2 0x273 JUMPI PUSH1 0x0 DUP1 REVERT JUMPDEST DUP1 PUSH4 0x806FFF1C EQ PUSH2 0x1F2 JUMPI DUP1 PUSH4 0x83E24813 EQ PUSH2 0x1FA JUMPI DUP1 PUSH4 0x9D1B464A EQ PUSH2 0x205 JUMPI DUP1 PUSH4 0xA8AECFE5 EQ PUSH2 0x20E JUMPI DUP1 PUSH4 0xAE104265 EQ PUSH2 0x221 JUMPI PUSH1 0x0 DUP1 REVERT JUMPDEST DUP1 PUSH4 0x5CE7E030 GT PUSH2 0xF4 JUMPI DUP1 PUSH4 0x5CE7E030 EQ PUSH2 0x1BC JUMPI DUP1 PUSH4 0x66AFE4B3 EQ PUSH2 0x1CF JUMPI DUP1 PUSH4 0x673A7E28 EQ PUSH2 0x1D8 JUMPI DUP1 PUSH4 0x6AF411CD EQ PUSH2 0x1E0 JUMPI DUP1 PUSH4 0x6DE9F32B EQ PUSH2 0x1E9 JUMPI PUSH1 0x0 DUP1 REVERT JUMPDEST DUP1 PUSH4 0x2650487D EQ PUSH2 0x131 JUMPI DUP1 PUSH4 0x34E7F4A5 EQ PUSH2 0x169 JUMPI DUP1 PUSH4 0x39CE2508 EQ PUSH2 0x173 JUMPI DUP1 PUSH4 0x3A3610BC EQ PUSH2 0x186 JUMPI DUP1 PUSH4 0x5C09A9F6 EQ PUSH2 0x19C JUMPI JUMPDEST PUSH1 0x0 DUP1 REVERT JUMPDEST PUSH2 0x154 PUSH2 0x13F CALLDATASIZE PUSH1 0x4 PUSH2 0x5A4 JUMP JUMPDEST PUSH1 0x4 PUSH1 0x20 MSTORE PUSH1 0x0 SWAP1 DUP2 MSTORE PUSH1 0x40 SWAP1 KECCAK256 SLOAD PUSH1 0xFF AND DUP2 JUMP JUMPDEST PUSH1 0x40 MLOAD SWAP1 ISZERO ISZERO DUP2 MSTORE PUSH1 0x20 ADD JUMPDEST PUSH1 0x40 MLOAD DUP1 SWAP2 SUB SWAP1 RETURN JUMPDEST PUSH2 0x171 PUSH2 0x2B2 JUMP JUMPDEST STOP JUMPDEST PUSH2 0x171 PUSH2 0x181 CALLDATASIZE PUSH1 0x4 PUSH2 0x5BD JUMP JUMPDEST PUSH2 0x2D9 JUMP JUMPDEST PUSH6 0x48C27395000 JUMPDEST PUSH1 0x40 MLOAD SWAP1 DUP2 MSTORE PUSH1 0x20 ADD PUSH2 0x160 JUMP JUMPDEST PUSH2 0x18E PUSH2 0x1AA CALLDATASIZE PUSH1 0x4 PUSH2 0x5A4 JUMP JUMPDEST PUSH1 0x3 PUSH1 0x20 MSTORE PUSH1 0x0 SWAP1 DUP2 MSTORE PUSH1 0x40 SWAP1 KECCAK256 SLOAD DUP2 JUMP JUMPDEST PUSH2 0x171 PUSH2 0x1CA CALLDATASIZE PUSH1 0x4 PUSH2 0x5A4 JUMP JUMPDEST PUSH2 0x3C5 JUMP JUMPDEST PUSH2 0x18E PUSH2 0x652 DUP2 JUMP JUMPDEST PUSH2 0x171 PUSH2 0x3D5 JUMP JUMPDEST PUSH2 0x18E PUSH1 0x2 SLOAD DUP2 JUMP JUMPDEST PUSH2 0x18E PUSH1 0x1 SLOAD DUP2 JUMP JUMPDEST PUSH2 0x18E PUSH1 0x3 DUP2 JUMP JUMPDEST PUSH2 0x18E PUSH4 0x5F5E100 DUP2 JUMP JUMPDEST PUSH2 0x18E PUSH1 0x0 SLOAD DUP2 JUMP JUMPDEST PUSH2 0x18E PUSH2 0x21C CALLDATASIZE PUSH1 0x4 PUSH2 0x5A4 JUMP JUMPDEST PUSH2 0x424 JUMP JUMPDEST PUSH2 0x18E PUSH2 0x22F CALLDATASIZE PUSH1 0x4 PUSH2 0x5A4 JUMP JUMPDEST PUSH2 0x48C JUMP JUMPDEST PUSH2 0x18E PUSH32 0x0 DUP2 JUMP JUMPDEST PUSH2 0x18E PUSH1 0x1 DUP2 JUMP JUMPDEST PUSH1 0x0 SLOAD PUSH2 0x18E JUMP JUMPDEST PUSH2 0x171 PUSH2 0x52A JUMP JUMPDEST PUSH2 0x29A PUSH32 0x0 DUP2 JUMP JUMPDEST PUSH1 0x40 MLOAD PUSH1 0x1 PUSH1 0x1 PUSH1 0xA0 SHL SUB SWAP1 SWAP2 AND DUP2 MSTORE PUSH1 0x20 ADD PUSH2 0x160 JUMP JUMPDEST PUSH1 0x1 SLOAD ISZERO PUSH2 0x2D7 JUMPI PUSH1 0x1 DUP1 SLOAD SWAP1 PUSH1 0x0 PUSH2 0x2CA DUP4 PUSH2 0x5FC JUMP JUMPDEST SWAP2 SWAP1 POP SSTORE POP PUSH2 0x2D7 PUSH2 0x3D5 JUMP JUMPDEST JUMP JUMPDEST DUP1 PUSH2 0x31E JUMPI PUSH1 0x40 MLOAD PUSH3 0x461BCD PUSH1 0xE5 SHL DUP2 MSTORE PUSH1 0x20 PUSH1 0x4 DUP3 ADD MSTORE PUSH1 0x11 PUSH1 0x24 DUP3 ADD MSTORE PUSH17 0x14D95D1D1B195B595B9D0819985A5B1959 PUSH1 0x7A SHL PUSH1 0x44 DUP3 ADD MSTORE PUSH1 0x64 ADD PUSH1 0x40 MLOAD DUP1 SWAP2 SUB SWAP1 REVERT JUMPDEST PUSH1 0x2 DUP1 SLOAD SWAP1 PUSH1 0x0 PUSH2 0x32E DUP4 PUSH2 0x613 JUMP JUMPDEST SWAP1 SWAP2 SSTORE POP POP PUSH1 0x1 DUP1 SLOAD SWAP1 PUSH1 0x0 PUSH2 0x343 DUP4 PUSH2 0x613 JUMP JUMPDEST SWAP2 SWAP1 POP SSTORE POP PUSH2 0x350 PUSH2 0x3D5 JUMP JUMPDEST PUSH1 0x0 DUP1 SLOAD PUSH1 0x2 DUP1 SLOAD DUP4 MSTORE PUSH1 0x3 PUSH1 0x20 SWAP1 DUP2 MSTORE PUSH1 0x40 DUP1 DUP6 KECCAK256 SWAP4 SWAP1 SWAP4 SSTORE DUP2 SLOAD DUP5 MSTORE PUSH1 0x4 DUP2 MSTORE DUP3 DUP5 KECCAK256 DUP1 SLOAD PUSH1 0xFF NOT AND PUSH1 0x1 SWAP1 DUP2 OR SWAP1 SWAP2 SSTORE SWAP2 SLOAD SWAP4 SLOAD DUP4 MLOAD SWAP5 DUP6 MSTORE SWAP1 DUP5 ADD MSTORE SWAP1 DUP3 ADD MSTORE PUSH32 0x897D7B656908C4BEA6DD14A762D00075FCE0E9B4271D2A4D3BCD493A4D72D531 SWAP1 PUSH1 0x60 ADD JUMPDEST PUSH1 0x40 MLOAD DUP1 SWAP2 SUB SWAP1 LOG1 POP JUMP JUMPDEST PUSH1 0x1 DUP2 SWAP1 SSTORE PUSH2 0x3D2 PUSH2 0x3D5 JUMP JUMPDEST POP JUMP JUMPDEST PUSH1 0x0 PUSH2 0x3E2 PUSH1 0x1 SLOAD PUSH2 0x48C JUMP JUMPDEST PUSH1 0x0 DUP2 SWAP1 SSTORE PUSH1 0x1 SLOAD PUSH1 0x40 MLOAD SWAP2 SWAP3 POP PUSH32 0x945C1C4E99AA89F648FBFE3DF471B916F719E16D960FCEC0737D4D56BD696838 SWAP2 PUSH2 0x3BA SWAP2 DUP5 DUP3 MSTORE PUSH1 0x20 DUP3 ADD MSTORE PUSH1 0x40 ADD SWAP1 JUMP JUMPDEST PUSH1 0x0 DUP1 PUSH1 0x64 PUSH2 0x434 PUSH1 0x3 DUP6 PUSH2 0x62C JUMP JUMPDEST PUSH2 0x43E SWAP2 SWAP1 PUSH2 0x659 JUMP JUMPDEST SWAP1 POP DUP1 PUSH1 0x0 SUB PUSH2 0x44C JUMPI POP PUSH1 0x1 JUMPDEST PUSH2 0x45A PUSH4 0x5F5E100 DUP3 PUSH2 0x66D JUMP JUMPDEST ISZERO PUSH2 0x486 JUMPI PUSH4 0x5F5E100 PUSH2 0x46E DUP2 DUP4 PUSH2 0x659 JUMP JUMPDEST PUSH2 0x479 SWAP1 PUSH1 0x1 PUSH2 0x681 JUMP JUMPDEST PUSH2 0x483 SWAP2 SWAP1 PUSH2 0x62C JUMP JUMPDEST SWAP1 POP JUMPDEST SWAP3 SWAP2 POP POP JUMP JUMPDEST PUSH1 0x0 DUP2 PUSH1 0x0 SUB PUSH2 0x49E JUMPI POP PUSH1 0x1 SWAP2 SWAP1 POP JUMP JUMPDEST PUSH2 0x3E8 PUSH1 0x0 DUP2 PUSH2 0x4B0 DUP6 PUSH2 0x652 PUSH2 0x62C JUMP JUMPDEST PUSH2 0x4BA SWAP2 SWAP1 PUSH2 0x659 JUMP JUMPDEST SWAP1 POP DUP1 PUSH1 0x0 SUB PUSH2 0x4CE JUMPI POP PUSH1 0x1 SWAP4 SWAP3 POP POP POP JUMP JUMPDEST PUSH1 0x0 PUSH2 0x4DA DUP3 DUP5 PUSH2 0x659 JUMP JUMPDEST SWAP1 POP DUP1 PUSH1 0x0 SUB PUSH2 0x4E8 JUMPI POP PUSH1 0x1 JUMPDEST PUSH2 0x4F6 PUSH4 0x5F5E100 DUP3 PUSH2 0x66D JUMP JUMPDEST ISZERO PUSH2 0x522 JUMPI PUSH4 0x5F5E100 PUSH2 0x50A DUP2 DUP4 PUSH2 0x659 JUMP JUMPDEST PUSH2 0x515 SWAP1 PUSH1 0x1 PUSH2 0x681 JUMP JUMPDEST PUSH2 0x51F SWAP2 SWAP1 PUSH2 0x62C JUMP JUMPDEST SWAP1 POP JUMPDEST SWAP5 SWAP4 POP POP POP POP JUMP JUMPDEST PUSH1 0x2 DUP1 SLOAD SWAP1 PUSH1 0x0 PUSH2 0x53A DUP4 PUSH2 0x613 JUMP JUMPDEST SWAP1 SWAP2 SSTORE POP POP PUSH1 0x1 DUP1 SLOAD SWAP1 PUSH1 0x0 PUSH2 0x54F DUP4 PUSH2 0x613 JUMP JUMPDEST SWAP2 SWAP1 POP SSTORE POP PUSH2 0x55C PUSH2 0x3D5 JUMP JUMPDEST PUSH1 0x2 SLOAD PUSH1 0x0 DUP1 SLOAD PUSH1 0x40 DUP1 MLOAD SWAP4 DUP5 MSTORE PUSH1 0x20 DUP5 ADD SWAP2 SWAP1 SWAP2 MSTORE DUP3 ADD MSTORE PUSH32 0x897D7B656908C4BEA6DD14A762D00075FCE0E9B4271D2A4D3BCD493A4D72D531 SWAP1 PUSH1 0x60 ADD PUSH1 0x40 MLOAD DUP1 SWAP2 SUB SWAP1 LOG1 JUMP JUMPDEST PUSH1 0x0 PUSH1 0x20 DUP3 DUP5 SUB SLT ISZERO PUSH2 0x5B6 JUMPI PUSH1 0x0 DUP1 REVERT JUMPDEST POP CALLDATALOAD SWAP2 SWAP1 POP JUMP JUMPDEST PUSH1 0x0 PUSH1 0x20 DUP3 DUP5 SUB SLT ISZERO PUSH2 0x5CF JUMPI PUSH1 0x0 DUP1 REVERT JUMPDEST DUP2 CALLDATALOAD DUP1 ISZERO ISZERO DUP2 EQ PUSH2 0x5DF JUMPI PUSH1 0x0 DUP1 REVERT JUMPDEST SWAP4 SWAP3 POP POP POP JUMP JUMPDEST PUSH4 0x4E487B71 PUSH1 0xE0 SHL PUSH1 0x0 MSTORE PUSH1 0x11 PUSH1 0x4 MSTORE PUSH1 0x24 PUSH1 0x0 REVERT JUMPDEST PUSH1 0x0 DUP2 PUSH2 0x60B JUMPI PUSH2 0x60B PUSH2 0x5E6 JUMP JUMPDEST POP PUSH1 0x0 NOT ADD SWAP1 JUMP JUMPDEST PUSH1 0x0 PUSH1 0x1 DUP3 ADD PUSH2 0x625 JUMPI PUSH2 0x625 PUSH2 0x5E6 JUMP JUMPDEST POP PUSH1 0x1 ADD SWAP1 JUMP JUMPDEST DUP1 DUP3 MUL DUP2 ISZERO DUP3 DUP3 DIV DUP5 EQ OR PUSH2 0x486 JUMPI PUSH2 0x486 PUSH2 0x5E6 JUMP JUMPDEST PUSH4 0x4E487B71 PUSH1 0xE0 SHL PUSH1 0x0 MSTORE PUSH1 0x12 PUSH1 0x4 MSTORE PUSH1 0x24 PUSH1 0x0 REVERT JUMPDEST PUSH1 0x0 DUP3 PUSH2 0x668 JUMPI PUSH2 0x668 PUSH2 0x643 JUMP JUMPDEST POP DIV SWAP1 JUMP JUMPDEST PUSH1 0x0 DUP3 PUSH2 0x67C JUMPI PUSH2 0x67C PUSH2 0x643 JUMP JUMPDEST POP MOD SWAP1 JUMP JUMPDEST DUP1 DUP3 ADD DUP1 DUP3 GT ISZERO PUSH2 0x486 JUMPI PUSH2 0x486 PUSH2 0x5E6 JUMP INVALID LOG2 PUSH5 0x6970667358 0x22 SLT KECCAK256 CALL 0xE4 SLOAD 0x4B 0x21 DUP2 MOD 0xF7 0xCC 0xE0 CHAINID SSTORE 0xBA DUP5 CALLER EXTCODECOPY 0xC GT DELEGATECALL 0xC8 PUSH7 0xEA1992842D1611 SWAP1 BASEFEE SHL RETURN PUSH5 0x736F6C6343 STOP ADDMOD SGT STOP CALLER "},"methodIdentifiers":{"NETWORK_FEE_PERCENT()":"806fff1c","PHI()":"66afe4b3","SATOSHI_PRECISION()":"83e24813","STARTING_PRICE()":"d12f7029","activateToken()":"f957417e","activationCount()":"6af411cd","activationPrices(uint256)":"5c09a9f6","activationSettled(uint256)":"2650487d","btcUsdPriceId()":"b2a84502","calculateNetworkFee(uint256)":"a8aecfe5","calculatePrice(uint256)":"ae104265","currentPrice()":"9d1b464a","deactivateToken()":"34e7f4a5","getBtcPrice()":"3a3610bc","getCurrentPrice()":"eb91d37e","processActivationWithSettlement(bool)":"39ce2508","pyth()":"f98d06f0","setTokensMinted(uint256)":"5ce7e030","tokensMinted()":"6de9f32b","updatePrice()":"673a7e28"}}}}}