{"contracts/XMBLToken.sol":{"XMBLToken":{"abi":[{"inputs":[{"internalType":"string","name":"name","type":"string"},{"internalType":"string","name":"symbol","type":"string"},{"internalType":"address","name":"_erc6551Registry","type":"address"},{"internalType":"address","name":"_tbaImplementation","type":"address"}],"stateMutability":"nonpayable","type":"constructor"},{"anonymous":false,"inputs":[{"indexed":true,"internalType":"address","name":"owner","type":"address"},{"indexed":true,"internalType":"address","name":"approved","type":"address"},{"indexed":true,"internalType":"uint256","name":"tokenId","type":"uint256"}],"name":"Approval","type":"event"},{"anonymous":false,"inputs":[{"indexed":true,"internalType":"address","name":"owner","type":"address"},{"indexed":true,"internalType":"address","name":"operator","type":"address"},{"indexed":false,"internalType":"bool","name":"approved","type":"bool"}],"name":"ApprovalForAll","type":"event"},{"anonymous":false,"inputs":[{"indexed":true,"internalType":"address","name":"oldDistributor","type":"address"},{"indexed":true,"internalType":"address","name":"newDistributor","type":"address"}],"name":"DividendDistributorUpdated","type":"event"},{"anonymous":false,"inputs":[{"indexed":true,"internalType":"address","name":"oldMinter","type":"address"},{"indexed":true,"internalType":"address","name":"newMinter","type":"address"}],"name":"MinterUpdated","type":"event"},{"anonymous":false,"inputs":[{"indexed":false,"internalType":"address","name":"account","type":"address"}],"name":"Paused","type":"event"},{"anonymous":false,"inputs":[{"indexed":true,"internalType":"bytes32","name":"role","type":"bytes32"},{"indexed":true,"internalType":"bytes32","name":"previousAdminRole","type":"bytes32"},{"indexed":true,"internalType":"bytes32","name":"newAdminRole","type":"bytes32"}],"name":"RoleAdminChanged","type":"event"},{"anonymous":false,"inputs":[{"indexed":true,"internalType":"bytes32","name":"role","type":"bytes32"},{"indexed":true,"internalType":"address","name":"account","type":"address"},{"indexed":true,"internalType":"address","name":"sender","type":"address"}],"name":"RoleGranted","type":"event"},{"anonymous":false,"inputs":[{"indexed":true,"internalType":"bytes32","name":"role","type":"bytes32"},{"indexed":true,"internalType":"address","name":"account","type":"address"},{"indexed":true,"internalType":"address","name":"sender","type":"address"}],"name":"RoleRevoked","type":"event"},{"anonymous":false,"inputs":[{"indexed":true,"internalType":"uint256","name":"tokenId","type":"uint256"},{"indexed":true,"internalType":"address","name":"account","type":"address"},{"indexed":true,"internalType":"address","name":"owner","type":"address"}],"name":"TokenBoundAccountCreated","type":"event"},{"anonymous":false,"inputs":[{"indexed":true,"internalType":"uint256","name":"tokenId","type":"uint256"},{"indexed":true,"internalType":"address","name":"owner","type":"address"}],"name":"TokenBurned","type":"event"},{"anonymous":false,"inputs":[{"indexed":true,"internalType":"address","name":"from","type":"address"},{"indexed":true,"internalType":"address","name":"to","type":"address"},{"indexed":true,"internalType":"uint256","name":"tokenId","type":"uint256"}],"name":"Transfer","type":"event"},{"anonymous":false,"inputs":[{"indexed":false,"internalType":"bool","name":"enabled","type":"bool"}],"name":"TransfersToggled","type":"event"},{"anonymous":false,"inputs":[{"indexed":false,"internalType":"address","name":"account","type":"address"}],"name":"Unpaused","type":"event"},{"inputs":[],"name":"DEFAULT_ADMIN_ROLE","outputs":[{"internalType":"bytes32","name":"","type":"bytes32"}],"stateMutability":"view","type":"function"},{"inputs":[],"name":"MINTER_ROLE","outputs":[{"internalType":"bytes32","name":"","type":"bytes32"}],"stateMutability":"view","type":"function"},{"inputs":[{"internalType":"uint256","name":"tokenId","type":"uint256"},{"internalType":"string","name":"protocol","type":"string"},{"internalType":"string","name":"asset","type":"string"},{"internalType":"uint256","name":"amount","type":"uint256"}],"name":"addTBAPosition","outputs":[],"stateMutability":"nonpayable","type":"function"},{"inputs":[{"internalType":"address","name":"to","type":"address"},{"internalType":"uint256","name":"tokenId","type":"uint256"}],"name":"approve","outputs":[],"stateMutability":"nonpayable","type":"function"},{"inputs":[{"internalType":"address","name":"owner","type":"address"}],"name":"balanceOf","outputs":[{"internalType":"uint256","name":"","type":"uint256"}],"stateMutability":"view","type":"function"},{"inputs":[{"internalType":"address[]","name":"recipients","type":"address[]"},{"internalType":"uint256[]","name":"depositValues","type":"uint256[]"},{"internalType":"address[]","name":"tokenAddresses","type":"address[]"}],"name":"batchMintWithTBA","outputs":[{"internalType":"uint256[]","name":"","type":"uint256[]"}],"stateMutability":"nonpayable","type":"function"},{"inputs":[{"internalType":"uint256","name":"tokenId","type":"uint256"}],"name":"burn","outputs":[],"stateMutability":"nonpayable","type":"function"},{"inputs":[],"name":"erc6551Registry","outputs":[{"internalType":"address","name":"","type":"address"}],"stateMutability":"view","type":"function"},{"inputs":[{"internalType":"uint256","name":"tokenId","type":"uint256"},{"internalType":"address","name":"target","type":"address"},{"internalType":"uint256","name":"value","type":"uint256"},{"internalType":"bytes","name":"data","type":"bytes"}],"name":"executeTBACall","outputs":[{"internalType":"bytes","name":"","type":"bytes"}],"stateMutability":"nonpayable","type":"function"},{"inputs":[{"internalType":"uint256","name":"tokenId","type":"uint256"}],"name":"getApproved","outputs":[{"internalType":"address","name":"","type":"address"}],"stateMutability":"view","type":"function"},{"inputs":[{"internalType":"uint256[]","name":"tokenIds","type":"uint256[]"}],"name":"getBatchNFTData","outputs":[{"components":[{"internalType":"uint256","name":"depositValue","type":"uint256"},{"internalType":"address","name":"tokenAddress","type":"address"},{"internalType":"address","name":"tbaAddress","type":"address"},{"internalType":"address","name":"owner","type":"address"},{"internalType":"uint256","name":"createdAt","type":"uint256"}],"internalType":"struct XMBLToken.NFTData[]","name":"","type":"tuple[]"}],"stateMutability":"view","type":"function"},{"inputs":[{"internalType":"uint256","name":"tokenId","type":"uint256"}],"name":"getNFTData","outputs":[{"components":[{"internalType":"uint256","name":"depositValue","type":"uint256"},{"internalType":"address","name":"tokenAddress","type":"address"},{"internalType":"address","name":"tbaAddress","type":"address"},{"internalType":"address","name":"owner","type":"address"},{"internalType":"uint256","name":"createdAt","type":"uint256"}],"internalType":"struct XMBLToken.NFTData","name":"","type":"tuple"}],"stateMutability":"view","type":"function"},{"inputs":[{"internalType":"bytes32","name":"role","type":"bytes32"}],"name":"getRoleAdmin","outputs":[{"internalType":"bytes32","name":"","type":"bytes32"}],"stateMutability":"view","type":"function"},{"inputs":[{"internalType":"uint256","name":"tokenId","type":"uint256"}],"name":"getTokenBoundAccount","outputs":[{"internalType":"address","name":"","type":"address"}],"stateMutability":"view","type":"function"},{"inputs":[{"internalType":"address","name":"user","type":"address"}],"name":"getUserPortfolio","outputs":[{"components":[{"internalType":"uint256[]","name":"tokenIds","type":"uint256[]"},{"components":[{"internalType":"uint256","name":"depositValue","type":"uint256"},{"internalType":"address","name":"tokenAddress","type":"address"},{"internalType":"address","name":"tbaAddress","type":"address"},{"internalType":"address","name":"owner","type":"address"},{"internalType":"uint256","name":"createdAt","type":"uint256"}],"internalType":"struct XMBLToken.NFTData[]","name":"nftData","type":"tuple[]"},{"internalType":"uint256","name":"totalDepositValue","type":"uint256"}],"internalType":"struct XMBLToken.Portfolio","name":"","type":"tuple"}],"stateMutability":"view","type":"function"},{"inputs":[{"internalType":"address","name":"user","type":"address"}],"name":"getUserTokens","outputs":[{"internalType":"uint256[]","name":"","type":"uint256[]"}],"stateMutability":"view","type":"function"},{"inputs":[{"internalType":"bytes32","name":"role","type":"bytes32"},{"internalType":"address","name":"account","type":"address"}],"name":"grantRole","outputs":[],"stateMutability":"nonpayable","type":"function"},{"inputs":[{"internalType":"bytes32","name":"role","type":"bytes32"},{"internalType":"address","name":"account","type":"address"}],"name":"hasRole","outputs":[{"internalType":"bool","name":"","type":"bool"}],"stateMutability":"view","type":"function"},{"inputs":[{"internalType":"address","name":"owner","type":"address"},{"internalType":"address","name":"operator","type":"address"}],"name":"isApprovedForAll","outputs":[{"internalType":"bool","name":"","type":"bool"}],"stateMutability":"view","type":"function"},{"inputs":[{"internalType":"uint256","name":"tokenId","type":"uint256"},{"internalType":"address","name":"account","type":"address"}],"name":"isValidTBAOwner","outputs":[{"internalType":"bool","name":"","type":"bool"}],"stateMutability":"view","type":"function"},{"inputs":[{"internalType":"address","name":"to","type":"address"},{"internalType":"uint256","name":"depositValue","type":"uint256"},{"internalType":"address","name":"tokenAddress","type":"address"}],"name":"mintWithTBA","outputs":[{"internalType":"uint256","name":"","type":"uint256"}],"stateMutability":"nonpayable","type":"function"},{"inputs":[],"name":"name","outputs":[{"internalType":"string","name":"","type":"string"}],"stateMutability":"view","type":"function"},{"inputs":[],"name":"nextTokenId","outputs":[{"internalType":"uint256","name":"","type":"uint256"}],"stateMutability":"view","type":"function"},{"inputs":[{"internalType":"uint256","name":"tokenId","type":"uint256"}],"name":"ownerOf","outputs":[{"internalType":"address","name":"","type":"address"}],"stateMutability":"view","type":"function"},{"inputs":[],"name":"pause","outputs":[],"stateMutability":"nonpayable","type":"function"},{"inputs":[],"name":"paused","outputs":[{"internalType":"bool","name":"","type":"bool"}],"stateMutability":"view","type":"function"},{"inputs":[{"internalType":"bytes32","name":"role","type":"bytes32"},{"internalType":"address","name":"account","type":"address"}],"name":"renounceRole","outputs":[],"stateMutability":"nonpayable","type":"function"},{"inputs":[{"internalType":"bytes32","name":"role","type":"bytes32"},{"internalType":"address","name":"account","type":"address"}],"name":"revokeRole","outputs":[],"stateMutability":"nonpayable","type":"function"},{"inputs":[{"internalType":"address","name":"from","type":"address"},{"internalType":"address","name":"to","type":"address"},{"internalType":"uint256","name":"tokenId","type":"uint256"}],"name":"safeTransferFrom","outputs":[],"stateMutability":"nonpayable","type":"function"},{"inputs":[{"internalType":"address","name":"from","type":"address"},{"internalType":"address","name":"to","type":"address"},{"internalType":"uint256","name":"tokenId","type":"uint256"},{"internalType":"bytes","name":"data","type":"bytes"}],"name":"safeTransferFrom","outputs":[],"stateMutability":"nonpayable","type":"function"},{"inputs":[{"internalType":"address","name":"operator","type":"address"},{"internalType":"bool","name":"approved","type":"bool"}],"name":"setApprovalForAll","outputs":[],"stateMutability":"nonpayable","type":"function"},{"inputs":[{"internalType":"uint256","name":"tokenId","type":"uint256"},{"internalType":"bool","name":"enabled","type":"bool"}],"name":"setAutoCompound","outputs":[],"stateMutability":"nonpayable","type":"function"},{"inputs":[{"internalType":"address","name":"newMinter","type":"address"}],"name":"setMinter","outputs":[],"stateMutability":"nonpayable","type":"function"},{"inputs":[{"internalType":"bytes4","name":"interfaceId","type":"bytes4"}],"name":"supportsInterface","outputs":[{"internalType":"bool","name":"","type":"bool"}],"stateMutability":"view","type":"function"},{"inputs":[],"name":"symbol","outputs":[{"internalType":"string","name":"","type":"string"}],"stateMutability":"view","type":"function"},{"inputs":[],"name":"tbaImplementation","outputs":[{"internalType":"address","name":"","type":"address"}],"stateMutability":"view","type":"function"},{"inputs":[{"internalType":"uint256","name":"index","type":"uint256"}],"name":"tokenByIndex","outputs":[{"internalType":"uint256","name":"","type":"uint256"}],"stateMutability":"view","type":"function"},{"inputs":[{"internalType":"address","name":"owner","type":"address"},{"internalType":"uint256","name":"index","type":"uint256"}],"name":"tokenOfOwnerByIndex","outputs":[{"internalType":"uint256","name":"","type":"uint256"}],"stateMutability":"view","type":"function"},{"inputs":[{"internalType":"uint256","name":"tokenId","type":"uint256"}],"name":"tokenURI","outputs":[{"internalType":"string","name":"","type":"string"}],"stateMutability":"view","type":"function"},{"inputs":[],"name":"totalSupply","outputs":[{"internalType":"uint256","name":"","type":"uint256"}],"stateMutability":"view","type":"function"},{"inputs":[{"internalType":"address","name":"from","type":"address"},{"internalType":"address","name":"to","type":"address"},{"internalType":"uint256","name":"tokenId","type":"uint256"}],"name":"transferFrom","outputs":[],"stateMutability":"nonpayable","type":"function"},{"inputs":[],"name":"unpause","outputs":[],"stateMutability":"nonpayable","type":"function"},{"inputs":[{"internalType":"uint256","name":"tokenId","type":"uint256"},{"internalType":"string","name":"name","type":"string"},{"internalType":"string","name":"description","type":"string"}],"name":"updateBaseMetadata","outputs":[],"stateMutability":"nonpayable","type":"function"},{"inputs":[{"internalType":"uint256","name":"tokenId","type":"uint256"}],"name":"updateTBABalance","outputs":[],"stateMutability":"nonpayable","type":"function"}],"evm":{"bytecode":{"linkReferences":{},"object":"60c06040523480156200001157600080fd5b50604051620044b0380380620044b08339810160408190526200003491620002e7565b8383600062000044838262000405565b50600162000053828262000405565b5050600b805460ff19169055506001600c556001600160a01b038216620000c15760405162461bcd60e51b815260206004820152601f60248201527f52656769737472792063616e6e6f74206265207a65726f20616464726573730060448201526064015b60405180910390fd5b6001600160a01b038116620001275760405162461bcd60e51b815260206004820152602560248201527f496d706c656d656e746174696f6e2063616e6e6f74206265207a65726f206164604482015264647265737360d81b6064820152608401620000b8565b6001600160a01b03808316608052811660a0526200014760003362000160565b62000156600d80546001019055565b50505050620004d1565b6000828152600a602090815260408083206001600160a01b038516845290915290205460ff1662000201576000828152600a602090815260408083206001600160a01b03851684529091529020805460ff19166001179055620001c03390565b6001600160a01b0316816001600160a01b0316837f2f8788117e7eff1d82e926ec794901d17c78024a50270940304540a733656f0d60405160405180910390a45b5050565b634e487b7160e01b600052604160045260246000fd5b600082601f8301126200022d57600080fd5b81516001600160401b03808211156200024a576200024a62000205565b604051601f8301601f19908116603f0116810190828211818310171562000275576200027562000205565b816040528381526020925086838588010111156200029257600080fd5b600091505b83821015620002b6578582018301518183018401529082019062000297565b600093810190920192909252949350505050565b80516001600160a01b0381168114620002e257600080fd5b919050565b60008060008060808587031215620002fe57600080fd5b84516001600160401b03808211156200031657600080fd5b62000324888389016200021b565b955060208701519150808211156200033b57600080fd5b506200034a878288016200021b565b9350506200035b60408601620002ca565b91506200036b60608601620002ca565b905092959194509250565b600181811c908216806200038b57607f821691505b602082108103620003ac57634e487b7160e01b600052602260045260246000fd5b50919050565b601f8211156200040057600081815260208120601f850160051c81016020861015620003db5750805b601f850160051c820191505b81811015620003fc57828155600101620003e7565b5050505b505050565b81516001600160401b0381111562000421576200042162000205565b620004398162000432845462000376565b84620003b2565b602080601f831160018114620004715760008415620004585750858301515b600019600386901b1c1916600185901b178555620003fc565b600085815260208120601f198616915b82811015620004a25788860151825594840194600190910190840162000481565b5085821015620004c15787850151600019600388901b60f8161c191681555b5050505050600190811b01905550565b60805160a051613fab620005056000396000818161051201526123b70152600081816102a601526124020152613fab6000f3fe608060405234801561001057600080fd5b50600436106102745760003560e01c8063519dc8d211610151578063a22cb465116100c3578063d4942fa911610087578063d4942fa91461059b578063d5391393146105bb578063d547741f146105d0578063e80dbe15146105e3578063e985e9c5146105f6578063fca3b5aa1461063257600080fd5b8063a22cb4651461053c578063abb23f5b1461054f578063b88d4fde14610562578063c74dc9a814610575578063c87b56dd1461058857600080fd5b806375794a3c1161011557806375794a3c146104e25780638456cb59146104ea57806391d14854146104f257806395d89b41146105055780639c04b8361461050d578063a217fddf1461053457600080fd5b8063519dc8d21461048b57806354164c811461049e5780635c975abb146104b15780636352211e146104bc57806370a08231146104cf57600080fd5b80632f2ff15d116101ea5780633f4ba83a116101ae5780633f4ba83a146104245780634180271d1461042c578063424090651461043f57806342842e0e1461045257806342966c68146104655780634f6ccce71461047857600080fd5b80632f2ff15d146103b85780632f745c59146103cb578063315edb82146103de57806336568abe146103fe5780633b761d871461041157600080fd5b80630ad4c4f41161023c5780630ad4c4f41461031d5780630bf25ef21461033d57806318160ddd146103505780631edb27e91461036257806323b872dd14610382578063248a9ca31461039557600080fd5b806301ffc9a714610279578063056d5afe146102a157806306fdde03146102e0578063081812fc146102f5578063095ea7b314610308575b600080fd5b61028c610287366004612f39565b610645565b60405190151581526020015b60405180910390f35b6102c87f000000000000000000000000000000000000000000000000000000000000000081565b6040516001600160a01b039091168152602001610298565b6102e8610656565b6040516102989190612fa6565b6102c8610303366004612fb9565b6106e8565b61031b610316366004612fe7565b61070f565b005b61033061032b366004612fb9565b610829565b6040516102989190613053565b61028c61034b366004613061565b6108ef565b6008545b604051908152602001610298565b610375610370366004613091565b61093a565b60405161029891906130f3565b61031b61039036600461316d565b610b5d565b6103546103a3366004612fb9565b6000908152600a602052604090206001015490565b61031b6103c6366004613061565b610b8e565b6103546103d9366004612fe7565b610bb3565b6103f16103ec3660046131f9565b610c49565b6040516102989190613292565b61031b61040c366004613061565b610dec565b61031b61041f3660046132e6565b610e6a565b61031b610ea7565b61035461043a366004613312565b610ebd565b6102e861044d366004613354565b610eeb565b61031b61046036600461316d565b61103d565b61031b610473366004612fb9565b611058565b610354610486366004612fb9565b61113a565b6103f1610499366004613091565b6111cd565b61031b6104ac366004612fb9565b61126e565b600b5460ff1661028c565b6102c86104ca366004612fb9565b6112ab565b6103546104dd366004613091565b6112e0565b610354611366565b61031b611376565b61028c610500366004613061565b611389565b6102e86113b4565b6102c87f000000000000000000000000000000000000000000000000000000000000000081565b610354600081565b61031b61054a3660046133e9565b6113c3565b6102c861055d366004612fb9565b6113ce565b61031b6105703660046134c0565b611411565b61031b61058336600461355f565b611449565b6102e8610596366004612fb9565b611486565b6105ae6105a93660046135cb565b611614565b604051610298919061360c565b610354600080516020613f5683398151915281565b61031b6105de366004613061565b6117cf565b61031b6105f136600461361f565b6117f4565b61028c610604366004613693565b6001600160a01b03918216600090815260056020908152604080832093909416825291909152205460ff1690565b61031b610640366004613091565b611838565b6000610650826118eb565b92915050565b606060008054610665906136c1565b80601f0160208091040260200160405190810160405280929190818152602001828054610691906136c1565b80156106de5780601f106106b3576101008083540402835291602001916106de565b820191906000526020600020905b8154815290600101906020018083116106c157829003601f168201915b5050505050905090565b60006106f382611910565b506000908152600460205260409020546001600160a01b031690565b600061071a826112ab565b9050806001600160a01b0316836001600160a01b03160361078c5760405162461bcd60e51b815260206004820152602160248201527f4552433732313a20617070726f76616c20746f2063757272656e74206f776e656044820152603960f91b60648201526084015b60405180910390fd5b336001600160a01b03821614806107a857506107a88133610604565b61081a5760405162461bcd60e51b815260206004820152603d60248201527f4552433732313a20617070726f76652063616c6c6572206973206e6f7420746f60448201527f6b656e206f776e6572206f7220617070726f76656420666f7220616c6c0000006064820152608401610783565b6108248383611935565b505050565b6040805160a08101825260008082526020820181905291810182905260608101829052608081019190915261085d826119a3565b6108795760405162461bcd60e51b8152600401610783906136fb565b6000828152600e6020908152604091829020825160a0810184528154815260018201546001600160a01b03908116938201939093526002820154831693810193909352600381015490911660608301526004015460808201526108db836112ab565b6001600160a01b0316606082015292915050565b60006108fa836119a3565b6109165760405162461bcd60e51b8152600401610783906136fb565b816001600160a01b0316610929846112ab565b6001600160a01b0316149392505050565b61095e60405180606001604052806060815260200160608152602001600081525090565b6000610969836112e0565b90506000816001600160401b0381111561098557610985613415565b6040519080825280602002602001820160405280156109ae578160200160208202803683370190505b5090506000826001600160401b038111156109cb576109cb613415565b604051908082528060200260200182016040528015610a2457816020015b6040805160a0810182526000808252602080830182905292820181905260608201819052608082015282526000199092019101816109e95790505b5090506000805b84811015610b3c576000610a3f8883610bb3565b905080858381518110610a5457610a54613729565b6020908102919091018101919091526000828152600e8252604090819020815160a0810183528154815260018201546001600160a01b039081169482019490945260028201548416928101929092526003810154909216606082015260049091015460808201528451859084908110610acf57610acf613729565b602002602001018190525087848381518110610aed57610aed613729565b6020908102919091018101516001600160a01b039092166060909201919091526000828152600e9091526040902054610b269084613755565b9250508080610b3490613768565b915050610a2b565b50604080516060810182529384526020840192909252908201529392505050565b610b6733826119c0565b610b835760405162461bcd60e51b815260040161078390613781565b610824838383611a3f565b6000828152600a6020526040902060010154610ba981611bb0565b6108248383611bba565b6000610bbe836112e0565b8210610c205760405162461bcd60e51b815260206004820152602b60248201527f455243373231456e756d657261626c653a206f776e657220696e646578206f7560448201526a74206f6620626f756e647360a81b6064820152608401610783565b506001600160a01b03919091166000908152600660209081526040808320938352929052205490565b6060600080516020613f56833981519152610c6381611bb0565b86610c9e5760405162461bcd60e51b815260206004820152600b60248201526a08adae0e8f240c4c2e8c6d60ab1b6044820152606401610783565b8685148015610cac57508683145b610cf05760405162461bcd60e51b8152602060048201526015602482015274082e4e4c2f240d8cadccee8d040dad2e6dac2e8c6d605b1b6044820152606401610783565b6000876001600160401b03811115610d0a57610d0a613415565b604051908082528060200260200182016040528015610d33578160200160208202803683370190505b50905060005b88811015610ddf57610db08a8a83818110610d5657610d56613729565b9050602002016020810190610d6b9190613091565b898984818110610d7d57610d7d613729565b90506020020135888885818110610d9657610d96613729565b9050602002016020810190610dab9190613091565b611c40565b828281518110610dc257610dc2613729565b602090810291909101015280610dd781613768565b915050610d39565b5098975050505050505050565b6001600160a01b0381163314610e5c5760405162461bcd60e51b815260206004820152602f60248201527f416363657373436f6e74726f6c3a2063616e206f6e6c792072656e6f756e636560448201526e103937b632b9903337b91039b2b63360891b6064820152608401610783565b610e668282611e08565b5050565b600080516020613f56833981519152610e8281611bb0565b610e8b836119a3565b6108245760405162461bcd60e51b8152600401610783906136fb565b6000610eb281611bb0565b610eba611e6f565b50565b6000600080516020613f56833981519152610ed781611bb0565b610ee2858585611c40565b95945050505050565b6060610ef6866119a3565b610f125760405162461bcd60e51b8152600401610783906136fb565b33610f1c876112ab565b6001600160a01b031614610f625760405162461bcd60e51b815260206004820152600d60248201526c2737ba1027232a1037bbb732b960991b6044820152606401610783565b6000868152600f60205260409020546001600160a01b031680610fb95760405162461bcd60e51b815260206004820152600f60248201526e151090481b9bdd0818dc99585d1959608a1b6044820152606401610783565b604051639e5d4c4960e01b81526001600160a01b03821690639e5d4c4990610feb9089908990899089906004016137ce565b6000604051808303816000875af115801561100a573d6000803e3d6000fd5b505050506040513d6000823e601f3d908101601f191682016040526110329190810190613816565b979650505050505050565b61082483838360405180602001604052806000815250611411565b600080516020613f5683398151915261107081611bb0565b611079826119a3565b6110955760405162461bcd60e51b815260040161078390613883565b60006110a0836112ab565b6000848152600e602090815260408083208381556001810180546001600160a01b031990811690915560028201805482169055600382018054821690556004909101849055600f9092529091208054909116905590506110ff83611ec1565b6040516001600160a01b0382169084907f33631bcd0a4d34a7e2c240ab0753d5adfb7284d8ac89dab6876ec785c0cfa0e690600090a3505050565b600061114560085490565b82106111a85760405162461bcd60e51b815260206004820152602c60248201527f455243373231456e756d657261626c653a20676c6f62616c20696e646578206f60448201526b7574206f6620626f756e647360a01b6064820152608401610783565b600882815481106111bb576111bb613729565b90600052602060002001549050919050565b606060006111da836112e0565b90506000816001600160401b038111156111f6576111f6613415565b60405190808252806020026020018201604052801561121f578160200160208202803683370190505b50905060005b82811015611266576112378582610bb3565b82828151811061124957611249613729565b60209081029190910101528061125e81613768565b915050611225565b509392505050565b600080516020613f5683398151915261128681611bb0565b61128f826119a3565b610e665760405162461bcd60e51b8152600401610783906136fb565b6000818152600260205260408120546001600160a01b0316806106505760405162461bcd60e51b815260040161078390613883565b60006001600160a01b03821661134a5760405162461bcd60e51b815260206004820152602960248201527f4552433732313a2061646472657373207a65726f206973206e6f7420612076616044820152683634b21037bbb732b960b91b6064820152608401610783565b506001600160a01b031660009081526003602052604090205490565b6000611371600d5490565b905090565b600061138181611bb0565b610eba611f64565b6000918252600a602090815260408084206001600160a01b0393909316845291905290205460ff1690565b606060018054610665906136c1565b610e66338383611fa1565b60006113d9826119a3565b6113f55760405162461bcd60e51b8152600401610783906136fb565b506000908152600f60205260409020546001600160a01b031690565b61141b33836119c0565b6114375760405162461bcd60e51b815260040161078390613781565b6114438484848461206f565b50505050565b600080516020613f5683398151915261146181611bb0565b61146a846119a3565b6114435760405162461bcd60e51b8152600401610783906136fb565b6060611491826119a3565b6114ad5760405162461bcd60e51b8152600401610783906136fb565b6000828152600e60209081526040808320815160a0810183528154815260018201546001600160a01b0390811694820194909452600282015484169281019290925260038101549092166060820152600490910154608082015290611511846120a2565b60405160200161152191906138d6565b60408051601f1981840301815260808301909152604180835290925060009190613ed560208301399050600061156d670de0b6b3a764000085600001516115689190613927565b6120a2565b61157a8560200151612134565b6115878660400151612134565b61159487608001516120a2565b6040516020016115a7949392919061393b565b604051602081830303815290604052905060008383836040516020016115cf93929190613ab2565b60405160208183030381529060405290506115e98161214a565b6040516020016115f99190613b6b565b60405160208183030381529060405295505050505050919050565b60606000826001600160401b0381111561163057611630613415565b60405190808252806020026020018201604052801561168957816020015b6040805160a08101825260008082526020808301829052928201819052606082018190526080820152825260001990920191018161164e5790505b50905060005b83811015611266576116b88585838181106116ac576116ac613729565b905060200201356119a3565b6116d45760405162461bcd60e51b8152600401610783906136fb565b600e60008686848181106116ea576116ea613729565b60209081029290920135835250818101929092526040908101600020815160a0810183528154815260018201546001600160a01b03908116948201949094526002820154841692810192909252600381015490921660608201526004909101546080820152825183908390811061176357611763613729565b602002602001018190525061178f85858381811061178357611783613729565b905060200201356112ab565b8282815181106117a1576117a1613729565b60209081029190910101516001600160a01b03909116606090910152806117c781613768565b91505061168f565b6000828152600a60205260409020600101546117ea81611bb0565b6108248383611e08565b600080516020613f5683398151915261180c81611bb0565b611815856119a3565b6118315760405162461bcd60e51b8152600401610783906136fb565b5050505050565b600061184381611bb0565b6001600160a01b0382166118995760405162461bcd60e51b815260206004820152601d60248201527f4d696e7465722063616e6e6f74206265207a65726f20616464726573730000006044820152606401610783565b6118b1600080516020613f5683398151915283611bba565b6040516001600160a01b038316906000907f1cf2de25c5bf439ac0287061c3a0fa69b3b02867d0ccfd2ded34e42577050b73908290a35050565b60006001600160e01b03198216637965db0b60e01b14806106505750610650826122a9565b611919816119a3565b610eba5760405162461bcd60e51b815260040161078390613883565b600081815260046020526040902080546001600160a01b0319166001600160a01b038416908117909155819061196a826112ab565b6001600160a01b03167f8c5be1e5ebec7d5bd14f71427d1e84f3dd0314c0f7b2291e5b200ac8c7c3b92560405160405180910390a45050565b6000908152600260205260409020546001600160a01b0316151590565b6000806119cc836112ab565b9050806001600160a01b0316846001600160a01b03161480611a1357506001600160a01b0380821660009081526005602090815260408083209388168352929052205460ff165b80611a375750836001600160a01b0316611a2c846106e8565b6001600160a01b0316145b949350505050565b826001600160a01b0316611a52826112ab565b6001600160a01b031614611a785760405162461bcd60e51b815260040161078390613bb0565b6001600160a01b038216611ada5760405162461bcd60e51b8152602060048201526024808201527f4552433732313a207472616e7366657220746f20746865207a65726f206164646044820152637265737360e01b6064820152608401610783565b611ae783838360016122ce565b826001600160a01b0316611afa826112ab565b6001600160a01b031614611b205760405162461bcd60e51b815260040161078390613bb0565b600081815260046020908152604080832080546001600160a01b03199081169091556001600160a01b0387811680865260038552838620805460001901905590871680865283862080546001019055868652600290945282852080549092168417909155905184937fddf252ad1be2c89b69c2b068fc378daa952ba7f163c4a11628f55a4df523b3ef91a4505050565b610eba8133612339565b611bc48282611389565b610e66576000828152600a602090815260408083206001600160a01b03851684529091529020805460ff19166001179055611bfc3390565b6001600160a01b0316816001600160a01b0316837f2f8788117e7eff1d82e926ec794901d17c78024a50270940304540a733656f0d60405160405180910390a45050565b60006001600160a01b038416611c985760405162461bcd60e51b815260206004820152601b60248201527f43616e6e6f74206d696e7420746f207a65726f206164647265737300000000006044820152606401610783565b60008311611cf85760405162461bcd60e51b815260206004820152602760248201527f4465706f7369742076616c7565206d7573742062652067726561746572207468604482015266616e207a65726f60c81b6064820152608401610783565b6000611d03600d5490565b9050611d13600d80546001019055565b611d1d8582612386565b6000611d28826123a0565b6040805160a0810182528781526001600160a01b0380881660208084019182528286168486018181528d851660608701818152426080890190815260008d8152600e87528a812099518a55965160018a018054918a166001600160a01b0319928316179055935160028a018054918a16918616919091179055905160038901805491909816908416179096559451600490960195909555600f90915284822080549094168117909355925193945092909185917f52ed26de8795d26f48a8c6b8fd428ab41cef9b2be844c97569e5f575a3da1ca19190a450949350505050565b611e128282611389565b15610e66576000828152600a602090815260408083206001600160a01b0385168085529252808320805460ff1916905551339285917ff6391f5c32d9c69d2a47ea670b442974b53935d1edc7fd64eb21e047a839171b9190a45050565b611e77612471565b600b805460ff191690557f5db9ee0a495bf2e6ff9c91a7834c1ba4fdd244a5e8aa4e537bd38aeae4b073aa335b6040516001600160a01b03909116815260200160405180910390a1565b6000611ecc826112ab565b9050611edc8160008460016122ce565b611ee5826112ab565b600083815260046020908152604080832080546001600160a01b03199081169091556001600160a01b0385168085526003845282852080546000190190558785526002909352818420805490911690555192935084927fddf252ad1be2c89b69c2b068fc378daa952ba7f163c4a11628f55a4df523b3ef908390a45050565b611f6c6124bc565b600b805460ff191660011790557f62e78cea01bee320cd4e420270b5ea74000d11b0c9f74754ebdbfc544b05a258611ea43390565b816001600160a01b0316836001600160a01b0316036120025760405162461bcd60e51b815260206004820152601960248201527f4552433732313a20617070726f766520746f2063616c6c6572000000000000006044820152606401610783565b6001600160a01b03838116600081815260056020908152604080832094871680845294825291829020805460ff191686151590811790915591519182527f17307eab39ab6107e8899845ad3d59bd9653f200f220920489ca2b5937696c31910160405180910390a3505050565b61207a848484611a3f565b61208684848484612502565b6114435760405162461bcd60e51b815260040161078390613bf5565b606060006120af83612603565b60010190506000816001600160401b038111156120ce576120ce613415565b6040519080825280601f01601f1916602001820160405280156120f8576020820181803683370190505b5090508181016020015b600019016f181899199a1a9b1b9c1cb0b131b232b360811b600a86061a8153600a850494508461210257509392505050565b6060610650826001600160a01b031660146126db565b6060815160000361216957505060408051602081019091526000815290565b6000604051806060016040528060408152602001613f1660409139905060006003845160026121989190613755565b6121a29190613927565b6121ad906004613c47565b6001600160401b038111156121c4576121c4613415565b6040519080825280601f01601f1916602001820160405280156121ee576020820181803683370190505b50905060018201602082018586518701602081018051600082525b82841015612264576003840193508351603f8160121c168701518653600186019550603f81600c1c168701518653600186019550603f8160061c168701518653600186019550603f8116870151865350600185019450612209565b905250508551600390066001811461228357600281146122965761229e565b603d6001830353603d600283035361229e565b603d60018303535b509195945050505050565b60006001600160e01b0319821663780e9d6360e01b148061065057506106508261287d565b6122d66124bc565b6122e2848484846128cd565b6001600160a01b0384161580159061230257506001600160a01b03831615155b15611443576000828152600e6020526040902060030180546001600160a01b0385166001600160a01b031990911617905550505050565b6123438282611389565b610e6657612350816129fa565b6040516020016123609190613c5e565b60408051601f198184030181529082905262461bcd60e51b825261078391600401612fa6565b610e66828260405180602001604052806000815250612baa565b604051638a54c52f60e01b81526001600160a01b037f00000000000000000000000000000000000000000000000000000000000000008116600483015260248201839052466044830181905230606484015260848301849052600092909184917f000000000000000000000000000000000000000000000000000000000000000090911690638a54c52f9060a4016020604051808303816000875af115801561244d573d6000803e3d6000fd5b505050506040513d601f19601f82011682018060405250810190611a379190613cbd565b600b5460ff166124ba5760405162461bcd60e51b815260206004820152601460248201527314185d5cd8589b194e881b9bdd081c185d5cd95960621b6044820152606401610783565b565b600b5460ff16156124ba5760405162461bcd60e51b815260206004820152601060248201526f14185d5cd8589b194e881c185d5cd95960821b6044820152606401610783565b60006001600160a01b0384163b156125f857604051630a85bd0160e11b81526001600160a01b0385169063150b7a0290612546903390899088908890600401613cda565b6020604051808303816000875af1925050508015612581575060408051601f3d908101601f1916820190925261257e91810190613d17565b60015b6125de573d8080156125af576040519150601f19603f3d011682016040523d82523d6000602084013e6125b4565b606091505b5080516000036125d65760405162461bcd60e51b815260040161078390613bf5565b805181602001fd5b6001600160e01b031916630a85bd0160e11b149050611a37565b506001949350505050565b60008072184f03e93ff9f4daa797ed6e38ed64bf6a1f0160401b83106126425772184f03e93ff9f4daa797ed6e38ed64bf6a1f0160401b830492506040015b6d04ee2d6d415b85acef8100000000831061266e576d04ee2d6d415b85acef8100000000830492506020015b662386f26fc10000831061268c57662386f26fc10000830492506010015b6305f5e10083106126a4576305f5e100830492506008015b61271083106126b857612710830492506004015b606483106126ca576064830492506002015b600a83106106505760010192915050565b606060006126ea836002613c47565b6126f5906002613755565b6001600160401b0381111561270c5761270c613415565b6040519080825280601f01601f191660200182016040528015612736576020820181803683370190505b509050600360fc1b8160008151811061275157612751613729565b60200101906001600160f81b031916908160001a905350600f60fb1b8160018151811061278057612780613729565b60200101906001600160f81b031916908160001a90535060006127a4846002613c47565b6127af906001613755565b90505b6001811115612827576f181899199a1a9b1b9c1cb0b131b232b360811b85600f16601081106127e3576127e3613729565b1a60f81b8282815181106127f9576127f9613729565b60200101906001600160f81b031916908160001a90535060049490941c9361282081613d34565b90506127b2565b5083156128765760405162461bcd60e51b815260206004820181905260248201527f537472696e67733a20686578206c656e67746820696e73756666696369656e746044820152606401610783565b9392505050565b60006001600160e01b031982166380ac58cd60e01b14806128ae57506001600160e01b03198216635b5e139f60e01b145b8061065057506301ffc9a760e01b6001600160e01b0319831614610650565b600181111561293c5760405162461bcd60e51b815260206004820152603560248201527f455243373231456e756d657261626c653a20636f6e7365637574697665207472604482015274185b9cd9995c9cc81b9bdd081cdd5c1c1bdc9d1959605a1b6064820152608401610783565b816001600160a01b0385166129985761299381600880546000838152600960205260408120829055600182018355919091527ff3f7a9fe364faab93b216da50a3214154f22a0a2b415b23a84c8169e8b636ee30155565b6129bb565b836001600160a01b0316856001600160a01b0316146129bb576129bb8582612bdd565b6001600160a01b0384166129d7576129d281612c7a565b611831565b846001600160a01b0316846001600160a01b031614611831576118318482612d29565b60408051602a808252606082810190935260009190602082018180368337019050509050600360fc1b81600081518110612a3657612a36613729565b60200101906001600160f81b031916908160001a905350600f60fb1b81600181518110612a6557612a65613729565b60200101906001600160f81b031916908160001a90535060005b6014811015612ba3576000612a95826013613d4b565b612aa0906008613c47565b612aab906002613e42565b612abe906001600160a01b038716613927565b60f81b9050600060108260f81c612ad59190613e4e565b60f81b905060008160f81c6010612aec9190613e70565b8360f81c612afa9190613e8c565b60f81b9050612b0882612d6d565b85612b14866002613c47565b612b1f906002613755565b81518110612b2f57612b2f613729565b60200101906001600160f81b031916908160001a905350612b4f81612d6d565b85612b5b866002613c47565b612b66906003613755565b81518110612b7657612b76613729565b60200101906001600160f81b031916908160001a9053505050508080612b9b90613768565b915050612a7f565b5092915050565b612bb48383612da8565b612bc16000848484612502565b6108245760405162461bcd60e51b815260040161078390613bf5565b60006001612bea846112e0565b612bf49190613d4b565b600083815260076020526040902054909150808214612c47576001600160a01b03841660009081526006602090815260408083208584528252808320548484528184208190558352600790915290208190555b5060009182526007602090815260408084208490556001600160a01b039094168352600681528383209183525290812055565b600854600090612c8c90600190613d4b565b60008381526009602052604081205460088054939450909284908110612cb457612cb4613729565b906000526020600020015490508060088381548110612cd557612cd5613729565b6000918252602080832090910192909255828152600990915260408082208490558582528120556008805480612d0d57612d0d613ea5565b6001900381819060005260206000200160009055905550505050565b6000612d34836112e0565b6001600160a01b039093166000908152600660209081526040808320868452825280832085905593825260079052919091209190915550565b6000600a60f883901c1015612d9457612d8b60f883901c6030613ebb565b60f81b92915050565b612d8b60f883901c6057613ebb565b919050565b6001600160a01b038216612dfe5760405162461bcd60e51b815260206004820181905260248201527f4552433732313a206d696e7420746f20746865207a65726f20616464726573736044820152606401610783565b612e07816119a3565b15612e545760405162461bcd60e51b815260206004820152601c60248201527f4552433732313a20746f6b656e20616c7265616479206d696e746564000000006044820152606401610783565b612e626000838360016122ce565b612e6b816119a3565b15612eb85760405162461bcd60e51b815260206004820152601c60248201527f4552433732313a20746f6b656e20616c7265616479206d696e746564000000006044820152606401610783565b6001600160a01b038216600081815260036020908152604080832080546001019055848352600290915280822080546001600160a01b0319168417905551839291907fddf252ad1be2c89b69c2b068fc378daa952ba7f163c4a11628f55a4df523b3ef908290a45050565b6001600160e01b031981168114610eba57600080fd5b600060208284031215612f4b57600080fd5b813561287681612f23565b60005b83811015612f71578181015183820152602001612f59565b50506000910152565b60008151808452612f92816020860160208601612f56565b601f01601f19169290920160200192915050565b6020815260006128766020830184612f7a565b600060208284031215612fcb57600080fd5b5035919050565b6001600160a01b0381168114610eba57600080fd5b60008060408385031215612ffa57600080fd5b823561300581612fd2565b946020939093013593505050565b805182526020808201516001600160a01b039081169184019190915260408083015182169084015260608083015190911690830152608090810151910152565b60a081016106508284613013565b6000806040838503121561307457600080fd5b82359150602083013561308681612fd2565b809150509250929050565b6000602082840312156130a357600080fd5b813561287681612fd2565b600081518084526020808501945080840160005b838110156130e8576130d5878351613013565b60a09690960195908201906001016130c2565b509495945050505050565b6020808252825160608383015280516080840181905260009291820190839060a08601905b808310156131385783518252928401926001929092019190840190613118565b5092860151858403601f190160408701529261315481856130ae565b9350505050604084015160608401528091505092915050565b60008060006060848603121561318257600080fd5b833561318d81612fd2565b9250602084013561319d81612fd2565b929592945050506040919091013590565b60008083601f8401126131c057600080fd5b5081356001600160401b038111156131d757600080fd5b6020830191508360208260051b85010111156131f257600080fd5b9250929050565b6000806000806000806060878903121561321257600080fd5b86356001600160401b038082111561322957600080fd5b6132358a838b016131ae565b9098509650602089013591508082111561324e57600080fd5b61325a8a838b016131ae565b9096509450604089013591508082111561327357600080fd5b5061328089828a016131ae565b979a9699509497509295939492505050565b6020808252825182820181905260009190848201906040850190845b818110156132ca578351835292840192918401916001016132ae565b50909695505050505050565b80358015158114612da357600080fd5b600080604083850312156132f957600080fd5b82359150613309602084016132d6565b90509250929050565b60008060006060848603121561332757600080fd5b833561333281612fd2565b925060208401359150604084013561334981612fd2565b809150509250925092565b60008060008060006080868803121561336c57600080fd5b85359450602086013561337e81612fd2565b93506040860135925060608601356001600160401b03808211156133a157600080fd5b818801915088601f8301126133b557600080fd5b8135818111156133c457600080fd5b8960208285010111156133d657600080fd5b9699959850939650602001949392505050565b600080604083850312156133fc57600080fd5b823561340781612fd2565b9150613309602084016132d6565b634e487b7160e01b600052604160045260246000fd5b604051601f8201601f191681016001600160401b038111828210171561345357613453613415565b604052919050565b60006001600160401b0382111561347457613474613415565b50601f01601f191660200190565b60006134956134908461345b565b61342b565b90508281528383830111156134a957600080fd5b828260208301376000602084830101529392505050565b600080600080608085870312156134d657600080fd5b84356134e181612fd2565b935060208501356134f181612fd2565b92506040850135915060608501356001600160401b0381111561351357600080fd5b8501601f8101871361352457600080fd5b61353387823560208401613482565b91505092959194509250565b600082601f83011261355057600080fd5b61287683833560208501613482565b60008060006060848603121561357457600080fd5b8335925060208401356001600160401b038082111561359257600080fd5b61359e8783880161353f565b935060408601359150808211156135b457600080fd5b506135c18682870161353f565b9150509250925092565b600080602083850312156135de57600080fd5b82356001600160401b038111156135f457600080fd5b613600858286016131ae565b90969095509350505050565b60208152600061287660208301846130ae565b6000806000806080858703121561363557600080fd5b8435935060208501356001600160401b038082111561365357600080fd5b61365f8883890161353f565b9450604087013591508082111561367557600080fd5b506136828782880161353f565b949793965093946060013593505050565b600080604083850312156136a657600080fd5b82356136b181612fd2565b9150602083013561308681612fd2565b600181811c908216806136d557607f821691505b6020821081036136f557634e487b7160e01b600052602260045260246000fd5b50919050565b602080825260149082015273151bdad95b88191bd95cc81b9bdd08195e1a5cdd60621b604082015260600190565b634e487b7160e01b600052603260045260246000fd5b634e487b7160e01b600052601160045260246000fd5b808201808211156106505761065061373f565b60006001820161377a5761377a61373f565b5060010190565b6020808252602d908201527f4552433732313a2063616c6c6572206973206e6f7420746f6b656e206f776e6560408201526c1c881bdc88185c1c1c9bdd9959609a1b606082015260800190565b6001600160a01b0385168152602081018490526060604082018190528101829052818360808301376000818301608090810191909152601f909201601f191601019392505050565b60006020828403121561382857600080fd5b81516001600160401b0381111561383e57600080fd5b8201601f8101841361384f57600080fd5b805161385d6134908261345b565b81815285602083850101111561387257600080fd5b610ee2826020830160208601612f56565b60208082526018908201527f4552433732313a20696e76616c696420746f6b656e2049440000000000000000604082015260600190565b600081516138cc818560208601612f56565b9290920192915050565b72584d424c204c697175696420546f6b656e202360681b815260008251613904816013850160208701612f56565b9190910160130192915050565b634e487b7160e01b600052601260045260246000fd5b60008261393657613936613911565b500490565b605b60f81b81527f7b2274726169745f74797065223a20224465706f7369742056616c7565222c206001820152600069113b30b63ab2911d101160b11b806021840152865161399181602b860160208b01612f56565b6608115512089f4b60ca1b602b918501918201527f7b2274726169745f74797065223a2022546f6b656e2041646472657373222c20603282015260528101919091528551906139e782605c830160208a01612f56565b62089f4b60ea1b9101605c8101919091527f7b2274726169745f74797065223a20225442412041646472657373222c202276605f8201526730b63ab2911d101160c11b607f820152611032613aa5613a98613a92613a5a613a4b608787018b6138ba565b62089f4b60ea1b815260030190565b7f7b2274726169745f74797065223a202243726561746564204174222c202276618152650363ab2911d160d51b602082015260260190565b876138ba565b607d60f81b815260010190565b605d60f81b815260010190565b607b60f81b815268113730b6b2911d101160b91b60018201528351600090613ae181600a850160208901612f56565b61088b60f21b600a9184019182018190526f113232b9b1b934b83a34b7b7111d101160811b600c8301528551613b1e81601c850160208a01612f56565b601c9201918201526d01130ba3a3934b13aba32b9911d160951b601e8201528351613b5081602c840160208801612f56565b607d60f81b602c9290910191820152602d0195945050505050565b7f646174613a6170706c69636174696f6e2f6a736f6e3b6261736536342c000000815260008251613ba381601d850160208701612f56565b91909101601d0192915050565b60208082526025908201527f4552433732313a207472616e736665722066726f6d20696e636f72726563742060408201526437bbb732b960d91b606082015260800190565b60208082526032908201527f4552433732313a207472616e7366657220746f206e6f6e20455243373231526560408201527131b2b4bb32b91034b6b83632b6b2b73a32b960711b606082015260800190565b80820281158282048414176106505761065061373f565b7f416363657373436f6e74726f6c3a206163636f756e7420000000000000000000815260008251613c96816017850160208701612f56565b6f206973206d697373696e6720726f6c6560801b6017939091019283015250602701919050565b600060208284031215613ccf57600080fd5b815161287681612fd2565b6001600160a01b0385811682528416602082015260408101839052608060608201819052600090613d0d90830184612f7a565b9695505050505050565b600060208284031215613d2957600080fd5b815161287681612f23565b600081613d4357613d4361373f565b506000190190565b818103818111156106505761065061373f565b600181815b80851115613d99578160001904821115613d7f57613d7f61373f565b80851615613d8c57918102915b93841c9390800290613d63565b509250929050565b600082613db057506001610650565b81613dbd57506000610650565b8160018114613dd35760028114613ddd57613df9565b6001915050610650565b60ff841115613dee57613dee61373f565b50506001821b610650565b5060208310610133831016604e8410600b8410161715613e1c575081810a610650565b613e268383613d5e565b8060001904821115613e3a57613e3a61373f565b029392505050565b60006128768383613da1565b600060ff831680613e6157613e61613911565b8060ff84160491505092915050565b60ff8181168382160290811690818114612ba357612ba361373f565b60ff82811682821603908111156106505761065061373f565b634e487b7160e01b600052603160045260246000fd5b60ff81811683821601908111156106505761065061373f56fe584d424c2070726f746f636f6c206c697175696420746f6b656e207769746820546f6b656e20426f756e64204163636f756e742066756e6374696f6e616c6974794142434445464748494a4b4c4d4e4f505152535455565758595a6162636465666768696a6b6c6d6e6f707172737475767778797a303132333435363738392b2f9f2df0fed2c77648de5860a4cc508cd0818c85b8b8a1ab4ceeef8d981c8956a6a26469706673582212207231169a940c46ed9f5e8c1123fd7bdeb55432502d541d77459eda533151a12664736f6c63430008130033","opcodes":"PUSH1 0xC0 PUSH1 0x40 MSTORE CALLVALUE DUP1 ISZERO PUSH3 0x11 JUMPI PUSH1 0x0 DUP1 REVERT JUMPDEST POP PUSH1 0x40 MLOAD PUSH3 0x44B0 CODESIZE SUB DUP1 PUSH3 0x44B0 DUP4 CODECOPY DUP2 ADD PUSH1 0x40 DUP2 SWAP1 MSTORE PUSH3 0x34 SWAP2 PUSH3 0x2E7 JUMP JUMPDEST DUP4 DUP4 PUSH1 0x0 PUSH3 0x44 DUP4 DUP3 PUSH3 0x405 JUMP JUMPDEST POP PUSH1 0x1 PUSH3 0x53 DUP3 DUP3 PUSH3 0x405 JUMP JUMPDEST POP POP PUSH1 0xB DUP1 SLOAD PUSH1 0xFF NOT AND SWAP1 SSTORE POP PUSH1 0x1 PUSH1 0xC SSTORE PUSH1 0x1 PUSH1 0x1 PUSH1 0xA0 SHL SUB DUP3 AND PUSH3 0xC1 JUMPI PUSH1 0x40 MLOAD PUSH3 0x461BCD PUSH1 0xE5 SHL DUP2 MSTORE PUSH1 0x20 PUSH1 0x4 DUP3 ADD MSTORE PUSH1 0x1F PUSH1 0x24 DUP3 ADD MSTORE PUSH32 0x52656769737472792063616E6E6F74206265207A65726F206164647265737300 PUSH1 0x44 DUP3 ADD MSTORE PUSH1 0x64 ADD JUMPDEST PUSH1 0x40 MLOAD DUP1 SWAP2 SUB SWAP1 REVERT JUMPDEST PUSH1 0x1 PUSH1 0x1 PUSH1 0xA0 SHL SUB DUP2 AND PUSH3 0x127 JUMPI PUSH1 0x40 MLOAD PUSH3 0x461BCD PUSH1 0xE5 SHL DUP2 MSTORE PUSH1 0x20 PUSH1 0x4 DUP3 ADD MSTORE PUSH1 0x25 PUSH1 0x24 DUP3 ADD MSTORE PUSH32 0x496D706C656D656E746174696F6E2063616E6E6F74206265207A65726F206164 PUSH1 0x44 DUP3 ADD MSTORE PUSH5 0x6472657373 PUSH1 0xD8 SHL PUSH1 0x64 DUP3 ADD MSTORE PUSH1 0x84 ADD PUSH3 0xB8 JUMP JUMPDEST PUSH1 0x1 PUSH1 0x1 PUSH1 0xA0 SHL SUB DUP1 DUP4 AND PUSH1 0x80 MSTORE DUP2 AND PUSH1 0xA0 MSTORE PUSH3 0x147 PUSH1 0x0 CALLER PUSH3 0x160 JUMP JUMPDEST PUSH3 0x156 PUSH1 0xD DUP1 SLOAD PUSH1 0x1 ADD SWAP1 SSTORE JUMP JUMPDEST POP POP POP POP PUSH3 0x4D1 JUMP JUMPDEST PUSH1 0x0 DUP3 DUP2 MSTORE PUSH1 0xA PUSH1 0x20 SWAP1 DUP2 MSTORE PUSH1 0x40 DUP1 DUP4 KECCAK256 PUSH1 0x1 PUSH1 0x1 PUSH1 0xA0 SHL SUB DUP6 AND DUP5 MSTORE SWAP1 SWAP2 MSTORE SWAP1 KECCAK256 SLOAD PUSH1 0xFF AND PUSH3 0x201 JUMPI PUSH1 0x0 DUP3 DUP2 MSTORE PUSH1 0xA PUSH1 0x20 SWAP1 DUP2 MSTORE PUSH1 0x40 DUP1 DUP4 KECCAK256 PUSH1 0x1 PUSH1 0x1 PUSH1 0xA0 SHL SUB DUP6 AND DUP5 MSTORE SWAP1 SWAP2 MSTORE SWAP1 KECCAK256 DUP1 SLOAD PUSH1 0xFF NOT AND PUSH1 0x1 OR SWAP1 SSTORE PUSH3 0x1C0 CALLER SWAP1 JUMP JUMPDEST PUSH1 0x1 PUSH1 0x1 PUSH1 0xA0 SHL SUB AND DUP2 PUSH1 0x1 PUSH1 0x1 PUSH1 0xA0 SHL SUB AND DUP4 PUSH32 0x2F8788117E7EFF1D82E926EC794901D17C78024A50270940304540A733656F0D PUSH1 0x40 MLOAD PUSH1 0x40 MLOAD DUP1 SWAP2 SUB SWAP1 LOG4 JUMPDEST POP POP JUMP JUMPDEST PUSH4 0x4E487B71 PUSH1 0xE0 SHL PUSH1 0x0 MSTORE PUSH1 0x41 PUSH1 0x4 MSTORE PUSH1 0x24 PUSH1 0x0 REVERT JUMPDEST PUSH1 0x0 DUP3 PUSH1 0x1F DUP4 ADD SLT PUSH3 0x22D JUMPI PUSH1 0x0 DUP1 REVERT JUMPDEST DUP2 MLOAD PUSH1 0x1 PUSH1 0x1 PUSH1 0x40 SHL SUB DUP1 DUP3 GT ISZERO PUSH3 0x24A JUMPI PUSH3 0x24A PUSH3 0x205 JUMP JUMPDEST PUSH1 0x40 MLOAD PUSH1 0x1F DUP4 ADD PUSH1 0x1F NOT SWAP1 DUP2 AND PUSH1 0x3F ADD AND DUP2 ADD SWAP1 DUP3 DUP3 GT DUP2 DUP4 LT OR ISZERO PUSH3 0x275 JUMPI PUSH3 0x275 PUSH3 0x205 JUMP JUMPDEST DUP2 PUSH1 0x40 MSTORE DUP4 DUP2 MSTORE PUSH1 0x20 SWAP3 POP DUP7 DUP4 DUP6 DUP9 ADD ADD GT ISZERO PUSH3 0x292 JUMPI PUSH1 0x0 DUP1 REVERT JUMPDEST PUSH1 0x0 SWAP2 POP JUMPDEST DUP4 DUP3 LT ISZERO PUSH3 0x2B6 JUMPI DUP6 DUP3 ADD DUP4 ADD MLOAD DUP2 DUP4 ADD DUP5 ADD MSTORE SWAP1 DUP3 ADD SWAP1 PUSH3 0x297 JUMP JUMPDEST PUSH1 0x0 SWAP4 DUP2 ADD SWAP1 SWAP3 ADD SWAP3 SWAP1 SWAP3 MSTORE SWAP5 SWAP4 POP POP POP POP JUMP JUMPDEST DUP1 MLOAD PUSH1 0x1 PUSH1 0x1 PUSH1 0xA0 SHL SUB DUP2 AND DUP2 EQ PUSH3 0x2E2 JUMPI PUSH1 0x0 DUP1 REVERT JUMPDEST SWAP2 SWAP1 POP JUMP JUMPDEST PUSH1 0x0 DUP1 PUSH1 0x0 DUP1 PUSH1 0x80 DUP6 DUP8 SUB SLT ISZERO PUSH3 0x2FE JUMPI PUSH1 0x0 DUP1 REVERT JUMPDEST DUP5 MLOAD PUSH1 0x1 PUSH1 0x1 PUSH1 0x40 SHL SUB DUP1 DUP3 GT ISZERO PUSH3 0x316 JUMPI PUSH1 0x0 DUP1 REVERT JUMPDEST PUSH3 0x324 DUP9 DUP4 DUP10 ADD PUSH3 0x21B JUMP JUMPDEST SWAP6 POP PUSH1 0x20 DUP8 ADD MLOAD SWAP2 POP DUP1 DUP3 GT ISZERO PUSH3 0x33B JUMPI PUSH1 0x0 DUP1 REVERT JUMPDEST POP PUSH3 0x34A DUP8 DUP3 DUP9 ADD PUSH3 0x21B JUMP JUMPDEST SWAP4 POP POP PUSH3 0x35B PUSH1 0x40 DUP7 ADD PUSH3 0x2CA JUMP JUMPDEST SWAP2 POP PUSH3 0x36B PUSH1 0x60 DUP7 ADD PUSH3 0x2CA JUMP JUMPDEST SWAP1 POP SWAP3 SWAP6 SWAP2 SWAP5 POP SWAP3 POP JUMP JUMPDEST PUSH1 0x1 DUP2 DUP2 SHR SWAP1 DUP3 AND DUP1 PUSH3 0x38B JUMPI PUSH1 0x7F DUP3 AND SWAP2 POP JUMPDEST PUSH1 0x20 DUP3 LT DUP2 SUB PUSH3 0x3AC JUMPI PUSH4 0x4E487B71 PUSH1 0xE0 SHL PUSH1 0x0 MSTORE PUSH1 0x22 PUSH1 0x4 MSTORE PUSH1 0x24 PUSH1 0x0 REVERT JUMPDEST POP SWAP2 SWAP1 POP JUMP JUMPDEST PUSH1 0x1F DUP3 GT ISZERO PUSH3 0x400 JUMPI PUSH1 0x0 DUP2 DUP2 MSTORE PUSH1 0x20 DUP2 KECCAK256 PUSH1 0x1F DUP6 ADD PUSH1 0x5 SHR DUP2 ADD PUSH1 0x20 DUP7 LT ISZERO PUSH3 0x3DB JUMPI POP DUP1 JUMPDEST PUSH1 0x1F DUP6 ADD PUSH1 0x5 SHR DUP3 ADD SWAP2 POP JUMPDEST DUP2 DUP2 LT ISZERO PUSH3 0x3FC JUMPI DUP3 DUP2 SSTORE PUSH1 0x1 ADD PUSH3 0x3E7 JUMP JUMPDEST POP POP POP JUMPDEST POP POP POP JUMP JUMPDEST DUP2 MLOAD PUSH1 0x1 PUSH1 0x1 PUSH1 0x40 SHL SUB DUP2 GT ISZERO PUSH3 0x421 JUMPI PUSH3 0x421 PUSH3 0x205 JUMP JUMPDEST PUSH3 0x439 DUP2 PUSH3 0x432 DUP5 SLOAD PUSH3 0x376 JUMP JUMPDEST DUP5 PUSH3 0x3B2 JUMP JUMPDEST PUSH1 0x20 DUP1 PUSH1 0x1F DUP4 GT PUSH1 0x1 DUP2 EQ PUSH3 0x471 JUMPI PUSH1 0x0 DUP5 ISZERO PUSH3 0x458 JUMPI POP DUP6 DUP4 ADD MLOAD JUMPDEST PUSH1 0x0 NOT PUSH1 0x3 DUP7 SWAP1 SHL SHR NOT AND PUSH1 0x1 DUP6 SWAP1 SHL OR DUP6 SSTORE PUSH3 0x3FC JUMP JUMPDEST PUSH1 0x0 DUP6 DUP2 MSTORE PUSH1 0x20 DUP2 KECCAK256 PUSH1 0x1F NOT DUP7 AND SWAP2 JUMPDEST DUP3 DUP2 LT ISZERO PUSH3 0x4A2 JUMPI DUP9 DUP7 ADD MLOAD DUP3 SSTORE SWAP5 DUP5 ADD SWAP5 PUSH1 0x1 SWAP1 SWAP2 ADD SWAP1 DUP5 ADD PUSH3 0x481 JUMP JUMPDEST POP DUP6 DUP3 LT ISZERO PUSH3 0x4C1 JUMPI DUP8 DUP6 ADD MLOAD PUSH1 0x0 NOT PUSH1 0x3 DUP9 SWAP1 SHL PUSH1 0xF8 AND SHR NOT AND DUP2 SSTORE JUMPDEST POP POP POP POP POP PUSH1 0x1 SWAP1 DUP2 SHL ADD SWAP1 SSTORE POP JUMP JUMPDEST PUSH1 0x80 MLOAD PUSH1 0xA0 MLOAD PUSH2 0x3FAB PUSH3 0x505 PUSH1 0x0 CODECOPY PUSH1 0x0 DUP2 DUP2 PUSH2 0x512 ADD MSTORE PUSH2 0x23B7 ADD MSTORE PUSH1 0x0 DUP2 DUP2 PUSH2 0x2A6 ADD MSTORE PUSH2 0x2402 ADD MSTORE PUSH2 0x3FAB PUSH1 0x0 RETURN INVALID PUSH1 0x80 PUSH1 0x40 MSTORE CALLVALUE DUP1 ISZERO PUSH2 0x10 JUMPI PUSH1 0x0 DUP1 REVERT JUMPDEST POP PUSH1 0x4 CALLDATASIZE LT PUSH2 0x274 JUMPI PUSH1 0x0 CALLDATALOAD PUSH1 0xE0 SHR DUP1 PUSH4 0x519DC8D2 GT PUSH2 0x151 JUMPI DUP1 PUSH4 0xA22CB465 GT PUSH2 0xC3 JUMPI DUP1 PUSH4 0xD4942FA9 GT PUSH2 0x87 JUMPI DUP1 PUSH4 0xD4942FA9 EQ PUSH2 0x59B JUMPI DUP1 PUSH4 0xD5391393 EQ PUSH2 0x5BB JUMPI DUP1 PUSH4 0xD547741F EQ PUSH2 0x5D0 JUMPI DUP1 PUSH4 0xE80DBE15 EQ PUSH2 0x5E3 JUMPI DUP1 PUSH4 0xE985E9C5 EQ PUSH2 0x5F6 JUMPI DUP1 PUSH4 0xFCA3B5AA EQ PUSH2 0x632 JUMPI PUSH1 0x0 DUP1 REVERT JUMPDEST DUP1 PUSH4 0xA22CB465 EQ PUSH2 0x53C JUMPI DUP1 PUSH4 0xABB23F5B EQ PUSH2 0x54F JUMPI DUP1 PUSH4 0xB88D4FDE EQ PUSH2 0x562 JUMPI DUP1 PUSH4 0xC74DC9A8 EQ PUSH2 0x575 JUMPI DUP1 PUSH4 0xC87B56DD EQ PUSH2 0x588 JUMPI PUSH1 0x0 DUP1 REVERT JUMPDEST DUP1 PUSH4 0x75794A3C GT PUSH2 0x115 JUMPI DUP1 PUSH4 0x75794A3C EQ PUSH2 0x4E2 JUMPI DUP1 PUSH4 0x8456CB59 EQ PUSH2 0x4EA JUMPI DUP1 PUSH4 0x91D14854 EQ PUSH2 0x4F2 JUMPI DUP1 PUSH4 0x95D89B41 EQ PUSH2 0x505 JUMPI DUP1 PUSH4 0x9C04B836 EQ PUSH2 0x50D JUMPI DUP1 PUSH4 0xA217FDDF EQ PUSH2 0x534 JUMPI PUSH1 0x0 DUP1 REVERT JUMPDEST DUP1 PUSH4 0x519DC8D2 EQ PUSH2 0x48B JUMPI DUP1 PUSH4 0x54164C81 EQ PUSH2 0x49E JUMPI DUP1 PUSH4 0x5C975ABB EQ PUSH2 0x4B1 JUMPI DUP1 PUSH4 0x6352211E EQ PUSH2 0x4BC JUMPI DUP1 PUSH4 0x70A08231 EQ PUSH2 0x4CF JUMPI PUSH1 0x0 DUP1 REVERT JUMPDEST DUP1 PUSH4 0x2F2FF15D GT PUSH2 0x1EA JUMPI DUP1 PUSH4 0x3F4BA83A GT PUSH2 0x1AE JUMPI DUP1 PUSH4 0x3F4BA83A EQ PUSH2 0x424 JUMPI DUP1 PUSH4 0x4180271D EQ PUSH2 0x42C JUMPI DUP1 PUSH4 0x42409065 EQ PUSH2 0x43F JUMPI DUP1 PUSH4 0x42842E0E EQ PUSH2 0x452 JUMPI DUP1 PUSH4 0x42966C68 EQ PUSH2 0x465 JUMPI DUP1 PUSH4 0x4F6CCCE7 EQ PUSH2 0x478 JUMPI PUSH1 0x0 DUP1 REVERT JUMPDEST DUP1 PUSH4 0x2F2FF15D EQ PUSH2 0x3B8 JUMPI DUP1 PUSH4 0x2F745C59 EQ PUSH2 0x3CB JUMPI DUP1 PUSH4 0x315EDB82 EQ PUSH2 0x3DE JUMPI DUP1 PUSH4 0x36568ABE EQ PUSH2 0x3FE JUMPI DUP1 PUSH4 0x3B761D87 EQ PUSH2 0x411 JUMPI PUSH1 0x0 DUP1 REVERT JUMPDEST DUP1 PUSH4 0xAD4C4F4 GT PUSH2 0x23C JUMPI DUP1 PUSH4 0xAD4C4F4 EQ PUSH2 0x31D JUMPI DUP1 PUSH4 0xBF25EF2 EQ PUSH2 0x33D JUMPI DUP1 PUSH4 0x18160DDD EQ PUSH2 0x350 JUMPI DUP1 PUSH4 0x1EDB27E9 EQ PUSH2 0x362 JUMPI DUP1 PUSH4 0x23B872DD EQ PUSH2 0x382 JUMPI DUP1 PUSH4 0x248A9CA3 EQ PUSH2 0x395 JUMPI PUSH1 0x0 DUP1 REVERT JUMPDEST DUP1 PUSH4 0x1FFC9A7 EQ PUSH2 0x279 JUMPI DUP1 PUSH4 0x56D5AFE EQ PUSH2 0x2A1 JUMPI DUP1 PUSH4 0x6FDDE03 EQ PUSH2 0x2E0 JUMPI DUP1 PUSH4 0x81812FC EQ PUSH2 0x2F5 JUMPI DUP1 PUSH4 0x95EA7B3 EQ PUSH2 0x308 JUMPI JUMPDEST PUSH1 0x0 DUP1 REVERT JUMPDEST PUSH2 0x28C PUSH2 0x287 CALLDATASIZE PUSH1 0x4 PUSH2 0x2F39 JUMP JUMPDEST PUSH2 0x645 JUMP JUMPDEST PUSH1 0x40 MLOAD SWAP1 ISZERO ISZERO DUP2 MSTORE PUSH1 0x20 ADD JUMPDEST PUSH1 0x40 MLOAD DUP1 SWAP2 SUB SWAP1 RETURN JUMPDEST PUSH2 0x2C8 PUSH32 0x0 DUP2 JUMP JUMPDEST PUSH1 0x40 MLOAD PUSH1 0x1 PUSH1 0x1 PUSH1 0xA0 SHL SUB SWAP1 SWAP2 AND DUP2 MSTORE PUSH1 0x20 ADD PUSH2 0x298 JUMP JUMPDEST PUSH2 0x2E8 PUSH2 0x656 JUMP JUMPDEST PUSH1 0x40 MLOAD PUSH2 0x298 SWAP2 SWAP1 PUSH2 0x2FA6 JUMP JUMPDEST PUSH2 0x2C8 PUSH2 0x303 CALLDATASIZE PUSH1 0x4 PUSH2 0x2FB9 JUMP JUMPDEST PUSH2 0x6E8 JUMP JUMPDEST PUSH2 0x31B PUSH2 0x316 CALLDATASIZE PUSH1 0x4 PUSH2 0x2FE7 JUMP JUMPDEST PUSH2 0x70F JUMP JUMPDEST STOP JUMPDEST PUSH2 0x330 PUSH2 0x32B CALLDATASIZE PUSH1 0x4 PUSH2 0x2FB9 JUMP JUMPDEST PUSH2 0x829 JUMP JUMPDEST PUSH1 0x40 MLOAD PUSH2 0x298 SWAP2 SWAP1 PUSH2 0x3053 JUMP JUMPDEST PUSH2 0x28C PUSH2 0x34B CALLDATASIZE PUSH1 0x4 PUSH2 0x3061 JUMP JUMPDEST PUSH2 0x8EF JUMP JUMPDEST PUSH1 0x8 SLOAD JUMPDEST PUSH1 0x40 MLOAD SWAP1 DUP2 MSTORE PUSH1 0x20 ADD PUSH2 0x298 JUMP JUMPDEST PUSH2 0x375 PUSH2 0x370 CALLDATASIZE PUSH1 0x4 PUSH2 0x3091 JUMP JUMPDEST PUSH2 0x93A JUMP JUMPDEST PUSH1 0x40 MLOAD PUSH2 0x298 SWAP2 SWAP1 PUSH2 0x30F3 JUMP JUMPDEST PUSH2 0x31B PUSH2 0x390 CALLDATASIZE PUSH1 0x4 PUSH2 0x316D JUMP JUMPDEST PUSH2 0xB5D JUMP JUMPDEST PUSH2 0x354 PUSH2 0x3A3 CALLDATASIZE PUSH1 0x4 PUSH2 0x2FB9 JUMP JUMPDEST PUSH1 0x0 SWAP1 DUP2 MSTORE PUSH1 0xA PUSH1 0x20 MSTORE PUSH1 0x40 SWAP1 KECCAK256 PUSH1 0x1 ADD SLOAD SWAP1 JUMP JUMPDEST PUSH2 0x31B PUSH2 0x3C6 CALLDATASIZE PUSH1 0x4 PUSH2 0x3061 JUMP JUMPDEST PUSH2 0xB8E JUMP JUMPDEST PUSH2 0x354 PUSH2 0x3D9 CALLDATASIZE PUSH1 0x4 PUSH2 0x2FE7 JUMP JUMPDEST PUSH2 0xBB3 JUMP JUMPDEST PUSH2 0x3F1 PUSH2 0x3EC CALLDATASIZE PUSH1 0x4 PUSH2 0x31F9 JUMP JUMPDEST PUSH2 0xC49 JUMP JUMPDEST PUSH1 0x40 MLOAD PUSH2 0x298 SWAP2 SWAP1 PUSH2 0x3292 JUMP JUMPDEST PUSH2 0x31B PUSH2 0x40C CALLDATASIZE PUSH1 0x4 PUSH2 0x3061 JUMP JUMPDEST PUSH2 0xDEC JUMP JUMPDEST PUSH2 0x31B PUSH2 0x41F CALLDATASIZE PUSH1 0x4 PUSH2 0x32E6 JUMP JUMPDEST PUSH2 0xE6A JUMP JUMPDEST PUSH2 0x31B PUSH2 0xEA7 JUMP JUMPDEST PUSH2 0x354 PUSH2 0x43A CALLDATASIZE PUSH1 0x4 PUSH2 0x3312 JUMP JUMPDEST PUSH2 0xEBD JUMP JUMPDEST PUSH2 0x2E8 PUSH2 0x44D CALLDATASIZE PUSH1 0x4 PUSH2 0x3354 JUMP JUMPDEST PUSH2 0xEEB JUMP JUMPDEST PUSH2 0x31B PUSH2 0x460 CALLDATASIZE PUSH1 0x4 PUSH2 0x316D JUMP JUMPDEST PUSH2 0x103D JUMP JUMPDEST PUSH2 0x31B PUSH2 0x473 CALLDATASIZE PUSH1 0x4 PUSH2 0x2FB9 JUMP JUMPDEST PUSH2 0x1058 JUMP JUMPDEST PUSH2 0x354 PUSH2 0x486 CALLDATASIZE PUSH1 0x4 PUSH2 0x2FB9 JUMP JUMPDEST PUSH2 0x113A JUMP JUMPDEST PUSH2 0x3F1 PUSH2 0x499 CALLDATASIZE PUSH1 0x4 PUSH2 0x3091 JUMP JUMPDEST PUSH2 0x11CD JUMP JUMPDEST PUSH2 0x31B PUSH2 0x4AC CALLDATASIZE PUSH1 0x4 PUSH2 0x2FB9 JUMP JUMPDEST PUSH2 0x126E JUMP JUMPDEST PUSH1 0xB SLOAD PUSH1 0xFF AND PUSH2 0x28C JUMP JUMPDEST PUSH2 0x2C8 PUSH2 0x4CA CALLDATASIZE PUSH1 0x4 PUSH2 0x2FB9 JUMP JUMPDEST PUSH2 0x12AB JUMP JUMPDEST PUSH2 0x354 PUSH2 0x4DD CALLDATASIZE PUSH1 0x4 PUSH2 0x3091 JUMP JUMPDEST PUSH2 0x12E0 JUMP JUMPDEST PUSH2 0x354 PUSH2 0x1366 JUMP JUMPDEST PUSH2 0x31B PUSH2 0x1376 JUMP JUMPDEST PUSH2 0x28C PUSH2 0x500 CALLDATASIZE PUSH1 0x4 PUSH2 0x3061 JUMP JUMPDEST PUSH2 0x1389 JUMP JUMPDEST PUSH2 0x2E8 PUSH2 0x13B4 JUMP JUMPDEST PUSH2 0x2C8 PUSH32 0x0 DUP2 JUMP JUMPDEST PUSH2 0x354 PUSH1 0x0 DUP2 JUMP JUMPDEST PUSH2 0x31B PUSH2 0x54A CALLDATASIZE PUSH1 0x4 PUSH2 0x33E9 JUMP JUMPDEST PUSH2 0x13C3 JUMP JUMPDEST PUSH2 0x2C8 PUSH2 0x55D CALLDATASIZE PUSH1 0x4 PUSH2 0x2FB9 JUMP JUMPDEST PUSH2 0x13CE JUMP JUMPDEST PUSH2 0x31B PUSH2 0x570 CALLDATASIZE PUSH1 0x4 PUSH2 0x34C0 JUMP JUMPDEST PUSH2 0x1411 JUMP JUMPDEST PUSH2 0x31B PUSH2 0x583 CALLDATASIZE PUSH1 0x4 PUSH2 0x355F JUMP JUMPDEST PUSH2 0x1449 JUMP JUMPDEST PUSH2 0x2E8 PUSH2 0x596 CALLDATASIZE PUSH1 0x4 PUSH2 0x2FB9 JUMP JUMPDEST PUSH2 0x1486 JUMP JUMPDEST PUSH2 0x5AE PUSH2 0x5A9 CALLDATASIZE PUSH1 0x4 PUSH2 0x35CB JUMP JUMPDEST PUSH2 0x1614 JUMP JUMPDEST PUSH1 0x40 MLOAD PUSH2 0x298 SWAP2 SWAP1 PUSH2 0x360C JUMP JUMPDEST PUSH2 0x354 PUSH1 0x0 DUP1 MLOAD PUSH1 0x20 PUSH2 0x3F56 DUP4 CODECOPY DUP2 MLOAD SWAP2 MSTORE DUP2 JUMP JUMPDEST PUSH2 0x31B PUSH2 0x5DE CALLDATASIZE PUSH1 0x4 PUSH2 0x3061 JUMP JUMPDEST PUSH2 0x17CF JUMP JUMPDEST PUSH2 0x31B PUSH2 0x5F1 CALLDATASIZE PUSH1 0x4 PUSH2 0x361F JUMP JUMPDEST PUSH2 0x17F4 JUMP JUMPDEST PUSH2 0x28C PUSH2 0x604 CALLDATASIZE PUSH1 0x4 PUSH2 0x3693 JUMP JUMPDEST PUSH1 0x1 PUSH1 0x1 PUSH1 0xA0 SHL SUB SWAP2 DUP3 AND PUSH1 0x0 SWAP1 DUP2 MSTORE PUSH1 0x5 PUSH1 0x20 SWAP1 DUP2 MSTORE PUSH1 0x40 DUP1 DUP4 KECCAK256 SWAP4 SWAP1 SWAP5 AND DUP3 MSTORE SWAP2 SWAP1 SWAP2 MSTORE KECCAK256 SLOAD PUSH1 0xFF AND SWAP1 JUMP JUMPDEST PUSH2 0x31B PUSH2 0x640 CALLDATASIZE PUSH1 0x4 PUSH2 0x3091 JUMP JUMPDEST PUSH2 0x1838 JUMP JUMPDEST PUSH1 0x0 PUSH2 0x650 DUP3 PUSH2 0x18EB JUMP JUMPDEST SWAP3 SWAP2 POP POP JUMP JUMPDEST PUSH1 0x60 PUSH1 0x0 DUP1 SLOAD PUSH2 0x665 SWAP1 PUSH2 0x36C1 JUMP JUMPDEST DUP1 PUSH1 0x1F ADD PUSH1 0x20 DUP1 SWAP2 DIV MUL PUSH1 0x20 ADD PUSH1 0x40 MLOAD SWAP1 DUP2 ADD PUSH1 0x40 MSTORE DUP1 SWAP3 SWAP2 SWAP1 DUP2 DUP2 MSTORE PUSH1 0x20 ADD DUP3 DUP1 SLOAD PUSH2 0x691 SWAP1 PUSH2 0x36C1 JUMP JUMPDEST DUP1 ISZERO PUSH2 0x6DE JUMPI DUP1 PUSH1 0x1F LT PUSH2 0x6B3 JUMPI PUSH2 0x100 DUP1 DUP4 SLOAD DIV MUL DUP4 MSTORE SWAP2 PUSH1 0x20 ADD SWAP2 PUSH2 0x6DE JUMP JUMPDEST DUP3 ADD SWAP2 SWAP1 PUSH1 0x0 MSTORE PUSH1 0x20 PUSH1 0x0 KECCAK256 SWAP1 JUMPDEST DUP2 SLOAD DUP2 MSTORE SWAP1 PUSH1 0x1 ADD SWAP1 PUSH1 0x20 ADD DUP1 DUP4 GT PUSH2 0x6C1 JUMPI DUP3 SWAP1 SUB PUSH1 0x1F AND DUP3 ADD SWAP2 JUMPDEST POP POP POP POP POP SWAP1 POP SWAP1 JUMP JUMPDEST PUSH1 0x0 PUSH2 0x6F3 DUP3 PUSH2 0x1910 JUMP JUMPDEST POP PUSH1 0x0 SWAP1 DUP2 MSTORE PUSH1 0x4 PUSH1 0x20 MSTORE PUSH1 0x40 SWAP1 KECCAK256 SLOAD PUSH1 0x1 PUSH1 0x1 PUSH1 0xA0 SHL SUB AND SWAP1 JUMP JUMPDEST PUSH1 0x0 PUSH2 0x71A DUP3 PUSH2 0x12AB JUMP JUMPDEST SWAP1 POP DUP1 PUSH1 0x1 PUSH1 0x1 PUSH1 0xA0 SHL SUB AND DUP4 PUSH1 0x1 PUSH1 0x1 PUSH1 0xA0 SHL SUB AND SUB PUSH2 0x78C JUMPI PUSH1 0x40 MLOAD PUSH3 0x461BCD PUSH1 0xE5 SHL DUP2 MSTORE PUSH1 0x20 PUSH1 0x4 DUP3 ADD MSTORE PUSH1 0x21 PUSH1 0x24 DUP3 ADD MSTORE PUSH32 0x4552433732313A20617070726F76616C20746F2063757272656E74206F776E65 PUSH1 0x44 DUP3 ADD MSTORE PUSH1 0x39 PUSH1 0xF9 SHL PUSH1 0x64 DUP3 ADD MSTORE PUSH1 0x84 ADD JUMPDEST PUSH1 0x40 MLOAD DUP1 SWAP2 SUB SWAP1 REVERT JUMPDEST CALLER PUSH1 0x1 PUSH1 0x1 PUSH1 0xA0 SHL SUB DUP3 AND EQ DUP1 PUSH2 0x7A8 JUMPI POP PUSH2 0x7A8 DUP2 CALLER PUSH2 0x604 JUMP JUMPDEST PUSH2 0x81A JUMPI PUSH1 0x40 MLOAD PUSH3 0x461BCD PUSH1 0xE5 SHL DUP2 MSTORE PUSH1 0x20 PUSH1 0x4 DUP3 ADD MSTORE PUSH1 0x3D PUSH1 0x24 DUP3 ADD MSTORE PUSH32 0x4552433732313A20617070726F76652063616C6C6572206973206E6F7420746F PUSH1 0x44 DUP3 ADD MSTORE PUSH32 0x6B656E206F776E6572206F7220617070726F76656420666F7220616C6C000000 PUSH1 0x64 DUP3 ADD MSTORE PUSH1 0x84 ADD PUSH2 0x783 JUMP JUMPDEST PUSH2 0x824 DUP4 DUP4 PUSH2 0x1935 JUMP JUMPDEST POP POP POP JUMP JUMPDEST PUSH1 0x40 DUP1 MLOAD PUSH1 0xA0 DUP2 ADD DUP3 MSTORE PUSH1 0x0 DUP1 DUP3 MSTORE PUSH1 0x20 DUP3 ADD DUP2 SWAP1 MSTORE SWAP2 DUP2 ADD DUP3 SWAP1 MSTORE PUSH1 0x60 DUP2 ADD DUP3 SWAP1 MSTORE PUSH1 0x80 DUP2 ADD SWAP2 SWAP1 SWAP2 MSTORE PUSH2 0x85D DUP3 PUSH2 0x19A3 JUMP JUMPDEST PUSH2 0x879 JUMPI PUSH1 0x40 MLOAD PUSH3 0x461BCD PUSH1 0xE5 SHL DUP2 MSTORE PUSH1 0x4 ADD PUSH2 0x783 SWAP1 PUSH2 0x36FB JUMP JUMPDEST PUSH1 0x0 DUP3 DUP2 MSTORE PUSH1 0xE PUSH1 0x20 SWAP1 DUP2 MSTORE PUSH1 0x40 SWAP2 DUP3 SWAP1 KECCAK256 DUP3 MLOAD PUSH1 0xA0 DUP2 ADD DUP5 MSTORE DUP2 SLOAD DUP2 MSTORE PUSH1 0x1 DUP3 ADD SLOAD PUSH1 0x1 PUSH1 0x1 PUSH1 0xA0 SHL SUB SWAP1 DUP2 AND SWAP4 DUP3 ADD SWAP4 SWAP1 SWAP4 MSTORE PUSH1 0x2 DUP3 ADD SLOAD DUP4 AND SWAP4 DUP2 ADD SWAP4 SWAP1 SWAP4 MSTORE PUSH1 0x3 DUP2 ADD SLOAD SWAP1 SWAP2 AND PUSH1 0x60 DUP4 ADD MSTORE PUSH1 0x4 ADD SLOAD PUSH1 0x80 DUP3 ADD MSTORE PUSH2 0x8DB DUP4 PUSH2 0x12AB JUMP JUMPDEST PUSH1 0x1 PUSH1 0x1 PUSH1 0xA0 SHL SUB AND PUSH1 0x60 DUP3 ADD MSTORE SWAP3 SWAP2 POP POP JUMP JUMPDEST PUSH1 0x0 PUSH2 0x8FA DUP4 PUSH2 0x19A3 JUMP JUMPDEST PUSH2 0x916 JUMPI PUSH1 0x40 MLOAD PUSH3 0x461BCD PUSH1 0xE5 SHL DUP2 MSTORE PUSH1 0x4 ADD PUSH2 0x783 SWAP1 PUSH2 0x36FB JUMP JUMPDEST DUP2 PUSH1 0x1 PUSH1 0x1 PUSH1 0xA0 SHL SUB AND PUSH2 0x929 DUP5 PUSH2 0x12AB JUMP JUMPDEST PUSH1 0x1 PUSH1 0x1 PUSH1 0xA0 SHL SUB AND EQ SWAP4 SWAP3 POP POP POP JUMP JUMPDEST PUSH2 0x95E PUSH1 0x40 MLOAD DUP1 PUSH1 0x60 ADD PUSH1 0x40 MSTORE DUP1 PUSH1 0x60 DUP2 MSTORE PUSH1 0x20 ADD PUSH1 0x60 DUP2 MSTORE PUSH1 0x20 ADD PUSH1 0x0 DUP2 MSTORE POP SWAP1 JUMP JUMPDEST PUSH1 0x0 PUSH2 0x969 DUP4 PUSH2 0x12E0 JUMP JUMPDEST SWAP1 POP PUSH1 0x0 DUP2 PUSH1 0x1 PUSH1 0x1 PUSH1 0x40 SHL SUB DUP2 GT ISZERO PUSH2 0x985 JUMPI PUSH2 0x985 PUSH2 0x3415 JUMP JUMPDEST PUSH1 0x40 MLOAD SWAP1 DUP1 DUP3 MSTORE DUP1 PUSH1 0x20 MUL PUSH1 0x20 ADD DUP3 ADD PUSH1 0x40 MSTORE DUP1 ISZERO PUSH2 0x9AE JUMPI DUP2 PUSH1 0x20 ADD PUSH1 0x20 DUP3 MUL DUP1 CALLDATASIZE DUP4 CALLDATACOPY ADD SWAP1 POP JUMPDEST POP SWAP1 POP PUSH1 0x0 DUP3 PUSH1 0x1 PUSH1 0x1 PUSH1 0x40 SHL SUB DUP2 GT ISZERO PUSH2 0x9CB JUMPI PUSH2 0x9CB PUSH2 0x3415 JUMP JUMPDEST PUSH1 0x40 MLOAD SWAP1 DUP1 DUP3 MSTORE DUP1 PUSH1 0x20 MUL PUSH1 0x20 ADD DUP3 ADD PUSH1 0x40 MSTORE DUP1 ISZERO PUSH2 0xA24 JUMPI DUP2 PUSH1 0x20 ADD JUMPDEST PUSH1 0x40 DUP1 MLOAD PUSH1 0xA0 DUP2 ADD DUP3 MSTORE PUSH1 0x0 DUP1 DUP3 MSTORE PUSH1 0x20 DUP1 DUP4 ADD DUP3 SWAP1 MSTORE SWAP3 DUP3 ADD DUP2 SWAP1 MSTORE PUSH1 0x60 DUP3 ADD DUP2 SWAP1 MSTORE PUSH1 0x80 DUP3 ADD MSTORE DUP3 MSTORE PUSH1 0x0 NOT SWAP1 SWAP3 ADD SWAP2 ADD DUP2 PUSH2 0x9E9 JUMPI SWAP1 POP JUMPDEST POP SWAP1 POP PUSH1 0x0 DUP1 JUMPDEST DUP5 DUP2 LT ISZERO PUSH2 0xB3C JUMPI PUSH1 0x0 PUSH2 0xA3F DUP9 DUP4 PUSH2 0xBB3 JUMP JUMPDEST SWAP1 POP DUP1 DUP6 DUP4 DUP2 MLOAD DUP2 LT PUSH2 0xA54 JUMPI PUSH2 0xA54 PUSH2 0x3729 JUMP JUMPDEST PUSH1 0x20 SWAP1 DUP2 MUL SWAP2 SWAP1 SWAP2 ADD DUP2 ADD SWAP2 SWAP1 SWAP2 MSTORE PUSH1 0x0 DUP3 DUP2 MSTORE PUSH1 0xE DUP3 MSTORE PUSH1 0x40 SWAP1 DUP2 SWAP1 KECCAK256 DUP2 MLOAD PUSH1 0xA0 DUP2 ADD DUP4 MSTORE DUP2 SLOAD DUP2 MSTORE PUSH1 0x1 DUP3 ADD SLOAD PUSH1 0x1 PUSH1 0x1 PUSH1 0xA0 SHL SUB SWAP1 DUP2 AND SWAP5 DUP3 ADD SWAP5 SWAP1 SWAP5 MSTORE PUSH1 0x2 DUP3 ADD SLOAD DUP5 AND SWAP3 DUP2 ADD SWAP3 SWAP1 SWAP3 MSTORE PUSH1 0x3 DUP2 ADD SLOAD SWAP1 SWAP3 AND PUSH1 0x60 DUP3 ADD MSTORE PUSH1 0x4 SWAP1 SWAP2 ADD SLOAD PUSH1 0x80 DUP3 ADD MSTORE DUP5 MLOAD DUP6 SWAP1 DUP5 SWAP1 DUP2 LT PUSH2 0xACF JUMPI PUSH2 0xACF PUSH2 0x3729 JUMP JUMPDEST PUSH1 0x20 MUL PUSH1 0x20 ADD ADD DUP2 SWAP1 MSTORE POP DUP8 DUP5 DUP4 DUP2 MLOAD DUP2 LT PUSH2 0xAED JUMPI PUSH2 0xAED PUSH2 0x3729 JUMP JUMPDEST PUSH1 0x20 SWAP1 DUP2 MUL SWAP2 SWAP1 SWAP2 ADD DUP2 ADD MLOAD PUSH1 0x1 PUSH1 0x1 PUSH1 0xA0 SHL SUB SWAP1 SWAP3 AND PUSH1 0x60 SWAP1 SWAP3 ADD SWAP2 SWAP1 SWAP2 MSTORE PUSH1 0x0 DUP3 DUP2 MSTORE PUSH1 0xE SWAP1 SWAP2 MSTORE PUSH1 0x40 SWAP1 KECCAK256 SLOAD PUSH2 0xB26 SWAP1 DUP5 PUSH2 0x3755 JUMP JUMPDEST SWAP3 POP POP DUP1 DUP1 PUSH2 0xB34 SWAP1 PUSH2 0x3768 JUMP JUMPDEST SWAP2 POP POP PUSH2 0xA2B JUMP JUMPDEST POP PUSH1 0x40 DUP1 MLOAD PUSH1 0x60 DUP2 ADD DUP3 MSTORE SWAP4 DUP5 MSTORE PUSH1 0x20 DUP5 ADD SWAP3 SWAP1 SWAP3 MSTORE SWAP1 DUP3 ADD MSTORE SWAP4 SWAP3 POP POP POP JUMP JUMPDEST PUSH2 0xB67 CALLER DUP3 PUSH2 0x19C0 JUMP JUMPDEST PUSH2 0xB83 JUMPI PUSH1 0x40 MLOAD PUSH3 0x461BCD PUSH1 0xE5 SHL DUP2 MSTORE PUSH1 0x4 ADD PUSH2 0x783 SWAP1 PUSH2 0x3781 JUMP JUMPDEST PUSH2 0x824 DUP4 DUP4 DUP4 PUSH2 0x1A3F JUMP JUMPDEST PUSH1 0x0 DUP3 DUP2 MSTORE PUSH1 0xA PUSH1 0x20 MSTORE PUSH1 0x40 SWAP1 KECCAK256 PUSH1 0x1 ADD SLOAD PUSH2 0xBA9 DUP2 PUSH2 0x1BB0 JUMP JUMPDEST PUSH2 0x824 DUP4 DUP4 PUSH2 0x1BBA JUMP JUMPDEST PUSH1 0x0 PUSH2 0xBBE DUP4 PUSH2 0x12E0 JUMP JUMPDEST DUP3 LT PUSH2 0xC20 JUMPI PUSH1 0x40 MLOAD PUSH3 0x461BCD PUSH1 0xE5 SHL DUP2 MSTORE PUSH1 0x20 PUSH1 0x4 DUP3 ADD MSTORE PUSH1 0x2B PUSH1 0x24 DUP3 ADD MSTORE PUSH32 0x455243373231456E756D657261626C653A206F776E657220696E646578206F75 PUSH1 0x44 DUP3 ADD MSTORE PUSH11 0x74206F6620626F756E6473 PUSH1 0xA8 SHL PUSH1 0x64 DUP3 ADD MSTORE PUSH1 0x84 ADD PUSH2 0x783 JUMP JUMPDEST POP PUSH1 0x1 PUSH1 0x1 PUSH1 0xA0 SHL SUB SWAP2 SWAP1 SWAP2 AND PUSH1 0x0 SWAP1 DUP2 MSTORE PUSH1 0x6 PUSH1 0x20 SWAP1 DUP2 MSTORE PUSH1 0x40 DUP1 DUP4 KECCAK256 SWAP4 DUP4 MSTORE SWAP3 SWAP1 MSTORE KECCAK256 SLOAD SWAP1 JUMP JUMPDEST PUSH1 0x60 PUSH1 0x0 DUP1 MLOAD PUSH1 0x20 PUSH2 0x3F56 DUP4 CODECOPY DUP2 MLOAD SWAP2 MSTORE PUSH2 0xC63 DUP2 PUSH2 0x1BB0 JUMP JUMPDEST DUP7 PUSH2 0xC9E JUMPI PUSH1 0x40 MLOAD PUSH3 0x461BCD PUSH1 0xE5 SHL DUP2 MSTORE PUSH1 0x20 PUSH1 0x4 DUP3 ADD MSTORE PUSH1 0xB PUSH1 0x24 DUP3 ADD MSTORE PUSH11 0x8ADAE0E8F240C4C2E8C6D PUSH1 0xAB SHL PUSH1 0x44 DUP3 ADD MSTORE PUSH1 0x64 ADD PUSH2 0x783 JUMP JUMPDEST DUP7 DUP6 EQ DUP1 ISZERO PUSH2 0xCAC JUMPI POP DUP7 DUP4 EQ JUMPDEST PUSH2 0xCF0 JUMPI PUSH1 0x40 MLOAD PUSH3 0x461BCD PUSH1 0xE5 SHL DUP2 MSTORE PUSH1 0x20 PUSH1 0x4 DUP3 ADD MSTORE PUSH1 0x15 PUSH1 0x24 DUP3 ADD MSTORE PUSH21 0x82E4E4C2F240D8CADCCEE8D040DAD2E6DAC2E8C6D PUSH1 0x5B SHL PUSH1 0x44 DUP3 ADD MSTORE PUSH1 0x64 ADD PUSH2 0x783 JUMP JUMPDEST PUSH1 0x0 DUP8 PUSH1 0x1 PUSH1 0x1 PUSH1 0x40 SHL SUB DUP2 GT ISZERO PUSH2 0xD0A JUMPI PUSH2 0xD0A PUSH2 0x3415 JUMP JUMPDEST PUSH1 0x40 MLOAD SWAP1 DUP1 DUP3 MSTORE DUP1 PUSH1 0x20 MUL PUSH1 0x20 ADD DUP3 ADD PUSH1 0x40 MSTORE DUP1 ISZERO PUSH2 0xD33 JUMPI DUP2 PUSH1 0x20 ADD PUSH1 0x20 DUP3 MUL DUP1 CALLDATASIZE DUP4 CALLDATACOPY ADD SWAP1 POP JUMPDEST POP SWAP1 POP PUSH1 0x0 JUMPDEST DUP9 DUP2 LT ISZERO PUSH2 0xDDF JUMPI PUSH2 0xDB0 DUP11 DUP11 DUP4 DUP2 DUP2 LT PUSH2 0xD56 JUMPI PUSH2 0xD56 PUSH2 0x3729 JUMP JUMPDEST SWAP1 POP PUSH1 0x20 MUL ADD PUSH1 0x20 DUP2 ADD SWAP1 PUSH2 0xD6B SWAP2 SWAP1 PUSH2 0x3091 JUMP JUMPDEST DUP10 DUP10 DUP5 DUP2 DUP2 LT PUSH2 0xD7D JUMPI PUSH2 0xD7D PUSH2 0x3729 JUMP JUMPDEST SWAP1 POP PUSH1 0x20 MUL ADD CALLDATALOAD DUP9 DUP9 DUP6 DUP2 DUP2 LT PUSH2 0xD96 JUMPI PUSH2 0xD96 PUSH2 0x3729 JUMP JUMPDEST SWAP1 POP PUSH1 0x20 MUL ADD PUSH1 0x20 DUP2 ADD SWAP1 PUSH2 0xDAB SWAP2 SWAP1 PUSH2 0x3091 JUMP JUMPDEST PUSH2 0x1C40 JUMP JUMPDEST DUP3 DUP3 DUP2 MLOAD DUP2 LT PUSH2 0xDC2 JUMPI PUSH2 0xDC2 PUSH2 0x3729 JUMP JUMPDEST PUSH1 0x20 SWAP1 DUP2 MUL SWAP2 SWAP1 SWAP2 ADD ADD MSTORE DUP1 PUSH2 0xDD7 DUP2 PUSH2 0x3768 JUMP JUMPDEST SWAP2 POP POP PUSH2 0xD39 JUMP JUMPDEST POP SWAP9 SWAP8 POP POP POP POP POP POP POP POP JUMP JUMPDEST PUSH1 0x1 PUSH1 0x1 PUSH1 0xA0 SHL SUB DUP2 AND CALLER EQ PUSH2 0xE5C JUMPI PUSH1 0x40 MLOAD PUSH3 0x461BCD PUSH1 0xE5 SHL DUP2 MSTORE PUSH1 0x20 PUSH1 0x4 DUP3 ADD MSTORE PUSH1 0x2F PUSH1 0x24 DUP3 ADD MSTORE PUSH32 0x416363657373436F6E74726F6C3A2063616E206F6E6C792072656E6F756E6365 PUSH1 0x44 DUP3 ADD MSTORE PUSH15 0x103937B632B9903337B91039B2B633 PUSH1 0x89 SHL PUSH1 0x64 DUP3 ADD MSTORE PUSH1 0x84 ADD PUSH2 0x783 JUMP JUMPDEST PUSH2 0xE66 DUP3 DUP3 PUSH2 0x1E08 JUMP JUMPDEST POP POP JUMP JUMPDEST PUSH1 0x0 DUP1 MLOAD PUSH1 0x20 PUSH2 0x3F56 DUP4 CODECOPY DUP2 MLOAD SWAP2 MSTORE PUSH2 0xE82 DUP2 PUSH2 0x1BB0 JUMP JUMPDEST PUSH2 0xE8B DUP4 PUSH2 0x19A3 JUMP JUMPDEST PUSH2 0x824 JUMPI PUSH1 0x40 MLOAD PUSH3 0x461BCD PUSH1 0xE5 SHL DUP2 MSTORE PUSH1 0x4 ADD PUSH2 0x783 SWAP1 PUSH2 0x36FB JUMP JUMPDEST PUSH1 0x0 PUSH2 0xEB2 DUP2 PUSH2 0x1BB0 JUMP JUMPDEST PUSH2 0xEBA PUSH2 0x1E6F JUMP JUMPDEST POP JUMP JUMPDEST PUSH1 0x0 PUSH1 0x0 DUP1 MLOAD PUSH1 0x20 PUSH2 0x3F56 DUP4 CODECOPY DUP2 MLOAD SWAP2 MSTORE PUSH2 0xED7 DUP2 PUSH2 0x1BB0 JUMP JUMPDEST PUSH2 0xEE2 DUP6 DUP6 DUP6 PUSH2 0x1C40 JUMP JUMPDEST SWAP6 SWAP5 POP POP POP POP POP JUMP JUMPDEST PUSH1 0x60 PUSH2 0xEF6 DUP7 PUSH2 0x19A3 JUMP JUMPDEST PUSH2 0xF12 JUMPI PUSH1 0x40 MLOAD PUSH3 0x461BCD PUSH1 0xE5 SHL DUP2 MSTORE PUSH1 0x4 ADD PUSH2 0x783 SWAP1 PUSH2 0x36FB JUMP JUMPDEST CALLER PUSH2 0xF1C DUP8 PUSH2 0x12AB JUMP JUMPDEST PUSH1 0x1 PUSH1 0x1 PUSH1 0xA0 SHL SUB AND EQ PUSH2 0xF62 JUMPI PUSH1 0x40 MLOAD PUSH3 0x461BCD PUSH1 0xE5 SHL DUP2 MSTORE PUSH1 0x20 PUSH1 0x4 DUP3 ADD MSTORE PUSH1 0xD PUSH1 0x24 DUP3 ADD MSTORE PUSH13 0x2737BA1027232A1037BBB732B9 PUSH1 0x99 SHL PUSH1 0x44 DUP3 ADD MSTORE PUSH1 0x64 ADD PUSH2 0x783 JUMP JUMPDEST PUSH1 0x0 DUP7 DUP2 MSTORE PUSH1 0xF PUSH1 0x20 MSTORE PUSH1 0x40 SWAP1 KECCAK256 SLOAD PUSH1 0x1 PUSH1 0x1 PUSH1 0xA0 SHL SUB AND DUP1 PUSH2 0xFB9 JUMPI PUSH1 0x40 MLOAD PUSH3 0x461BCD PUSH1 0xE5 SHL DUP2 MSTORE PUSH1 0x20 PUSH1 0x4 DUP3 ADD MSTORE PUSH1 0xF PUSH1 0x24 DUP3 ADD MSTORE PUSH15 0x151090481B9BDD0818DC99585D1959 PUSH1 0x8A SHL PUSH1 0x44 DUP3 ADD MSTORE PUSH1 0x64 ADD PUSH2 0x783 JUMP JUMPDEST PUSH1 0x40 MLOAD PUSH4 0x9E5D4C49 PUSH1 0xE0 SHL DUP2 MSTORE PUSH1 0x1 PUSH1 0x1 PUSH1 0xA0 SHL SUB DUP3 AND SWAP1 PUSH4 0x9E5D4C49 SWAP1 PUSH2 0xFEB SWAP1 DUP10 SWAP1 DUP10 SWAP1 DUP10 SWAP1 DUP10 SWAP1 PUSH1 0x4 ADD PUSH2 0x37CE JUMP JUMPDEST PUSH1 0x0 PUSH1 0x40 MLOAD DUP1 DUP4 SUB DUP2 PUSH1 0x0 DUP8 GAS CALL ISZERO DUP1 ISZERO PUSH2 0x100A JUMPI RETURNDATASIZE PUSH1 0x0 DUP1 RETURNDATACOPY RETURNDATASIZE PUSH1 0x0 REVERT JUMPDEST POP POP POP POP PUSH1 0x40 MLOAD RETURNDATASIZE PUSH1 0x0 DUP3 RETURNDATACOPY PUSH1 0x1F RETURNDATASIZE SWAP1 DUP2 ADD PUSH1 0x1F NOT AND DUP3 ADD PUSH1 0x40 MSTORE PUSH2 0x1032 SWAP2 SWAP1 DUP2 ADD SWAP1 PUSH2 0x3816 JUMP JUMPDEST SWAP8 SWAP7 POP POP POP POP POP POP POP JUMP JUMPDEST PUSH2 0x824 DUP4 DUP4 DUP4 PUSH1 0x40 MLOAD DUP1 PUSH1 0x20 ADD PUSH1 0x40 MSTORE DUP1 PUSH1 0x0 DUP2 MSTORE POP PUSH2 0x1411 JUMP JUMPDEST PUSH1 0x0 DUP1 MLOAD PUSH1 0x20 PUSH2 0x3F56 DUP4 CODECOPY DUP2 MLOAD SWAP2 MSTORE PUSH2 0x1070 DUP2 PUSH2 0x1BB0 JUMP JUMPDEST PUSH2 0x1079 DUP3 PUSH2 0x19A3 JUMP JUMPDEST PUSH2 0x1095 JUMPI PUSH1 0x40 MLOAD PUSH3 0x461BCD PUSH1 0xE5 SHL DUP2 MSTORE PUSH1 0x4 ADD PUSH2 0x783 SWAP1 PUSH2 0x3883 JUMP JUMPDEST PUSH1 0x0 PUSH2 0x10A0 DUP4 PUSH2 0x12AB JUMP JUMPDEST PUSH1 0x0 DUP5 DUP2 MSTORE PUSH1 0xE PUSH1 0x20 SWAP1 DUP2 MSTORE PUSH1 0x40 DUP1 DUP4 KECCAK256 DUP4 DUP2 SSTORE PUSH1 0x1 DUP2 ADD DUP1 SLOAD PUSH1 0x1 PUSH1 0x1 PUSH1 0xA0 SHL SUB NOT SWAP1 DUP2 AND SWAP1 SWAP2 SSTORE PUSH1 0x2 DUP3 ADD DUP1 SLOAD DUP3 AND SWAP1 SSTORE PUSH1 0x3 DUP3 ADD DUP1 SLOAD DUP3 AND SWAP1 SSTORE PUSH1 0x4 SWAP1 SWAP2 ADD DUP5 SWAP1 SSTORE PUSH1 0xF SWAP1 SWAP3 MSTORE SWAP1 SWAP2 KECCAK256 DUP1 SLOAD SWAP1 SWAP2 AND SWAP1 SSTORE SWAP1 POP PUSH2 0x10FF DUP4 PUSH2 0x1EC1 JUMP JUMPDEST PUSH1 0x40 MLOAD PUSH1 0x1 PUSH1 0x1 PUSH1 0xA0 SHL SUB DUP3 AND SWAP1 DUP5 SWAP1 PUSH32 0x33631BCD0A4D34A7E2C240AB0753D5ADFB7284D8AC89DAB6876EC785C0CFA0E6 SWAP1 PUSH1 0x0 SWAP1 LOG3 POP POP POP JUMP JUMPDEST PUSH1 0x0 PUSH2 0x1145 PUSH1 0x8 SLOAD SWAP1 JUMP JUMPDEST DUP3 LT PUSH2 0x11A8 JUMPI PUSH1 0x40 MLOAD PUSH3 0x461BCD PUSH1 0xE5 SHL DUP2 MSTORE PUSH1 0x20 PUSH1 0x4 DUP3 ADD MSTORE PUSH1 0x2C PUSH1 0x24 DUP3 ADD MSTORE PUSH32 0x455243373231456E756D657261626C653A20676C6F62616C20696E646578206F PUSH1 0x44 DUP3 ADD MSTORE PUSH12 0x7574206F6620626F756E6473 PUSH1 0xA0 SHL PUSH1 0x64 DUP3 ADD MSTORE PUSH1 0x84 ADD PUSH2 0x783 JUMP JUMPDEST PUSH1 0x8 DUP3 DUP2 SLOAD DUP2 LT PUSH2 0x11BB JUMPI PUSH2 0x11BB PUSH2 0x3729 JUMP JUMPDEST SWAP1 PUSH1 0x0 MSTORE PUSH1 0x20 PUSH1 0x0 KECCAK256 ADD SLOAD SWAP1 POP SWAP2 SWAP1 POP JUMP JUMPDEST PUSH1 0x60 PUSH1 0x0 PUSH2 0x11DA DUP4 PUSH2 0x12E0 JUMP JUMPDEST SWAP1 POP PUSH1 0x0 DUP2 PUSH1 0x1 PUSH1 0x1 PUSH1 0x40 SHL SUB DUP2 GT ISZERO PUSH2 0x11F6 JUMPI PUSH2 0x11F6 PUSH2 0x3415 JUMP JUMPDEST PUSH1 0x40 MLOAD SWAP1 DUP1 DUP3 MSTORE DUP1 PUSH1 0x20 MUL PUSH1 0x20 ADD DUP3 ADD PUSH1 0x40 MSTORE DUP1 ISZERO PUSH2 0x121F JUMPI DUP2 PUSH1 0x20 ADD PUSH1 0x20 DUP3 MUL DUP1 CALLDATASIZE DUP4 CALLDATACOPY ADD SWAP1 POP JUMPDEST POP SWAP1 POP PUSH1 0x0 JUMPDEST DUP3 DUP2 LT ISZERO PUSH2 0x1266 JUMPI PUSH2 0x1237 DUP6 DUP3 PUSH2 0xBB3 JUMP JUMPDEST DUP3 DUP3 DUP2 MLOAD DUP2 LT PUSH2 0x1249 JUMPI PUSH2 0x1249 PUSH2 0x3729 JUMP JUMPDEST PUSH1 0x20 SWAP1 DUP2 MUL SWAP2 SWAP1 SWAP2 ADD ADD MSTORE DUP1 PUSH2 0x125E DUP2 PUSH2 0x3768 JUMP JUMPDEST SWAP2 POP POP PUSH2 0x1225 JUMP JUMPDEST POP SWAP4 SWAP3 POP POP POP JUMP JUMPDEST PUSH1 0x0 DUP1 MLOAD PUSH1 0x20 PUSH2 0x3F56 DUP4 CODECOPY DUP2 MLOAD SWAP2 MSTORE PUSH2 0x1286 DUP2 PUSH2 0x1BB0 JUMP JUMPDEST PUSH2 0x128F DUP3 PUSH2 0x19A3 JUMP JUMPDEST PUSH2 0xE66 JUMPI PUSH1 0x40 MLOAD PUSH3 0x461BCD PUSH1 0xE5 SHL DUP2 MSTORE PUSH1 0x4 ADD PUSH2 0x783 SWAP1 PUSH2 0x36FB JUMP JUMPDEST PUSH1 0x0 DUP2 DUP2 MSTORE PUSH1 0x2 PUSH1 0x20 MSTORE PUSH1 0x40 DUP2 KECCAK256 SLOAD PUSH1 0x1 PUSH1 0x1 PUSH1 0xA0 SHL SUB AND DUP1 PUSH2 0x650 JUMPI PUSH1 0x40 MLOAD PUSH3 0x461BCD PUSH1 0xE5 SHL DUP2 MSTORE PUSH1 0x4 ADD PUSH2 0x783 SWAP1 PUSH2 0x3883 JUMP JUMPDEST PUSH1 0x0 PUSH1 0x1 PUSH1 0x1 PUSH1 0xA0 SHL SUB DUP3 AND PUSH2 0x134A JUMPI PUSH1 0x40 MLOAD PUSH3 0x461BCD PUSH1 0xE5 SHL DUP2 MSTORE PUSH1 0x20 PUSH1 0x4 DUP3 ADD MSTORE PUSH1 0x29 PUSH1 0x24 DUP3 ADD MSTORE PUSH32 0x4552433732313A2061646472657373207A65726F206973206E6F742061207661 PUSH1 0x44 DUP3 ADD MSTORE PUSH9 0x3634B21037BBB732B9 PUSH1 0xB9 SHL PUSH1 0x64 DUP3 ADD MSTORE PUSH1 0x84 ADD PUSH2 0x783 JUMP JUMPDEST POP PUSH1 0x1 PUSH1 0x1 PUSH1 0xA0 SHL SUB AND PUSH1 0x0 SWAP1 DUP2 MSTORE PUSH1 0x3 PUSH1 0x20 MSTORE PUSH1 0x40 SWAP1 KECCAK256 SLOAD SWAP1 JUMP JUMPDEST PUSH1 0x0 PUSH2 0x1371 PUSH1 0xD SLOAD SWAP1 JUMP JUMPDEST SWAP1 POP SWAP1 JUMP JUMPDEST PUSH1 0x0 PUSH2 0x1381 DUP2 PUSH2 0x1BB0 JUMP JUMPDEST PUSH2 0xEBA PUSH2 0x1F64 JUMP JUMPDEST PUSH1 0x0 SWAP2 DUP3 MSTORE PUSH1 0xA PUSH1 0x20 SWAP1 DUP2 MSTORE PUSH1 0x40 DUP1 DUP5 KECCAK256 PUSH1 0x1 PUSH1 0x1 PUSH1 0xA0 SHL SUB SWAP4 SWAP1 SWAP4 AND DUP5 MSTORE SWAP2 SWAP1 MSTORE SWAP1 KECCAK256 SLOAD PUSH1 0xFF AND SWAP1 JUMP JUMPDEST PUSH1 0x60 PUSH1 0x1 DUP1 SLOAD PUSH2 0x665 SWAP1 PUSH2 0x36C1 JUMP JUMPDEST PUSH2 0xE66 CALLER DUP4 DUP4 PUSH2 0x1FA1 JUMP JUMPDEST PUSH1 0x0 PUSH2 0x13D9 DUP3 PUSH2 0x19A3 JUMP JUMPDEST PUSH2 0x13F5 JUMPI PUSH1 0x40 MLOAD PUSH3 0x461BCD PUSH1 0xE5 SHL DUP2 MSTORE PUSH1 0x4 ADD PUSH2 0x783 SWAP1 PUSH2 0x36FB JUMP JUMPDEST POP PUSH1 0x0 SWAP1 DUP2 MSTORE PUSH1 0xF PUSH1 0x20 MSTORE PUSH1 0x40 SWAP1 KECCAK256 SLOAD PUSH1 0x1 PUSH1 0x1 PUSH1 0xA0 SHL SUB AND SWAP1 JUMP JUMPDEST PUSH2 0x141B CALLER DUP4 PUSH2 0x19C0 JUMP JUMPDEST PUSH2 0x1437 JUMPI PUSH1 0x40 MLOAD PUSH3 0x461BCD PUSH1 0xE5 SHL DUP2 MSTORE PUSH1 0x4 ADD PUSH2 0x783 SWAP1 PUSH2 0x3781 JUMP JUMPDEST PUSH2 0x1443 DUP5 DUP5 DUP5 DUP5 PUSH2 0x206F JUMP JUMPDEST POP POP POP POP JUMP JUMPDEST PUSH1 0x0 DUP1 MLOAD PUSH1 0x20 PUSH2 0x3F56 DUP4 CODECOPY DUP2 MLOAD SWAP2 MSTORE PUSH2 0x1461 DUP2 PUSH2 0x1BB0 JUMP JUMPDEST PUSH2 0x146A DUP5 PUSH2 0x19A3 JUMP JUMPDEST PUSH2 0x1443 JUMPI PUSH1 0x40 MLOAD PUSH3 0x461BCD PUSH1 0xE5 SHL DUP2 MSTORE PUSH1 0x4 ADD PUSH2 0x783 SWAP1 PUSH2 0x36FB JUMP JUMPDEST PUSH1 0x60 PUSH2 0x1491 DUP3 PUSH2 0x19A3 JUMP JUMPDEST PUSH2 0x14AD JUMPI PUSH1 0x40 MLOAD PUSH3 0x461BCD PUSH1 0xE5 SHL DUP2 MSTORE PUSH1 0x4 ADD PUSH2 0x783 SWAP1 PUSH2 0x36FB JUMP JUMPDEST PUSH1 0x0 DUP3 DUP2 MSTORE PUSH1 0xE PUSH1 0x20 SWAP1 DUP2 MSTORE PUSH1 0x40 DUP1 DUP4 KECCAK256 DUP2 MLOAD PUSH1 0xA0 DUP2 ADD DUP4 MSTORE DUP2 SLOAD DUP2 MSTORE PUSH1 0x1 DUP3 ADD SLOAD PUSH1 0x1 PUSH1 0x1 PUSH1 0xA0 SHL SUB SWAP1 DUP2 AND SWAP5 DUP3 ADD SWAP5 SWAP1 SWAP5 MSTORE PUSH1 0x2 DUP3 ADD SLOAD DUP5 AND SWAP3 DUP2 ADD SWAP3 SWAP1 SWAP3 MSTORE PUSH1 0x3 DUP2 ADD SLOAD SWAP1 SWAP3 AND PUSH1 0x60 DUP3 ADD MSTORE PUSH1 0x4 SWAP1 SWAP2 ADD SLOAD PUSH1 0x80 DUP3 ADD MSTORE SWAP1 PUSH2 0x1511 DUP5 PUSH2 0x20A2 JUMP JUMPDEST PUSH1 0x40 MLOAD PUSH1 0x20 ADD PUSH2 0x1521 SWAP2 SWAP1 PUSH2 0x38D6 JUMP JUMPDEST PUSH1 0x40 DUP1 MLOAD PUSH1 0x1F NOT DUP2 DUP5 SUB ADD DUP2 MSTORE PUSH1 0x80 DUP4 ADD SWAP1 SWAP2 MSTORE PUSH1 0x41 DUP1 DUP4 MSTORE SWAP1 SWAP3 POP PUSH1 0x0 SWAP2 SWAP1 PUSH2 0x3ED5 PUSH1 0x20 DUP4 ADD CODECOPY SWAP1 POP PUSH1 0x0 PUSH2 0x156D PUSH8 0xDE0B6B3A7640000 DUP6 PUSH1 0x0 ADD MLOAD PUSH2 0x1568 SWAP2 SWAP1 PUSH2 0x3927 JUMP JUMPDEST PUSH2 0x20A2 JUMP JUMPDEST PUSH2 0x157A DUP6 PUSH1 0x20 ADD MLOAD PUSH2 0x2134 JUMP JUMPDEST PUSH2 0x1587 DUP7 PUSH1 0x40 ADD MLOAD PUSH2 0x2134 JUMP JUMPDEST PUSH2 0x1594 DUP8 PUSH1 0x80 ADD MLOAD PUSH2 0x20A2 JUMP JUMPDEST PUSH1 0x40 MLOAD PUSH1 0x20 ADD PUSH2 0x15A7 SWAP5 SWAP4 SWAP3 SWAP2 SWAP1 PUSH2 0x393B JUMP JUMPDEST PUSH1 0x40 MLOAD PUSH1 0x20 DUP2 DUP4 SUB SUB DUP2 MSTORE SWAP1 PUSH1 0x40 MSTORE SWAP1 POP PUSH1 0x0 DUP4 DUP4 DUP4 PUSH1 0x40 MLOAD PUSH1 0x20 ADD PUSH2 0x15CF SWAP4 SWAP3 SWAP2 SWAP1 PUSH2 0x3AB2 JUMP JUMPDEST PUSH1 0x40 MLOAD PUSH1 0x20 DUP2 DUP4 SUB SUB DUP2 MSTORE SWAP1 PUSH1 0x40 MSTORE SWAP1 POP PUSH2 0x15E9 DUP2 PUSH2 0x214A JUMP JUMPDEST PUSH1 0x40 MLOAD PUSH1 0x20 ADD PUSH2 0x15F9 SWAP2 SWAP1 PUSH2 0x3B6B JUMP JUMPDEST PUSH1 0x40 MLOAD PUSH1 0x20 DUP2 DUP4 SUB SUB DUP2 MSTORE SWAP1 PUSH1 0x40 MSTORE SWAP6 POP POP POP POP POP POP SWAP2 SWAP1 POP JUMP JUMPDEST PUSH1 0x60 PUSH1 0x0 DUP3 PUSH1 0x1 PUSH1 0x1 PUSH1 0x40 SHL SUB DUP2 GT ISZERO PUSH2 0x1630 JUMPI PUSH2 0x1630 PUSH2 0x3415 JUMP JUMPDEST PUSH1 0x40 MLOAD SWAP1 DUP1 DUP3 MSTORE DUP1 PUSH1 0x20 MUL PUSH1 0x20 ADD DUP3 ADD PUSH1 0x40 MSTORE DUP1 ISZERO PUSH2 0x1689 JUMPI DUP2 PUSH1 0x20 ADD JUMPDEST PUSH1 0x40 DUP1 MLOAD PUSH1 0xA0 DUP2 ADD DUP3 MSTORE PUSH1 0x0 DUP1 DUP3 MSTORE PUSH1 0x20 DUP1 DUP4 ADD DUP3 SWAP1 MSTORE SWAP3 DUP3 ADD DUP2 SWAP1 MSTORE PUSH1 0x60 DUP3 ADD DUP2 SWAP1 MSTORE PUSH1 0x80 DUP3 ADD MSTORE DUP3 MSTORE PUSH1 0x0 NOT SWAP1 SWAP3 ADD SWAP2 ADD DUP2 PUSH2 0x164E JUMPI SWAP1 POP JUMPDEST POP SWAP1 POP PUSH1 0x0 JUMPDEST DUP4 DUP2 LT ISZERO PUSH2 0x1266 JUMPI PUSH2 0x16B8 DUP6 DUP6 DUP4 DUP2 DUP2 LT PUSH2 0x16AC JUMPI PUSH2 0x16AC PUSH2 0x3729 JUMP JUMPDEST SWAP1 POP PUSH1 0x20 MUL ADD CALLDATALOAD PUSH2 0x19A3 JUMP JUMPDEST PUSH2 0x16D4 JUMPI PUSH1 0x40 MLOAD PUSH3 0x461BCD PUSH1 0xE5 SHL DUP2 MSTORE PUSH1 0x4 ADD PUSH2 0x783 SWAP1 PUSH2 0x36FB JUMP JUMPDEST PUSH1 0xE PUSH1 0x0 DUP7 DUP7 DUP5 DUP2 DUP2 LT PUSH2 0x16EA JUMPI PUSH2 0x16EA PUSH2 0x3729 JUMP JUMPDEST PUSH1 0x20 SWAP1 DUP2 MUL SWAP3 SWAP1 SWAP3 ADD CALLDATALOAD DUP4 MSTORE POP DUP2 DUP2 ADD SWAP3 SWAP1 SWAP3 MSTORE PUSH1 0x40 SWAP1 DUP2 ADD PUSH1 0x0 KECCAK256 DUP2 MLOAD PUSH1 0xA0 DUP2 ADD DUP4 MSTORE DUP2 SLOAD DUP2 MSTORE PUSH1 0x1 DUP3 ADD SLOAD PUSH1 0x1 PUSH1 0x1 PUSH1 0xA0 SHL SUB SWAP1 DUP2 AND SWAP5 DUP3 ADD SWAP5 SWAP1 SWAP5 MSTORE PUSH1 0x2 DUP3 ADD SLOAD DUP5 AND SWAP3 DUP2 ADD SWAP3 SWAP1 SWAP3 MSTORE PUSH1 0x3 DUP2 ADD SLOAD SWAP1 SWAP3 AND PUSH1 0x60 DUP3 ADD MSTORE PUSH1 0x4 SWAP1 SWAP2 ADD SLOAD PUSH1 0x80 DUP3 ADD MSTORE DUP3 MLOAD DUP4 SWAP1 DUP4 SWAP1 DUP2 LT PUSH2 0x1763 JUMPI PUSH2 0x1763 PUSH2 0x3729 JUMP JUMPDEST PUSH1 0x20 MUL PUSH1 0x20 ADD ADD DUP2 SWAP1 MSTORE POP PUSH2 0x178F DUP6 DUP6 DUP4 DUP2 DUP2 LT PUSH2 0x1783 JUMPI PUSH2 0x1783 PUSH2 0x3729 JUMP JUMPDEST SWAP1 POP PUSH1 0x20 MUL ADD CALLDATALOAD PUSH2 0x12AB JUMP JUMPDEST DUP3 DUP3 DUP2 MLOAD DUP2 LT PUSH2 0x17A1 JUMPI PUSH2 0x17A1 PUSH2 0x3729 JUMP JUMPDEST PUSH1 0x20 SWAP1 DUP2 MUL SWAP2 SWAP1 SWAP2 ADD ADD MLOAD PUSH1 0x1 PUSH1 0x1 PUSH1 0xA0 SHL SUB SWAP1 SWAP2 AND PUSH1 0x60 SWAP1 SWAP2 ADD MSTORE DUP1 PUSH2 0x17C7 DUP2 PUSH2 0x3768 JUMP JUMPDEST SWAP2 POP POP PUSH2 0x168F JUMP JUMPDEST PUSH1 0x0 DUP3 DUP2 MSTORE PUSH1 0xA PUSH1 0x20 MSTORE PUSH1 0x40 SWAP1 KECCAK256 PUSH1 0x1 ADD SLOAD PUSH2 0x17EA DUP2 PUSH2 0x1BB0 JUMP JUMPDEST PUSH2 0x824 DUP4 DUP4 PUSH2 0x1E08 JUMP JUMPDEST PUSH1 0x0 DUP1 MLOAD PUSH1 0x20 PUSH2 0x3F56 DUP4 CODECOPY DUP2 MLOAD SWAP2 MSTORE PUSH2 0x180C DUP2 PUSH2 0x1BB0 JUMP JUMPDEST PUSH2 0x1815 DUP6 PUSH2 0x19A3 JUMP JUMPDEST PUSH2 0x1831 JUMPI PUSH1 0x40 MLOAD PUSH3 0x461BCD PUSH1 0xE5 SHL DUP2 MSTORE PUSH1 0x4 ADD PUSH2 0x783 SWAP1 PUSH2 0x36FB JUMP JUMPDEST POP POP POP POP POP JUMP JUMPDEST PUSH1 0x0 PUSH2 0x1843 DUP2 PUSH2 0x1BB0 JUMP JUMPDEST PUSH1 0x1 PUSH1 0x1 PUSH1 0xA0 SHL SUB DUP3 AND PUSH2 0x1899 JUMPI PUSH1 0x40 MLOAD PUSH3 0x461BCD PUSH1 0xE5 SHL DUP2 MSTORE PUSH1 0x20 PUSH1 0x4 DUP3 ADD MSTORE PUSH1 0x1D PUSH1 0x24 DUP3 ADD MSTORE PUSH32 0x4D696E7465722063616E6E6F74206265207A65726F2061646472657373000000 PUSH1 0x44 DUP3 ADD MSTORE PUSH1 0x64 ADD PUSH2 0x783 JUMP JUMPDEST PUSH2 0x18B1 PUSH1 0x0 DUP1 MLOAD PUSH1 0x20 PUSH2 0x3F56 DUP4 CODECOPY DUP2 MLOAD SWAP2 MSTORE DUP4 PUSH2 0x1BBA JUMP JUMPDEST PUSH1 0x40 MLOAD PUSH1 0x1 PUSH1 0x1 PUSH1 0xA0 SHL SUB DUP4 AND SWAP1 PUSH1 0x0 SWAP1 PUSH32 0x1CF2DE25C5BF439AC0287061C3A0FA69B3B02867D0CCFD2DED34E42577050B73 SWAP1 DUP3 SWAP1 LOG3 POP POP JUMP JUMPDEST PUSH1 0x0 PUSH1 0x1 PUSH1 0x1 PUSH1 0xE0 SHL SUB NOT DUP3 AND PUSH4 0x7965DB0B PUSH1 0xE0 SHL EQ DUP1 PUSH2 0x650 JUMPI POP PUSH2 0x650 DUP3 PUSH2 0x22A9 JUMP JUMPDEST PUSH2 0x1919 DUP2 PUSH2 0x19A3 JUMP JUMPDEST PUSH2 0xEBA JUMPI PUSH1 0x40 MLOAD PUSH3 0x461BCD PUSH1 0xE5 SHL DUP2 MSTORE PUSH1 0x4 ADD PUSH2 0x783 SWAP1 PUSH2 0x3883 JUMP JUMPDEST PUSH1 0x0 DUP2 DUP2 MSTORE PUSH1 0x4 PUSH1 0x20 MSTORE PUSH1 0x40 SWAP1 KECCAK256 DUP1 SLOAD PUSH1 0x1 PUSH1 0x1 PUSH1 0xA0 SHL SUB NOT AND PUSH1 0x1 PUSH1 0x1 PUSH1 0xA0 SHL SUB DUP5 AND SWAP1 DUP2 OR SWAP1 SWAP2 SSTORE DUP2 SWAP1 PUSH2 0x196A DUP3 PUSH2 0x12AB JUMP JUMPDEST PUSH1 0x1 PUSH1 0x1 PUSH1 0xA0 SHL SUB AND PUSH32 0x8C5BE1E5EBEC7D5BD14F71427D1E84F3DD0314C0F7B2291E5B200AC8C7C3B925 PUSH1 0x40 MLOAD PUSH1 0x40 MLOAD DUP1 SWAP2 SUB SWAP1 LOG4 POP POP JUMP JUMPDEST PUSH1 0x0 SWAP1 DUP2 MSTORE PUSH1 0x2 PUSH1 0x20 MSTORE PUSH1 0x40 SWAP1 KECCAK256 SLOAD PUSH1 0x1 PUSH1 0x1 PUSH1 0xA0 SHL SUB AND ISZERO ISZERO SWAP1 JUMP JUMPDEST PUSH1 0x0 DUP1 PUSH2 0x19CC DUP4 PUSH2 0x12AB JUMP JUMPDEST SWAP1 POP DUP1 PUSH1 0x1 PUSH1 0x1 PUSH1 0xA0 SHL SUB AND DUP5 PUSH1 0x1 PUSH1 0x1 PUSH1 0xA0 SHL SUB AND EQ DUP1 PUSH2 0x1A13 JUMPI POP PUSH1 0x1 PUSH1 0x1 PUSH1 0xA0 SHL SUB DUP1 DUP3 AND PUSH1 0x0 SWAP1 DUP2 MSTORE PUSH1 0x5 PUSH1 0x20 SWAP1 DUP2 MSTORE PUSH1 0x40 DUP1 DUP4 KECCAK256 SWAP4 DUP9 AND DUP4 MSTORE SWAP3 SWAP1 MSTORE KECCAK256 SLOAD PUSH1 0xFF AND JUMPDEST DUP1 PUSH2 0x1A37 JUMPI POP DUP4 PUSH1 0x1 PUSH1 0x1 PUSH1 0xA0 SHL SUB AND PUSH2 0x1A2C DUP5 PUSH2 0x6E8 JUMP JUMPDEST PUSH1 0x1 PUSH1 0x1 PUSH1 0xA0 SHL SUB AND EQ JUMPDEST SWAP5 SWAP4 POP POP POP POP JUMP JUMPDEST DUP3 PUSH1 0x1 PUSH1 0x1 PUSH1 0xA0 SHL SUB AND PUSH2 0x1A52 DUP3 PUSH2 0x12AB JUMP JUMPDEST PUSH1 0x1 PUSH1 0x1 PUSH1 0xA0 SHL SUB AND EQ PUSH2 0x1A78 JUMPI PUSH1 0x40 MLOAD PUSH3 0x461BCD PUSH1 0xE5 SHL DUP2 MSTORE PUSH1 0x4 ADD PUSH2 0x783 SWAP1 PUSH2 0x3BB0 JUMP JUMPDEST PUSH1 0x1 PUSH1 0x1 PUSH1 0xA0 SHL SUB DUP3 AND PUSH2 0x1ADA JUMPI PUSH1 0x40 MLOAD PUSH3 0x461BCD PUSH1 0xE5 SHL DUP2 MSTORE PUSH1 0x20 PUSH1 0x4 DUP3 ADD MSTORE PUSH1 0x24 DUP1 DUP3 ADD MSTORE PUSH32 0x4552433732313A207472616E7366657220746F20746865207A65726F20616464 PUSH1 0x44 DUP3 ADD MSTORE PUSH4 0x72657373 PUSH1 0xE0 SHL PUSH1 0x64 DUP3 ADD MSTORE PUSH1 0x84 ADD PUSH2 0x783 JUMP JUMPDEST PUSH2 0x1AE7 DUP4 DUP4 DUP4 PUSH1 0x1 PUSH2 0x22CE JUMP JUMPDEST DUP3 PUSH1 0x1 PUSH1 0x1 PUSH1 0xA0 SHL SUB AND PUSH2 0x1AFA DUP3 PUSH2 0x12AB JUMP JUMPDEST PUSH1 0x1 PUSH1 0x1 PUSH1 0xA0 SHL SUB AND EQ PUSH2 0x1B20 JUMPI PUSH1 0x40 MLOAD PUSH3 0x461BCD PUSH1 0xE5 SHL DUP2 MSTORE PUSH1 0x4 ADD PUSH2 0x783 SWAP1 PUSH2 0x3BB0 JUMP JUMPDEST PUSH1 0x0 DUP2 DUP2 MSTORE PUSH1 0x4 PUSH1 0x20 SWAP1 DUP2 MSTORE PUSH1 0x40 DUP1 DUP4 KECCAK256 DUP1 SLOAD PUSH1 0x1 PUSH1 0x1 PUSH1 0xA0 SHL SUB NOT SWAP1 DUP2 AND SWAP1 SWAP2 SSTORE PUSH1 0x1 PUSH1 0x1 PUSH1 0xA0 SHL SUB DUP8 DUP2 AND DUP1 DUP7 MSTORE PUSH1 0x3 DUP6 MSTORE DUP4 DUP7 KECCAK256 DUP1 SLOAD PUSH1 0x0 NOT ADD SWAP1 SSTORE SWAP1 DUP8 AND DUP1 DUP7 MSTORE DUP4 DUP7 KECCAK256 DUP1 SLOAD PUSH1 0x1 ADD SWAP1 SSTORE DUP7 DUP7 MSTORE PUSH1 0x2 SWAP1 SWAP5 MSTORE DUP3 DUP6 KECCAK256 DUP1 SLOAD SWAP1 SWAP3 AND DUP5 OR SWAP1 SWAP2 SSTORE SWAP1 MLOAD DUP5 SWAP4 PUSH32 0xDDF252AD1BE2C89B69C2B068FC378DAA952BA7F163C4A11628F55A4DF523B3EF SWAP2 LOG4 POP POP POP JUMP JUMPDEST PUSH2 0xEBA DUP2 CALLER PUSH2 0x2339 JUMP JUMPDEST PUSH2 0x1BC4 DUP3 DUP3 PUSH2 0x1389 JUMP JUMPDEST PUSH2 0xE66 JUMPI PUSH1 0x0 DUP3 DUP2 MSTORE PUSH1 0xA PUSH1 0x20 SWAP1 DUP2 MSTORE PUSH1 0x40 DUP1 DUP4 KECCAK256 PUSH1 0x1 PUSH1 0x1 PUSH1 0xA0 SHL SUB DUP6 AND DUP5 MSTORE SWAP1 SWAP2 MSTORE SWAP1 KECCAK256 DUP1 SLOAD PUSH1 0xFF NOT AND PUSH1 0x1 OR SWAP1 SSTORE PUSH2 0x1BFC CALLER SWAP1 JUMP JUMPDEST PUSH1 0x1 PUSH1 0x1 PUSH1 0xA0 SHL SUB AND DUP2 PUSH1 0x1 PUSH1 0x1 PUSH1 0xA0 SHL SUB AND DUP4 PUSH32 0x2F8788117E7EFF1D82E926EC794901D17C78024A50270940304540A733656F0D PUSH1 0x40 MLOAD PUSH1 0x40 MLOAD DUP1 SWAP2 SUB SWAP1 LOG4 POP POP JUMP JUMPDEST PUSH1 0x0 PUSH1 0x1 PUSH1 0x1 PUSH1 0xA0 SHL SUB DUP5 AND PUSH2 0x1C98 JUMPI PUSH1 0x40 MLOAD PUSH3 0x461BCD PUSH1 0xE5 SHL DUP2 MSTORE PUSH1 0x20 PUSH1 0x4 DUP3 ADD MSTORE PUSH1 0x1B PUSH1 0x24 DUP3 ADD MSTORE PUSH32 0x43616E6E6F74206D696E7420746F207A65726F20616464726573730000000000 PUSH1 0x44 DUP3 ADD MSTORE PUSH1 0x64 ADD PUSH2 0x783 JUMP JUMPDEST PUSH1 0x0 DUP4 GT PUSH2 0x1CF8 JUMPI PUSH1 0x40 MLOAD PUSH3 0x461BCD PUSH1 0xE5 SHL DUP2 MSTORE PUSH1 0x20 PUSH1 0x4 DUP3 ADD MSTORE PUSH1 0x27 PUSH1 0x24 DUP3 ADD MSTORE PUSH32 0x4465706F7369742076616C7565206D7573742062652067726561746572207468 PUSH1 0x44 DUP3 ADD MSTORE PUSH7 0x616E207A65726F PUSH1 0xC8 SHL PUSH1 0x64 DUP3 ADD MSTORE PUSH1 0x84 ADD PUSH2 0x783 JUMP JUMPDEST PUSH1 0x0 PUSH2 0x1D03 PUSH1 0xD SLOAD SWAP1 JUMP JUMPDEST SWAP1 POP PUSH2 0x1D13 PUSH1 0xD DUP1 SLOAD PUSH1 0x1 ADD SWAP1 SSTORE JUMP JUMPDEST PUSH2 0x1D1D DUP6 DUP3 PUSH2 0x2386 JUMP JUMPDEST PUSH1 0x0 PUSH2 0x1D28 DUP3 PUSH2 0x23A0 JUMP JUMPDEST PUSH1 0x40 DUP1 MLOAD PUSH1 0xA0 DUP2 ADD DUP3 MSTORE DUP8 DUP2 MSTORE PUSH1 0x1 PUSH1 0x1 PUSH1 0xA0 SHL SUB DUP1 DUP9 AND PUSH1 0x20 DUP1 DUP5 ADD SWAP2 DUP3 MSTORE DUP3 DUP7 AND DUP5 DUP7 ADD DUP2 DUP2 MSTORE DUP14 DUP6 AND PUSH1 0x60 DUP8 ADD DUP2 DUP2 MSTORE TIMESTAMP PUSH1 0x80 DUP10 ADD SWAP1 DUP2 MSTORE PUSH1 0x0 DUP14 DUP2 MSTORE PUSH1 0xE DUP8 MSTORE DUP11 DUP2 KECCAK256 SWAP10 MLOAD DUP11 SSTORE SWAP7 MLOAD PUSH1 0x1 DUP11 ADD DUP1 SLOAD SWAP2 DUP11 AND PUSH1 0x1 PUSH1 0x1 PUSH1 0xA0 SHL SUB NOT SWAP3 DUP4 AND OR SWAP1 SSTORE SWAP4 MLOAD PUSH1 0x2 DUP11 ADD DUP1 SLOAD SWAP2 DUP11 AND SWAP2 DUP7 AND SWAP2 SWAP1 SWAP2 OR SWAP1 SSTORE SWAP1 MLOAD PUSH1 0x3 DUP10 ADD DUP1 SLOAD SWAP2 SWAP1 SWAP9 AND SWAP1 DUP5 AND OR SWAP1 SWAP7 SSTORE SWAP5 MLOAD PUSH1 0x4 SWAP1 SWAP7 ADD SWAP6 SWAP1 SWAP6 SSTORE PUSH1 0xF SWAP1 SWAP2 MSTORE DUP5 DUP3 KECCAK256 DUP1 SLOAD SWAP1 SWAP5 AND DUP2 OR SWAP1 SWAP4 SSTORE SWAP3 MLOAD SWAP4 SWAP5 POP SWAP3 SWAP1 SWAP2 DUP6 SWAP2 PUSH32 0x52ED26DE8795D26F48A8C6B8FD428AB41CEF9B2BE844C97569E5F575A3DA1CA1 SWAP2 SWAP1 LOG4 POP SWAP5 SWAP4 POP POP POP POP JUMP JUMPDEST PUSH2 0x1E12 DUP3 DUP3 PUSH2 0x1389 JUMP JUMPDEST ISZERO PUSH2 0xE66 JUMPI PUSH1 0x0 DUP3 DUP2 MSTORE PUSH1 0xA PUSH1 0x20 SWAP1 DUP2 MSTORE PUSH1 0x40 DUP1 DUP4 KECCAK256 PUSH1 0x1 PUSH1 0x1 PUSH1 0xA0 SHL SUB DUP6 AND DUP1 DUP6 MSTORE SWAP3 MSTORE DUP1 DUP4 KECCAK256 DUP1 SLOAD PUSH1 0xFF NOT AND SWAP1 SSTORE MLOAD CALLER SWAP3 DUP6 SWAP2 PUSH32 0xF6391F5C32D9C69D2A47EA670B442974B53935D1EDC7FD64EB21E047A839171B SWAP2 SWAP1 LOG4 POP POP JUMP JUMPDEST PUSH2 0x1E77 PUSH2 0x2471 JUMP JUMPDEST PUSH1 0xB DUP1 SLOAD PUSH1 0xFF NOT AND SWAP1 SSTORE PUSH32 0x5DB9EE0A495BF2E6FF9C91A7834C1BA4FDD244A5E8AA4E537BD38AEAE4B073AA CALLER JUMPDEST PUSH1 0x40 MLOAD PUSH1 0x1 PUSH1 0x1 PUSH1 0xA0 SHL SUB SWAP1 SWAP2 AND DUP2 MSTORE PUSH1 0x20 ADD PUSH1 0x40 MLOAD DUP1 SWAP2 SUB SWAP1 LOG1 JUMP JUMPDEST PUSH1 0x0 PUSH2 0x1ECC DUP3 PUSH2 0x12AB JUMP JUMPDEST SWAP1 POP PUSH2 0x1EDC DUP2 PUSH1 0x0 DUP5 PUSH1 0x1 PUSH2 0x22CE JUMP JUMPDEST PUSH2 0x1EE5 DUP3 PUSH2 0x12AB JUMP JUMPDEST PUSH1 0x0 DUP4 DUP2 MSTORE PUSH1 0x4 PUSH1 0x20 SWAP1 DUP2 MSTORE PUSH1 0x40 DUP1 DUP4 KECCAK256 DUP1 SLOAD PUSH1 0x1 PUSH1 0x1 PUSH1 0xA0 SHL SUB NOT SWAP1 DUP2 AND SWAP1 SWAP2 SSTORE PUSH1 0x1 PUSH1 0x1 PUSH1 0xA0 SHL SUB DUP6 AND DUP1 DUP6 MSTORE PUSH1 0x3 DUP5 MSTORE DUP3 DUP6 KECCAK256 DUP1 SLOAD PUSH1 0x0 NOT ADD SWAP1 SSTORE DUP8 DUP6 MSTORE PUSH1 0x2 SWAP1 SWAP4 MSTORE DUP2 DUP5 KECCAK256 DUP1 SLOAD SWAP1 SWAP2 AND SWAP1 SSTORE MLOAD SWAP3 SWAP4 POP DUP5 SWAP3 PUSH32 0xDDF252AD1BE2C89B69C2B068FC378DAA952BA7F163C4A11628F55A4DF523B3EF SWAP1 DUP4 SWAP1 LOG4 POP POP JUMP JUMPDEST PUSH2 0x1F6C PUSH2 0x24BC JUMP JUMPDEST PUSH1 0xB DUP1 SLOAD PUSH1 0xFF NOT AND PUSH1 0x1 OR SWAP1 SSTORE PUSH32 0x62E78CEA01BEE320CD4E420270B5EA74000D11B0C9F74754EBDBFC544B05A258 PUSH2 0x1EA4 CALLER SWAP1 JUMP JUMPDEST DUP2 PUSH1 0x1 PUSH1 0x1 PUSH1 0xA0 SHL SUB AND DUP4 PUSH1 0x1 PUSH1 0x1 PUSH1 0xA0 SHL SUB AND SUB PUSH2 0x2002 JUMPI PUSH1 0x40 MLOAD PUSH3 0x461BCD PUSH1 0xE5 SHL DUP2 MSTORE PUSH1 0x20 PUSH1 0x4 DUP3 ADD MSTORE PUSH1 0x19 PUSH1 0x24 DUP3 ADD MSTORE PUSH32 0x4552433732313A20617070726F766520746F2063616C6C657200000000000000 PUSH1 0x44 DUP3 ADD MSTORE PUSH1 0x64 ADD PUSH2 0x783 JUMP JUMPDEST PUSH1 0x1 PUSH1 0x1 PUSH1 0xA0 SHL SUB DUP4 DUP2 AND PUSH1 0x0 DUP2 DUP2 MSTORE PUSH1 0x5 PUSH1 0x20 SWAP1 DUP2 MSTORE PUSH1 0x40 DUP1 DUP4 KECCAK256 SWAP5 DUP8 AND DUP1 DUP5 MSTORE SWAP5 DUP3 MSTORE SWAP2 DUP3 SWAP1 KECCAK256 DUP1 SLOAD PUSH1 0xFF NOT AND DUP7 ISZERO ISZERO SWAP1 DUP2 OR SWAP1 SWAP2 SSTORE SWAP2 MLOAD SWAP2 DUP3 MSTORE PUSH32 0x17307EAB39AB6107E8899845AD3D59BD9653F200F220920489CA2B5937696C31 SWAP2 ADD PUSH1 0x40 MLOAD DUP1 SWAP2 SUB SWAP1 LOG3 POP POP POP JUMP JUMPDEST PUSH2 0x207A DUP5 DUP5 DUP5 PUSH2 0x1A3F JUMP JUMPDEST PUSH2 0x2086 DUP5 DUP5 DUP5 DUP5 PUSH2 0x2502 JUMP JUMPDEST PUSH2 0x1443 JUMPI PUSH1 0x40 MLOAD PUSH3 0x461BCD PUSH1 0xE5 SHL DUP2 MSTORE PUSH1 0x4 ADD PUSH2 0x783 SWAP1 PUSH2 0x3BF5 JUMP JUMPDEST PUSH1 0x60 PUSH1 0x0 PUSH2 0x20AF DUP4 PUSH2 0x2603 JUMP JUMPDEST PUSH1 0x1 ADD SWAP1 POP PUSH1 0x0 DUP2 PUSH1 0x1 PUSH1 0x1 PUSH1 0x40 SHL SUB DUP2 GT ISZERO PUSH2 0x20CE JUMPI PUSH2 0x20CE PUSH2 0x3415 JUMP JUMPDEST PUSH1 0x40 MLOAD SWAP1 DUP1 DUP3 MSTORE DUP1 PUSH1 0x1F ADD PUSH1 0x1F NOT AND PUSH1 0x20 ADD DUP3 ADD PUSH1 0x40 MSTORE DUP1 ISZERO PUSH2 0x20F8 JUMPI PUSH1 0x20 DUP3 ADD DUP2 DUP1 CALLDATASIZE DUP4 CALLDATACOPY ADD SWAP1 POP JUMPDEST POP SWAP1 POP DUP2 DUP2 ADD PUSH1 0x20 ADD JUMPDEST PUSH1 0x0 NOT ADD PUSH16 0x181899199A1A9B1B9C1CB0B131B232B3 PUSH1 0x81 SHL PUSH1 0xA DUP7 MOD BYTE DUP2 MSTORE8 PUSH1 0xA DUP6 DIV SWAP5 POP DUP5 PUSH2 0x2102 JUMPI POP SWAP4 SWAP3 POP POP POP JUMP JUMPDEST PUSH1 0x60 PUSH2 0x650 DUP3 PUSH1 0x1 PUSH1 0x1 PUSH1 0xA0 SHL SUB AND PUSH1 0x14 PUSH2 0x26DB JUMP JUMPDEST PUSH1 0x60 DUP2 MLOAD PUSH1 0x0 SUB PUSH2 0x2169 JUMPI POP POP PUSH1 0x40 DUP1 MLOAD PUSH1 0x20 DUP2 ADD SWAP1 SWAP2 MSTORE PUSH1 0x0 DUP2 MSTORE SWAP1 JUMP JUMPDEST PUSH1 0x0 PUSH1 0x40 MLOAD DUP1 PUSH1 0x60 ADD PUSH1 0x40 MSTORE DUP1 PUSH1 0x40 DUP2 MSTORE PUSH1 0x20 ADD PUSH2 0x3F16 PUSH1 0x40 SWAP2 CODECOPY SWAP1 POP PUSH1 0x0 PUSH1 0x3 DUP5 MLOAD PUSH1 0x2 PUSH2 0x2198 SWAP2 SWAP1 PUSH2 0x3755 JUMP JUMPDEST PUSH2 0x21A2 SWAP2 SWAP1 PUSH2 0x3927 JUMP JUMPDEST PUSH2 0x21AD SWAP1 PUSH1 0x4 PUSH2 0x3C47 JUMP JUMPDEST PUSH1 0x1 PUSH1 0x1 PUSH1 0x40 SHL SUB DUP2 GT ISZERO PUSH2 0x21C4 JUMPI PUSH2 0x21C4 PUSH2 0x3415 JUMP JUMPDEST PUSH1 0x40 MLOAD SWAP1 DUP1 DUP3 MSTORE DUP1 PUSH1 0x1F ADD PUSH1 0x1F NOT AND PUSH1 0x20 ADD DUP3 ADD PUSH1 0x40 MSTORE DUP1 ISZERO PUSH2 0x21EE JUMPI PUSH1 0x20 DUP3 ADD DUP2 DUP1 CALLDATASIZE DUP4 CALLDATACOPY ADD SWAP1 POP JUMPDEST POP SWAP1 POP PUSH1 0x1 DUP3 ADD PUSH1 0x20 DUP3 ADD DUP6 DUP7 MLOAD DUP8 ADD PUSH1 0x20 DUP2 ADD DUP1 MLOAD PUSH1 0x0 DUP3 MSTORE JUMPDEST DUP3 DUP5 LT ISZERO PUSH2 0x2264 JUMPI PUSH1 0x3 DUP5 ADD SWAP4 POP DUP4 MLOAD PUSH1 0x3F DUP2 PUSH1 0x12 SHR AND DUP8 ADD MLOAD DUP7 MSTORE8 PUSH1 0x1 DUP7 ADD SWAP6 POP PUSH1 0x3F DUP2 PUSH1 0xC SHR AND DUP8 ADD MLOAD DUP7 MSTORE8 PUSH1 0x1 DUP7 ADD SWAP6 POP PUSH1 0x3F DUP2 PUSH1 0x6 SHR AND DUP8 ADD MLOAD DUP7 MSTORE8 PUSH1 0x1 DUP7 ADD SWAP6 POP PUSH1 0x3F DUP2 AND DUP8 ADD MLOAD DUP7 MSTORE8 POP PUSH1 0x1 DUP6 ADD SWAP5 POP PUSH2 0x2209 JUMP JUMPDEST SWAP1 MSTORE POP POP DUP6 MLOAD PUSH1 0x3 SWAP1 MOD PUSH1 0x1 DUP2 EQ PUSH2 0x2283 JUMPI PUSH1 0x2 DUP2 EQ PUSH2 0x2296 JUMPI PUSH2 0x229E JUMP JUMPDEST PUSH1 0x3D PUSH1 0x1 DUP4 SUB MSTORE8 PUSH1 0x3D PUSH1 0x2 DUP4 SUB MSTORE8 PUSH2 0x229E JUMP JUMPDEST PUSH1 0x3D PUSH1 0x1 DUP4 SUB MSTORE8 JUMPDEST POP SWAP2 SWAP6 SWAP5 POP POP POP POP POP JUMP JUMPDEST PUSH1 0x0 PUSH1 0x1 PUSH1 0x1 PUSH1 0xE0 SHL SUB NOT DUP3 AND PUSH4 0x780E9D63 PUSH1 0xE0 SHL EQ DUP1 PUSH2 0x650 JUMPI POP PUSH2 0x650 DUP3 PUSH2 0x287D JUMP JUMPDEST PUSH2 0x22D6 PUSH2 0x24BC JUMP JUMPDEST PUSH2 0x22E2 DUP5 DUP5 DUP5 DUP5 PUSH2 0x28CD JUMP JUMPDEST PUSH1 0x1 PUSH1 0x1 PUSH1 0xA0 SHL SUB DUP5 AND ISZERO DUP1 ISZERO SWAP1 PUSH2 0x2302 JUMPI POP PUSH1 0x1 PUSH1 0x1 PUSH1 0xA0 SHL SUB DUP4 AND ISZERO ISZERO JUMPDEST ISZERO PUSH2 0x1443 JUMPI PUSH1 0x0 DUP3 DUP2 MSTORE PUSH1 0xE PUSH1 0x20 MSTORE PUSH1 0x40 SWAP1 KECCAK256 PUSH1 0x3 ADD DUP1 SLOAD PUSH1 0x1 PUSH1 0x1 PUSH1 0xA0 SHL SUB DUP6 AND PUSH1 0x1 PUSH1 0x1 PUSH1 0xA0 SHL SUB NOT SWAP1 SWAP2 AND OR SWAP1 SSTORE POP POP POP POP JUMP JUMPDEST PUSH2 0x2343 DUP3 DUP3 PUSH2 0x1389 JUMP JUMPDEST PUSH2 0xE66 JUMPI PUSH2 0x2350 DUP2 PUSH2 0x29FA JUMP JUMPDEST PUSH1 0x40 MLOAD PUSH1 0x20 ADD PUSH2 0x2360 SWAP2 SWAP1 PUSH2 0x3C5E JUMP JUMPDEST PUSH1 0x40 DUP1 MLOAD PUSH1 0x1F NOT DUP2 DUP5 SUB ADD DUP2 MSTORE SWAP1 DUP3 SWAP1 MSTORE PUSH3 0x461BCD PUSH1 0xE5 SHL DUP3 MSTORE PUSH2 0x783 SWAP2 PUSH1 0x4 ADD PUSH2 0x2FA6 JUMP JUMPDEST PUSH2 0xE66 DUP3 DUP3 PUSH1 0x40 MLOAD DUP1 PUSH1 0x20 ADD PUSH1 0x40 MSTORE DUP1 PUSH1 0x0 DUP2 MSTORE POP PUSH2 0x2BAA JUMP JUMPDEST PUSH1 0x40 MLOAD PUSH4 0x8A54C52F PUSH1 0xE0 SHL DUP2 MSTORE PUSH1 0x1 PUSH1 0x1 PUSH1 0xA0 SHL SUB PUSH32 0x0 DUP2 AND PUSH1 0x4 DUP4 ADD MSTORE PUSH1 0x24 DUP3 ADD DUP4 SWAP1 MSTORE CHAINID PUSH1 0x44 DUP4 ADD DUP2 SWAP1 MSTORE ADDRESS PUSH1 0x64 DUP5 ADD MSTORE PUSH1 0x84 DUP4 ADD DUP5 SWAP1 MSTORE PUSH1 0x0 SWAP3 SWAP1 SWAP2 DUP5 SWAP2 PUSH32 0x0 SWAP1 SWAP2 AND SWAP1 PUSH4 0x8A54C52F SWAP1 PUSH1 0xA4 ADD PUSH1 0x20 PUSH1 0x40 MLOAD DUP1 DUP4 SUB DUP2 PUSH1 0x0 DUP8 GAS CALL ISZERO DUP1 ISZERO PUSH2 0x244D JUMPI RETURNDATASIZE PUSH1 0x0 DUP1 RETURNDATACOPY RETURNDATASIZE PUSH1 0x0 REVERT JUMPDEST POP POP POP POP PUSH1 0x40 MLOAD RETURNDATASIZE PUSH1 0x1F NOT PUSH1 0x1F DUP3 ADD AND DUP3 ADD DUP1 PUSH1 0x40 MSTORE POP DUP2 ADD SWAP1 PUSH2 0x1A37 SWAP2 SWAP1 PUSH2 0x3CBD JUMP JUMPDEST PUSH1 0xB SLOAD PUSH1 0xFF AND PUSH2 0x24BA JUMPI PUSH1 0x40 MLOAD PUSH3 0x461BCD PUSH1 0xE5 SHL DUP2 MSTORE PUSH1 0x20 PUSH1 0x4 DUP3 ADD MSTORE PUSH1 0x14 PUSH1 0x24 DUP3 ADD MSTORE PUSH20 0x14185D5CD8589B194E881B9BDD081C185D5CD959 PUSH1 0x62 SHL PUSH1 0x44 DUP3 ADD MSTORE PUSH1 0x64 ADD PUSH2 0x783 JUMP JUMPDEST JUMP JUMPDEST PUSH1 0xB SLOAD PUSH1 0xFF AND ISZERO PUSH2 0x24BA JUMPI PUSH1 0x40 MLOAD PUSH3 0x461BCD PUSH1 0xE5 SHL DUP2 MSTORE PUSH1 0x20 PUSH1 0x4 DUP3 ADD MSTORE PUSH1 0x10 PUSH1 0x24 DUP3 ADD MSTORE PUSH16 0x14185D5CD8589B194E881C185D5CD959 PUSH1 0x82 SHL PUSH1 0x44 DUP3 ADD MSTORE PUSH1 0x64 ADD PUSH2 0x783 JUMP JUMPDEST PUSH1 0x0 PUSH1 0x1 PUSH1 0x1 PUSH1 0xA0 SHL SUB DUP5 AND EXTCODESIZE ISZERO PUSH2 0x25F8 JUMPI PUSH1 0x40 MLOAD PUSH4 0xA85BD01 PUSH1 0xE1 SHL DUP2 MSTORE PUSH1 0x1 PUSH1 0x1 PUSH1 0xA0 SHL SUB DUP6 AND SWAP1 PUSH4 0x150B7A02 SWAP1 PUSH2 0x2546 SWAP1 CALLER SWAP1 DUP10 SWAP1 DUP9 SWAP1 DUP9 SWAP1 PUSH1 0x4 ADD PUSH2 0x3CDA JUMP JUMPDEST PUSH1 0x20 PUSH1 0x40 MLOAD DUP1 DUP4 SUB DUP2 PUSH1 0x0 DUP8 GAS CALL SWAP3 POP POP POP DUP1 ISZERO PUSH2 0x2581 JUMPI POP PUSH1 0x40 DUP1 MLOAD PUSH1 0x1F RETURNDATASIZE SWAP1 DUP2 ADD PUSH1 0x1F NOT AND DUP3 ADD SWAP1 SWAP3 MSTORE PUSH2 0x257E SWAP2 DUP2 ADD SWAP1 PUSH2 0x3D17 JUMP JUMPDEST PUSH1 0x1 JUMPDEST PUSH2 0x25DE JUMPI RETURNDATASIZE DUP1 DUP1 ISZERO PUSH2 0x25AF JUMPI PUSH1 0x40 MLOAD SWAP2 POP PUSH1 0x1F NOT PUSH1 0x3F RETURNDATASIZE ADD AND DUP3 ADD PUSH1 0x40 MSTORE RETURNDATASIZE DUP3 MSTORE RETURNDATASIZE PUSH1 0x0 PUSH1 0x20 DUP5 ADD RETURNDATACOPY PUSH2 0x25B4 JUMP JUMPDEST PUSH1 0x60 SWAP2 POP JUMPDEST POP DUP1 MLOAD PUSH1 0x0 SUB PUSH2 0x25D6 JUMPI PUSH1 0x40 MLOAD PUSH3 0x461BCD PUSH1 0xE5 SHL DUP2 MSTORE PUSH1 0x4 ADD PUSH2 0x783 SWAP1 PUSH2 0x3BF5 JUMP JUMPDEST DUP1 MLOAD DUP2 PUSH1 0x20 ADD REVERT JUMPDEST PUSH1 0x1 PUSH1 0x1 PUSH1 0xE0 SHL SUB NOT AND PUSH4 0xA85BD01 PUSH1 0xE1 SHL EQ SWAP1 POP PUSH2 0x1A37 JUMP JUMPDEST POP PUSH1 0x1 SWAP5 SWAP4 POP POP POP POP JUMP JUMPDEST PUSH1 0x0 DUP1 PUSH19 0x184F03E93FF9F4DAA797ED6E38ED64BF6A1F01 PUSH1 0x40 SHL DUP4 LT PUSH2 0x2642 JUMPI PUSH19 0x184F03E93FF9F4DAA797ED6E38ED64BF6A1F01 PUSH1 0x40 SHL DUP4 DIV SWAP3 POP PUSH1 0x40 ADD JUMPDEST PUSH14 0x4EE2D6D415B85ACEF8100000000 DUP4 LT PUSH2 0x266E JUMPI PUSH14 0x4EE2D6D415B85ACEF8100000000 DUP4 DIV SWAP3 POP PUSH1 0x20 ADD JUMPDEST PUSH7 0x2386F26FC10000 DUP4 LT PUSH2 0x268C JUMPI PUSH7 0x2386F26FC10000 DUP4 DIV SWAP3 POP PUSH1 0x10 ADD JUMPDEST PUSH4 0x5F5E100 DUP4 LT PUSH2 0x26A4 JUMPI PUSH4 0x5F5E100 DUP4 DIV SWAP3 POP PUSH1 0x8 ADD JUMPDEST PUSH2 0x2710 DUP4 LT PUSH2 0x26B8 JUMPI PUSH2 0x2710 DUP4 DIV SWAP3 POP PUSH1 0x4 ADD JUMPDEST PUSH1 0x64 DUP4 LT PUSH2 0x26CA JUMPI PUSH1 0x64 DUP4 DIV SWAP3 POP PUSH1 0x2 ADD JUMPDEST PUSH1 0xA DUP4 LT PUSH2 0x650 JUMPI PUSH1 0x1 ADD SWAP3 SWAP2 POP POP JUMP JUMPDEST PUSH1 0x60 PUSH1 0x0 PUSH2 0x26EA DUP4 PUSH1 0x2 PUSH2 0x3C47 JUMP JUMPDEST PUSH2 0x26F5 SWAP1 PUSH1 0x2 PUSH2 0x3755 JUMP JUMPDEST PUSH1 0x1 PUSH1 0x1 PUSH1 0x40 SHL SUB DUP2 GT ISZERO PUSH2 0x270C JUMPI PUSH2 0x270C PUSH2 0x3415 JUMP JUMPDEST PUSH1 0x40 MLOAD SWAP1 DUP1 DUP3 MSTORE DUP1 PUSH1 0x1F ADD PUSH1 0x1F NOT AND PUSH1 0x20 ADD DUP3 ADD PUSH1 0x40 MSTORE DUP1 ISZERO PUSH2 0x2736 JUMPI PUSH1 0x20 DUP3 ADD DUP2 DUP1 CALLDATASIZE DUP4 CALLDATACOPY ADD SWAP1 POP JUMPDEST POP SWAP1 POP PUSH1 0x3 PUSH1 0xFC SHL DUP2 PUSH1 0x0 DUP2 MLOAD DUP2 LT PUSH2 0x2751 JUMPI PUSH2 0x2751 PUSH2 0x3729 JUMP JUMPDEST PUSH1 0x20 ADD ADD SWAP1 PUSH1 0x1 PUSH1 0x1 PUSH1 0xF8 SHL SUB NOT AND SWAP1 DUP2 PUSH1 0x0 BYTE SWAP1 MSTORE8 POP PUSH1 0xF PUSH1 0xFB SHL DUP2 PUSH1 0x1 DUP2 MLOAD DUP2 LT PUSH2 0x2780 JUMPI PUSH2 0x2780 PUSH2 0x3729 JUMP JUMPDEST PUSH1 0x20 ADD ADD SWAP1 PUSH1 0x1 PUSH1 0x1 PUSH1 0xF8 SHL SUB NOT AND SWAP1 DUP2 PUSH1 0x0 BYTE SWAP1 MSTORE8 POP PUSH1 0x0 PUSH2 0x27A4 DUP5 PUSH1 0x2 PUSH2 0x3C47 JUMP JUMPDEST PUSH2 0x27AF SWAP1 PUSH1 0x1 PUSH2 0x3755 JUMP JUMPDEST SWAP1 POP JUMPDEST PUSH1 0x1 DUP2 GT ISZERO PUSH2 0x2827 JUMPI PUSH16 0x181899199A1A9B1B9C1CB0B131B232B3 PUSH1 0x81 SHL DUP6 PUSH1 0xF AND PUSH1 0x10 DUP2 LT PUSH2 0x27E3 JUMPI PUSH2 0x27E3 PUSH2 0x3729 JUMP JUMPDEST BYTE PUSH1 0xF8 SHL DUP3 DUP3 DUP2 MLOAD DUP2 LT PUSH2 0x27F9 JUMPI PUSH2 0x27F9 PUSH2 0x3729 JUMP JUMPDEST PUSH1 0x20 ADD ADD SWAP1 PUSH1 0x1 PUSH1 0x1 PUSH1 0xF8 SHL SUB NOT AND SWAP1 DUP2 PUSH1 0x0 BYTE SWAP1 MSTORE8 POP PUSH1 0x4 SWAP5 SWAP1 SWAP5 SHR SWAP4 PUSH2 0x2820 DUP2 PUSH2 0x3D34 JUMP JUMPDEST SWAP1 POP PUSH2 0x27B2 JUMP JUMPDEST POP DUP4 ISZERO PUSH2 0x2876 JUMPI PUSH1 0x40 MLOAD PUSH3 0x461BCD PUSH1 0xE5 SHL DUP2 MSTORE PUSH1 0x20 PUSH1 0x4 DUP3 ADD DUP2 SWAP1 MSTORE PUSH1 0x24 DUP3 ADD MSTORE PUSH32 0x537472696E67733A20686578206C656E67746820696E73756666696369656E74 PUSH1 0x44 DUP3 ADD MSTORE PUSH1 0x64 ADD PUSH2 0x783 JUMP JUMPDEST SWAP4 SWAP3 POP POP POP JUMP JUMPDEST PUSH1 0x0 PUSH1 0x1 PUSH1 0x1 PUSH1 0xE0 SHL SUB NOT DUP3 AND PUSH4 0x80AC58CD PUSH1 0xE0 SHL EQ DUP1 PUSH2 0x28AE JUMPI POP PUSH1 0x1 PUSH1 0x1 PUSH1 0xE0 SHL SUB NOT DUP3 AND PUSH4 0x5B5E139F PUSH1 0xE0 SHL EQ JUMPDEST DUP1 PUSH2 0x650 JUMPI POP PUSH4 0x1FFC9A7 PUSH1 0xE0 SHL PUSH1 0x1 PUSH1 0x1 PUSH1 0xE0 SHL SUB NOT DUP4 AND EQ PUSH2 0x650 JUMP JUMPDEST PUSH1 0x1 DUP2 GT ISZERO PUSH2 0x293C JUMPI PUSH1 0x40 MLOAD PUSH3 0x461BCD PUSH1 0xE5 SHL DUP2 MSTORE PUSH1 0x20 PUSH1 0x4 DUP3 ADD MSTORE PUSH1 0x35 PUSH1 0x24 DUP3 ADD MSTORE PUSH32 0x455243373231456E756D657261626C653A20636F6E7365637574697665207472 PUSH1 0x44 DUP3 ADD MSTORE PUSH21 0x185B9CD9995C9CC81B9BDD081CDD5C1C1BDC9D1959 PUSH1 0x5A SHL PUSH1 0x64 DUP3 ADD MSTORE PUSH1 0x84 ADD PUSH2 0x783 JUMP JUMPDEST DUP2 PUSH1 0x1 PUSH1 0x1 PUSH1 0xA0 SHL SUB DUP6 AND PUSH2 0x2998 JUMPI PUSH2 0x2993 DUP2 PUSH1 0x8 DUP1 SLOAD PUSH1 0x0 DUP4 DUP2 MSTORE PUSH1 0x9 PUSH1 0x20 MSTORE PUSH1 0x40 DUP2 KECCAK256 DUP3 SWAP1 SSTORE PUSH1 0x1 DUP3 ADD DUP4 SSTORE SWAP2 SWAP1 SWAP2 MSTORE PUSH32 0xF3F7A9FE364FAAB93B216DA50A3214154F22A0A2B415B23A84C8169E8B636EE3 ADD SSTORE JUMP JUMPDEST PUSH2 0x29BB JUMP JUMPDEST DUP4 PUSH1 0x1 PUSH1 0x1 PUSH1 0xA0 SHL SUB AND DUP6 PUSH1 0x1 PUSH1 0x1 PUSH1 0xA0 SHL SUB AND EQ PUSH2 0x29BB JUMPI PUSH2 0x29BB DUP6 DUP3 PUSH2 0x2BDD JUMP JUMPDEST PUSH1 0x1 PUSH1 0x1 PUSH1 0xA0 SHL SUB DUP5 AND PUSH2 0x29D7 JUMPI PUSH2 0x29D2 DUP2 PUSH2 0x2C7A JUMP JUMPDEST PUSH2 0x1831 JUMP JUMPDEST DUP5 PUSH1 0x1 PUSH1 0x1 PUSH1 0xA0 SHL SUB AND DUP5 PUSH1 0x1 PUSH1 0x1 PUSH1 0xA0 SHL SUB AND EQ PUSH2 0x1831 JUMPI PUSH2 0x1831 DUP5 DUP3 PUSH2 0x2D29 JUMP JUMPDEST PUSH1 0x40 DUP1 MLOAD PUSH1 0x2A DUP1 DUP3 MSTORE PUSH1 0x60 DUP3 DUP2 ADD SWAP1 SWAP4 MSTORE PUSH1 0x0 SWAP2 SWAP1 PUSH1 0x20 DUP3 ADD DUP2 DUP1 CALLDATASIZE DUP4 CALLDATACOPY ADD SWAP1 POP POP SWAP1 POP PUSH1 0x3 PUSH1 0xFC SHL DUP2 PUSH1 0x0 DUP2 MLOAD DUP2 LT PUSH2 0x2A36 JUMPI PUSH2 0x2A36 PUSH2 0x3729 JUMP JUMPDEST PUSH1 0x20 ADD ADD SWAP1 PUSH1 0x1 PUSH1 0x1 PUSH1 0xF8 SHL SUB NOT AND SWAP1 DUP2 PUSH1 0x0 BYTE SWAP1 MSTORE8 POP PUSH1 0xF PUSH1 0xFB SHL DUP2 PUSH1 0x1 DUP2 MLOAD DUP2 LT PUSH2 0x2A65 JUMPI PUSH2 0x2A65 PUSH2 0x3729 JUMP JUMPDEST PUSH1 0x20 ADD ADD SWAP1 PUSH1 0x1 PUSH1 0x1 PUSH1 0xF8 SHL SUB NOT AND SWAP1 DUP2 PUSH1 0x0 BYTE SWAP1 MSTORE8 POP PUSH1 0x0 JUMPDEST PUSH1 0x14 DUP2 LT ISZERO PUSH2 0x2BA3 JUMPI PUSH1 0x0 PUSH2 0x2A95 DUP3 PUSH1 0x13 PUSH2 0x3D4B JUMP JUMPDEST PUSH2 0x2AA0 SWAP1 PUSH1 0x8 PUSH2 0x3C47 JUMP JUMPDEST PUSH2 0x2AAB SWAP1 PUSH1 0x2 PUSH2 0x3E42 JUMP JUMPDEST PUSH2 0x2ABE SWAP1 PUSH1 0x1 PUSH1 0x1 PUSH1 0xA0 SHL SUB DUP8 AND PUSH2 0x3927 JUMP JUMPDEST PUSH1 0xF8 SHL SWAP1 POP PUSH1 0x0 PUSH1 0x10 DUP3 PUSH1 0xF8 SHR PUSH2 0x2AD5 SWAP2 SWAP1 PUSH2 0x3E4E JUMP JUMPDEST PUSH1 0xF8 SHL SWAP1 POP PUSH1 0x0 DUP2 PUSH1 0xF8 SHR PUSH1 0x10 PUSH2 0x2AEC SWAP2 SWAP1 PUSH2 0x3E70 JUMP JUMPDEST DUP4 PUSH1 0xF8 SHR PUSH2 0x2AFA SWAP2 SWAP1 PUSH2 0x3E8C JUMP JUMPDEST PUSH1 0xF8 SHL SWAP1 POP PUSH2 0x2B08 DUP3 PUSH2 0x2D6D JUMP JUMPDEST DUP6 PUSH2 0x2B14 DUP7 PUSH1 0x2 PUSH2 0x3C47 JUMP JUMPDEST PUSH2 0x2B1F SWAP1 PUSH1 0x2 PUSH2 0x3755 JUMP JUMPDEST DUP2 MLOAD DUP2 LT PUSH2 0x2B2F JUMPI PUSH2 0x2B2F PUSH2 0x3729 JUMP JUMPDEST PUSH1 0x20 ADD ADD SWAP1 PUSH1 0x1 PUSH1 0x1 PUSH1 0xF8 SHL SUB NOT AND SWAP1 DUP2 PUSH1 0x0 BYTE SWAP1 MSTORE8 POP PUSH2 0x2B4F DUP2 PUSH2 0x2D6D JUMP JUMPDEST DUP6 PUSH2 0x2B5B DUP7 PUSH1 0x2 PUSH2 0x3C47 JUMP JUMPDEST PUSH2 0x2B66 SWAP1 PUSH1 0x3 PUSH2 0x3755 JUMP JUMPDEST DUP2 MLOAD DUP2 LT PUSH2 0x2B76 JUMPI PUSH2 0x2B76 PUSH2 0x3729 JUMP JUMPDEST PUSH1 0x20 ADD ADD SWAP1 PUSH1 0x1 PUSH1 0x1 PUSH1 0xF8 SHL SUB NOT AND SWAP1 DUP2 PUSH1 0x0 BYTE SWAP1 MSTORE8 POP POP POP POP DUP1 DUP1 PUSH2 0x2B9B SWAP1 PUSH2 0x3768 JUMP JUMPDEST SWAP2 POP POP PUSH2 0x2A7F JUMP JUMPDEST POP SWAP3 SWAP2 POP POP JUMP JUMPDEST PUSH2 0x2BB4 DUP4 DUP4 PUSH2 0x2DA8 JUMP JUMPDEST PUSH2 0x2BC1 PUSH1 0x0 DUP5 DUP5 DUP5 PUSH2 0x2502 JUMP JUMPDEST PUSH2 0x824 JUMPI PUSH1 0x40 MLOAD PUSH3 0x461BCD PUSH1 0xE5 SHL DUP2 MSTORE PUSH1 0x4 ADD PUSH2 0x783 SWAP1 PUSH2 0x3BF5 JUMP JUMPDEST PUSH1 0x0 PUSH1 0x1 PUSH2 0x2BEA DUP5 PUSH2 0x12E0 JUMP JUMPDEST PUSH2 0x2BF4 SWAP2 SWAP1 PUSH2 0x3D4B JUMP JUMPDEST PUSH1 0x0 DUP4 DUP2 MSTORE PUSH1 0x7 PUSH1 0x20 MSTORE PUSH1 0x40 SWAP1 KECCAK256 SLOAD SWAP1 SWAP2 POP DUP1 DUP3 EQ PUSH2 0x2C47 JUMPI PUSH1 0x1 PUSH1 0x1 PUSH1 0xA0 SHL SUB DUP5 AND PUSH1 0x0 SWAP1 DUP2 MSTORE PUSH1 0x6 PUSH1 0x20 SWAP1 DUP2 MSTORE PUSH1 0x40 DUP1 DUP4 KECCAK256 DUP6 DUP5 MSTORE DUP3 MSTORE DUP1 DUP4 KECCAK256 SLOAD DUP5 DUP5 MSTORE DUP2 DUP5 KECCAK256 DUP2 SWAP1 SSTORE DUP4 MSTORE PUSH1 0x7 SWAP1 SWAP2 MSTORE SWAP1 KECCAK256 DUP2 SWAP1 SSTORE JUMPDEST POP PUSH1 0x0 SWAP2 DUP3 MSTORE PUSH1 0x7 PUSH1 0x20 SWAP1 DUP2 MSTORE PUSH1 0x40 DUP1 DUP5 KECCAK256 DUP5 SWAP1 SSTORE PUSH1 0x1 PUSH1 0x1 PUSH1 0xA0 SHL SUB SWAP1 SWAP5 AND DUP4 MSTORE PUSH1 0x6 DUP2 MSTORE DUP4 DUP4 KECCAK256 SWAP2 DUP4 MSTORE MSTORE SWAP1 DUP2 KECCAK256 SSTORE JUMP JUMPDEST PUSH1 0x8 SLOAD PUSH1 0x0 SWAP1 PUSH2 0x2C8C SWAP1 PUSH1 0x1 SWAP1 PUSH2 0x3D4B JUMP JUMPDEST PUSH1 0x0 DUP4 DUP2 MSTORE PUSH1 0x9 PUSH1 0x20 MSTORE PUSH1 0x40 DUP2 KECCAK256 SLOAD PUSH1 0x8 DUP1 SLOAD SWAP4 SWAP5 POP SWAP1 SWAP3 DUP5 SWAP1 DUP2 LT PUSH2 0x2CB4 JUMPI PUSH2 0x2CB4 PUSH2 0x3729 JUMP JUMPDEST SWAP1 PUSH1 0x0 MSTORE PUSH1 0x20 PUSH1 0x0 KECCAK256 ADD SLOAD SWAP1 POP DUP1 PUSH1 0x8 DUP4 DUP2 SLOAD DUP2 LT PUSH2 0x2CD5 JUMPI PUSH2 0x2CD5 PUSH2 0x3729 JUMP JUMPDEST PUSH1 0x0 SWAP2 DUP3 MSTORE PUSH1 0x20 DUP1 DUP4 KECCAK256 SWAP1 SWAP2 ADD SWAP3 SWAP1 SWAP3 SSTORE DUP3 DUP2 MSTORE PUSH1 0x9 SWAP1 SWAP2 MSTORE PUSH1 0x40 DUP1 DUP3 KECCAK256 DUP5 SWAP1 SSTORE DUP6 DUP3 MSTORE DUP2 KECCAK256 SSTORE PUSH1 0x8 DUP1 SLOAD DUP1 PUSH2 0x2D0D JUMPI PUSH2 0x2D0D PUSH2 0x3EA5 JUMP JUMPDEST PUSH1 0x1 SWAP1 SUB DUP2 DUP2 SWAP1 PUSH1 0x0 MSTORE PUSH1 0x20 PUSH1 0x0 KECCAK256 ADD PUSH1 0x0 SWAP1 SSTORE SWAP1 SSTORE POP POP POP POP JUMP JUMPDEST PUSH1 0x0 PUSH2 0x2D34 DUP4 PUSH2 0x12E0 JUMP JUMPDEST PUSH1 0x1 PUSH1 0x1 PUSH1 0xA0 SHL SUB SWAP1 SWAP4 AND PUSH1 0x0 SWAP1 DUP2 MSTORE PUSH1 0x6 PUSH1 0x20 SWAP1 DUP2 MSTORE PUSH1 0x40 DUP1 DUP4 KECCAK256 DUP7 DUP5 MSTORE DUP3 MSTORE DUP1 DUP4 KECCAK256 DUP6 SWAP1 SSTORE SWAP4 DUP3 MSTORE PUSH1 0x7 SWAP1 MSTORE SWAP2 SWAP1 SWAP2 KECCAK256 SWAP2 SWAP1 SWAP2 SSTORE POP JUMP JUMPDEST PUSH1 0x0 PUSH1 0xA PUSH1 0xF8 DUP4 SWAP1 SHR LT ISZERO PUSH2 0x2D94 JUMPI PUSH2 0x2D8B PUSH1 0xF8 DUP4 SWAP1 SHR PUSH1 0x30 PUSH2 0x3EBB JUMP JUMPDEST PUSH1 0xF8 SHL SWAP3 SWAP2 POP POP JUMP JUMPDEST PUSH2 0x2D8B PUSH1 0xF8 DUP4 SWAP1 SHR PUSH1 0x57 PUSH2 0x3EBB JUMP JUMPDEST SWAP2 SWAP1 POP JUMP JUMPDEST PUSH1 0x1 PUSH1 0x1 PUSH1 0xA0 SHL SUB DUP3 AND PUSH2 0x2DFE JUMPI PUSH1 0x40 MLOAD PUSH3 0x461BCD PUSH1 0xE5 SHL DUP2 MSTORE PUSH1 0x20 PUSH1 0x4 DUP3 ADD DUP2 SWAP1 MSTORE PUSH1 0x24 DUP3 ADD MSTORE PUSH32 0x4552433732313A206D696E7420746F20746865207A65726F2061646472657373 PUSH1 0x44 DUP3 ADD MSTORE PUSH1 0x64 ADD PUSH2 0x783 JUMP JUMPDEST PUSH2 0x2E07 DUP2 PUSH2 0x19A3 JUMP JUMPDEST ISZERO PUSH2 0x2E54 JUMPI PUSH1 0x40 MLOAD PUSH3 0x461BCD PUSH1 0xE5 SHL DUP2 MSTORE PUSH1 0x20 PUSH1 0x4 DUP3 ADD MSTORE PUSH1 0x1C PUSH1 0x24 DUP3 ADD MSTORE PUSH32 0x4552433732313A20746F6B656E20616C7265616479206D696E74656400000000 PUSH1 0x44 DUP3 ADD MSTORE PUSH1 0x64 ADD PUSH2 0x783 JUMP JUMPDEST PUSH2 0x2E62 PUSH1 0x0 DUP4 DUP4 PUSH1 0x1 PUSH2 0x22CE JUMP JUMPDEST PUSH2 0x2E6B DUP2 PUSH2 0x19A3 JUMP JUMPDEST ISZERO PUSH2 0x2EB8 JUMPI PUSH1 0x40 MLOAD PUSH3 0x461BCD PUSH1 0xE5 SHL DUP2 MSTORE PUSH1 0x20 PUSH1 0x4 DUP3 ADD MSTORE PUSH1 0x1C PUSH1 0x24 DUP3 ADD MSTORE PUSH32 0x4552433732313A20746F6B656E20616C7265616479206D696E74656400000000 PUSH1 0x44 DUP3 ADD MSTORE PUSH1 0x64 ADD PUSH2 0x783 JUMP JUMPDEST PUSH1 0x1 PUSH1 0x1 PUSH1 0xA0 SHL SUB DUP3 AND PUSH1 0x0 DUP2 DUP2 MSTORE PUSH1 0x3 PUSH1 0x20 SWAP1 DUP2 MSTORE PUSH1 0x40 DUP1 DUP4 KECCAK256 DUP1 SLOAD PUSH1 0x1 ADD SWAP1 SSTORE DUP5 DUP4 MSTORE PUSH1 0x2 SWAP1 SWAP2 MSTORE DUP1 DUP3 KECCAK256 DUP1 SLOAD PUSH1 0x1 PUSH1 0x1 PUSH1 0xA0 SHL SUB NOT AND DUP5 OR SWAP1 SSTORE MLOAD DUP4 SWAP3 SWAP2 SWAP1 PUSH32 0xDDF252AD1BE2C89B69C2B068FC378DAA952BA7F163C4A11628F55A4DF523B3EF SWAP1 DUP3 SWAP1 LOG4 POP POP JUMP JUMPDEST PUSH1 0x1 PUSH1 0x1 PUSH1 0xE0 SHL SUB NOT DUP2 AND DUP2 EQ PUSH2 0xEBA JUMPI PUSH1 0x0 DUP1 REVERT JUMPDEST PUSH1 0x0 PUSH1 0x20 DUP3 DUP5 SUB SLT ISZERO PUSH2 0x2F4B JUMPI PUSH1 0x0 DUP1 REVERT JUMPDEST DUP2 CALLDATALOAD PUSH2 0x2876 DUP2 PUSH2 0x2F23 JUMP JUMPDEST PUSH1 0x0 JUMPDEST DUP4 DUP2 LT ISZERO PUSH2 0x2F71 JUMPI DUP2 DUP2 ADD MLOAD DUP4 DUP3 ADD MSTORE PUSH1 0x20 ADD PUSH2 0x2F59 JUMP JUMPDEST POP POP PUSH1 0x0 SWAP2 ADD MSTORE JUMP JUMPDEST PUSH1 0x0 DUP2 MLOAD DUP1 DUP5 MSTORE PUSH2 0x2F92 DUP2 PUSH1 0x20 DUP7 ADD PUSH1 0x20 DUP7 ADD PUSH2 0x2F56 JUMP JUMPDEST PUSH1 0x1F ADD PUSH1 0x1F NOT AND SWAP3 SWAP1 SWAP3 ADD PUSH1 0x20 ADD SWAP3 SWAP2 POP POP JUMP JUMPDEST PUSH1 0x20 DUP2 MSTORE PUSH1 0x0 PUSH2 0x2876 PUSH1 0x20 DUP4 ADD DUP5 PUSH2 0x2F7A JUMP JUMPDEST PUSH1 0x0 PUSH1 0x20 DUP3 DUP5 SUB SLT ISZERO PUSH2 0x2FCB JUMPI PUSH1 0x0 DUP1 REVERT JUMPDEST POP CALLDATALOAD SWAP2 SWAP1 POP JUMP JUMPDEST PUSH1 0x1 PUSH1 0x1 PUSH1 0xA0 SHL SUB DUP2 AND DUP2 EQ PUSH2 0xEBA JUMPI PUSH1 0x0 DUP1 REVERT JUMPDEST PUSH1 0x0 DUP1 PUSH1 0x40 DUP4 DUP6 SUB SLT ISZERO PUSH2 0x2FFA JUMPI PUSH1 0x0 DUP1 REVERT JUMPDEST DUP3 CALLDATALOAD PUSH2 0x3005 DUP2 PUSH2 0x2FD2 JUMP JUMPDEST SWAP5 PUSH1 0x20 SWAP4 SWAP1 SWAP4 ADD CALLDATALOAD SWAP4 POP POP POP JUMP JUMPDEST DUP1 MLOAD DUP3 MSTORE PUSH1 0x20 DUP1 DUP3 ADD MLOAD PUSH1 0x1 PUSH1 0x1 PUSH1 0xA0 SHL SUB SWAP1 DUP2 AND SWAP2 DUP5 ADD SWAP2 SWAP1 SWAP2 MSTORE PUSH1 0x40 DUP1 DUP4 ADD MLOAD DUP3 AND SWAP1 DUP5 ADD MSTORE PUSH1 0x60 DUP1 DUP4 ADD MLOAD SWAP1 SWAP2 AND SWAP1 DUP4 ADD MSTORE PUSH1 0x80 SWAP1 DUP2 ADD MLOAD SWAP2 ADD MSTORE JUMP JUMPDEST PUSH1 0xA0 DUP2 ADD PUSH2 0x650 DUP3 DUP5 PUSH2 0x3013 JUMP JUMPDEST PUSH1 0x0 DUP1 PUSH1 0x40 DUP4 DUP6 SUB SLT ISZERO PUSH2 0x3074 JUMPI PUSH1 0x0 DUP1 REVERT JUMPDEST DUP3 CALLDATALOAD SWAP2 POP PUSH1 0x20 DUP4 ADD CALLDATALOAD PUSH2 0x3086 DUP2 PUSH2 0x2FD2 JUMP JUMPDEST DUP1 SWAP2 POP POP SWAP3 POP SWAP3 SWAP1 POP JUMP JUMPDEST PUSH1 0x0 PUSH1 0x20 DUP3 DUP5 SUB SLT ISZERO PUSH2 0x30A3 JUMPI PUSH1 0x0 DUP1 REVERT JUMPDEST DUP2 CALLDATALOAD PUSH2 0x2876 DUP2 PUSH2 0x2FD2 JUMP JUMPDEST PUSH1 0x0 DUP2 MLOAD DUP1 DUP5 MSTORE PUSH1 0x20 DUP1 DUP6 ADD SWAP5 POP DUP1 DUP5 ADD PUSH1 0x0 JUMPDEST DUP4 DUP2 LT ISZERO PUSH2 0x30E8 JUMPI PUSH2 0x30D5 DUP8 DUP4 MLOAD PUSH2 0x3013 JUMP JUMPDEST PUSH1 0xA0 SWAP7 SWAP1 SWAP7 ADD SWAP6 SWAP1 DUP3 ADD SWAP1 PUSH1 0x1 ADD PUSH2 0x30C2 JUMP JUMPDEST POP SWAP5 SWAP6 SWAP5 POP POP POP POP POP JUMP JUMPDEST PUSH1 0x20 DUP1 DUP3 MSTORE DUP3 MLOAD PUSH1 0x60 DUP4 DUP4 ADD MSTORE DUP1 MLOAD PUSH1 0x80 DUP5 ADD DUP2 SWAP1 MSTORE PUSH1 0x0 SWAP3 SWAP2 DUP3 ADD SWAP1 DUP4 SWAP1 PUSH1 0xA0 DUP7 ADD SWAP1 JUMPDEST DUP1 DUP4 LT ISZERO PUSH2 0x3138 JUMPI DUP4 MLOAD DUP3 MSTORE SWAP3 DUP5 ADD SWAP3 PUSH1 0x1 SWAP3 SWAP1 SWAP3 ADD SWAP2 SWAP1 DUP5 ADD SWAP1 PUSH2 0x3118 JUMP JUMPDEST POP SWAP3 DUP7 ADD MLOAD DUP6 DUP5 SUB PUSH1 0x1F NOT ADD PUSH1 0x40 DUP8 ADD MSTORE SWAP3 PUSH2 0x3154 DUP2 DUP6 PUSH2 0x30AE JUMP JUMPDEST SWAP4 POP POP POP POP PUSH1 0x40 DUP5 ADD MLOAD PUSH1 0x60 DUP5 ADD MSTORE DUP1 SWAP2 POP POP SWAP3 SWAP2 POP POP JUMP JUMPDEST PUSH1 0x0 DUP1 PUSH1 0x0 PUSH1 0x60 DUP5 DUP7 SUB SLT ISZERO PUSH2 0x3182 JUMPI PUSH1 0x0 DUP1 REVERT JUMPDEST DUP4 CALLDATALOAD PUSH2 0x318D DUP2 PUSH2 0x2FD2 JUMP JUMPDEST SWAP3 POP PUSH1 0x20 DUP5 ADD CALLDATALOAD PUSH2 0x319D DUP2 PUSH2 0x2FD2 JUMP JUMPDEST SWAP3 SWAP6 SWAP3 SWAP5 POP POP POP PUSH1 0x40 SWAP2 SWAP1 SWAP2 ADD CALLDATALOAD SWAP1 JUMP JUMPDEST PUSH1 0x0 DUP1 DUP4 PUSH1 0x1F DUP5 ADD SLT PUSH2 0x31C0 JUMPI PUSH1 0x0 DUP1 REVERT JUMPDEST POP DUP2 CALLDATALOAD PUSH1 0x1 PUSH1 0x1 PUSH1 0x40 SHL SUB DUP2 GT ISZERO PUSH2 0x31D7 JUMPI PUSH1 0x0 DUP1 REVERT JUMPDEST PUSH1 0x20 DUP4 ADD SWAP2 POP DUP4 PUSH1 0x20 DUP3 PUSH1 0x5 SHL DUP6 ADD ADD GT ISZERO PUSH2 0x31F2 JUMPI PUSH1 0x0 DUP1 REVERT JUMPDEST SWAP3 POP SWAP3 SWAP1 POP JUMP JUMPDEST PUSH1 0x0 DUP1 PUSH1 0x0 DUP1 PUSH1 0x0 DUP1 PUSH1 0x60 DUP8 DUP10 SUB SLT ISZERO PUSH2 0x3212 JUMPI PUSH1 0x0 DUP1 REVERT JUMPDEST DUP7 CALLDATALOAD PUSH1 0x1 PUSH1 0x1 PUSH1 0x40 SHL SUB DUP1 DUP3 GT ISZERO PUSH2 0x3229 JUMPI PUSH1 0x0 DUP1 REVERT JUMPDEST PUSH2 0x3235 DUP11 DUP4 DUP12 ADD PUSH2 0x31AE JUMP JUMPDEST SWAP1 SWAP9 POP SWAP7 POP PUSH1 0x20 DUP10 ADD CALLDATALOAD SWAP2 POP DUP1 DUP3 GT ISZERO PUSH2 0x324E JUMPI PUSH1 0x0 DUP1 REVERT JUMPDEST PUSH2 0x325A DUP11 DUP4 DUP12 ADD PUSH2 0x31AE JUMP JUMPDEST SWAP1 SWAP7 POP SWAP5 POP PUSH1 0x40 DUP10 ADD CALLDATALOAD SWAP2 POP DUP1 DUP3 GT ISZERO PUSH2 0x3273 JUMPI PUSH1 0x0 DUP1 REVERT JUMPDEST POP PUSH2 0x3280 DUP10 DUP3 DUP11 ADD PUSH2 0x31AE JUMP JUMPDEST SWAP8 SWAP11 SWAP7 SWAP10 POP SWAP5 SWAP8 POP SWAP3 SWAP6 SWAP4 SWAP5 SWAP3 POP POP POP JUMP JUMPDEST PUSH1 0x20 DUP1 DUP3 MSTORE DUP3 MLOAD DUP3 DUP3 ADD DUP2 SWAP1 MSTORE PUSH1 0x0 SWAP2 SWAP1 DUP5 DUP3 ADD SWAP1 PUSH1 0x40 DUP6 ADD SWAP1 DUP5 JUMPDEST DUP2 DUP2 LT ISZERO PUSH2 0x32CA JUMPI DUP4 MLOAD DUP4 MSTORE SWAP3 DUP5 ADD SWAP3 SWAP2 DUP5 ADD SWAP2 PUSH1 0x1 ADD PUSH2 0x32AE JUMP JUMPDEST POP SWAP1 SWAP7 SWAP6 POP POP POP POP POP POP JUMP JUMPDEST DUP1 CALLDATALOAD DUP1 ISZERO ISZERO DUP2 EQ PUSH2 0x2DA3 JUMPI PUSH1 0x0 DUP1 REVERT JUMPDEST PUSH1 0x0 DUP1 PUSH1 0x40 DUP4 DUP6 SUB SLT ISZERO PUSH2 0x32F9 JUMPI PUSH1 0x0 DUP1 REVERT JUMPDEST DUP3 CALLDATALOAD SWAP2 POP PUSH2 0x3309 PUSH1 0x20 DUP5 ADD PUSH2 0x32D6 JUMP JUMPDEST SWAP1 POP SWAP3 POP SWAP3 SWAP1 POP JUMP JUMPDEST PUSH1 0x0 DUP1 PUSH1 0x0 PUSH1 0x60 DUP5 DUP7 SUB SLT ISZERO PUSH2 0x3327 JUMPI PUSH1 0x0 DUP1 REVERT JUMPDEST DUP4 CALLDATALOAD PUSH2 0x3332 DUP2 PUSH2 0x2FD2 JUMP JUMPDEST SWAP3 POP PUSH1 0x20 DUP5 ADD CALLDATALOAD SWAP2 POP PUSH1 0x40 DUP5 ADD CALLDATALOAD PUSH2 0x3349 DUP2 PUSH2 0x2FD2 JUMP JUMPDEST DUP1 SWAP2 POP POP SWAP3 POP SWAP3 POP SWAP3 JUMP JUMPDEST PUSH1 0x0 DUP1 PUSH1 0x0 DUP1 PUSH1 0x0 PUSH1 0x80 DUP7 DUP9 SUB SLT ISZERO PUSH2 0x336C JUMPI PUSH1 0x0 DUP1 REVERT JUMPDEST DUP6 CALLDATALOAD SWAP5 POP PUSH1 0x20 DUP7 ADD CALLDATALOAD PUSH2 0x337E DUP2 PUSH2 0x2FD2 JUMP JUMPDEST SWAP4 POP PUSH1 0x40 DUP7 ADD CALLDATALOAD SWAP3 POP PUSH1 0x60 DUP7 ADD CALLDATALOAD PUSH1 0x1 PUSH1 0x1 PUSH1 0x40 SHL SUB DUP1 DUP3 GT ISZERO PUSH2 0x33A1 JUMPI PUSH1 0x0 DUP1 REVERT JUMPDEST DUP2 DUP9 ADD SWAP2 POP DUP9 PUSH1 0x1F DUP4 ADD SLT PUSH2 0x33B5 JUMPI PUSH1 0x0 DUP1 REVERT JUMPDEST DUP2 CALLDATALOAD DUP2 DUP2 GT ISZERO PUSH2 0x33C4 JUMPI PUSH1 0x0 DUP1 REVERT JUMPDEST DUP10 PUSH1 0x20 DUP3 DUP6 ADD ADD GT ISZERO PUSH2 0x33D6 JUMPI PUSH1 0x0 DUP1 REVERT JUMPDEST SWAP7 SWAP10 SWAP6 SWAP9 POP SWAP4 SWAP7 POP PUSH1 0x20 ADD SWAP5 SWAP4 SWAP3 POP POP POP JUMP JUMPDEST PUSH1 0x0 DUP1 PUSH1 0x40 DUP4 DUP6 SUB SLT ISZERO PUSH2 0x33FC JUMPI PUSH1 0x0 DUP1 REVERT JUMPDEST DUP3 CALLDATALOAD PUSH2 0x3407 DUP2 PUSH2 0x2FD2 JUMP JUMPDEST SWAP2 POP PUSH2 0x3309 PUSH1 0x20 DUP5 ADD PUSH2 0x32D6 JUMP JUMPDEST PUSH4 0x4E487B71 PUSH1 0xE0 SHL PUSH1 0x0 MSTORE PUSH1 0x41 PUSH1 0x4 MSTORE PUSH1 0x24 PUSH1 0x0 REVERT JUMPDEST PUSH1 0x40 MLOAD PUSH1 0x1F DUP3 ADD PUSH1 0x1F NOT AND DUP2 ADD PUSH1 0x1 PUSH1 0x1 PUSH1 0x40 SHL SUB DUP2 GT DUP3 DUP3 LT OR ISZERO PUSH2 0x3453 JUMPI PUSH2 0x3453 PUSH2 0x3415 JUMP JUMPDEST PUSH1 0x40 MSTORE SWAP2 SWAP1 POP JUMP JUMPDEST PUSH1 0x0 PUSH1 0x1 PUSH1 0x1 PUSH1 0x40 SHL SUB DUP3 GT ISZERO PUSH2 0x3474 JUMPI PUSH2 0x3474 PUSH2 0x3415 JUMP JUMPDEST POP PUSH1 0x1F ADD PUSH1 0x1F NOT AND PUSH1 0x20 ADD SWAP1 JUMP JUMPDEST PUSH1 0x0 PUSH2 0x3495 PUSH2 0x3490 DUP5 PUSH2 0x345B JUMP JUMPDEST PUSH2 0x342B JUMP JUMPDEST SWAP1 POP DUP3 DUP2 MSTORE DUP4 DUP4 DUP4 ADD GT ISZERO PUSH2 0x34A9 JUMPI PUSH1 0x0 DUP1 REVERT JUMPDEST DUP3 DUP3 PUSH1 0x20 DUP4 ADD CALLDATACOPY PUSH1 0x0 PUSH1 0x20 DUP5 DUP4 ADD ADD MSTORE SWAP4 SWAP3 POP POP POP JUMP JUMPDEST PUSH1 0x0 DUP1 PUSH1 0x0 DUP1 PUSH1 0x80 DUP6 DUP8 SUB SLT ISZERO PUSH2 0x34D6 JUMPI PUSH1 0x0 DUP1 REVERT JUMPDEST DUP5 CALLDATALOAD PUSH2 0x34E1 DUP2 PUSH2 0x2FD2 JUMP JUMPDEST SWAP4 POP PUSH1 0x20 DUP6 ADD CALLDATALOAD PUSH2 0x34F1 DUP2 PUSH2 0x2FD2 JUMP JUMPDEST SWAP3 POP PUSH1 0x40 DUP6 ADD CALLDATALOAD SWAP2 POP PUSH1 0x60 DUP6 ADD CALLDATALOAD PUSH1 0x1 PUSH1 0x1 PUSH1 0x40 SHL SUB DUP2 GT ISZERO PUSH2 0x3513 JUMPI PUSH1 0x0 DUP1 REVERT JUMPDEST DUP6 ADD PUSH1 0x1F DUP2 ADD DUP8 SGT PUSH2 0x3524 JUMPI PUSH1 0x0 DUP1 REVERT JUMPDEST PUSH2 0x3533 DUP8 DUP3 CALLDATALOAD PUSH1 0x20 DUP5 ADD PUSH2 0x3482 JUMP JUMPDEST SWAP2 POP POP SWAP3 SWAP6 SWAP2 SWAP5 POP SWAP3 POP JUMP JUMPDEST PUSH1 0x0 DUP3 PUSH1 0x1F DUP4 ADD SLT PUSH2 0x3550 JUMPI PUSH1 0x0 DUP1 REVERT JUMPDEST PUSH2 0x2876 DUP4 DUP4 CALLDATALOAD PUSH1 0x20 DUP6 ADD PUSH2 0x3482 JUMP JUMPDEST PUSH1 0x0 DUP1 PUSH1 0x0 PUSH1 0x60 DUP5 DUP7 SUB SLT ISZERO PUSH2 0x3574 JUMPI PUSH1 0x0 DUP1 REVERT JUMPDEST DUP4 CALLDATALOAD SWAP3 POP PUSH1 0x20 DUP5 ADD CALLDATALOAD PUSH1 0x1 PUSH1 0x1 PUSH1 0x40 SHL SUB DUP1 DUP3 GT ISZERO PUSH2 0x3592 JUMPI PUSH1 0x0 DUP1 REVERT JUMPDEST PUSH2 0x359E DUP8 DUP4 DUP9 ADD PUSH2 0x353F JUMP JUMPDEST SWAP4 POP PUSH1 0x40 DUP7 ADD CALLDATALOAD SWAP2 POP DUP1 DUP3 GT ISZERO PUSH2 0x35B4 JUMPI PUSH1 0x0 DUP1 REVERT JUMPDEST POP PUSH2 0x35C1 DUP7 DUP3 DUP8 ADD PUSH2 0x353F JUMP JUMPDEST SWAP2 POP POP SWAP3 POP SWAP3 POP SWAP3 JUMP JUMPDEST PUSH1 0x0 DUP1 PUSH1 0x20 DUP4 DUP6 SUB SLT ISZERO PUSH2 0x35DE JUMPI PUSH1 0x0 DUP1 REVERT JUMPDEST DUP3 CALLDATALOAD PUSH1 0x1 PUSH1 0x1 PUSH1 0x40 SHL SUB DUP2 GT ISZERO PUSH2 0x35F4 JUMPI PUSH1 0x0 DUP1 REVERT JUMPDEST PUSH2 0x3600 DUP6 DUP3 DUP7 ADD PUSH2 0x31AE JUMP JUMPDEST SWAP1 SWAP7 SWAP1 SWAP6 POP SWAP4 POP POP POP POP JUMP JUMPDEST PUSH1 0x20 DUP2 MSTORE PUSH1 0x0 PUSH2 0x2876 PUSH1 0x20 DUP4 ADD DUP5 PUSH2 0x30AE JUMP JUMPDEST PUSH1 0x0 DUP1 PUSH1 0x0 DUP1 PUSH1 0x80 DUP6 DUP8 SUB SLT ISZERO PUSH2 0x3635 JUMPI PUSH1 0x0 DUP1 REVERT JUMPDEST DUP5 CALLDATALOAD SWAP4 POP PUSH1 0x20 DUP6 ADD CALLDATALOAD PUSH1 0x1 PUSH1 0x1 PUSH1 0x40 SHL SUB DUP1 DUP3 GT ISZERO PUSH2 0x3653 JUMPI PUSH1 0x0 DUP1 REVERT JUMPDEST PUSH2 0x365F DUP9 DUP4 DUP10 ADD PUSH2 0x353F JUMP JUMPDEST SWAP5 POP PUSH1 0x40 DUP8 ADD CALLDATALOAD SWAP2 POP DUP1 DUP3 GT ISZERO PUSH2 0x3675 JUMPI PUSH1 0x0 DUP1 REVERT JUMPDEST POP PUSH2 0x3682 DUP8 DUP3 DUP9 ADD PUSH2 0x353F JUMP JUMPDEST SWAP5 SWAP8 SWAP4 SWAP7 POP SWAP4 SWAP5 PUSH1 0x60 ADD CALLDATALOAD SWAP4 POP POP POP JUMP JUMPDEST PUSH1 0x0 DUP1 PUSH1 0x40 DUP4 DUP6 SUB SLT ISZERO PUSH2 0x36A6 JUMPI PUSH1 0x0 DUP1 REVERT JUMPDEST DUP3 CALLDATALOAD PUSH2 0x36B1 DUP2 PUSH2 0x2FD2 JUMP JUMPDEST SWAP2 POP PUSH1 0x20 DUP4 ADD CALLDATALOAD PUSH2 0x3086 DUP2 PUSH2 0x2FD2 JUMP JUMPDEST PUSH1 0x1 DUP2 DUP2 SHR SWAP1 DUP3 AND DUP1 PUSH2 0x36D5 JUMPI PUSH1 0x7F DUP3 AND SWAP2 POP JUMPDEST PUSH1 0x20 DUP3 LT DUP2 SUB PUSH2 0x36F5 JUMPI PUSH4 0x4E487B71 PUSH1 0xE0 SHL PUSH1 0x0 MSTORE PUSH1 0x22 PUSH1 0x4 MSTORE PUSH1 0x24 PUSH1 0x0 REVERT JUMPDEST POP SWAP2 SWAP1 POP JUMP JUMPDEST PUSH1 0x20 DUP1 DUP3 MSTORE PUSH1 0x14 SWAP1 DUP3 ADD MSTORE PUSH20 0x151BDAD95B88191BD95CC81B9BDD08195E1A5CDD PUSH1 0x62 SHL PUSH1 0x40 DUP3 ADD MSTORE PUSH1 0x60 ADD SWAP1 JUMP JUMPDEST PUSH4 0x4E487B71 PUSH1 0xE0 SHL PUSH1 0x0 MSTORE PUSH1 0x32 PUSH1 0x4 MSTORE PUSH1 0x24 PUSH1 0x0 REVERT JUMPDEST PUSH4 0x4E487B71 PUSH1 0xE0 SHL PUSH1 0x0 MSTORE PUSH1 0x11 PUSH1 0x4 MSTORE PUSH1 0x24 PUSH1 0x0 REVERT JUMPDEST DUP1 DUP3 ADD DUP1 DUP3 GT ISZERO PUSH2 0x650 JUMPI PUSH2 0x650 PUSH2 0x373F JUMP JUMPDEST PUSH1 0x0 PUSH1 0x1 DUP3 ADD PUSH2 0x377A JUMPI PUSH2 0x377A PUSH2 0x373F JUMP JUMPDEST POP PUSH1 0x1 ADD SWAP1 JUMP JUMPDEST PUSH1 0x20 DUP1 DUP3 MSTORE PUSH1 0x2D SWAP1 DUP3 ADD MSTORE PUSH32 0x4552433732313A2063616C6C6572206973206E6F7420746F6B656E206F776E65 PUSH1 0x40 DUP3 ADD MSTORE PUSH13 0x1C881BDC88185C1C1C9BDD9959 PUSH1 0x9A SHL PUSH1 0x60 DUP3 ADD MSTORE PUSH1 0x80 ADD SWAP1 JUMP JUMPDEST PUSH1 0x1 PUSH1 0x1 PUSH1 0xA0 SHL SUB DUP6 AND DUP2 MSTORE PUSH1 0x20 DUP2 ADD DUP5 SWAP1 MSTORE PUSH1 0x60 PUSH1 0x40 DUP3 ADD DUP2 SWAP1 MSTORE DUP2 ADD DUP3 SWAP1 MSTORE DUP2 DUP4 PUSH1 0x80 DUP4 ADD CALLDATACOPY PUSH1 0x0 DUP2 DUP4 ADD PUSH1 0x80 SWAP1 DUP2 ADD SWAP2 SWAP1 SWAP2 MSTORE PUSH1 0x1F SWAP1 SWAP3 ADD PUSH1 0x1F NOT AND ADD ADD SWAP4 SWAP3 POP POP POP JUMP JUMPDEST PUSH1 0x0 PUSH1 0x20 DUP3 DUP5 SUB SLT ISZERO PUSH2 0x3828 JUMPI PUSH1 0x0 DUP1 REVERT JUMPDEST DUP2 MLOAD PUSH1 0x1 PUSH1 0x1 PUSH1 0x40 SHL SUB DUP2 GT ISZERO PUSH2 0x383E JUMPI PUSH1 0x0 DUP1 REVERT JUMPDEST DUP3 ADD PUSH1 0x1F DUP2 ADD DUP5 SGT PUSH2 0x384F JUMPI PUSH1 0x0 DUP1 REVERT JUMPDEST DUP1 MLOAD PUSH2 0x385D PUSH2 0x3490 DUP3 PUSH2 0x345B JUMP JUMPDEST DUP2 DUP2 MSTORE DUP6 PUSH1 0x20 DUP4 DUP6 ADD ADD GT ISZERO PUSH2 0x3872 JUMPI PUSH1 0x0 DUP1 REVERT JUMPDEST PUSH2 0xEE2 DUP3 PUSH1 0x20 DUP4 ADD PUSH1 0x20 DUP7 ADD PUSH2 0x2F56 JUMP JUMPDEST PUSH1 0x20 DUP1 DUP3 MSTORE PUSH1 0x18 SWAP1 DUP3 ADD MSTORE PUSH32 0x4552433732313A20696E76616C696420746F6B656E2049440000000000000000 PUSH1 0x40 DUP3 ADD MSTORE PUSH1 0x60 ADD SWAP1 JUMP JUMPDEST PUSH1 0x0 DUP2 MLOAD PUSH2 0x38CC DUP2 DUP6 PUSH1 0x20 DUP7 ADD PUSH2 0x2F56 JUMP JUMPDEST SWAP3 SWAP1 SWAP3 ADD SWAP3 SWAP2 POP POP JUMP JUMPDEST PUSH19 0x584D424C204C697175696420546F6B656E2023 PUSH1 0x68 SHL DUP2 MSTORE PUSH1 0x0 DUP3 MLOAD PUSH2 0x3904 DUP2 PUSH1 0x13 DUP6 ADD PUSH1 0x20 DUP8 ADD PUSH2 0x2F56 JUMP JUMPDEST SWAP2 SWAP1 SWAP2 ADD PUSH1 0x13 ADD SWAP3 SWAP2 POP POP JUMP JUMPDEST PUSH4 0x4E487B71 PUSH1 0xE0 SHL PUSH1 0x0 MSTORE PUSH1 0x12 PUSH1 0x4 MSTORE PUSH1 0x24 PUSH1 0x0 REVERT JUMPDEST PUSH1 0x0 DUP3 PUSH2 0x3936 JUMPI PUSH2 0x3936 PUSH2 0x3911 JUMP JUMPDEST POP DIV SWAP1 JUMP JUMPDEST PUSH1 0x5B PUSH1 0xF8 SHL DUP2 MSTORE PUSH32 0x7B2274726169745F74797065223A20224465706F7369742056616C7565222C20 PUSH1 0x1 DUP3 ADD MSTORE PUSH1 0x0 PUSH10 0x113B30B63AB2911D1011 PUSH1 0xB1 SHL DUP1 PUSH1 0x21 DUP5 ADD MSTORE DUP7 MLOAD PUSH2 0x3991 DUP2 PUSH1 0x2B DUP7 ADD PUSH1 0x20 DUP12 ADD PUSH2 0x2F56 JUMP JUMPDEST PUSH7 0x8115512089F4B PUSH1 0xCA SHL PUSH1 0x2B SWAP2 DUP6 ADD SWAP2 DUP3 ADD MSTORE PUSH32 0x7B2274726169745F74797065223A2022546F6B656E2041646472657373222C20 PUSH1 0x32 DUP3 ADD MSTORE PUSH1 0x52 DUP2 ADD SWAP2 SWAP1 SWAP2 MSTORE DUP6 MLOAD SWAP1 PUSH2 0x39E7 DUP3 PUSH1 0x5C DUP4 ADD PUSH1 0x20 DUP11 ADD PUSH2 0x2F56 JUMP JUMPDEST PUSH3 0x89F4B PUSH1 0xEA SHL SWAP2 ADD PUSH1 0x5C DUP2 ADD SWAP2 SWAP1 SWAP2 MSTORE PUSH32 0x7B2274726169745F74797065223A20225442412041646472657373222C202276 PUSH1 0x5F DUP3 ADD MSTORE PUSH8 0x30B63AB2911D1011 PUSH1 0xC1 SHL PUSH1 0x7F DUP3 ADD MSTORE PUSH2 0x1032 PUSH2 0x3AA5 PUSH2 0x3A98 PUSH2 0x3A92 PUSH2 0x3A5A PUSH2 0x3A4B PUSH1 0x87 DUP8 ADD DUP12 PUSH2 0x38BA JUMP JUMPDEST PUSH3 0x89F4B PUSH1 0xEA SHL DUP2 MSTORE PUSH1 0x3 ADD SWAP1 JUMP JUMPDEST PUSH32 0x7B2274726169745F74797065223A202243726561746564204174222C20227661 DUP2 MSTORE PUSH6 0x363AB2911D1 PUSH1 0xD5 SHL PUSH1 0x20 DUP3 ADD MSTORE PUSH1 0x26 ADD SWAP1 JUMP JUMPDEST DUP8 PUSH2 0x38BA JUMP JUMPDEST PUSH1 0x7D PUSH1 0xF8 SHL DUP2 MSTORE PUSH1 0x1 ADD SWAP1 JUMP JUMPDEST PUSH1 0x5D PUSH1 0xF8 SHL DUP2 MSTORE PUSH1 0x1 ADD SWAP1 JUMP JUMPDEST PUSH1 0x7B PUSH1 0xF8 SHL DUP2 MSTORE PUSH9 0x113730B6B2911D1011 PUSH1 0xB9 SHL PUSH1 0x1 DUP3 ADD MSTORE DUP4 MLOAD PUSH1 0x0 SWAP1 PUSH2 0x3AE1 DUP2 PUSH1 0xA DUP6 ADD PUSH1 0x20 DUP10 ADD PUSH2 0x2F56 JUMP JUMPDEST PUSH2 0x88B PUSH1 0xF2 SHL PUSH1 0xA SWAP2 DUP5 ADD SWAP2 DUP3 ADD DUP2 SWAP1 MSTORE PUSH16 0x113232B9B1B934B83A34B7B7111D1011 PUSH1 0x81 SHL PUSH1 0xC DUP4 ADD MSTORE DUP6 MLOAD PUSH2 0x3B1E DUP2 PUSH1 0x1C DUP6 ADD PUSH1 0x20 DUP11 ADD PUSH2 0x2F56 JUMP JUMPDEST PUSH1 0x1C SWAP3 ADD SWAP2 DUP3 ADD MSTORE PUSH14 0x1130BA3A3934B13ABA32B9911D1 PUSH1 0x95 SHL PUSH1 0x1E DUP3 ADD MSTORE DUP4 MLOAD PUSH2 0x3B50 DUP2 PUSH1 0x2C DUP5 ADD PUSH1 0x20 DUP9 ADD PUSH2 0x2F56 JUMP JUMPDEST PUSH1 0x7D PUSH1 0xF8 SHL PUSH1 0x2C SWAP3 SWAP1 SWAP2 ADD SWAP2 DUP3 ADD MSTORE PUSH1 0x2D ADD SWAP6 SWAP5 POP POP POP POP POP JUMP JUMPDEST PUSH32 0x646174613A6170706C69636174696F6E2F6A736F6E3B6261736536342C000000 DUP2 MSTORE PUSH1 0x0 DUP3 MLOAD PUSH2 0x3BA3 DUP2 PUSH1 0x1D DUP6 ADD PUSH1 0x20 DUP8 ADD PUSH2 0x2F56 JUMP JUMPDEST SWAP2 SWAP1 SWAP2 ADD PUSH1 0x1D ADD SWAP3 SWAP2 POP POP JUMP JUMPDEST PUSH1 0x20 DUP1 DUP3 MSTORE PUSH1 0x25 SWAP1 DUP3 ADD MSTORE PUSH32 0x4552433732313A207472616E736665722066726F6D20696E636F727265637420 PUSH1 0x40 DUP3 ADD MSTORE PUSH5 0x37BBB732B9 PUSH1 0xD9 SHL PUSH1 0x60 DUP3 ADD MSTORE PUSH1 0x80 ADD SWAP1 JUMP JUMPDEST PUSH1 0x20 DUP1 DUP3 MSTORE PUSH1 0x32 SWAP1 DUP3 ADD MSTORE PUSH32 0x4552433732313A207472616E7366657220746F206E6F6E204552433732315265 PUSH1 0x40 DUP3 ADD MSTORE PUSH18 0x31B2B4BB32B91034B6B83632B6B2B73A32B9 PUSH1 0x71 SHL PUSH1 0x60 DUP3 ADD MSTORE PUSH1 0x80 ADD SWAP1 JUMP JUMPDEST DUP1 DUP3 MUL DUP2 ISZERO DUP3 DUP3 DIV DUP5 EQ OR PUSH2 0x650 JUMPI PUSH2 0x650 PUSH2 0x373F JUMP JUMPDEST PUSH32 0x416363657373436F6E74726F6C3A206163636F756E7420000000000000000000 DUP2 MSTORE PUSH1 0x0 DUP3 MLOAD PUSH2 0x3C96 DUP2 PUSH1 0x17 DUP6 ADD PUSH1 0x20 DUP8 ADD PUSH2 0x2F56 JUMP JUMPDEST PUSH16 0x206973206D697373696E6720726F6C65 PUSH1 0x80 SHL PUSH1 0x17 SWAP4 SWAP1 SWAP2 ADD SWAP3 DUP4 ADD MSTORE POP PUSH1 0x27 ADD SWAP2 SWAP1 POP JUMP JUMPDEST PUSH1 0x0 PUSH1 0x20 DUP3 DUP5 SUB SLT ISZERO PUSH2 0x3CCF JUMPI PUSH1 0x0 DUP1 REVERT JUMPDEST DUP2 MLOAD PUSH2 0x2876 DUP2 PUSH2 0x2FD2 JUMP JUMPDEST PUSH1 0x1 PUSH1 0x1 PUSH1 0xA0 SHL SUB DUP6 DUP2 AND DUP3 MSTORE DUP5 AND PUSH1 0x20 DUP3 ADD MSTORE PUSH1 0x40 DUP2 ADD DUP4 SWAP1 MSTORE PUSH1 0x80 PUSH1 0x60 DUP3 ADD DUP2 SWAP1 MSTORE PUSH1 0x0 SWAP1 PUSH2 0x3D0D SWAP1 DUP4 ADD DUP5 PUSH2 0x2F7A JUMP JUMPDEST SWAP7 SWAP6 POP POP POP POP POP POP JUMP JUMPDEST PUSH1 0x0 PUSH1 0x20 DUP3 DUP5 SUB SLT ISZERO PUSH2 0x3D29 JUMPI PUSH1 0x0 DUP1 REVERT JUMPDEST DUP2 MLOAD PUSH2 0x2876 DUP2 PUSH2 0x2F23 JUMP JUMPDEST PUSH1 0x0 DUP2 PUSH2 0x3D43 JUMPI PUSH2 0x3D43 PUSH2 0x373F JUMP JUMPDEST POP PUSH1 0x0 NOT ADD SWAP1 JUMP JUMPDEST DUP2 DUP2 SUB DUP2 DUP2 GT ISZERO PUSH2 0x650 JUMPI PUSH2 0x650 PUSH2 0x373F JUMP JUMPDEST PUSH1 0x1 DUP2 DUP2 JUMPDEST DUP1 DUP6 GT ISZERO PUSH2 0x3D99 JUMPI DUP2 PUSH1 0x0 NOT DIV DUP3 GT ISZERO PUSH2 0x3D7F JUMPI PUSH2 0x3D7F PUSH2 0x373F JUMP JUMPDEST DUP1 DUP6 AND ISZERO PUSH2 0x3D8C JUMPI SWAP2 DUP2 MUL SWAP2 JUMPDEST SWAP4 DUP5 SHR SWAP4 SWAP1 DUP1 MUL SWAP1 PUSH2 0x3D63 JUMP JUMPDEST POP SWAP3 POP SWAP3 SWAP1 POP JUMP JUMPDEST PUSH1 0x0 DUP3 PUSH2 0x3DB0 JUMPI POP PUSH1 0x1 PUSH2 0x650 JUMP JUMPDEST DUP2 PUSH2 0x3DBD JUMPI POP PUSH1 0x0 PUSH2 0x650 JUMP JUMPDEST DUP2 PUSH1 0x1 DUP2 EQ PUSH2 0x3DD3 JUMPI PUSH1 0x2 DUP2 EQ PUSH2 0x3DDD JUMPI PUSH2 0x3DF9 JUMP JUMPDEST PUSH1 0x1 SWAP2 POP POP PUSH2 0x650 JUMP JUMPDEST PUSH1 0xFF DUP5 GT ISZERO PUSH2 0x3DEE JUMPI PUSH2 0x3DEE PUSH2 0x373F JUMP JUMPDEST POP POP PUSH1 0x1 DUP3 SHL PUSH2 0x650 JUMP JUMPDEST POP PUSH1 0x20 DUP4 LT PUSH2 0x133 DUP4 LT AND PUSH1 0x4E DUP5 LT PUSH1 0xB DUP5 LT AND OR ISZERO PUSH2 0x3E1C JUMPI POP DUP2 DUP2 EXP PUSH2 0x650 JUMP JUMPDEST PUSH2 0x3E26 DUP4 DUP4 PUSH2 0x3D5E JUMP JUMPDEST DUP1 PUSH1 0x0 NOT DIV DUP3 GT ISZERO PUSH2 0x3E3A JUMPI PUSH2 0x3E3A PUSH2 0x373F JUMP JUMPDEST MUL SWAP4 SWAP3 POP POP POP JUMP JUMPDEST PUSH1 0x0 PUSH2 0x2876 DUP4 DUP4 PUSH2 0x3DA1 JUMP JUMPDEST PUSH1 0x0 PUSH1 0xFF DUP4 AND DUP1 PUSH2 0x3E61 JUMPI PUSH2 0x3E61 PUSH2 0x3911 JUMP JUMPDEST DUP1 PUSH1 0xFF DUP5 AND DIV SWAP2 POP POP SWAP3 SWAP2 POP POP JUMP JUMPDEST PUSH1 0xFF DUP2 DUP2 AND DUP4 DUP3 AND MUL SWAP1 DUP2 AND SWAP1 DUP2 DUP2 EQ PUSH2 0x2BA3 JUMPI PUSH2 0x2BA3 PUSH2 0x373F JUMP JUMPDEST PUSH1 0xFF DUP3 DUP2 AND DUP3 DUP3 AND SUB SWAP1 DUP2 GT ISZERO PUSH2 0x650 JUMPI PUSH2 0x650 PUSH2 0x373F JUMP JUMPDEST PUSH4 0x4E487B71 PUSH1 0xE0 SHL PUSH1 0x0 MSTORE PUSH1 0x31 PUSH1 0x4 MSTORE PUSH1 0x24 PUSH1 0x0 REVERT JUMPDEST PUSH1 0xFF DUP2 DUP2 AND DUP4 DUP3 AND ADD SWAP1 DUP2 GT ISZERO PUSH2 0x650 JUMPI PUSH2 0x650 PUSH2 0x373F JUMP INVALID PC 0x4D TIMESTAMP 0x4C KECCAK256 PUSH17 0x726F746F636F6C206C697175696420746F PUSH12 0x656E207769746820546F6B65 PUSH15 0x20426F756E64204163636F756E7420 PUSH7 0x756E6374696F6E PUSH2 0x6C69 PUSH21 0x794142434445464748494A4B4C4D4E4F5051525354 SSTORE JUMP JUMPI PC MSIZE GAS PUSH2 0x6263 PUSH5 0x6566676869 PUSH11 0x6B6C6D6E6F707172737475 PUSH23 0x7778797A303132333435363738392B2F9F2DF0FED2C776 BASEFEE 0xDE PC PUSH1 0xA4 0xCC POP DUP13 0xD0 DUP2 DUP13 DUP6 0xB8 0xB8 LOG1 0xAB 0x4C 0xEE 0xEF DUP14 SWAP9 SHR DUP10 JUMP 0xA6 LOG2 PUSH5 0x6970667358 0x22 SLT KECCAK256 PUSH19 0x31169A940C46ED9F5E8C1123FD7BDEB5543250 0x2D SLOAD SAR PUSH24 0x459EDA533151A12664736F6C634300081300330000000000 "},"methodIdentifiers":{"DEFAULT_ADMIN_ROLE()":"a217fddf","MINTER_ROLE()":"d5391393","addTBAPosition(uint256,string,string,uint256)":"e80dbe15","approve(address,uint256)":"095ea7b3","balanceOf(address)":"70a08231","batchMintWithTBA(address[],uint256[],address[])":"315edb82","burn(uint256)":"42966c68","erc6551Registry()":"056d5afe","executeTBACall(uint256,address,uint256,bytes)":"42409065","getApproved(uint256)":"081812fc","getBatchNFTData(uint256[])":"d4942fa9","getNFTData(uint256)":"0ad4c4f4","getRoleAdmin(bytes32)":"248a9ca3","getTokenBoundAccount(uint256)":"abb23f5b","getUserPortfolio(address)":"1edb27e9","getUserTokens(address)":"519dc8d2","grantRole(bytes32,address)":"2f2ff15d","hasRole(bytes32,address)":"91d14854","isApprovedForAll(address,address)":"e985e9c5","isValidTBAOwner(uint256,address)":"0bf25ef2","mintWithTBA(address,uint256,address)":"4180271d","name()":"06fdde03","nextTokenId()":"75794a3c","ownerOf(uint256)":"6352211e","pause()":"8456cb59","paused()":"5c975abb","renounceRole(bytes32,address)":"36568abe","revokeRole(bytes32,address)":"d547741f","safeTransferFrom(address,address,uint256)":"42842e0e","safeTransferFrom(address,address,uint256,bytes)":"b88d4fde","setApprovalForAll(address,bool)":"a22cb465","setAutoCompound(uint256,bool)":"3b761d87","setMinter(address)":"fca3b5aa","supportsInterface(bytes4)":"01ffc9a7","symbol()":"95d89b41","tbaImplementation()":"9c04b836","tokenByIndex(uint256)":"4f6ccce7","tokenOfOwnerByIndex(address,uint256)":"2f745c59","tokenURI(uint256)":"c87b56dd","totalSupply()":"18160ddd","transferFrom(address,address,uint256)":"23b872dd","unpause()":"3f4ba83a","updateBaseMetadata(uint256,string,string)":"c74dc9a8","updateTBABalance(uint256)":"54164c81"}}}}}