{"contracts/ChainDepositContract.sol":{"ChainDepositContract":{"abi":[{"inputs":[{"internalType":"address","name":"_depositManager","type":"address"},{"internalType":"address","name":"_priceOracle","type":"address"}],"stateMutability":"nonpayable","type":"constructor"},{"anonymous":false,"inputs":[{"indexed":true,"internalType":"address","name":"token","type":"address"},{"indexed":false,"internalType":"uint256","name":"amount","type":"uint256"},{"indexed":false,"internalType":"uint256","name":"btcEquivalent","type":"uint256"}],"name":"BtcEquivalentCalculated","type":"event"},{"anonymous":false,"inputs":[{"indexed":true,"internalType":"uint256","name":"depositId","type":"uint256"},{"indexed":true,"internalType":"address","name":"user","type":"address"},{"indexed":true,"internalType":"address","name":"token","type":"address"},{"indexed":false,"internalType":"uint256","name":"amount","type":"uint256"},{"indexed":false,"internalType":"uint256","name":"btcEquivalent","type":"uint256"}],"name":"DepositCreated","type":"event"},{"anonymous":false,"inputs":[{"indexed":true,"internalType":"uint256","name":"depositId","type":"uint256"},{"indexed":false,"internalType":"uint256","name":"activationId","type":"uint256"},{"indexed":false,"internalType":"string","name":"intentData","type":"string"}],"name":"IntentCreated","type":"event"},{"anonymous":false,"inputs":[{"indexed":true,"internalType":"address","name":"previousOwner","type":"address"},{"indexed":true,"internalType":"address","name":"newOwner","type":"address"}],"name":"OwnershipTransferred","type":"event"},{"inputs":[{"internalType":"address","name":"token","type":"address"},{"internalType":"uint256","name":"decimals","type":"uint256"}],"name":"addSupportedToken","outputs":[],"stateMutability":"nonpayable","type":"function"},{"inputs":[{"internalType":"address","name":"token","type":"address"},{"internalType":"uint256","name":"amount","type":"uint256"}],"name":"calculateBtcEquivalent","outputs":[{"internalType":"uint256","name":"","type":"uint256"}],"stateMutability":"nonpayable","type":"function"},{"inputs":[{"internalType":"uint256","name":"depositId","type":"uint256"}],"name":"createIntent","outputs":[{"internalType":"uint256","name":"","type":"uint256"}],"stateMutability":"nonpayable","type":"function"},{"inputs":[{"internalType":"address","name":"token","type":"address"},{"internalType":"uint256","name":"amount","type":"uint256"}],"name":"deposit","outputs":[{"internalType":"uint256","name":"","type":"uint256"}],"stateMutability":"nonpayable","type":"function"},{"inputs":[],"name":"depositManager","outputs":[{"internalType":"contract DepositManager","name":"","type":"address"}],"stateMutability":"view","type":"function"},{"inputs":[{"internalType":"uint256","name":"","type":"uint256"}],"name":"deposits","outputs":[{"internalType":"uint256","name":"id","type":"uint256"},{"internalType":"address","name":"user","type":"address"},{"internalType":"address","name":"token","type":"address"},{"internalType":"uint256","name":"amount","type":"uint256"},{"internalType":"uint256","name":"btcEquivalent","type":"uint256"},{"internalType":"uint256","name":"timestamp","type":"uint256"},{"internalType":"bool","name":"processed","type":"bool"}],"stateMutability":"view","type":"function"},{"inputs":[{"internalType":"address","name":"token","type":"address"},{"internalType":"uint256","name":"amount","type":"uint256"}],"name":"emergencyWithdraw","outputs":[],"stateMutability":"nonpayable","type":"function"},{"inputs":[{"internalType":"uint256","name":"depositId","type":"uint256"}],"name":"getDeposit","outputs":[{"components":[{"internalType":"uint256","name":"id","type":"uint256"},{"internalType":"address","name":"user","type":"address"},{"internalType":"address","name":"token","type":"address"},{"internalType":"uint256","name":"amount","type":"uint256"},{"internalType":"uint256","name":"btcEquivalent","type":"uint256"},{"internalType":"uint256","name":"timestamp","type":"uint256"},{"internalType":"bool","name":"processed","type":"bool"}],"internalType":"struct ChainDepositContract.Deposit","name":"","type":"tuple"}],"stateMutability":"view","type":"function"},{"inputs":[],"name":"getStats","outputs":[{"internalType":"uint256","name":"totalDepositsCount","type":"uint256"},{"internalType":"uint256","name":"totalBtcEquivalentAmount","type":"uint256"},{"internalType":"uint256","name":"nextDepositIdValue","type":"uint256"}],"stateMutability":"view","type":"function"},{"inputs":[{"internalType":"address","name":"user","type":"address"}],"name":"getUserDeposits","outputs":[{"internalType":"uint256[]","name":"","type":"uint256[]"}],"stateMutability":"view","type":"function"},{"inputs":[],"name":"nextDepositId","outputs":[{"internalType":"uint256","name":"","type":"uint256"}],"stateMutability":"view","type":"function"},{"inputs":[],"name":"owner","outputs":[{"internalType":"address","name":"","type":"address"}],"stateMutability":"view","type":"function"},{"inputs":[],"name":"priceOracle","outputs":[{"internalType":"contract PriceOracle","name":"","type":"address"}],"stateMutability":"view","type":"function"},{"inputs":[{"internalType":"address","name":"token","type":"address"}],"name":"removeSupportedToken","outputs":[],"stateMutability":"nonpayable","type":"function"},{"inputs":[],"name":"renounceOwnership","outputs":[],"stateMutability":"nonpayable","type":"function"},{"inputs":[{"internalType":"address","name":"","type":"address"}],"name":"supportedTokens","outputs":[{"internalType":"bool","name":"","type":"bool"}],"stateMutability":"view","type":"function"},{"inputs":[{"internalType":"address","name":"","type":"address"}],"name":"tokenDecimals","outputs":[{"internalType":"uint256","name":"","type":"uint256"}],"stateMutability":"view","type":"function"},{"inputs":[],"name":"totalBtcEquivalent","outputs":[{"internalType":"uint256","name":"","type":"uint256"}],"stateMutability":"view","type":"function"},{"inputs":[],"name":"totalDeposits","outputs":[{"internalType":"uint256","name":"","type":"uint256"}],"stateMutability":"view","type":"function"},{"inputs":[{"internalType":"address","name":"newOwner","type":"address"}],"name":"transferOwnership","outputs":[],"stateMutability":"nonpayable","type":"function"},{"inputs":[{"internalType":"address","name":"","type":"address"},{"internalType":"uint256","name":"","type":"uint256"}],"name":"userDeposits","outputs":[{"internalType":"uint256","name":"","type":"uint256"}],"stateMutability":"view","type":"function"}],"evm":{"bytecode":{"linkReferences":{},"object":"60c06040526001600655600060075560006008553480156200002057600080fd5b50604051620015e5380380620015e58339810160408190526200004391620000da565b600160005562000053336200006b565b6001600160a01b039182166080521660a05262000112565b600180546001600160a01b038381166001600160a01b0319831681179093556040519116919082907f8be0079c531659141344cd1fd0a4f28419497f9722a3daafe3b4186f6b6457e090600090a35050565b80516001600160a01b0381168114620000d557600080fd5b919050565b60008060408385031215620000ee57600080fd5b620000f983620000bd565b91506200010960208401620000bd565b90509250929050565b60805160a05161149f62000146600039600081816101670152610c070152600081816102210152610a67015261149f6000f3fe608060405234801561001057600080fd5b50600436106101375760003560e01c80638070a4bd116100b8578063b02c43d01161007c578063b02c43d014610328578063c59d4847146103c6578063ca56a821146103ea578063f2fde38b146103fd578063fb8c452814610410578063ff6f4a7a1461042357600080fd5b80638070a4bd146102675780638da5cb5b146102705780638ee573ac1461028157806395ccea67146102a15780639f9fb968146102b457600080fd5b806368c4ac26116100ff57806368c4ac26146101e95780636c7ac9d81461021c578063715018a614610243578063763191901461024b5780637d8820971461025e57600080fd5b806308f433331461013c5780632630c12f146101625780632a5bf6d2146101a157806347e7ef24146101c15780634d8e3d3b146101d4575b600080fd5b61014f61014a366004610fd0565b61042c565b6040519081526020015b60405180910390f35b6101897f000000000000000000000000000000000000000000000000000000000000000081565b6040516001600160a01b039091168152602001610159565b6101b46101af366004610ffa565b61045d565b604051610159919061101c565b61014f6101cf366004610fd0565b6104c9565b6101e76101e2366004610fd0565b61077a565b005b61020c6101f7366004610ffa565b60026020526000908152604090205460ff1681565b6040519015158152602001610159565b6101897f000000000000000000000000000000000000000000000000000000000000000081565b6101e76107b3565b6101e7610259366004610ffa565b6107c7565b61014f60075481565b61014f60065481565b6001546001600160a01b0316610189565b61014f61028f366004610ffa565b60036020526000908152604090205481565b6101e76102af366004610fd0565b6107fb565b6102c76102c2366004611060565b61089a565b60408051825181526020808401516001600160a01b0390811691830191909152838301511691810191909152606080830151908201526080808301519082015260a0808301519082015260c09182015115159181019190915260e001610159565b610383610336366004611060565b6004602081905260009182526040909120805460018201546002830154600384015494840154600585015460069095015493956001600160a01b0393841695929093169390919060ff1687565b604080519788526001600160a01b03968716602089015294909516938601939093526060850191909152608084015260a0830152151560c082015260e001610159565b60075460085460065460408051938452602084019290925290820152606001610159565b61014f6103f8366004611060565b610963565b6101e761040b366004610ffa565b610b89565b61014f61041e366004610fd0565b610c02565b61014f60085481565b6005602052816000526040600020818154811061044857600080fd5b90600052602060002001600091509150505481565b6001600160a01b0381166000908152600560209081526040918290208054835181840281018401909452808452606093928301828280156104bd57602002820191906000526020600020905b8154815260200190600101908083116104a9575b50505050509050919050565b60006104d3610d1f565b6001600160a01b03831660009081526002602052604090205460ff166105365760405162461bcd60e51b8152602060048201526013602482015272151bdad95b881b9bdd081cdd5c1c1bdc9d1959606a1b60448201526064015b60405180910390fd5b600082116105865760405162461bcd60e51b815260206004820152601760248201527f416d6f756e74206d75737420626520706f736974697665000000000000000000604482015260640161052d565b6040516323b872dd60e01b8152336004820152306024820152604481018390526001600160a01b038416906323b872dd906064016020604051808303816000875af11580156105d9573d6000803e3d6000fd5b505050506040513d601f19601f820116820180604052508101906105fd9190611079565b50600061060a8484610c02565b60068054919250600091908261061f836110b1565b909155506040805160e0810182528281523360208083018281526001600160a01b038b8116858701908152606086018c8152608087018b81524260a08901908152600060c08a018181528c82526004808a528c83209b518c55975160018c81018054928a166001600160a01b0319938416179055965160028d01805491909916911617909655925160038a0155905194880194909455925160058088019190915591516006909601805496151560ff1990971696909617909555928152918152928120805492830181558152918220018290556007805492935090610703836110b1565b9190505550816008600082825461071a91906110ca565b909155505060408051858152602081018490526001600160a01b03871691339184917fb1fd4a0105e23455acc585ac2766343681bbf1a6e4306d3e52f3b3b4ddeed42c910160405180910390a49150506107746001600055565b92915050565b610782610d78565b6001600160a01b039091166000908152600260209081526040808320805460ff191660011790556003909152902055565b6107bb610d78565b6107c56000610dd2565b565b6107cf610d78565b6001600160a01b03166000908152600260209081526040808320805460ff191690556003909152812055565b610803610d78565b816001600160a01b031663a9059cbb6108246001546001600160a01b031690565b6040516001600160e01b031960e084901b1681526001600160a01b039091166004820152602481018490526044016020604051808303816000875af1158015610871573d6000803e3d6000fd5b505050506040513d601f19601f820116820180604052508101906108959190611079565b505050565b6108ee6040518060e001604052806000815260200160006001600160a01b0316815260200160006001600160a01b031681526020016000815260200160008152602001600081526020016000151581525090565b50600090815260046020818152604092839020835160e0810185528154815260018201546001600160a01b039081169382019390935260028201549092169382019390935260038301546060820152908201546080820152600582015460a082015260069091015460ff16151560c082015290565b600061096d610d78565b60065482106109b35760405162461bcd60e51b8152602060048201526012602482015271125b9d985b1a590819195c1bdcda5d08125160721b604482015260640161052d565b60008281526004602052604090206006015460ff1615610a095760405162461bcd60e51b8152602060048201526011602482015270105b1c9958591e481c1c9bd8d95cdcd959607a1b604482015260640161052d565b600082815260046020819052604080832060068101805460ff19166001908117909155810154600382015482850154935163df6ac84760e01b81526001600160a01b03928316958101959095526024850152604484019290925292917f00000000000000000000000000000000000000000000000000000000000000009091169063df6ac847906064016020604051808303816000875af1158015610ab2573d6000803e3d6000fd5b505050506040513d601f19601f82011682018060405250810190610ad691906110dd565b6040805160e0810182528454815260018501546001600160a01b039081166020830152600286015416918101919091526003840154606082015260048401546080820152600584015460a0820152600684015460ff16151560c0820152909150600090610b439083610e24565b9050847f4ba4b720167a4219371ec9aa5bc12a0d7429bbee941422e03a1edadc76b50ebd8383604051610b7792919061111a565b60405180910390a2509150505b919050565b610b91610d78565b6001600160a01b038116610bf65760405162461bcd60e51b815260206004820152602660248201527f4f776e61626c653a206e6577206f776e657220697320746865207a65726f206160448201526564647265737360d01b606482015260840161052d565b610bff81610dd2565b50565b6000807f00000000000000000000000000000000000000000000000000000000000000006001600160a01b0316633a3610bc6040518163ffffffff1660e01b8152600401602060405180830381865afa158015610c63573d6000803e3d6000fd5b505050506040513d601f19601f82011682018060405250810190610c8791906110dd565b6001600160a01b038516600090815260036020526040812054919250819003610cae575060125b6000610cbb82600a611238565b610cc58487611244565b610ccf9190611271565b60408051878152602081018390529192506001600160a01b038816917f5f7a9cc87cfc2edd3896984872540c526fb600059d1883f5dd59221d968db52a910160405180910390a295945050505050565b600260005403610d715760405162461bcd60e51b815260206004820152601f60248201527f5265656e7472616e637947756172643a207265656e7472616e742063616c6c00604482015260640161052d565b6002600055565b6001546001600160a01b031633146107c55760405162461bcd60e51b815260206004820181905260248201527f4f776e61626c653a2063616c6c6572206973206e6f7420746865206f776e6572604482015260640161052d565b600180546001600160a01b038381166001600160a01b0319831681179093556040519116919082907f8be0079c531659141344cd1fd0a4f28419497f9722a3daafe3b4186f6b6457e090600090a35050565b6060610e338360000151610e9c565b610e3c83610e9c565b610e498560200151610fa5565b610e568660400151610fa5565b610e638760600151610e9c565b610e708860800151610e9c565b604051602001610e85969594939291906112a1565b604051602081830303815290604052905092915050565b606081600003610ec35750506040805180820190915260018152600360fc1b602082015290565b8160005b8115610eed5780610ed7816110b1565b9150610ee69050600a83611271565b9150610ec7565b60008167ffffffffffffffff811115610f0857610f08611416565b6040519080825280601f01601f191660200182016040528015610f32576020820181803683370190505b5090505b8415610f9d57610f4760018361142c565b9150610f54600a8661143f565b610f5f9060306110ca565b60f81b818381518110610f7457610f74611453565b60200101906001600160f81b031916908160001a905350610f96600a86611271565b9450610f36565b949350505050565b6060610774826001600160a01b0316610e9c565b80356001600160a01b0381168114610b8457600080fd5b60008060408385031215610fe357600080fd5b610fec83610fb9565b946020939093013593505050565b60006020828403121561100c57600080fd5b61101582610fb9565b9392505050565b6020808252825182820181905260009190848201906040850190845b8181101561105457835183529284019291840191600101611038565b50909695505050505050565b60006020828403121561107257600080fd5b5035919050565b60006020828403121561108b57600080fd5b8151801515811461101557600080fd5b634e487b7160e01b600052601160045260246000fd5b6000600182016110c3576110c361109b565b5060010190565b808201808211156107745761077461109b565b6000602082840312156110ef57600080fd5b5051919050565b60005b838110156111115781810151838201526020016110f9565b50506000910152565b828152604060208201526000825180604084015261113f8160608501602087016110f6565b601f01601f1916919091016060019392505050565b600181815b8085111561118f5781600019048211156111755761117561109b565b8085161561118257918102915b93841c9390800290611159565b509250929050565b6000826111a657506001610774565b816111b357506000610774565b81600181146111c957600281146111d3576111ef565b6001915050610774565b60ff8411156111e4576111e461109b565b50506001821b610774565b5060208310610133831016604e8410600b8410161715611212575081810a610774565b61121c8383611154565b80600019048211156112305761123061109b565b029392505050565b60006110158383611197565b80820281158282048414176107745761077461109b565b634e487b7160e01b600052601260045260246000fd5b6000826112805761128061125b565b500490565b600081516112978185602086016110f6565b9290920192915050565b7f7b2274797065223a226272696467655f65786563757465222c0000000000000081526b113232b837b9b4ba24b2111d60a11b601982015286516000906112ef816025850160208c016110f6565b600b60fa1b60259184019182018190526e1130b1ba34bb30ba34b7b724b2111d60891b6026830152885161132a816035850160208d016110f6565b603592019182015267113ab9b2b9111d1160c11b6036820152865161135681603e840160208b016110f6565b6114086113fb6113f56113d96113cc6113c66113b16113a361139d611388603e8b8d010161088b60f21b815260020190565b68113a37b5b2b7111d1160b91b815260090190565b8f611285565b61088b60f21b815260020190565b681130b6b7bab73a111d60b91b815260090190565b8b611285565b600b60fa1b815260010190565b6f11313a31a2b8bab4bb30b632b73a111d60811b815260100190565b87611285565b607d60f81b815260010190565b9a9950505050505050505050565b634e487b7160e01b600052604160045260246000fd5b818103818111156107745761077461109b565b60008261144e5761144e61125b565b500690565b634e487b7160e01b600052603260045260246000fdfea2646970667358221220e0a9061bb7ec200810a61e4db5ede5d903f7a01743ebe5f6d65101c24e1f9d6664736f6c63430008130033","opcodes":"PUSH1 0xC0 PUSH1 0x40 MSTORE PUSH1 0x1 PUSH1 0x6 SSTORE PUSH1 0x0 PUSH1 0x7 SSTORE PUSH1 0x0 PUSH1 0x8 SSTORE CALLVALUE DUP1 ISZERO PUSH3 0x20 JUMPI PUSH1 0x0 DUP1 REVERT JUMPDEST POP PUSH1 0x40 MLOAD PUSH3 0x15E5 CODESIZE SUB DUP1 PUSH3 0x15E5 DUP4 CODECOPY DUP2 ADD PUSH1 0x40 DUP2 SWAP1 MSTORE PUSH3 0x43 SWAP2 PUSH3 0xDA JUMP JUMPDEST PUSH1 0x1 PUSH1 0x0 SSTORE PUSH3 0x53 CALLER PUSH3 0x6B JUMP JUMPDEST PUSH1 0x1 PUSH1 0x1 PUSH1 0xA0 SHL SUB SWAP2 DUP3 AND PUSH1 0x80 MSTORE AND PUSH1 0xA0 MSTORE PUSH3 0x112 JUMP JUMPDEST PUSH1 0x1 DUP1 SLOAD PUSH1 0x1 PUSH1 0x1 PUSH1 0xA0 SHL SUB DUP4 DUP2 AND PUSH1 0x1 PUSH1 0x1 PUSH1 0xA0 SHL SUB NOT DUP4 AND DUP2 OR SWAP1 SWAP4 SSTORE PUSH1 0x40 MLOAD SWAP2 AND SWAP2 SWAP1 DUP3 SWAP1 PUSH32 0x8BE0079C531659141344CD1FD0A4F28419497F9722A3DAAFE3B4186F6B6457E0 SWAP1 PUSH1 0x0 SWAP1 LOG3 POP POP JUMP JUMPDEST DUP1 MLOAD PUSH1 0x1 PUSH1 0x1 PUSH1 0xA0 SHL SUB DUP2 AND DUP2 EQ PUSH3 0xD5 JUMPI PUSH1 0x0 DUP1 REVERT JUMPDEST SWAP2 SWAP1 POP JUMP JUMPDEST PUSH1 0x0 DUP1 PUSH1 0x40 DUP4 DUP6 SUB SLT ISZERO PUSH3 0xEE JUMPI PUSH1 0x0 DUP1 REVERT JUMPDEST PUSH3 0xF9 DUP4 PUSH3 0xBD JUMP JUMPDEST SWAP2 POP PUSH3 0x109 PUSH1 0x20 DUP5 ADD PUSH3 0xBD JUMP JUMPDEST SWAP1 POP SWAP3 POP SWAP3 SWAP1 POP JUMP JUMPDEST PUSH1 0x80 MLOAD PUSH1 0xA0 MLOAD PUSH2 0x149F PUSH3 0x146 PUSH1 0x0 CODECOPY PUSH1 0x0 DUP2 DUP2 PUSH2 0x167 ADD MSTORE PUSH2 0xC07 ADD MSTORE PUSH1 0x0 DUP2 DUP2 PUSH2 0x221 ADD MSTORE PUSH2 0xA67 ADD MSTORE PUSH2 0x149F PUSH1 0x0 RETURN INVALID PUSH1 0x80 PUSH1 0x40 MSTORE CALLVALUE DUP1 ISZERO PUSH2 0x10 JUMPI PUSH1 0x0 DUP1 REVERT JUMPDEST POP PUSH1 0x4 CALLDATASIZE LT PUSH2 0x137 JUMPI PUSH1 0x0 CALLDATALOAD PUSH1 0xE0 SHR DUP1 PUSH4 0x8070A4BD GT PUSH2 0xB8 JUMPI DUP1 PUSH4 0xB02C43D0 GT PUSH2 0x7C JUMPI DUP1 PUSH4 0xB02C43D0 EQ PUSH2 0x328 JUMPI DUP1 PUSH4 0xC59D4847 EQ PUSH2 0x3C6 JUMPI DUP1 PUSH4 0xCA56A821 EQ PUSH2 0x3EA JUMPI DUP1 PUSH4 0xF2FDE38B EQ PUSH2 0x3FD JUMPI DUP1 PUSH4 0xFB8C4528 EQ PUSH2 0x410 JUMPI DUP1 PUSH4 0xFF6F4A7A EQ PUSH2 0x423 JUMPI PUSH1 0x0 DUP1 REVERT JUMPDEST DUP1 PUSH4 0x8070A4BD EQ PUSH2 0x267 JUMPI DUP1 PUSH4 0x8DA5CB5B EQ PUSH2 0x270 JUMPI DUP1 PUSH4 0x8EE573AC EQ PUSH2 0x281 JUMPI DUP1 PUSH4 0x95CCEA67 EQ PUSH2 0x2A1 JUMPI DUP1 PUSH4 0x9F9FB968 EQ PUSH2 0x2B4 JUMPI PUSH1 0x0 DUP1 REVERT JUMPDEST DUP1 PUSH4 0x68C4AC26 GT PUSH2 0xFF JUMPI DUP1 PUSH4 0x68C4AC26 EQ PUSH2 0x1E9 JUMPI DUP1 PUSH4 0x6C7AC9D8 EQ PUSH2 0x21C JUMPI DUP1 PUSH4 0x715018A6 EQ PUSH2 0x243 JUMPI DUP1 PUSH4 0x76319190 EQ PUSH2 0x24B JUMPI DUP1 PUSH4 0x7D882097 EQ PUSH2 0x25E JUMPI PUSH1 0x0 DUP1 REVERT JUMPDEST DUP1 PUSH4 0x8F43333 EQ PUSH2 0x13C JUMPI DUP1 PUSH4 0x2630C12F EQ PUSH2 0x162 JUMPI DUP1 PUSH4 0x2A5BF6D2 EQ PUSH2 0x1A1 JUMPI DUP1 PUSH4 0x47E7EF24 EQ PUSH2 0x1C1 JUMPI DUP1 PUSH4 0x4D8E3D3B EQ PUSH2 0x1D4 JUMPI JUMPDEST PUSH1 0x0 DUP1 REVERT JUMPDEST PUSH2 0x14F PUSH2 0x14A CALLDATASIZE PUSH1 0x4 PUSH2 0xFD0 JUMP JUMPDEST PUSH2 0x42C JUMP JUMPDEST PUSH1 0x40 MLOAD SWAP1 DUP2 MSTORE PUSH1 0x20 ADD JUMPDEST PUSH1 0x40 MLOAD DUP1 SWAP2 SUB SWAP1 RETURN JUMPDEST PUSH2 0x189 PUSH32 0x0 DUP2 JUMP JUMPDEST PUSH1 0x40 MLOAD PUSH1 0x1 PUSH1 0x1 PUSH1 0xA0 SHL SUB SWAP1 SWAP2 AND DUP2 MSTORE PUSH1 0x20 ADD PUSH2 0x159 JUMP JUMPDEST PUSH2 0x1B4 PUSH2 0x1AF CALLDATASIZE PUSH1 0x4 PUSH2 0xFFA JUMP JUMPDEST PUSH2 0x45D JUMP JUMPDEST PUSH1 0x40 MLOAD PUSH2 0x159 SWAP2 SWAP1 PUSH2 0x101C JUMP JUMPDEST PUSH2 0x14F PUSH2 0x1CF CALLDATASIZE PUSH1 0x4 PUSH2 0xFD0 JUMP JUMPDEST PUSH2 0x4C9 JUMP JUMPDEST PUSH2 0x1E7 PUSH2 0x1E2 CALLDATASIZE PUSH1 0x4 PUSH2 0xFD0 JUMP JUMPDEST PUSH2 0x77A JUMP JUMPDEST STOP JUMPDEST PUSH2 0x20C PUSH2 0x1F7 CALLDATASIZE PUSH1 0x4 PUSH2 0xFFA JUMP JUMPDEST PUSH1 0x2 PUSH1 0x20 MSTORE PUSH1 0x0 SWAP1 DUP2 MSTORE PUSH1 0x40 SWAP1 KECCAK256 SLOAD PUSH1 0xFF AND DUP2 JUMP JUMPDEST PUSH1 0x40 MLOAD SWAP1 ISZERO ISZERO DUP2 MSTORE PUSH1 0x20 ADD PUSH2 0x159 JUMP JUMPDEST PUSH2 0x189 PUSH32 0x0 DUP2 JUMP JUMPDEST PUSH2 0x1E7 PUSH2 0x7B3 JUMP JUMPDEST PUSH2 0x1E7 PUSH2 0x259 CALLDATASIZE PUSH1 0x4 PUSH2 0xFFA JUMP JUMPDEST PUSH2 0x7C7 JUMP JUMPDEST PUSH2 0x14F PUSH1 0x7 SLOAD DUP2 JUMP JUMPDEST PUSH2 0x14F PUSH1 0x6 SLOAD DUP2 JUMP JUMPDEST PUSH1 0x1 SLOAD PUSH1 0x1 PUSH1 0x1 PUSH1 0xA0 SHL SUB AND PUSH2 0x189 JUMP JUMPDEST PUSH2 0x14F PUSH2 0x28F CALLDATASIZE PUSH1 0x4 PUSH2 0xFFA JUMP JUMPDEST PUSH1 0x3 PUSH1 0x20 MSTORE PUSH1 0x0 SWAP1 DUP2 MSTORE PUSH1 0x40 SWAP1 KECCAK256 SLOAD DUP2 JUMP JUMPDEST PUSH2 0x1E7 PUSH2 0x2AF CALLDATASIZE PUSH1 0x4 PUSH2 0xFD0 JUMP JUMPDEST PUSH2 0x7FB JUMP JUMPDEST PUSH2 0x2C7 PUSH2 0x2C2 CALLDATASIZE PUSH1 0x4 PUSH2 0x1060 JUMP JUMPDEST PUSH2 0x89A JUMP JUMPDEST PUSH1 0x40 DUP1 MLOAD DUP3 MLOAD DUP2 MSTORE PUSH1 0x20 DUP1 DUP5 ADD MLOAD PUSH1 0x1 PUSH1 0x1 PUSH1 0xA0 SHL SUB SWAP1 DUP2 AND SWAP2 DUP4 ADD SWAP2 SWAP1 SWAP2 MSTORE DUP4 DUP4 ADD MLOAD AND SWAP2 DUP2 ADD SWAP2 SWAP1 SWAP2 MSTORE PUSH1 0x60 DUP1 DUP4 ADD MLOAD SWAP1 DUP3 ADD MSTORE PUSH1 0x80 DUP1 DUP4 ADD MLOAD SWAP1 DUP3 ADD MSTORE PUSH1 0xA0 DUP1 DUP4 ADD MLOAD SWAP1 DUP3 ADD MSTORE PUSH1 0xC0 SWAP2 DUP3 ADD MLOAD ISZERO ISZERO SWAP2 DUP2 ADD SWAP2 SWAP1 SWAP2 MSTORE PUSH1 0xE0 ADD PUSH2 0x159 JUMP JUMPDEST PUSH2 0x383 PUSH2 0x336 CALLDATASIZE PUSH1 0x4 PUSH2 0x1060 JUMP JUMPDEST PUSH1 0x4 PUSH1 0x20 DUP2 SWAP1 MSTORE PUSH1 0x0 SWAP2 DUP3 MSTORE PUSH1 0x40 SWAP1 SWAP2 KECCAK256 DUP1 SLOAD PUSH1 0x1 DUP3 ADD SLOAD PUSH1 0x2 DUP4 ADD SLOAD PUSH1 0x3 DUP5 ADD SLOAD SWAP5 DUP5 ADD SLOAD PUSH1 0x5 DUP6 ADD SLOAD PUSH1 0x6 SWAP1 SWAP6 ADD SLOAD SWAP4 SWAP6 PUSH1 0x1 PUSH1 0x1 PUSH1 0xA0 SHL SUB SWAP4 DUP5 AND SWAP6 SWAP3 SWAP1 SWAP4 AND SWAP4 SWAP1 SWAP2 SWAP1 PUSH1 0xFF AND DUP8 JUMP JUMPDEST PUSH1 0x40 DUP1 MLOAD SWAP8 DUP9 MSTORE PUSH1 0x1 PUSH1 0x1 PUSH1 0xA0 SHL SUB SWAP7 DUP8 AND PUSH1 0x20 DUP10 ADD MSTORE SWAP5 SWAP1 SWAP6 AND SWAP4 DUP7 ADD SWAP4 SWAP1 SWAP4 MSTORE PUSH1 0x60 DUP6 ADD SWAP2 SWAP1 SWAP2 MSTORE PUSH1 0x80 DUP5 ADD MSTORE PUSH1 0xA0 DUP4 ADD MSTORE ISZERO ISZERO PUSH1 0xC0 DUP3 ADD MSTORE PUSH1 0xE0 ADD PUSH2 0x159 JUMP JUMPDEST PUSH1 0x7 SLOAD PUSH1 0x8 SLOAD PUSH1 0x6 SLOAD PUSH1 0x40 DUP1 MLOAD SWAP4 DUP5 MSTORE PUSH1 0x20 DUP5 ADD SWAP3 SWAP1 SWAP3 MSTORE SWAP1 DUP3 ADD MSTORE PUSH1 0x60 ADD PUSH2 0x159 JUMP JUMPDEST PUSH2 0x14F PUSH2 0x3F8 CALLDATASIZE PUSH1 0x4 PUSH2 0x1060 JUMP JUMPDEST PUSH2 0x963 JUMP JUMPDEST PUSH2 0x1E7 PUSH2 0x40B CALLDATASIZE PUSH1 0x4 PUSH2 0xFFA JUMP JUMPDEST PUSH2 0xB89 JUMP JUMPDEST PUSH2 0x14F PUSH2 0x41E CALLDATASIZE PUSH1 0x4 PUSH2 0xFD0 JUMP JUMPDEST PUSH2 0xC02 JUMP JUMPDEST PUSH2 0x14F PUSH1 0x8 SLOAD DUP2 JUMP JUMPDEST PUSH1 0x5 PUSH1 0x20 MSTORE DUP2 PUSH1 0x0 MSTORE PUSH1 0x40 PUSH1 0x0 KECCAK256 DUP2 DUP2 SLOAD DUP2 LT PUSH2 0x448 JUMPI PUSH1 0x0 DUP1 REVERT JUMPDEST SWAP1 PUSH1 0x0 MSTORE PUSH1 0x20 PUSH1 0x0 KECCAK256 ADD PUSH1 0x0 SWAP2 POP SWAP2 POP POP SLOAD DUP2 JUMP JUMPDEST PUSH1 0x1 PUSH1 0x1 PUSH1 0xA0 SHL SUB DUP2 AND PUSH1 0x0 SWAP1 DUP2 MSTORE PUSH1 0x5 PUSH1 0x20 SWAP1 DUP2 MSTORE PUSH1 0x40 SWAP2 DUP3 SWAP1 KECCAK256 DUP1 SLOAD DUP4 MLOAD DUP2 DUP5 MUL DUP2 ADD DUP5 ADD SWAP1 SWAP5 MSTORE DUP1 DUP5 MSTORE PUSH1 0x60 SWAP4 SWAP3 DUP4 ADD DUP3 DUP3 DUP1 ISZERO PUSH2 0x4BD JUMPI PUSH1 0x20 MUL DUP3 ADD SWAP2 SWAP1 PUSH1 0x0 MSTORE PUSH1 0x20 PUSH1 0x0 KECCAK256 SWAP1 JUMPDEST DUP2 SLOAD DUP2 MSTORE PUSH1 0x20 ADD SWAP1 PUSH1 0x1 ADD SWAP1 DUP1 DUP4 GT PUSH2 0x4A9 JUMPI JUMPDEST POP POP POP POP POP SWAP1 POP SWAP2 SWAP1 POP JUMP JUMPDEST PUSH1 0x0 PUSH2 0x4D3 PUSH2 0xD1F JUMP JUMPDEST PUSH1 0x1 PUSH1 0x1 PUSH1 0xA0 SHL SUB DUP4 AND PUSH1 0x0 SWAP1 DUP2 MSTORE PUSH1 0x2 PUSH1 0x20 MSTORE PUSH1 0x40 SWAP1 KECCAK256 SLOAD PUSH1 0xFF AND PUSH2 0x536 JUMPI PUSH1 0x40 MLOAD PUSH3 0x461BCD PUSH1 0xE5 SHL DUP2 MSTORE PUSH1 0x20 PUSH1 0x4 DUP3 ADD MSTORE PUSH1 0x13 PUSH1 0x24 DUP3 ADD MSTORE PUSH19 0x151BDAD95B881B9BDD081CDD5C1C1BDC9D1959 PUSH1 0x6A SHL PUSH1 0x44 DUP3 ADD MSTORE PUSH1 0x64 ADD JUMPDEST PUSH1 0x40 MLOAD DUP1 SWAP2 SUB SWAP1 REVERT JUMPDEST PUSH1 0x0 DUP3 GT PUSH2 0x586 JUMPI PUSH1 0x40 MLOAD PUSH3 0x461BCD PUSH1 0xE5 SHL DUP2 MSTORE PUSH1 0x20 PUSH1 0x4 DUP3 ADD MSTORE PUSH1 0x17 PUSH1 0x24 DUP3 ADD MSTORE PUSH32 0x416D6F756E74206D75737420626520706F736974697665000000000000000000 PUSH1 0x44 DUP3 ADD MSTORE PUSH1 0x64 ADD PUSH2 0x52D JUMP JUMPDEST PUSH1 0x40 MLOAD PUSH4 0x23B872DD PUSH1 0xE0 SHL DUP2 MSTORE CALLER PUSH1 0x4 DUP3 ADD MSTORE ADDRESS PUSH1 0x24 DUP3 ADD MSTORE PUSH1 0x44 DUP2 ADD DUP4 SWAP1 MSTORE PUSH1 0x1 PUSH1 0x1 PUSH1 0xA0 SHL SUB DUP5 AND SWAP1 PUSH4 0x23B872DD SWAP1 PUSH1 0x64 ADD PUSH1 0x20 PUSH1 0x40 MLOAD DUP1 DUP4 SUB DUP2 PUSH1 0x0 DUP8 GAS CALL ISZERO DUP1 ISZERO PUSH2 0x5D9 JUMPI RETURNDATASIZE PUSH1 0x0 DUP1 RETURNDATACOPY RETURNDATASIZE PUSH1 0x0 REVERT JUMPDEST POP POP POP POP PUSH1 0x40 MLOAD RETURNDATASIZE PUSH1 0x1F NOT PUSH1 0x1F DUP3 ADD AND DUP3 ADD DUP1 PUSH1 0x40 MSTORE POP DUP2 ADD SWAP1 PUSH2 0x5FD SWAP2 SWAP1 PUSH2 0x1079 JUMP JUMPDEST POP PUSH1 0x0 PUSH2 0x60A DUP5 DUP5 PUSH2 0xC02 JUMP JUMPDEST PUSH1 0x6 DUP1 SLOAD SWAP2 SWAP3 POP PUSH1 0x0 SWAP2 SWAP1 DUP3 PUSH2 0x61F DUP4 PUSH2 0x10B1 JUMP JUMPDEST SWAP1 SWAP2 SSTORE POP PUSH1 0x40 DUP1 MLOAD PUSH1 0xE0 DUP2 ADD DUP3 MSTORE DUP3 DUP2 MSTORE CALLER PUSH1 0x20 DUP1 DUP4 ADD DUP3 DUP2 MSTORE PUSH1 0x1 PUSH1 0x1 PUSH1 0xA0 SHL SUB DUP12 DUP2 AND DUP6 DUP8 ADD SWAP1 DUP2 MSTORE PUSH1 0x60 DUP7 ADD DUP13 DUP2 MSTORE PUSH1 0x80 DUP8 ADD DUP12 DUP2 MSTORE TIMESTAMP PUSH1 0xA0 DUP10 ADD SWAP1 DUP2 MSTORE PUSH1 0x0 PUSH1 0xC0 DUP11 ADD DUP2 DUP2 MSTORE DUP13 DUP3 MSTORE PUSH1 0x4 DUP1 DUP11 MSTORE DUP13 DUP4 KECCAK256 SWAP12 MLOAD DUP13 SSTORE SWAP8 MLOAD PUSH1 0x1 DUP13 DUP2 ADD DUP1 SLOAD SWAP3 DUP11 AND PUSH1 0x1 PUSH1 0x1 PUSH1 0xA0 SHL SUB NOT SWAP4 DUP5 AND OR SWAP1 SSTORE SWAP7 MLOAD PUSH1 0x2 DUP14 ADD DUP1 SLOAD SWAP2 SWAP1 SWAP10 AND SWAP2 AND OR SWAP1 SWAP7 SSTORE SWAP3 MLOAD PUSH1 0x3 DUP11 ADD SSTORE SWAP1 MLOAD SWAP5 DUP9 ADD SWAP5 SWAP1 SWAP5 SSTORE SWAP3 MLOAD PUSH1 0x5 DUP1 DUP9 ADD SWAP2 SWAP1 SWAP2 SSTORE SWAP2 MLOAD PUSH1 0x6 SWAP1 SWAP7 ADD DUP1 SLOAD SWAP7 ISZERO ISZERO PUSH1 0xFF NOT SWAP1 SWAP8 AND SWAP7 SWAP1 SWAP7 OR SWAP1 SWAP6 SSTORE SWAP3 DUP2 MSTORE SWAP2 DUP2 MSTORE SWAP3 DUP2 KECCAK256 DUP1 SLOAD SWAP3 DUP4 ADD DUP2 SSTORE DUP2 MSTORE SWAP2 DUP3 KECCAK256 ADD DUP3 SWAP1 SSTORE PUSH1 0x7 DUP1 SLOAD SWAP3 SWAP4 POP SWAP1 PUSH2 0x703 DUP4 PUSH2 0x10B1 JUMP JUMPDEST SWAP2 SWAP1 POP SSTORE POP DUP2 PUSH1 0x8 PUSH1 0x0 DUP3 DUP3 SLOAD PUSH2 0x71A SWAP2 SWAP1 PUSH2 0x10CA JUMP JUMPDEST SWAP1 SWAP2 SSTORE POP POP PUSH1 0x40 DUP1 MLOAD DUP6 DUP2 MSTORE PUSH1 0x20 DUP2 ADD DUP5 SWAP1 MSTORE PUSH1 0x1 PUSH1 0x1 PUSH1 0xA0 SHL SUB DUP8 AND SWAP2 CALLER SWAP2 DUP5 SWAP2 PUSH32 0xB1FD4A0105E23455ACC585AC2766343681BBF1A6E4306D3E52F3B3B4DDEED42C SWAP2 ADD PUSH1 0x40 MLOAD DUP1 SWAP2 SUB SWAP1 LOG4 SWAP2 POP POP PUSH2 0x774 PUSH1 0x1 PUSH1 0x0 SSTORE JUMP JUMPDEST SWAP3 SWAP2 POP POP JUMP JUMPDEST PUSH2 0x782 PUSH2 0xD78 JUMP JUMPDEST PUSH1 0x1 PUSH1 0x1 PUSH1 0xA0 SHL SUB SWAP1 SWAP2 AND PUSH1 0x0 SWAP1 DUP2 MSTORE PUSH1 0x2 PUSH1 0x20 SWAP1 DUP2 MSTORE PUSH1 0x40 DUP1 DUP4 KECCAK256 DUP1 SLOAD PUSH1 0xFF NOT AND PUSH1 0x1 OR SWAP1 SSTORE PUSH1 0x3 SWAP1 SWAP2 MSTORE SWAP1 KECCAK256 SSTORE JUMP JUMPDEST PUSH2 0x7BB PUSH2 0xD78 JUMP JUMPDEST PUSH2 0x7C5 PUSH1 0x0 PUSH2 0xDD2 JUMP JUMPDEST JUMP JUMPDEST PUSH2 0x7CF PUSH2 0xD78 JUMP JUMPDEST PUSH1 0x1 PUSH1 0x1 PUSH1 0xA0 SHL SUB AND PUSH1 0x0 SWAP1 DUP2 MSTORE PUSH1 0x2 PUSH1 0x20 SWAP1 DUP2 MSTORE PUSH1 0x40 DUP1 DUP4 KECCAK256 DUP1 SLOAD PUSH1 0xFF NOT AND SWAP1 SSTORE PUSH1 0x3 SWAP1 SWAP2 MSTORE DUP2 KECCAK256 SSTORE JUMP JUMPDEST PUSH2 0x803 PUSH2 0xD78 JUMP JUMPDEST DUP2 PUSH1 0x1 PUSH1 0x1 PUSH1 0xA0 SHL SUB AND PUSH4 0xA9059CBB PUSH2 0x824 PUSH1 0x1 SLOAD PUSH1 0x1 PUSH1 0x1 PUSH1 0xA0 SHL SUB AND SWAP1 JUMP JUMPDEST PUSH1 0x40 MLOAD PUSH1 0x1 PUSH1 0x1 PUSH1 0xE0 SHL SUB NOT PUSH1 0xE0 DUP5 SWAP1 SHL AND DUP2 MSTORE PUSH1 0x1 PUSH1 0x1 PUSH1 0xA0 SHL SUB SWAP1 SWAP2 AND PUSH1 0x4 DUP3 ADD MSTORE PUSH1 0x24 DUP2 ADD DUP5 SWAP1 MSTORE PUSH1 0x44 ADD PUSH1 0x20 PUSH1 0x40 MLOAD DUP1 DUP4 SUB DUP2 PUSH1 0x0 DUP8 GAS CALL ISZERO DUP1 ISZERO PUSH2 0x871 JUMPI RETURNDATASIZE PUSH1 0x0 DUP1 RETURNDATACOPY RETURNDATASIZE PUSH1 0x0 REVERT JUMPDEST POP POP POP POP PUSH1 0x40 MLOAD RETURNDATASIZE PUSH1 0x1F NOT PUSH1 0x1F DUP3 ADD AND DUP3 ADD DUP1 PUSH1 0x40 MSTORE POP DUP2 ADD SWAP1 PUSH2 0x895 SWAP2 SWAP1 PUSH2 0x1079 JUMP JUMPDEST POP POP POP JUMP JUMPDEST PUSH2 0x8EE PUSH1 0x40 MLOAD DUP1 PUSH1 0xE0 ADD PUSH1 0x40 MSTORE DUP1 PUSH1 0x0 DUP2 MSTORE PUSH1 0x20 ADD PUSH1 0x0 PUSH1 0x1 PUSH1 0x1 PUSH1 0xA0 SHL SUB AND DUP2 MSTORE PUSH1 0x20 ADD PUSH1 0x0 PUSH1 0x1 PUSH1 0x1 PUSH1 0xA0 SHL SUB AND DUP2 MSTORE PUSH1 0x20 ADD PUSH1 0x0 DUP2 MSTORE PUSH1 0x20 ADD PUSH1 0x0 DUP2 MSTORE PUSH1 0x20 ADD PUSH1 0x0 DUP2 MSTORE PUSH1 0x20 ADD PUSH1 0x0 ISZERO ISZERO DUP2 MSTORE POP SWAP1 JUMP JUMPDEST POP PUSH1 0x0 SWAP1 DUP2 MSTORE PUSH1 0x4 PUSH1 0x20 DUP2 DUP2 MSTORE PUSH1 0x40 SWAP3 DUP4 SWAP1 KECCAK256 DUP4 MLOAD PUSH1 0xE0 DUP2 ADD DUP6 MSTORE DUP2 SLOAD DUP2 MSTORE PUSH1 0x1 DUP3 ADD SLOAD PUSH1 0x1 PUSH1 0x1 PUSH1 0xA0 SHL SUB SWAP1 DUP2 AND SWAP4 DUP3 ADD SWAP4 SWAP1 SWAP4 MSTORE PUSH1 0x2 DUP3 ADD SLOAD SWAP1 SWAP3 AND SWAP4 DUP3 ADD SWAP4 SWAP1 SWAP4 MSTORE PUSH1 0x3 DUP4 ADD SLOAD PUSH1 0x60 DUP3 ADD MSTORE SWAP1 DUP3 ADD SLOAD PUSH1 0x80 DUP3 ADD MSTORE PUSH1 0x5 DUP3 ADD SLOAD PUSH1 0xA0 DUP3 ADD MSTORE PUSH1 0x6 SWAP1 SWAP2 ADD SLOAD PUSH1 0xFF AND ISZERO ISZERO PUSH1 0xC0 DUP3 ADD MSTORE SWAP1 JUMP JUMPDEST PUSH1 0x0 PUSH2 0x96D PUSH2 0xD78 JUMP JUMPDEST PUSH1 0x6 SLOAD DUP3 LT PUSH2 0x9B3 JUMPI PUSH1 0x40 MLOAD PUSH3 0x461BCD PUSH1 0xE5 SHL DUP2 MSTORE PUSH1 0x20 PUSH1 0x4 DUP3 ADD MSTORE PUSH1 0x12 PUSH1 0x24 DUP3 ADD MSTORE PUSH18 0x125B9D985B1A590819195C1BDCDA5D081251 PUSH1 0x72 SHL PUSH1 0x44 DUP3 ADD MSTORE PUSH1 0x64 ADD PUSH2 0x52D JUMP JUMPDEST PUSH1 0x0 DUP3 DUP2 MSTORE PUSH1 0x4 PUSH1 0x20 MSTORE PUSH1 0x40 SWAP1 KECCAK256 PUSH1 0x6 ADD SLOAD PUSH1 0xFF AND ISZERO PUSH2 0xA09 JUMPI PUSH1 0x40 MLOAD PUSH3 0x461BCD PUSH1 0xE5 SHL DUP2 MSTORE PUSH1 0x20 PUSH1 0x4 DUP3 ADD MSTORE PUSH1 0x11 PUSH1 0x24 DUP3 ADD MSTORE PUSH17 0x105B1C9958591E481C1C9BD8D95CDCD959 PUSH1 0x7A SHL PUSH1 0x44 DUP3 ADD MSTORE PUSH1 0x64 ADD PUSH2 0x52D JUMP JUMPDEST PUSH1 0x0 DUP3 DUP2 MSTORE PUSH1 0x4 PUSH1 0x20 DUP2 SWAP1 MSTORE PUSH1 0x40 DUP1 DUP4 KECCAK256 PUSH1 0x6 DUP2 ADD DUP1 SLOAD PUSH1 0xFF NOT AND PUSH1 0x1 SWAP1 DUP2 OR SWAP1 SWAP2 SSTORE DUP2 ADD SLOAD PUSH1 0x3 DUP3 ADD SLOAD DUP3 DUP6 ADD SLOAD SWAP4 MLOAD PUSH4 0xDF6AC847 PUSH1 0xE0 SHL DUP2 MSTORE PUSH1 0x1 PUSH1 0x1 PUSH1 0xA0 SHL SUB SWAP3 DUP4 AND SWAP6 DUP2 ADD SWAP6 SWAP1 SWAP6 MSTORE PUSH1 0x24 DUP6 ADD MSTORE PUSH1 0x44 DUP5 ADD SWAP3 SWAP1 SWAP3 MSTORE SWAP3 SWAP2 PUSH32 0x0 SWAP1 SWAP2 AND SWAP1 PUSH4 0xDF6AC847 SWAP1 PUSH1 0x64 ADD PUSH1 0x20 PUSH1 0x40 MLOAD DUP1 DUP4 SUB DUP2 PUSH1 0x0 DUP8 GAS CALL ISZERO DUP1 ISZERO PUSH2 0xAB2 JUMPI RETURNDATASIZE PUSH1 0x0 DUP1 RETURNDATACOPY RETURNDATASIZE PUSH1 0x0 REVERT JUMPDEST POP POP POP POP PUSH1 0x40 MLOAD RETURNDATASIZE PUSH1 0x1F NOT PUSH1 0x1F DUP3 ADD AND DUP3 ADD DUP1 PUSH1 0x40 MSTORE POP DUP2 ADD SWAP1 PUSH2 0xAD6 SWAP2 SWAP1 PUSH2 0x10DD JUMP JUMPDEST PUSH1 0x40 DUP1 MLOAD PUSH1 0xE0 DUP2 ADD DUP3 MSTORE DUP5 SLOAD DUP2 MSTORE PUSH1 0x1 DUP6 ADD SLOAD PUSH1 0x1 PUSH1 0x1 PUSH1 0xA0 SHL SUB SWAP1 DUP2 AND PUSH1 0x20 DUP4 ADD MSTORE PUSH1 0x2 DUP7 ADD SLOAD AND SWAP2 DUP2 ADD SWAP2 SWAP1 SWAP2 MSTORE PUSH1 0x3 DUP5 ADD SLOAD PUSH1 0x60 DUP3 ADD MSTORE PUSH1 0x4 DUP5 ADD SLOAD PUSH1 0x80 DUP3 ADD MSTORE PUSH1 0x5 DUP5 ADD SLOAD PUSH1 0xA0 DUP3 ADD MSTORE PUSH1 0x6 DUP5 ADD SLOAD PUSH1 0xFF AND ISZERO ISZERO PUSH1 0xC0 DUP3 ADD MSTORE SWAP1 SWAP2 POP PUSH1 0x0 SWAP1 PUSH2 0xB43 SWAP1 DUP4 PUSH2 0xE24 JUMP JUMPDEST SWAP1 POP DUP5 PUSH32 0x4BA4B720167A4219371EC9AA5BC12A0D7429BBEE941422E03A1EDADC76B50EBD DUP4 DUP4 PUSH1 0x40 MLOAD PUSH2 0xB77 SWAP3 SWAP2 SWAP1 PUSH2 0x111A JUMP JUMPDEST PUSH1 0x40 MLOAD DUP1 SWAP2 SUB SWAP1 LOG2 POP SWAP2 POP POP JUMPDEST SWAP2 SWAP1 POP JUMP JUMPDEST PUSH2 0xB91 PUSH2 0xD78 JUMP JUMPDEST PUSH1 0x1 PUSH1 0x1 PUSH1 0xA0 SHL SUB DUP2 AND PUSH2 0xBF6 JUMPI PUSH1 0x40 MLOAD PUSH3 0x461BCD PUSH1 0xE5 SHL DUP2 MSTORE PUSH1 0x20 PUSH1 0x4 DUP3 ADD MSTORE PUSH1 0x26 PUSH1 0x24 DUP3 ADD MSTORE PUSH32 0x4F776E61626C653A206E6577206F776E657220697320746865207A65726F2061 PUSH1 0x44 DUP3 ADD MSTORE PUSH6 0x646472657373 PUSH1 0xD0 SHL PUSH1 0x64 DUP3 ADD MSTORE PUSH1 0x84 ADD PUSH2 0x52D JUMP JUMPDEST PUSH2 0xBFF DUP2 PUSH2 0xDD2 JUMP JUMPDEST POP JUMP JUMPDEST PUSH1 0x0 DUP1 PUSH32 0x0 PUSH1 0x1 PUSH1 0x1 PUSH1 0xA0 SHL SUB AND PUSH4 0x3A3610BC PUSH1 0x40 MLOAD DUP2 PUSH4 0xFFFFFFFF AND PUSH1 0xE0 SHL DUP2 MSTORE PUSH1 0x4 ADD PUSH1 0x20 PUSH1 0x40 MLOAD DUP1 DUP4 SUB DUP2 DUP7 GAS STATICCALL ISZERO DUP1 ISZERO PUSH2 0xC63 JUMPI RETURNDATASIZE PUSH1 0x0 DUP1 RETURNDATACOPY RETURNDATASIZE PUSH1 0x0 REVERT JUMPDEST POP POP POP POP PUSH1 0x40 MLOAD RETURNDATASIZE PUSH1 0x1F NOT PUSH1 0x1F DUP3 ADD AND DUP3 ADD DUP1 PUSH1 0x40 MSTORE POP DUP2 ADD SWAP1 PUSH2 0xC87 SWAP2 SWAP1 PUSH2 0x10DD JUMP JUMPDEST PUSH1 0x1 PUSH1 0x1 PUSH1 0xA0 SHL SUB DUP6 AND PUSH1 0x0 SWAP1 DUP2 MSTORE PUSH1 0x3 PUSH1 0x20 MSTORE PUSH1 0x40 DUP2 KECCAK256 SLOAD SWAP2 SWAP3 POP DUP2 SWAP1 SUB PUSH2 0xCAE JUMPI POP PUSH1 0x12 JUMPDEST PUSH1 0x0 PUSH2 0xCBB DUP3 PUSH1 0xA PUSH2 0x1238 JUMP JUMPDEST PUSH2 0xCC5 DUP5 DUP8 PUSH2 0x1244 JUMP JUMPDEST PUSH2 0xCCF SWAP2 SWAP1 PUSH2 0x1271 JUMP JUMPDEST PUSH1 0x40 DUP1 MLOAD DUP8 DUP2 MSTORE PUSH1 0x20 DUP2 ADD DUP4 SWAP1 MSTORE SWAP2 SWAP3 POP PUSH1 0x1 PUSH1 0x1 PUSH1 0xA0 SHL SUB DUP9 AND SWAP2 PUSH32 0x5F7A9CC87CFC2EDD3896984872540C526FB600059D1883F5DD59221D968DB52A SWAP2 ADD PUSH1 0x40 MLOAD DUP1 SWAP2 SUB SWAP1 LOG2 SWAP6 SWAP5 POP POP POP POP POP JUMP JUMPDEST PUSH1 0x2 PUSH1 0x0 SLOAD SUB PUSH2 0xD71 JUMPI PUSH1 0x40 MLOAD PUSH3 0x461BCD PUSH1 0xE5 SHL DUP2 MSTORE PUSH1 0x20 PUSH1 0x4 DUP3 ADD MSTORE PUSH1 0x1F PUSH1 0x24 DUP3 ADD MSTORE PUSH32 0x5265656E7472616E637947756172643A207265656E7472616E742063616C6C00 PUSH1 0x44 DUP3 ADD MSTORE PUSH1 0x64 ADD PUSH2 0x52D JUMP JUMPDEST PUSH1 0x2 PUSH1 0x0 SSTORE JUMP JUMPDEST PUSH1 0x1 SLOAD PUSH1 0x1 PUSH1 0x1 PUSH1 0xA0 SHL SUB AND CALLER EQ PUSH2 0x7C5 JUMPI PUSH1 0x40 MLOAD PUSH3 0x461BCD PUSH1 0xE5 SHL DUP2 MSTORE PUSH1 0x20 PUSH1 0x4 DUP3 ADD DUP2 SWAP1 MSTORE PUSH1 0x24 DUP3 ADD MSTORE PUSH32 0x4F776E61626C653A2063616C6C6572206973206E6F7420746865206F776E6572 PUSH1 0x44 DUP3 ADD MSTORE PUSH1 0x64 ADD PUSH2 0x52D JUMP JUMPDEST PUSH1 0x1 DUP1 SLOAD PUSH1 0x1 PUSH1 0x1 PUSH1 0xA0 SHL SUB DUP4 DUP2 AND PUSH1 0x1 PUSH1 0x1 PUSH1 0xA0 SHL SUB NOT DUP4 AND DUP2 OR SWAP1 SWAP4 SSTORE PUSH1 0x40 MLOAD SWAP2 AND SWAP2 SWAP1 DUP3 SWAP1 PUSH32 0x8BE0079C531659141344CD1FD0A4F28419497F9722A3DAAFE3B4186F6B6457E0 SWAP1 PUSH1 0x0 SWAP1 LOG3 POP POP JUMP JUMPDEST PUSH1 0x60 PUSH2 0xE33 DUP4 PUSH1 0x0 ADD MLOAD PUSH2 0xE9C JUMP JUMPDEST PUSH2 0xE3C DUP4 PUSH2 0xE9C JUMP JUMPDEST PUSH2 0xE49 DUP6 PUSH1 0x20 ADD MLOAD PUSH2 0xFA5 JUMP JUMPDEST PUSH2 0xE56 DUP7 PUSH1 0x40 ADD MLOAD PUSH2 0xFA5 JUMP JUMPDEST PUSH2 0xE63 DUP8 PUSH1 0x60 ADD MLOAD PUSH2 0xE9C JUMP JUMPDEST PUSH2 0xE70 DUP9 PUSH1 0x80 ADD MLOAD PUSH2 0xE9C JUMP JUMPDEST PUSH1 0x40 MLOAD PUSH1 0x20 ADD PUSH2 0xE85 SWAP7 SWAP6 SWAP5 SWAP4 SWAP3 SWAP2 SWAP1 PUSH2 0x12A1 JUMP JUMPDEST PUSH1 0x40 MLOAD PUSH1 0x20 DUP2 DUP4 SUB SUB DUP2 MSTORE SWAP1 PUSH1 0x40 MSTORE SWAP1 POP SWAP3 SWAP2 POP POP JUMP JUMPDEST PUSH1 0x60 DUP2 PUSH1 0x0 SUB PUSH2 0xEC3 JUMPI POP POP PUSH1 0x40 DUP1 MLOAD DUP1 DUP3 ADD SWAP1 SWAP2 MSTORE PUSH1 0x1 DUP2 MSTORE PUSH1 0x3 PUSH1 0xFC SHL PUSH1 0x20 DUP3 ADD MSTORE SWAP1 JUMP JUMPDEST DUP2 PUSH1 0x0 JUMPDEST DUP2 ISZERO PUSH2 0xEED JUMPI DUP1 PUSH2 0xED7 DUP2 PUSH2 0x10B1 JUMP JUMPDEST SWAP2 POP PUSH2 0xEE6 SWAP1 POP PUSH1 0xA DUP4 PUSH2 0x1271 JUMP JUMPDEST SWAP2 POP PUSH2 0xEC7 JUMP JUMPDEST PUSH1 0x0 DUP2 PUSH8 0xFFFFFFFFFFFFFFFF DUP2 GT ISZERO PUSH2 0xF08 JUMPI PUSH2 0xF08 PUSH2 0x1416 JUMP JUMPDEST PUSH1 0x40 MLOAD SWAP1 DUP1 DUP3 MSTORE DUP1 PUSH1 0x1F ADD PUSH1 0x1F NOT AND PUSH1 0x20 ADD DUP3 ADD PUSH1 0x40 MSTORE DUP1 ISZERO PUSH2 0xF32 JUMPI PUSH1 0x20 DUP3 ADD DUP2 DUP1 CALLDATASIZE DUP4 CALLDATACOPY ADD SWAP1 POP JUMPDEST POP SWAP1 POP JUMPDEST DUP5 ISZERO PUSH2 0xF9D JUMPI PUSH2 0xF47 PUSH1 0x1 DUP4 PUSH2 0x142C JUMP JUMPDEST SWAP2 POP PUSH2 0xF54 PUSH1 0xA DUP7 PUSH2 0x143F JUMP JUMPDEST PUSH2 0xF5F SWAP1 PUSH1 0x30 PUSH2 0x10CA JUMP JUMPDEST PUSH1 0xF8 SHL DUP2 DUP4 DUP2 MLOAD DUP2 LT PUSH2 0xF74 JUMPI PUSH2 0xF74 PUSH2 0x1453 JUMP JUMPDEST PUSH1 0x20 ADD ADD SWAP1 PUSH1 0x1 PUSH1 0x1 PUSH1 0xF8 SHL SUB NOT AND SWAP1 DUP2 PUSH1 0x0 BYTE SWAP1 MSTORE8 POP PUSH2 0xF96 PUSH1 0xA DUP7 PUSH2 0x1271 JUMP JUMPDEST SWAP5 POP PUSH2 0xF36 JUMP JUMPDEST SWAP5 SWAP4 POP POP POP POP JUMP JUMPDEST PUSH1 0x60 PUSH2 0x774 DUP3 PUSH1 0x1 PUSH1 0x1 PUSH1 0xA0 SHL SUB AND PUSH2 0xE9C JUMP JUMPDEST DUP1 CALLDATALOAD PUSH1 0x1 PUSH1 0x1 PUSH1 0xA0 SHL SUB DUP2 AND DUP2 EQ PUSH2 0xB84 JUMPI PUSH1 0x0 DUP1 REVERT JUMPDEST PUSH1 0x0 DUP1 PUSH1 0x40 DUP4 DUP6 SUB SLT ISZERO PUSH2 0xFE3 JUMPI PUSH1 0x0 DUP1 REVERT JUMPDEST PUSH2 0xFEC DUP4 PUSH2 0xFB9 JUMP JUMPDEST SWAP5 PUSH1 0x20 SWAP4 SWAP1 SWAP4 ADD CALLDATALOAD SWAP4 POP POP POP JUMP JUMPDEST PUSH1 0x0 PUSH1 0x20 DUP3 DUP5 SUB SLT ISZERO PUSH2 0x100C JUMPI PUSH1 0x0 DUP1 REVERT JUMPDEST PUSH2 0x1015 DUP3 PUSH2 0xFB9 JUMP JUMPDEST SWAP4 SWAP3 POP POP POP JUMP JUMPDEST PUSH1 0x20 DUP1 DUP3 MSTORE DUP3 MLOAD DUP3 DUP3 ADD DUP2 SWAP1 MSTORE PUSH1 0x0 SWAP2 SWAP1 DUP5 DUP3 ADD SWAP1 PUSH1 0x40 DUP6 ADD SWAP1 DUP5 JUMPDEST DUP2 DUP2 LT ISZERO PUSH2 0x1054 JUMPI DUP4 MLOAD DUP4 MSTORE SWAP3 DUP5 ADD SWAP3 SWAP2 DUP5 ADD SWAP2 PUSH1 0x1 ADD PUSH2 0x1038 JUMP JUMPDEST POP SWAP1 SWAP7 SWAP6 POP POP POP POP POP POP JUMP JUMPDEST PUSH1 0x0 PUSH1 0x20 DUP3 DUP5 SUB SLT ISZERO PUSH2 0x1072 JUMPI PUSH1 0x0 DUP1 REVERT JUMPDEST POP CALLDATALOAD SWAP2 SWAP1 POP JUMP JUMPDEST PUSH1 0x0 PUSH1 0x20 DUP3 DUP5 SUB SLT ISZERO PUSH2 0x108B JUMPI PUSH1 0x0 DUP1 REVERT JUMPDEST DUP2 MLOAD DUP1 ISZERO ISZERO DUP2 EQ PUSH2 0x1015 JUMPI PUSH1 0x0 DUP1 REVERT JUMPDEST PUSH4 0x4E487B71 PUSH1 0xE0 SHL PUSH1 0x0 MSTORE PUSH1 0x11 PUSH1 0x4 MSTORE PUSH1 0x24 PUSH1 0x0 REVERT JUMPDEST PUSH1 0x0 PUSH1 0x1 DUP3 ADD PUSH2 0x10C3 JUMPI PUSH2 0x10C3 PUSH2 0x109B JUMP JUMPDEST POP PUSH1 0x1 ADD SWAP1 JUMP JUMPDEST DUP1 DUP3 ADD DUP1 DUP3 GT ISZERO PUSH2 0x774 JUMPI PUSH2 0x774 PUSH2 0x109B JUMP JUMPDEST PUSH1 0x0 PUSH1 0x20 DUP3 DUP5 SUB SLT ISZERO PUSH2 0x10EF JUMPI PUSH1 0x0 DUP1 REVERT JUMPDEST POP MLOAD SWAP2 SWAP1 POP JUMP JUMPDEST PUSH1 0x0 JUMPDEST DUP4 DUP2 LT ISZERO PUSH2 0x1111 JUMPI DUP2 DUP2 ADD MLOAD DUP4 DUP3 ADD MSTORE PUSH1 0x20 ADD PUSH2 0x10F9 JUMP JUMPDEST POP POP PUSH1 0x0 SWAP2 ADD MSTORE JUMP JUMPDEST DUP3 DUP2 MSTORE PUSH1 0x40 PUSH1 0x20 DUP3 ADD MSTORE PUSH1 0x0 DUP3 MLOAD DUP1 PUSH1 0x40 DUP5 ADD MSTORE PUSH2 0x113F DUP2 PUSH1 0x60 DUP6 ADD PUSH1 0x20 DUP8 ADD PUSH2 0x10F6 JUMP JUMPDEST PUSH1 0x1F ADD PUSH1 0x1F NOT AND SWAP2 SWAP1 SWAP2 ADD PUSH1 0x60 ADD SWAP4 SWAP3 POP POP POP JUMP JUMPDEST PUSH1 0x1 DUP2 DUP2 JUMPDEST DUP1 DUP6 GT ISZERO PUSH2 0x118F JUMPI DUP2 PUSH1 0x0 NOT DIV DUP3 GT ISZERO PUSH2 0x1175 JUMPI PUSH2 0x1175 PUSH2 0x109B JUMP JUMPDEST DUP1 DUP6 AND ISZERO PUSH2 0x1182 JUMPI SWAP2 DUP2 MUL SWAP2 JUMPDEST SWAP4 DUP5 SHR SWAP4 SWAP1 DUP1 MUL SWAP1 PUSH2 0x1159 JUMP JUMPDEST POP SWAP3 POP SWAP3 SWAP1 POP JUMP JUMPDEST PUSH1 0x0 DUP3 PUSH2 0x11A6 JUMPI POP PUSH1 0x1 PUSH2 0x774 JUMP JUMPDEST DUP2 PUSH2 0x11B3 JUMPI POP PUSH1 0x0 PUSH2 0x774 JUMP JUMPDEST DUP2 PUSH1 0x1 DUP2 EQ PUSH2 0x11C9 JUMPI PUSH1 0x2 DUP2 EQ PUSH2 0x11D3 JUMPI PUSH2 0x11EF JUMP JUMPDEST PUSH1 0x1 SWAP2 POP POP PUSH2 0x774 JUMP JUMPDEST PUSH1 0xFF DUP5 GT ISZERO PUSH2 0x11E4 JUMPI PUSH2 0x11E4 PUSH2 0x109B JUMP JUMPDEST POP POP PUSH1 0x1 DUP3 SHL PUSH2 0x774 JUMP JUMPDEST POP PUSH1 0x20 DUP4 LT PUSH2 0x133 DUP4 LT AND PUSH1 0x4E DUP5 LT PUSH1 0xB DUP5 LT AND OR ISZERO PUSH2 0x1212 JUMPI POP DUP2 DUP2 EXP PUSH2 0x774 JUMP JUMPDEST PUSH2 0x121C DUP4 DUP4 PUSH2 0x1154 JUMP JUMPDEST DUP1 PUSH1 0x0 NOT DIV DUP3 GT ISZERO PUSH2 0x1230 JUMPI PUSH2 0x1230 PUSH2 0x109B JUMP JUMPDEST MUL SWAP4 SWAP3 POP POP POP JUMP JUMPDEST PUSH1 0x0 PUSH2 0x1015 DUP4 DUP4 PUSH2 0x1197 JUMP JUMPDEST DUP1 DUP3 MUL DUP2 ISZERO DUP3 DUP3 DIV DUP5 EQ OR PUSH2 0x774 JUMPI PUSH2 0x774 PUSH2 0x109B JUMP JUMPDEST PUSH4 0x4E487B71 PUSH1 0xE0 SHL PUSH1 0x0 MSTORE PUSH1 0x12 PUSH1 0x4 MSTORE PUSH1 0x24 PUSH1 0x0 REVERT JUMPDEST PUSH1 0x0 DUP3 PUSH2 0x1280 JUMPI PUSH2 0x1280 PUSH2 0x125B JUMP JUMPDEST POP DIV SWAP1 JUMP JUMPDEST PUSH1 0x0 DUP2 MLOAD PUSH2 0x1297 DUP2 DUP6 PUSH1 0x20 DUP7 ADD PUSH2 0x10F6 JUMP JUMPDEST SWAP3 SWAP1 SWAP3 ADD SWAP3 SWAP2 POP POP JUMP JUMPDEST PUSH32 0x7B2274797065223A226272696467655F65786563757465222C00000000000000 DUP2 MSTORE PUSH12 0x113232B837B9B4BA24B2111D PUSH1 0xA1 SHL PUSH1 0x19 DUP3 ADD MSTORE DUP7 MLOAD PUSH1 0x0 SWAP1 PUSH2 0x12EF DUP2 PUSH1 0x25 DUP6 ADD PUSH1 0x20 DUP13 ADD PUSH2 0x10F6 JUMP JUMPDEST PUSH1 0xB PUSH1 0xFA SHL PUSH1 0x25 SWAP2 DUP5 ADD SWAP2 DUP3 ADD DUP2 SWAP1 MSTORE PUSH15 0x1130B1BA34BB30BA34B7B724B2111D PUSH1 0x89 SHL PUSH1 0x26 DUP4 ADD MSTORE DUP9 MLOAD PUSH2 0x132A DUP2 PUSH1 0x35 DUP6 ADD PUSH1 0x20 DUP14 ADD PUSH2 0x10F6 JUMP JUMPDEST PUSH1 0x35 SWAP3 ADD SWAP2 DUP3 ADD MSTORE PUSH8 0x113AB9B2B9111D11 PUSH1 0xC1 SHL PUSH1 0x36 DUP3 ADD MSTORE DUP7 MLOAD PUSH2 0x1356 DUP2 PUSH1 0x3E DUP5 ADD PUSH1 0x20 DUP12 ADD PUSH2 0x10F6 JUMP JUMPDEST PUSH2 0x1408 PUSH2 0x13FB PUSH2 0x13F5 PUSH2 0x13D9 PUSH2 0x13CC PUSH2 0x13C6 PUSH2 0x13B1 PUSH2 0x13A3 PUSH2 0x139D PUSH2 0x1388 PUSH1 0x3E DUP12 DUP14 ADD ADD PUSH2 0x88B PUSH1 0xF2 SHL DUP2 MSTORE PUSH1 0x2 ADD SWAP1 JUMP JUMPDEST PUSH9 0x113A37B5B2B7111D11 PUSH1 0xB9 SHL DUP2 MSTORE PUSH1 0x9 ADD SWAP1 JUMP JUMPDEST DUP16 PUSH2 0x1285 JUMP JUMPDEST PUSH2 0x88B PUSH1 0xF2 SHL DUP2 MSTORE PUSH1 0x2 ADD SWAP1 JUMP JUMPDEST PUSH9 0x1130B6B7BAB73A111D PUSH1 0xB9 SHL DUP2 MSTORE PUSH1 0x9 ADD SWAP1 JUMP JUMPDEST DUP12 PUSH2 0x1285 JUMP JUMPDEST PUSH1 0xB PUSH1 0xFA SHL DUP2 MSTORE PUSH1 0x1 ADD SWAP1 JUMP JUMPDEST PUSH16 0x11313A31A2B8BAB4BB30B632B73A111D PUSH1 0x81 SHL DUP2 MSTORE PUSH1 0x10 ADD SWAP1 JUMP JUMPDEST DUP8 PUSH2 0x1285 JUMP JUMPDEST PUSH1 0x7D PUSH1 0xF8 SHL DUP2 MSTORE PUSH1 0x1 ADD SWAP1 JUMP JUMPDEST SWAP11 SWAP10 POP POP POP POP POP POP POP POP POP POP JUMP JUMPDEST PUSH4 0x4E487B71 PUSH1 0xE0 SHL PUSH1 0x0 MSTORE PUSH1 0x41 PUSH1 0x4 MSTORE PUSH1 0x24 PUSH1 0x0 REVERT JUMPDEST DUP2 DUP2 SUB DUP2 DUP2 GT ISZERO PUSH2 0x774 JUMPI PUSH2 0x774 PUSH2 0x109B JUMP JUMPDEST PUSH1 0x0 DUP3 PUSH2 0x144E JUMPI PUSH2 0x144E PUSH2 0x125B JUMP JUMPDEST POP MOD SWAP1 JUMP JUMPDEST PUSH4 0x4E487B71 PUSH1 0xE0 SHL PUSH1 0x0 MSTORE PUSH1 0x32 PUSH1 0x4 MSTORE PUSH1 0x24 PUSH1 0x0 REVERT INVALID LOG2 PUSH5 0x6970667358 0x22 SLT KECCAK256 0xE0 0xA9 MOD SHL 0xB7 0xEC KECCAK256 ADDMOD LT 0xA6 0x1E 0x4D 0xB5 0xED 0xE5 0xD9 SUB 0xF7 LOG0 OR NUMBER 0xEB 0xE5 0xF6 0xD6 MLOAD ADD 0xC2 0x4E 0x1F SWAP14 PUSH7 0x64736F6C634300 ADDMOD SGT STOP CALLER "},"methodIdentifiers":{"addSupportedToken(address,uint256)":"4d8e3d3b","calculateBtcEquivalent(address,uint256)":"fb8c4528","createIntent(uint256)":"ca56a821","deposit(address,uint256)":"47e7ef24","depositManager()":"6c7ac9d8","deposits(uint256)":"b02c43d0","emergencyWithdraw(address,uint256)":"95ccea67","getDeposit(uint256)":"9f9fb968","getStats()":"c59d4847","getUserDeposits(address)":"2a5bf6d2","nextDepositId()":"8070a4bd","owner()":"8da5cb5b","priceOracle()":"2630c12f","removeSupportedToken(address)":"76319190","renounceOwnership()":"715018a6","supportedTokens(address)":"68c4ac26","tokenDecimals(address)":"8ee573ac","totalBtcEquivalent()":"ff6f4a7a","totalDeposits()":"7d882097","transferOwnership(address)":"f2fde38b","userDeposits(address,uint256)":"08f43333"}}}}}