{
  "_format": "hh-sol-artifact-1",
  "contractName": "XMBLToken",
  "sourceName": "contracts/XMBLToken.sol",
  "abi": [
    {
      "inputs": [
        {
          "internalType": "string",
          "name": "name",
          "type": "string"
        },
        {
          "internalType": "string",
          "name": "symbol",
          "type": "string"
        },
        {
          "internalType": "address",
          "name": "_erc6551Registry",
          "type": "address"
        },
        {
          "internalType": "address",
          "name": "_tbaImplementation",
          "type": "address"
        }
      ],
      "stateMutability": "nonpayable",
      "type": "constructor"
    },
    {
      "anonymous": false,
      "inputs": [
        {
          "indexed": true,
          "internalType": "address",
          "name": "owner",
          "type": "address"
        },
        {
          "indexed": true,
          "internalType": "address",
          "name": "approved",
          "type": "address"
        },
        {
          "indexed": true,
          "internalType": "uint256",
          "name": "tokenId",
          "type": "uint256"
        }
      ],
      "name": "Approval",
      "type": "event"
    },
    {
      "anonymous": false,
      "inputs": [
        {
          "indexed": true,
          "internalType": "address",
          "name": "owner",
          "type": "address"
        },
        {
          "indexed": true,
          "internalType": "address",
          "name": "operator",
          "type": "address"
        },
        {
          "indexed": false,
          "internalType": "bool",
          "name": "approved",
          "type": "bool"
        }
      ],
      "name": "ApprovalForAll",
      "type": "event"
    },
    {
      "anonymous": false,
      "inputs": [
        {
          "indexed": true,
          "internalType": "address",
          "name": "oldDistributor",
          "type": "address"
        },
        {
          "indexed": true,
          "internalType": "address",
          "name": "newDistributor",
          "type": "address"
        }
      ],
      "name": "DividendDistributorUpdated",
      "type": "event"
    },
    {
      "anonymous": false,
      "inputs": [
        {
          "indexed": true,
          "internalType": "address",
          "name": "oldMinter",
          "type": "address"
        },
        {
          "indexed": true,
          "internalType": "address",
          "name": "newMinter",
          "type": "address"
        }
      ],
      "name": "MinterUpdated",
      "type": "event"
    },
    {
      "anonymous": false,
      "inputs": [
        {
          "indexed": false,
          "internalType": "address",
          "name": "account",
          "type": "address"
        }
      ],
      "name": "Paused",
      "type": "event"
    },
    {
      "anonymous": false,
      "inputs": [
        {
          "indexed": true,
          "internalType": "bytes32",
          "name": "role",
          "type": "bytes32"
        },
        {
          "indexed": true,
          "internalType": "bytes32",
          "name": "previousAdminRole",
          "type": "bytes32"
        },
        {
          "indexed": true,
          "internalType": "bytes32",
          "name": "newAdminRole",
          "type": "bytes32"
        }
      ],
      "name": "RoleAdminChanged",
      "type": "event"
    },
    {
      "anonymous": false,
      "inputs": [
        {
          "indexed": true,
          "internalType": "bytes32",
          "name": "role",
          "type": "bytes32"
        },
        {
          "indexed": true,
          "internalType": "address",
          "name": "account",
          "type": "address"
        },
        {
          "indexed": true,
          "internalType": "address",
          "name": "sender",
          "type": "address"
        }
      ],
      "name": "RoleGranted",
      "type": "event"
    },
    {
      "anonymous": false,
      "inputs": [
        {
          "indexed": true,
          "internalType": "bytes32",
          "name": "role",
          "type": "bytes32"
        },
        {
          "indexed": true,
          "internalType": "address",
          "name": "account",
          "type": "address"
        },
        {
          "indexed": true,
          "internalType": "address",
          "name": "sender",
          "type": "address"
        }
      ],
      "name": "RoleRevoked",
      "type": "event"
    },
    {
      "anonymous": false,
      "inputs": [
        {
          "indexed": true,
          "internalType": "uint256",
          "name": "tokenId",
          "type": "uint256"
        },
        {
          "indexed": true,
          "internalType": "address",
          "name": "account",
          "type": "address"
        },
        {
          "indexed": true,
          "internalType": "address",
          "name": "owner",
          "type": "address"
        }
      ],
      "name": "TokenBoundAccountCreated",
      "type": "event"
    },
    {
      "anonymous": false,
      "inputs": [
        {
          "indexed": true,
          "internalType": "uint256",
          "name": "tokenId",
          "type": "uint256"
        },
        {
          "indexed": true,
          "internalType": "address",
          "name": "owner",
          "type": "address"
        }
      ],
      "name": "TokenBurned",
      "type": "event"
    },
    {
      "anonymous": false,
      "inputs": [
        {
          "indexed": true,
          "internalType": "address",
          "name": "from",
          "type": "address"
        },
        {
          "indexed": true,
          "internalType": "address",
          "name": "to",
          "type": "address"
        },
        {
          "indexed": true,
          "internalType": "uint256",
          "name": "tokenId",
          "type": "uint256"
        }
      ],
      "name": "Transfer",
      "type": "event"
    },
    {
      "anonymous": false,
      "inputs": [
        {
          "indexed": false,
          "internalType": "bool",
          "name": "enabled",
          "type": "bool"
        }
      ],
      "name": "TransfersToggled",
      "type": "event"
    },
    {
      "anonymous": false,
      "inputs": [
        {
          "indexed": false,
          "internalType": "address",
          "name": "account",
          "type": "address"
        }
      ],
      "name": "Unpaused",
      "type": "event"
    },
    {
      "inputs": [],
      "name": "DEFAULT_ADMIN_ROLE",
      "outputs": [
        {
          "internalType": "bytes32",
          "name": "",
          "type": "bytes32"
        }
      ],
      "stateMutability": "view",
      "type": "function"
    },
    {
      "inputs": [],
      "name": "MINTER_ROLE",
      "outputs": [
        {
          "internalType": "bytes32",
          "name": "",
          "type": "bytes32"
        }
      ],
      "stateMutability": "view",
      "type": "function"
    },
    {
      "inputs": [
        {
          "internalType": "uint256",
          "name": "tokenId",
          "type": "uint256"
        },
        {
          "internalType": "string",
          "name": "protocol",
          "type": "string"
        },
        {
          "internalType": "string",
          "name": "asset",
          "type": "string"
        },
        {
          "internalType": "uint256",
          "name": "amount",
          "type": "uint256"
        }
      ],
      "name": "addTBAPosition",
      "outputs": [],
      "stateMutability": "nonpayable",
      "type": "function"
    },
    {
      "inputs": [
        {
          "internalType": "address",
          "name": "to",
          "type": "address"
        },
        {
          "internalType": "uint256",
          "name": "tokenId",
          "type": "uint256"
        }
      ],
      "name": "approve",
      "outputs": [],
      "stateMutability": "nonpayable",
      "type": "function"
    },
    {
      "inputs": [
        {
          "internalType": "address",
          "name": "owner",
          "type": "address"
        }
      ],
      "name": "balanceOf",
      "outputs": [
        {
          "internalType": "uint256",
          "name": "",
          "type": "uint256"
        }
      ],
      "stateMutability": "view",
      "type": "function"
    },
    {
      "inputs": [
        {
          "internalType": "address[]",
          "name": "recipients",
          "type": "address[]"
        },
        {
          "internalType": "uint256[]",
          "name": "depositValues",
          "type": "uint256[]"
        },
        {
          "internalType": "address[]",
          "name": "tokenAddresses",
          "type": "address[]"
        }
      ],
      "name": "batchMintWithTBA",
      "outputs": [
        {
          "internalType": "uint256[]",
          "name": "",
          "type": "uint256[]"
        }
      ],
      "stateMutability": "nonpayable",
      "type": "function"
    },
    {
      "inputs": [
        {
          "internalType": "uint256",
          "name": "tokenId",
          "type": "uint256"
        }
      ],
      "name": "burn",
      "outputs": [],
      "stateMutability": "nonpayable",
      "type": "function"
    },
    {
      "inputs": [],
      "name": "erc6551Registry",
      "outputs": [
        {
          "internalType": "address",
          "name": "",
          "type": "address"
        }
      ],
      "stateMutability": "view",
      "type": "function"
    },
    {
      "inputs": [
        {
          "internalType": "uint256",
          "name": "tokenId",
          "type": "uint256"
        },
        {
          "internalType": "address",
          "name": "target",
          "type": "address"
        },
        {
          "internalType": "uint256",
          "name": "value",
          "type": "uint256"
        },
        {
          "internalType": "bytes",
          "name": "data",
          "type": "bytes"
        }
      ],
      "name": "executeTBACall",
      "outputs": [
        {
          "internalType": "bytes",
          "name": "",
          "type": "bytes"
        }
      ],
      "stateMutability": "nonpayable",
      "type": "function"
    },
    {
      "inputs": [
        {
          "internalType": "uint256",
          "name": "tokenId",
          "type": "uint256"
        }
      ],
      "name": "getApproved",
      "outputs": [
        {
          "internalType": "address",
          "name": "",
          "type": "address"
        }
      ],
      "stateMutability": "view",
      "type": "function"
    },
    {
      "inputs": [
        {
          "internalType": "uint256[]",
          "name": "tokenIds",
          "type": "uint256[]"
        }
      ],
      "name": "getBatchNFTData",
      "outputs": [
        {
          "components": [
            {
              "internalType": "uint256",
              "name": "depositValue",
              "type": "uint256"
            },
            {
              "internalType": "address",
              "name": "tokenAddress",
              "type": "address"
            },
            {
              "internalType": "address",
              "name": "tbaAddress",
              "type": "address"
            },
            {
              "internalType": "address",
              "name": "owner",
              "type": "address"
            },
            {
              "internalType": "uint256",
              "name": "createdAt",
              "type": "uint256"
            }
          ],
          "internalType": "struct XMBLToken.NFTData[]",
          "name": "",
          "type": "tuple[]"
        }
      ],
      "stateMutability": "view",
      "type": "function"
    },
    {
      "inputs": [
        {
          "internalType": "uint256",
          "name": "tokenId",
          "type": "uint256"
        }
      ],
      "name": "getNFTData",
      "outputs": [
        {
          "components": [
            {
              "internalType": "uint256",
              "name": "depositValue",
              "type": "uint256"
            },
            {
              "internalType": "address",
              "name": "tokenAddress",
              "type": "address"
            },
            {
              "internalType": "address",
              "name": "tbaAddress",
              "type": "address"
            },
            {
              "internalType": "address",
              "name": "owner",
              "type": "address"
            },
            {
              "internalType": "uint256",
              "name": "createdAt",
              "type": "uint256"
            }
          ],
          "internalType": "struct XMBLToken.NFTData",
          "name": "",
          "type": "tuple"
        }
      ],
      "stateMutability": "view",
      "type": "function"
    },
    {
      "inputs": [
        {
          "internalType": "bytes32",
          "name": "role",
          "type": "bytes32"
        }
      ],
      "name": "getRoleAdmin",
      "outputs": [
        {
          "internalType": "bytes32",
          "name": "",
          "type": "bytes32"
        }
      ],
      "stateMutability": "view",
      "type": "function"
    },
    {
      "inputs": [
        {
          "internalType": "uint256",
          "name": "tokenId",
          "type": "uint256"
        }
      ],
      "name": "getTokenBoundAccount",
      "outputs": [
        {
          "internalType": "address",
          "name": "",
          "type": "address"
        }
      ],
      "stateMutability": "view",
      "type": "function"
    },
    {
      "inputs": [
        {
          "internalType": "address",
          "name": "user",
          "type": "address"
        }
      ],
      "name": "getUserPortfolio",
      "outputs": [
        {
          "components": [
            {
              "internalType": "uint256[]",
              "name": "tokenIds",
              "type": "uint256[]"
            },
            {
              "components": [
                {
                  "internalType": "uint256",
                  "name": "depositValue",
                  "type": "uint256"
                },
                {
                  "internalType": "address",
                  "name": "tokenAddress",
                  "type": "address"
                },
                {
                  "internalType": "address",
                  "name": "tbaAddress",
                  "type": "address"
                },
                {
                  "internalType": "address",
                  "name": "owner",
                  "type": "address"
                },
                {
                  "internalType": "uint256",
                  "name": "createdAt",
                  "type": "uint256"
                }
              ],
              "internalType": "struct XMBLToken.NFTData[]",
              "name": "nftData",
              "type": "tuple[]"
            },
            {
              "internalType": "uint256",
              "name": "totalDepositValue",
              "type": "uint256"
            }
          ],
          "internalType": "struct XMBLToken.Portfolio",
          "name": "",
          "type": "tuple"
        }
      ],
      "stateMutability": "view",
      "type": "function"
    },
    {
      "inputs": [
        {
          "internalType": "address",
          "name": "user",
          "type": "address"
        }
      ],
      "name": "getUserTokens",
      "outputs": [
        {
          "internalType": "uint256[]",
          "name": "",
          "type": "uint256[]"
        }
      ],
      "stateMutability": "view",
      "type": "function"
    },
    {
      "inputs": [
        {
          "internalType": "bytes32",
          "name": "role",
          "type": "bytes32"
        },
        {
          "internalType": "address",
          "name": "account",
          "type": "address"
        }
      ],
      "name": "grantRole",
      "outputs": [],
      "stateMutability": "nonpayable",
      "type": "function"
    },
    {
      "inputs": [
        {
          "internalType": "bytes32",
          "name": "role",
          "type": "bytes32"
        },
        {
          "internalType": "address",
          "name": "account",
          "type": "address"
        }
      ],
      "name": "hasRole",
      "outputs": [
        {
          "internalType": "bool",
          "name": "",
          "type": "bool"
        }
      ],
      "stateMutability": "view",
      "type": "function"
    },
    {
      "inputs": [
        {
          "internalType": "address",
          "name": "owner",
          "type": "address"
        },
        {
          "internalType": "address",
          "name": "operator",
          "type": "address"
        }
      ],
      "name": "isApprovedForAll",
      "outputs": [
        {
          "internalType": "bool",
          "name": "",
          "type": "bool"
        }
      ],
      "stateMutability": "view",
      "type": "function"
    },
    {
      "inputs": [
        {
          "internalType": "uint256",
          "name": "tokenId",
          "type": "uint256"
        },
        {
          "internalType": "address",
          "name": "account",
          "type": "address"
        }
      ],
      "name": "isValidTBAOwner",
      "outputs": [
        {
          "internalType": "bool",
          "name": "",
          "type": "bool"
        }
      ],
      "stateMutability": "view",
      "type": "function"
    },
    {
      "inputs": [
        {
          "internalType": "address",
          "name": "to",
          "type": "address"
        },
        {
          "internalType": "uint256",
          "name": "depositValue",
          "type": "uint256"
        },
        {
          "internalType": "address",
          "name": "tokenAddress",
          "type": "address"
        }
      ],
      "name": "mintWithTBA",
      "outputs": [
        {
          "internalType": "uint256",
          "name": "",
          "type": "uint256"
        }
      ],
      "stateMutability": "nonpayable",
      "type": "function"
    },
    {
      "inputs": [],
      "name": "name",
      "outputs": [
        {
          "internalType": "string",
          "name": "",
          "type": "string"
        }
      ],
      "stateMutability": "view",
      "type": "function"
    },
    {
      "inputs": [],
      "name": "nextTokenId",
      "outputs": [
        {
          "internalType": "uint256",
          "name": "",
          "type": "uint256"
        }
      ],
      "stateMutability": "view",
      "type": "function"
    },
    {
      "inputs": [
        {
          "internalType": "uint256",
          "name": "tokenId",
          "type": "uint256"
        }
      ],
      "name": "ownerOf",
      "outputs": [
        {
          "internalType": "address",
          "name": "",
          "type": "address"
        }
      ],
      "stateMutability": "view",
      "type": "function"
    },
    {
      "inputs": [],
      "name": "pause",
      "outputs": [],
      "stateMutability": "nonpayable",
      "type": "function"
    },
    {
      "inputs": [],
      "name": "paused",
      "outputs": [
        {
          "internalType": "bool",
          "name": "",
          "type": "bool"
        }
      ],
      "stateMutability": "view",
      "type": "function"
    },
    {
      "inputs": [
        {
          "internalType": "bytes32",
          "name": "role",
          "type": "bytes32"
        },
        {
          "internalType": "address",
          "name": "account",
          "type": "address"
        }
      ],
      "name": "renounceRole",
      "outputs": [],
      "stateMutability": "nonpayable",
      "type": "function"
    },
    {
      "inputs": [
        {
          "internalType": "bytes32",
          "name": "role",
          "type": "bytes32"
        },
        {
          "internalType": "address",
          "name": "account",
          "type": "address"
        }
      ],
      "name": "revokeRole",
      "outputs": [],
      "stateMutability": "nonpayable",
      "type": "function"
    },
    {
      "inputs": [
        {
          "internalType": "address",
          "name": "from",
          "type": "address"
        },
        {
          "internalType": "address",
          "name": "to",
          "type": "address"
        },
        {
          "internalType": "uint256",
          "name": "tokenId",
          "type": "uint256"
        }
      ],
      "name": "safeTransferFrom",
      "outputs": [],
      "stateMutability": "nonpayable",
      "type": "function"
    },
    {
      "inputs": [
        {
          "internalType": "address",
          "name": "from",
          "type": "address"
        },
        {
          "internalType": "address",
          "name": "to",
          "type": "address"
        },
        {
          "internalType": "uint256",
          "name": "tokenId",
          "type": "uint256"
        },
        {
          "internalType": "bytes",
          "name": "data",
          "type": "bytes"
        }
      ],
      "name": "safeTransferFrom",
      "outputs": [],
      "stateMutability": "nonpayable",
      "type": "function"
    },
    {
      "inputs": [
        {
          "internalType": "address",
          "name": "operator",
          "type": "address"
        },
        {
          "internalType": "bool",
          "name": "approved",
          "type": "bool"
        }
      ],
      "name": "setApprovalForAll",
      "outputs": [],
      "stateMutability": "nonpayable",
      "type": "function"
    },
    {
      "inputs": [
        {
          "internalType": "uint256",
          "name": "tokenId",
          "type": "uint256"
        },
        {
          "internalType": "bool",
          "name": "enabled",
          "type": "bool"
        }
      ],
      "name": "setAutoCompound",
      "outputs": [],
      "stateMutability": "nonpayable",
      "type": "function"
    },
    {
      "inputs": [
        {
          "internalType": "address",
          "name": "newMinter",
          "type": "address"
        }
      ],
      "name": "setMinter",
      "outputs": [],
      "stateMutability": "nonpayable",
      "type": "function"
    },
    {
      "inputs": [
        {
          "internalType": "bytes4",
          "name": "interfaceId",
          "type": "bytes4"
        }
      ],
      "name": "supportsInterface",
      "outputs": [
        {
          "internalType": "bool",
          "name": "",
          "type": "bool"
        }
      ],
      "stateMutability": "view",
      "type": "function"
    },
    {
      "inputs": [],
      "name": "symbol",
      "outputs": [
        {
          "internalType": "string",
          "name": "",
          "type": "string"
        }
      ],
      "stateMutability": "view",
      "type": "function"
    },
    {
      "inputs": [],
      "name": "tbaImplementation",
      "outputs": [
        {
          "internalType": "address",
          "name": "",
          "type": "address"
        }
      ],
      "stateMutability": "view",
      "type": "function"
    },
    {
      "inputs": [
        {
          "internalType": "uint256",
          "name": "index",
          "type": "uint256"
        }
      ],
      "name": "tokenByIndex",
      "outputs": [
        {
          "internalType": "uint256",
          "name": "",
          "type": "uint256"
        }
      ],
      "stateMutability": "view",
      "type": "function"
    },
    {
      "inputs": [
        {
          "internalType": "address",
          "name": "owner",
          "type": "address"
        },
        {
          "internalType": "uint256",
          "name": "index",
          "type": "uint256"
        }
      ],
      "name": "tokenOfOwnerByIndex",
      "outputs": [
        {
          "internalType": "uint256",
          "name": "",
          "type": "uint256"
        }
      ],
      "stateMutability": "view",
      "type": "function"
    },
    {
      "inputs": [
        {
          "internalType": "uint256",
          "name": "tokenId",
          "type": "uint256"
        }
      ],
      "name": "tokenURI",
      "outputs": [
        {
          "internalType": "string",
          "name": "",
          "type": "string"
        }
      ],
      "stateMutability": "view",
      "type": "function"
    },
    {
      "inputs": [],
      "name": "totalSupply",
      "outputs": [
        {
          "internalType": "uint256",
          "name": "",
          "type": "uint256"
        }
      ],
      "stateMutability": "view",
      "type": "function"
    },
    {
      "inputs": [
        {
          "internalType": "address",
          "name": "from",
          "type": "address"
        },
        {
          "internalType": "address",
          "name": "to",
          "type": "address"
        },
        {
          "internalType": "uint256",
          "name": "tokenId",
          "type": "uint256"
        }
      ],
      "name": "transferFrom",
      "outputs": [],
      "stateMutability": "nonpayable",
      "type": "function"
    },
    {
      "inputs": [],
      "name": "unpause",
      "outputs": [],
      "stateMutability": "nonpayable",
      "type": "function"
    },
    {
      "inputs": [
        {
          "internalType": "uint256",
          "name": "tokenId",
          "type": "uint256"
        },
        {
          "internalType": "string",
          "name": "name",
          "type": "string"
        },
        {
          "internalType": "string",
          "name": "description",
          "type": "string"
        }
      ],
      "name": "updateBaseMetadata",
      "outputs": [],
      "stateMutability": "nonpayable",
      "type": "function"
    },
    {
      "inputs": [
        {
          "internalType": "uint256",
          "name": "tokenId",
          "type": "uint256"
        }
      ],
      "name": "updateTBABalance",
      "outputs": [],
      "stateMutability": "nonpayable",
      "type": "function"
    }
  ],
  "bytecode": "0x60c06040523480156200001157600080fd5b506040516200454f3803806200454f8339810160408190526200003491620002e7565b8383600062000044838262000405565b50600162000053828262000405565b5050600b805460ff19169055506001600c556001600160a01b038216620000c15760405162461bcd60e51b815260206004820152601f60248201527f52656769737472792063616e6e6f74206265207a65726f20616464726573730060448201526064015b60405180910390fd5b6001600160a01b038116620001275760405162461bcd60e51b815260206004820152602560248201527f496d706c656d656e746174696f6e2063616e6e6f74206265207a65726f206164604482015264647265737360d81b6064820152608401620000b8565b6001600160a01b03808316608052811660a0526200014760003362000160565b62000156600d80546001019055565b50505050620004d1565b6000828152600a602090815260408083206001600160a01b038516845290915290205460ff1662000201576000828152600a602090815260408083206001600160a01b03851684529091529020805460ff19166001179055620001c03390565b6001600160a01b0316816001600160a01b0316837f2f8788117e7eff1d82e926ec794901d17c78024a50270940304540a733656f0d60405160405180910390a45b5050565b634e487b7160e01b600052604160045260246000fd5b600082601f8301126200022d57600080fd5b81516001600160401b03808211156200024a576200024a62000205565b604051601f8301601f19908116603f0116810190828211818310171562000275576200027562000205565b816040528381526020925086838588010111156200029257600080fd5b600091505b83821015620002b6578582018301518183018401529082019062000297565b600093810190920192909252949350505050565b80516001600160a01b0381168114620002e257600080fd5b919050565b60008060008060808587031215620002fe57600080fd5b84516001600160401b03808211156200031657600080fd5b62000324888389016200021b565b955060208701519150808211156200033b57600080fd5b506200034a878288016200021b565b9350506200035b60408601620002ca565b91506200036b60608601620002ca565b905092959194509250565b600181811c908216806200038b57607f821691505b602082108103620003ac57634e487b7160e01b600052602260045260246000fd5b50919050565b601f8211156200040057600081815260208120601f850160051c81016020861015620003db5750805b601f850160051c820191505b81811015620003fc57828155600101620003e7565b5050505b505050565b81516001600160401b0381111562000421576200042162000205565b620004398162000432845462000376565b84620003b2565b602080601f831160018114620004715760008415620004585750858301515b600019600386901b1c1916600185901b178555620003fc565b600085815260208120601f198616915b82811015620004a25788860151825594840194600190910190840162000481565b5085821015620004c15787850151600019600388901b60f8161c191681555b5050505050600190811b01905550565b60805160a05161403c6200051360003960008181610512015281816123a4015261244e0152600081816102a6015281816123ce0152612495015261403c6000f3fe608060405234801561001057600080fd5b50600436106102745760003560e01c8063519dc8d211610151578063a22cb465116100c3578063d4942fa911610087578063d4942fa91461059b578063d5391393146105bb578063d547741f146105d0578063e80dbe15146105e3578063e985e9c5146105f6578063fca3b5aa1461063257600080fd5b8063a22cb4651461053c578063abb23f5b1461054f578063b88d4fde14610562578063c74dc9a814610575578063c87b56dd1461058857600080fd5b806375794a3c1161011557806375794a3c146104e25780638456cb59146104ea57806391d14854146104f257806395d89b41146105055780639c04b8361461050d578063a217fddf1461053457600080fd5b8063519dc8d21461048b57806354164c811461049e5780635c975abb146104b15780636352211e146104bc57806370a08231146104cf57600080fd5b80632f2ff15d116101ea5780633f4ba83a116101ae5780633f4ba83a146104245780634180271d1461042c578063424090651461043f57806342842e0e1461045257806342966c68146104655780634f6ccce71461047857600080fd5b80632f2ff15d146103b85780632f745c59146103cb578063315edb82146103de57806336568abe146103fe5780633b761d871461041157600080fd5b80630ad4c4f41161023c5780630ad4c4f41461031d5780630bf25ef21461033d57806318160ddd146103505780631edb27e91461036257806323b872dd14610382578063248a9ca31461039557600080fd5b806301ffc9a714610279578063056d5afe146102a157806306fdde03146102e0578063081812fc146102f5578063095ea7b314610308575b600080fd5b61028c610287366004612fca565b610645565b60405190151581526020015b60405180910390f35b6102c87f000000000000000000000000000000000000000000000000000000000000000081565b6040516001600160a01b039091168152602001610298565b6102e8610656565b6040516102989190613037565b6102c861030336600461304a565b6106e8565b61031b610316366004613078565b61070f565b005b61033061032b36600461304a565b610829565b60405161029891906130e4565b61028c61034b3660046130f2565b6108ef565b6008545b604051908152602001610298565b610375610370366004613122565b61093a565b6040516102989190613184565b61031b6103903660046131fe565b610b5d565b6103546103a336600461304a565b6000908152600a602052604090206001015490565b61031b6103c63660046130f2565b610b8e565b6103546103d9366004613078565b610bb3565b6103f16103ec36600461328a565b610c49565b6040516102989190613323565b61031b61040c3660046130f2565b610dec565b61031b61041f366004613377565b610e6a565b61031b610ea7565b61035461043a3660046133a3565b610ebd565b6102e861044d3660046133e5565b610eeb565b61031b6104603660046131fe565b61103d565b61031b61047336600461304a565b611058565b61035461048636600461304a565b61113a565b6103f1610499366004613122565b6111cd565b61031b6104ac36600461304a565b61126e565b600b5460ff1661028c565b6102c86104ca36600461304a565b6112ab565b6103546104dd366004613122565b6112e0565b610354611366565b61031b611376565b61028c6105003660046130f2565b611389565b6102e86113b4565b6102c87f000000000000000000000000000000000000000000000000000000000000000081565b610354600081565b61031b61054a36600461347a565b6113c3565b6102c861055d36600461304a565b6113ce565b61031b610570366004613551565b611411565b61031b6105833660046135f0565b611449565b6102e861059636600461304a565b611486565b6105ae6105a936600461365c565b611614565b604051610298919061369d565b610354600080516020613fe783398151915281565b61031b6105de3660046130f2565b6117cf565b61031b6105f13660046136b0565b6117f4565b61028c610604366004613724565b6001600160a01b03918216600090815260056020908152604080832093909416825291909152205460ff1690565b61031b610640366004613122565b611838565b6000610650826118eb565b92915050565b60606000805461066590613752565b80601f016020809104026020016040519081016040528092919081815260200182805461069190613752565b80156106de5780601f106106b3576101008083540402835291602001916106de565b820191906000526020600020905b8154815290600101906020018083116106c157829003601f168201915b5050505050905090565b60006106f382611910565b506000908152600460205260409020546001600160a01b031690565b600061071a826112ab565b9050806001600160a01b0316836001600160a01b03160361078c5760405162461bcd60e51b815260206004820152602160248201527f4552433732313a20617070726f76616c20746f2063757272656e74206f776e656044820152603960f91b60648201526084015b60405180910390fd5b336001600160a01b03821614806107a857506107a88133610604565b61081a5760405162461bcd60e51b815260206004820152603d60248201527f4552433732313a20617070726f76652063616c6c6572206973206e6f7420746f60448201527f6b656e206f776e6572206f7220617070726f76656420666f7220616c6c0000006064820152608401610783565b6108248383611935565b505050565b6040805160a08101825260008082526020820181905291810182905260608101829052608081019190915261085d826119a3565b6108795760405162461bcd60e51b81526004016107839061378c565b6000828152600e6020908152604091829020825160a0810184528154815260018201546001600160a01b03908116938201939093526002820154831693810193909352600381015490911660608301526004015460808201526108db836112ab565b6001600160a01b0316606082015292915050565b60006108fa836119a3565b6109165760405162461bcd60e51b81526004016107839061378c565b816001600160a01b0316610929846112ab565b6001600160a01b0316149392505050565b61095e60405180606001604052806060815260200160608152602001600081525090565b6000610969836112e0565b90506000816001600160401b03811115610985576109856134a6565b6040519080825280602002602001820160405280156109ae578160200160208202803683370190505b5090506000826001600160401b038111156109cb576109cb6134a6565b604051908082528060200260200182016040528015610a2457816020015b6040805160a0810182526000808252602080830182905292820181905260608201819052608082015282526000199092019101816109e95790505b5090506000805b84811015610b3c576000610a3f8883610bb3565b905080858381518110610a5457610a546137ba565b6020908102919091018101919091526000828152600e8252604090819020815160a0810183528154815260018201546001600160a01b039081169482019490945260028201548416928101929092526003810154909216606082015260049091015460808201528451859084908110610acf57610acf6137ba565b602002602001018190525087848381518110610aed57610aed6137ba565b6020908102919091018101516001600160a01b039092166060909201919091526000828152600e9091526040902054610b2690846137e6565b9250508080610b34906137f9565b915050610a2b565b50604080516060810182529384526020840192909252908201529392505050565b610b6733826119c0565b610b835760405162461bcd60e51b815260040161078390613812565b610824838383611a3f565b6000828152600a6020526040902060010154610ba981611bb0565b6108248383611bba565b6000610bbe836112e0565b8210610c205760405162461bcd60e51b815260206004820152602b60248201527f455243373231456e756d657261626c653a206f776e657220696e646578206f7560448201526a74206f6620626f756e647360a81b6064820152608401610783565b506001600160a01b03919091166000908152600660209081526040808320938352929052205490565b6060600080516020613fe7833981519152610c6381611bb0565b86610c9e5760405162461bcd60e51b815260206004820152600b60248201526a08adae0e8f240c4c2e8c6d60ab1b6044820152606401610783565b8685148015610cac57508683145b610cf05760405162461bcd60e51b8152602060048201526015602482015274082e4e4c2f240d8cadccee8d040dad2e6dac2e8c6d605b1b6044820152606401610783565b6000876001600160401b03811115610d0a57610d0a6134a6565b604051908082528060200260200182016040528015610d33578160200160208202803683370190505b50905060005b88811015610ddf57610db08a8a83818110610d5657610d566137ba565b9050602002016020810190610d6b9190613122565b898984818110610d7d57610d7d6137ba565b90506020020135888885818110610d9657610d966137ba565b9050602002016020810190610dab9190613122565b611c40565b828281518110610dc257610dc26137ba565b602090810291909101015280610dd7816137f9565b915050610d39565b5098975050505050505050565b6001600160a01b0381163314610e5c5760405162461bcd60e51b815260206004820152602f60248201527f416363657373436f6e74726f6c3a2063616e206f6e6c792072656e6f756e636560448201526e103937b632b9903337b91039b2b63360891b6064820152608401610783565b610e668282611e08565b5050565b600080516020613fe7833981519152610e8281611bb0565b610e8b836119a3565b6108245760405162461bcd60e51b81526004016107839061378c565b6000610eb281611bb0565b610eba611e6f565b50565b6000600080516020613fe7833981519152610ed781611bb0565b610ee2858585611c40565b95945050505050565b6060610ef6866119a3565b610f125760405162461bcd60e51b81526004016107839061378c565b33610f1c876112ab565b6001600160a01b031614610f625760405162461bcd60e51b815260206004820152600d60248201526c2737ba1027232a1037bbb732b960991b6044820152606401610783565b6000868152600f60205260409020546001600160a01b031680610fb95760405162461bcd60e51b815260206004820152600f60248201526e151090481b9bdd0818dc99585d1959608a1b6044820152606401610783565b604051639e5d4c4960e01b81526001600160a01b03821690639e5d4c4990610feb90899089908990899060040161385f565b6000604051808303816000875af115801561100a573d6000803e3d6000fd5b505050506040513d6000823e601f3d908101601f1916820160405261103291908101906138a7565b979650505050505050565b61082483838360405180602001604052806000815250611411565b600080516020613fe783398151915261107081611bb0565b611079826119a3565b6110955760405162461bcd60e51b815260040161078390613914565b60006110a0836112ab565b6000848152600e602090815260408083208381556001810180546001600160a01b031990811690915560028201805482169055600382018054821690556004909101849055600f9092529091208054909116905590506110ff83611ec1565b6040516001600160a01b0382169084907f33631bcd0a4d34a7e2c240ab0753d5adfb7284d8ac89dab6876ec785c0cfa0e690600090a3505050565b600061114560085490565b82106111a85760405162461bcd60e51b815260206004820152602c60248201527f455243373231456e756d657261626c653a20676c6f62616c20696e646578206f60448201526b7574206f6620626f756e647360a01b6064820152608401610783565b600882815481106111bb576111bb6137ba565b90600052602060002001549050919050565b606060006111da836112e0565b90506000816001600160401b038111156111f6576111f66134a6565b60405190808252806020026020018201604052801561121f578160200160208202803683370190505b50905060005b82811015611266576112378582610bb3565b828281518110611249576112496137ba565b60209081029190910101528061125e816137f9565b915050611225565b509392505050565b600080516020613fe783398151915261128681611bb0565b61128f826119a3565b610e665760405162461bcd60e51b81526004016107839061378c565b6000818152600260205260408120546001600160a01b0316806106505760405162461bcd60e51b815260040161078390613914565b60006001600160a01b03821661134a5760405162461bcd60e51b815260206004820152602960248201527f4552433732313a2061646472657373207a65726f206973206e6f7420612076616044820152683634b21037bbb732b960b91b6064820152608401610783565b506001600160a01b031660009081526003602052604090205490565b6000611371600d5490565b905090565b600061138181611bb0565b610eba611f64565b6000918252600a602090815260408084206001600160a01b0393909316845291905290205460ff1690565b60606001805461066590613752565b610e66338383611fa1565b60006113d9826119a3565b6113f55760405162461bcd60e51b81526004016107839061378c565b506000908152600f60205260409020546001600160a01b031690565b61141b33836119c0565b6114375760405162461bcd60e51b815260040161078390613812565b6114438484848461206f565b50505050565b600080516020613fe783398151915261146181611bb0565b61146a846119a3565b6114435760405162461bcd60e51b81526004016107839061378c565b6060611491826119a3565b6114ad5760405162461bcd60e51b81526004016107839061378c565b6000828152600e60209081526040808320815160a0810183528154815260018201546001600160a01b0390811694820194909452600282015484169281019290925260038101549092166060820152600490910154608082015290611511846120a2565b6040516020016115219190613967565b60408051601f1981840301815260808301909152604180835290925060009190613f6660208301399050600061156d670de0b6b3a7640000856000015161156891906139b8565b6120a2565b61157a8560200151612134565b6115878660400151612134565b61159487608001516120a2565b6040516020016115a794939291906139cc565b604051602081830303815290604052905060008383836040516020016115cf93929190613b43565b60405160208183030381529060405290506115e98161214a565b6040516020016115f99190613bfc565b60405160208183030381529060405295505050505050919050565b60606000826001600160401b03811115611630576116306134a6565b60405190808252806020026020018201604052801561168957816020015b6040805160a08101825260008082526020808301829052928201819052606082018190526080820152825260001990920191018161164e5790505b50905060005b83811015611266576116b88585838181106116ac576116ac6137ba565b905060200201356119a3565b6116d45760405162461bcd60e51b81526004016107839061378c565b600e60008686848181106116ea576116ea6137ba565b60209081029290920135835250818101929092526040908101600020815160a0810183528154815260018201546001600160a01b039081169482019490945260028201548416928101929092526003810154909216606082015260049091015460808201528251839083908110611763576117636137ba565b602002602001018190525061178f858583818110611783576117836137ba565b905060200201356112ab565b8282815181106117a1576117a16137ba565b60209081029190910101516001600160a01b03909116606090910152806117c7816137f9565b91505061168f565b6000828152600a60205260409020600101546117ea81611bb0565b6108248383611e08565b600080516020613fe783398151915261180c81611bb0565b611815856119a3565b6118315760405162461bcd60e51b81526004016107839061378c565b5050505050565b600061184381611bb0565b6001600160a01b0382166118995760405162461bcd60e51b815260206004820152601d60248201527f4d696e7465722063616e6e6f74206265207a65726f20616464726573730000006044820152606401610783565b6118b1600080516020613fe783398151915283611bba565b6040516001600160a01b038316906000907f1cf2de25c5bf439ac0287061c3a0fa69b3b02867d0ccfd2ded34e42577050b73908290a35050565b60006001600160e01b03198216637965db0b60e01b14806106505750610650826122a9565b611919816119a3565b610eba5760405162461bcd60e51b815260040161078390613914565b600081815260046020526040902080546001600160a01b0319166001600160a01b038416908117909155819061196a826112ab565b6001600160a01b03167f8c5be1e5ebec7d5bd14f71427d1e84f3dd0314c0f7b2291e5b200ac8c7c3b92560405160405180910390a45050565b6000908152600260205260409020546001600160a01b0316151590565b6000806119cc836112ab565b9050806001600160a01b0316846001600160a01b03161480611a1357506001600160a01b0380821660009081526005602090815260408083209388168352929052205460ff165b80611a375750836001600160a01b0316611a2c846106e8565b6001600160a01b0316145b949350505050565b826001600160a01b0316611a52826112ab565b6001600160a01b031614611a785760405162461bcd60e51b815260040161078390613c41565b6001600160a01b038216611ada5760405162461bcd60e51b8152602060048201526024808201527f4552433732313a207472616e7366657220746f20746865207a65726f206164646044820152637265737360e01b6064820152608401610783565b611ae783838360016122ce565b826001600160a01b0316611afa826112ab565b6001600160a01b031614611b205760405162461bcd60e51b815260040161078390613c41565b600081815260046020908152604080832080546001600160a01b03199081169091556001600160a01b0387811680865260038552838620805460001901905590871680865283862080546001019055868652600290945282852080549092168417909155905184937fddf252ad1be2c89b69c2b068fc378daa952ba7f163c4a11628f55a4df523b3ef91a4505050565b610eba8133612339565b611bc48282611389565b610e66576000828152600a602090815260408083206001600160a01b03851684529091529020805460ff19166001179055611bfc3390565b6001600160a01b0316816001600160a01b0316837f2f8788117e7eff1d82e926ec794901d17c78024a50270940304540a733656f0d60405160405180910390a45050565b60006001600160a01b038416611c985760405162461bcd60e51b815260206004820152601b60248201527f43616e6e6f74206d696e7420746f207a65726f206164647265737300000000006044820152606401610783565b60008311611cf85760405162461bcd60e51b815260206004820152602760248201527f4465706f7369742076616c7565206d7573742062652067726561746572207468604482015266616e207a65726f60c81b6064820152608401610783565b6000611d03600d5490565b9050611d13600d80546001019055565b611d1d8582612386565b6000611d28826123a0565b6040805160a0810182528781526001600160a01b0380881660208084019182528286168486018181528d851660608701818152426080890190815260008d8152600e87528a812099518a55965160018a018054918a166001600160a01b0319928316179055935160028a018054918a16918616919091179055905160038901805491909816908416179096559451600490960195909555600f90915284822080549094168117909355925193945092909185917f52ed26de8795d26f48a8c6b8fd428ab41cef9b2be844c97569e5f575a3da1ca19190a450949350505050565b611e128282611389565b15610e66576000828152600a602090815260408083206001600160a01b0385168085529252808320805460ff1916905551339285917ff6391f5c32d9c69d2a47ea670b442974b53935d1edc7fd64eb21e047a839171b9190a45050565b611e77612502565b600b805460ff191690557f5db9ee0a495bf2e6ff9c91a7834c1ba4fdd244a5e8aa4e537bd38aeae4b073aa335b6040516001600160a01b03909116815260200160405180910390a1565b6000611ecc826112ab565b9050611edc8160008460016122ce565b611ee5826112ab565b600083815260046020908152604080832080546001600160a01b03199081169091556001600160a01b0385168085526003845282852080546000190190558785526002909352818420805490911690555192935084927fddf252ad1be2c89b69c2b068fc378daa952ba7f163c4a11628f55a4df523b3ef908390a45050565b611f6c61254d565b600b805460ff191660011790557f62e78cea01bee320cd4e420270b5ea74000d11b0c9f74754ebdbfc544b05a258611ea43390565b816001600160a01b0316836001600160a01b0316036120025760405162461bcd60e51b815260206004820152601960248201527f4552433732313a20617070726f766520746f2063616c6c6572000000000000006044820152606401610783565b6001600160a01b03838116600081815260056020908152604080832094871680845294825291829020805460ff191686151590811790915591519182527f17307eab39ab6107e8899845ad3d59bd9653f200f220920489ca2b5937696c31910160405180910390a3505050565b61207a848484611a3f565b61208684848484612593565b6114435760405162461bcd60e51b815260040161078390613c86565b606060006120af83612694565b60010190506000816001600160401b038111156120ce576120ce6134a6565b6040519080825280601f01601f1916602001820160405280156120f8576020820181803683370190505b5090508181016020015b600019016f181899199a1a9b1b9c1cb0b131b232b360811b600a86061a8153600a850494508461210257509392505050565b6060610650826001600160a01b0316601461276c565b6060815160000361216957505060408051602081019091526000815290565b6000604051806060016040528060408152602001613fa7604091399050600060038451600261219891906137e6565b6121a291906139b8565b6121ad906004613cd8565b6001600160401b038111156121c4576121c46134a6565b6040519080825280601f01601f1916602001820160405280156121ee576020820181803683370190505b50905060018201602082018586518701602081018051600082525b82841015612264576003840193508351603f8160121c168701518653600186019550603f81600c1c168701518653600186019550603f8160061c168701518653600186019550603f8116870151865350600185019450612209565b905250508551600390066001811461228357600281146122965761229e565b603d6001830353603d600283035361229e565b603d60018303535b509195945050505050565b60006001600160e01b0319821663780e9d6360e01b148061065057506106508261290e565b6122d661254d565b6122e28484848461295e565b6001600160a01b0384161580159061230257506001600160a01b03831615155b15611443576000828152600e6020526040902060030180546001600160a01b0385166001600160a01b031990911617905550505050565b6123438282611389565b610e665761235081612a8b565b6040516020016123609190613cef565b60408051601f198184030181529082905262461bcd60e51b825261078391600401613037565b610e66828260405180602001604052806000815250612c3b565b60007f00000000000000000000000000000000000000000000000000000000000000006001600160a01b03167f00000000000000000000000000000000000000000000000000000000000000006001600160a01b0316036124375760405167584d424c5f54424160c01b60208201526028810183905260480160408051601f19818403018152919052805160209091012092915050565b604051638a54c52f60e01b81526001600160a01b037f000000000000000000000000000000000000000000000000000000000000000081166004830152602482018490524660448301819052306064840152608483018590529184917f00000000000000000000000000000000000000000000000000000000000000001690638a54c52f9060a4016020604051808303816000875af11580156124de573d6000803e3d6000fd5b505050506040513d601f19601f82011682018060405250810190611a379190613d4e565b600b5460ff1661254b5760405162461bcd60e51b815260206004820152601460248201527314185d5cd8589b194e881b9bdd081c185d5cd95960621b6044820152606401610783565b565b600b5460ff161561254b5760405162461bcd60e51b815260206004820152601060248201526f14185d5cd8589b194e881c185d5cd95960821b6044820152606401610783565b60006001600160a01b0384163b1561268957604051630a85bd0160e11b81526001600160a01b0385169063150b7a02906125d7903390899088908890600401613d6b565b6020604051808303816000875af1925050508015612612575060408051601f3d908101601f1916820190925261260f91810190613da8565b60015b61266f573d808015612640576040519150601f19603f3d011682016040523d82523d6000602084013e612645565b606091505b5080516000036126675760405162461bcd60e51b815260040161078390613c86565b805181602001fd5b6001600160e01b031916630a85bd0160e11b149050611a37565b506001949350505050565b60008072184f03e93ff9f4daa797ed6e38ed64bf6a1f0160401b83106126d35772184f03e93ff9f4daa797ed6e38ed64bf6a1f0160401b830492506040015b6d04ee2d6d415b85acef810000000083106126ff576d04ee2d6d415b85acef8100000000830492506020015b662386f26fc10000831061271d57662386f26fc10000830492506010015b6305f5e1008310612735576305f5e100830492506008015b612710831061274957612710830492506004015b6064831061275b576064830492506002015b600a83106106505760010192915050565b6060600061277b836002613cd8565b6127869060026137e6565b6001600160401b0381111561279d5761279d6134a6565b6040519080825280601f01601f1916602001820160405280156127c7576020820181803683370190505b509050600360fc1b816000815181106127e2576127e26137ba565b60200101906001600160f81b031916908160001a905350600f60fb1b81600181518110612811576128116137ba565b60200101906001600160f81b031916908160001a9053506000612835846002613cd8565b6128409060016137e6565b90505b60018111156128b8576f181899199a1a9b1b9c1cb0b131b232b360811b85600f1660108110612874576128746137ba565b1a60f81b82828151811061288a5761288a6137ba565b60200101906001600160f81b031916908160001a90535060049490941c936128b181613dc5565b9050612843565b5083156129075760405162461bcd60e51b815260206004820181905260248201527f537472696e67733a20686578206c656e67746820696e73756666696369656e746044820152606401610783565b9392505050565b60006001600160e01b031982166380ac58cd60e01b148061293f57506001600160e01b03198216635b5e139f60e01b145b8061065057506301ffc9a760e01b6001600160e01b0319831614610650565b60018111156129cd5760405162461bcd60e51b815260206004820152603560248201527f455243373231456e756d657261626c653a20636f6e7365637574697665207472604482015274185b9cd9995c9cc81b9bdd081cdd5c1c1bdc9d1959605a1b6064820152608401610783565b816001600160a01b038516612a2957612a2481600880546000838152600960205260408120829055600182018355919091527ff3f7a9fe364faab93b216da50a3214154f22a0a2b415b23a84c8169e8b636ee30155565b612a4c565b836001600160a01b0316856001600160a01b031614612a4c57612a4c8582612c6e565b6001600160a01b038416612a6857612a6381612d0b565b611831565b846001600160a01b0316846001600160a01b031614611831576118318482612dba565b60408051602a808252606082810190935260009190602082018180368337019050509050600360fc1b81600081518110612ac757612ac76137ba565b60200101906001600160f81b031916908160001a905350600f60fb1b81600181518110612af657612af66137ba565b60200101906001600160f81b031916908160001a90535060005b6014811015612c34576000612b26826013613ddc565b612b31906008613cd8565b612b3c906002613ed3565b612b4f906001600160a01b0387166139b8565b60f81b9050600060108260f81c612b669190613edf565b60f81b905060008160f81c6010612b7d9190613f01565b8360f81c612b8b9190613f1d565b60f81b9050612b9982612dfe565b85612ba5866002613cd8565b612bb09060026137e6565b81518110612bc057612bc06137ba565b60200101906001600160f81b031916908160001a905350612be081612dfe565b85612bec866002613cd8565b612bf79060036137e6565b81518110612c0757612c076137ba565b60200101906001600160f81b031916908160001a9053505050508080612c2c906137f9565b915050612b10565b5092915050565b612c458383612e39565b612c526000848484612593565b6108245760405162461bcd60e51b815260040161078390613c86565b60006001612c7b846112e0565b612c859190613ddc565b600083815260076020526040902054909150808214612cd8576001600160a01b03841660009081526006602090815260408083208584528252808320548484528184208190558352600790915290208190555b5060009182526007602090815260408084208490556001600160a01b039094168352600681528383209183525290812055565b600854600090612d1d90600190613ddc565b60008381526009602052604081205460088054939450909284908110612d4557612d456137ba565b906000526020600020015490508060088381548110612d6657612d666137ba565b6000918252602080832090910192909255828152600990915260408082208490558582528120556008805480612d9e57612d9e613f36565b6001900381819060005260206000200160009055905550505050565b6000612dc5836112e0565b6001600160a01b039093166000908152600660209081526040808320868452825280832085905593825260079052919091209190915550565b6000600a60f883901c1015612e2557612e1c60f883901c6030613f4c565b60f81b92915050565b612e1c60f883901c6057613f4c565b919050565b6001600160a01b038216612e8f5760405162461bcd60e51b815260206004820181905260248201527f4552433732313a206d696e7420746f20746865207a65726f20616464726573736044820152606401610783565b612e98816119a3565b15612ee55760405162461bcd60e51b815260206004820152601c60248201527f4552433732313a20746f6b656e20616c7265616479206d696e746564000000006044820152606401610783565b612ef36000838360016122ce565b612efc816119a3565b15612f495760405162461bcd60e51b815260206004820152601c60248201527f4552433732313a20746f6b656e20616c7265616479206d696e746564000000006044820152606401610783565b6001600160a01b038216600081815260036020908152604080832080546001019055848352600290915280822080546001600160a01b0319168417905551839291907fddf252ad1be2c89b69c2b068fc378daa952ba7f163c4a11628f55a4df523b3ef908290a45050565b6001600160e01b031981168114610eba57600080fd5b600060208284031215612fdc57600080fd5b813561290781612fb4565b60005b83811015613002578181015183820152602001612fea565b50506000910152565b60008151808452613023816020860160208601612fe7565b601f01601f19169290920160200192915050565b602081526000612907602083018461300b565b60006020828403121561305c57600080fd5b5035919050565b6001600160a01b0381168114610eba57600080fd5b6000806040838503121561308b57600080fd5b823561309681613063565b946020939093013593505050565b805182526020808201516001600160a01b039081169184019190915260408083015182169084015260608083015190911690830152608090810151910152565b60a0810161065082846130a4565b6000806040838503121561310557600080fd5b82359150602083013561311781613063565b809150509250929050565b60006020828403121561313457600080fd5b813561290781613063565b600081518084526020808501945080840160005b83811015613179576131668783516130a4565b60a0969096019590820190600101613153565b509495945050505050565b6020808252825160608383015280516080840181905260009291820190839060a08601905b808310156131c957835182529284019260019290920191908401906131a9565b5092860151858403601f19016040870152926131e5818561313f565b9350505050604084015160608401528091505092915050565b60008060006060848603121561321357600080fd5b833561321e81613063565b9250602084013561322e81613063565b929592945050506040919091013590565b60008083601f84011261325157600080fd5b5081356001600160401b0381111561326857600080fd5b6020830191508360208260051b850101111561328357600080fd5b9250929050565b600080600080600080606087890312156132a357600080fd5b86356001600160401b03808211156132ba57600080fd5b6132c68a838b0161323f565b909850965060208901359150808211156132df57600080fd5b6132eb8a838b0161323f565b9096509450604089013591508082111561330457600080fd5b5061331189828a0161323f565b979a9699509497509295939492505050565b6020808252825182820181905260009190848201906040850190845b8181101561335b5783518352928401929184019160010161333f565b50909695505050505050565b80358015158114612e3457600080fd5b6000806040838503121561338a57600080fd5b8235915061339a60208401613367565b90509250929050565b6000806000606084860312156133b857600080fd5b83356133c381613063565b92506020840135915060408401356133da81613063565b809150509250925092565b6000806000806000608086880312156133fd57600080fd5b85359450602086013561340f81613063565b93506040860135925060608601356001600160401b038082111561343257600080fd5b818801915088601f83011261344657600080fd5b81358181111561345557600080fd5b89602082850101111561346757600080fd5b9699959850939650602001949392505050565b6000806040838503121561348d57600080fd5b823561349881613063565b915061339a60208401613367565b634e487b7160e01b600052604160045260246000fd5b604051601f8201601f191681016001600160401b03811182821017156134e4576134e46134a6565b604052919050565b60006001600160401b03821115613505576135056134a6565b50601f01601f191660200190565b6000613526613521846134ec565b6134bc565b905082815283838301111561353a57600080fd5b828260208301376000602084830101529392505050565b6000806000806080858703121561356757600080fd5b843561357281613063565b9350602085013561358281613063565b92506040850135915060608501356001600160401b038111156135a457600080fd5b8501601f810187136135b557600080fd5b6135c487823560208401613513565b91505092959194509250565b600082601f8301126135e157600080fd5b61290783833560208501613513565b60008060006060848603121561360557600080fd5b8335925060208401356001600160401b038082111561362357600080fd5b61362f878388016135d0565b9350604086013591508082111561364557600080fd5b50613652868287016135d0565b9150509250925092565b6000806020838503121561366f57600080fd5b82356001600160401b0381111561368557600080fd5b6136918582860161323f565b90969095509350505050565b602081526000612907602083018461313f565b600080600080608085870312156136c657600080fd5b8435935060208501356001600160401b03808211156136e457600080fd5b6136f0888389016135d0565b9450604087013591508082111561370657600080fd5b50613713878288016135d0565b949793965093946060013593505050565b6000806040838503121561373757600080fd5b823561374281613063565b9150602083013561311781613063565b600181811c9082168061376657607f821691505b60208210810361378657634e487b7160e01b600052602260045260246000fd5b50919050565b602080825260149082015273151bdad95b88191bd95cc81b9bdd08195e1a5cdd60621b604082015260600190565b634e487b7160e01b600052603260045260246000fd5b634e487b7160e01b600052601160045260246000fd5b80820180821115610650576106506137d0565b60006001820161380b5761380b6137d0565b5060010190565b6020808252602d908201527f4552433732313a2063616c6c6572206973206e6f7420746f6b656e206f776e6560408201526c1c881bdc88185c1c1c9bdd9959609a1b606082015260800190565b6001600160a01b0385168152602081018490526060604082018190528101829052818360808301376000818301608090810191909152601f909201601f191601019392505050565b6000602082840312156138b957600080fd5b81516001600160401b038111156138cf57600080fd5b8201601f810184136138e057600080fd5b80516138ee613521826134ec565b81815285602083850101111561390357600080fd5b610ee2826020830160208601612fe7565b60208082526018908201527f4552433732313a20696e76616c696420746f6b656e2049440000000000000000604082015260600190565b6000815161395d818560208601612fe7565b9290920192915050565b72584d424c204c697175696420546f6b656e202360681b815260008251613995816013850160208701612fe7565b9190910160130192915050565b634e487b7160e01b600052601260045260246000fd5b6000826139c7576139c76139a2565b500490565b605b60f81b81527f7b2274726169745f74797065223a20224465706f7369742056616c7565222c206001820152600069113b30b63ab2911d101160b11b8060218401528651613a2281602b860160208b01612fe7565b6608115512089f4b60ca1b602b918501918201527f7b2274726169745f74797065223a2022546f6b656e2041646472657373222c2060328201526052810191909152855190613a7882605c830160208a01612fe7565b62089f4b60ea1b9101605c8101919091527f7b2274726169745f74797065223a20225442412041646472657373222c202276605f8201526730b63ab2911d101160c11b607f820152611032613b36613b29613b23613aeb613adc608787018b61394b565b62089f4b60ea1b815260030190565b7f7b2274726169745f74797065223a202243726561746564204174222c202276618152650363ab2911d160d51b602082015260260190565b8761394b565b607d60f81b815260010190565b605d60f81b815260010190565b607b60f81b815268113730b6b2911d101160b91b60018201528351600090613b7281600a850160208901612fe7565b61088b60f21b600a9184019182018190526f113232b9b1b934b83a34b7b7111d101160811b600c8301528551613baf81601c850160208a01612fe7565b601c9201918201526d01130ba3a3934b13aba32b9911d160951b601e8201528351613be181602c840160208801612fe7565b607d60f81b602c9290910191820152602d0195945050505050565b7f646174613a6170706c69636174696f6e2f6a736f6e3b6261736536342c000000815260008251613c3481601d850160208701612fe7565b91909101601d0192915050565b60208082526025908201527f4552433732313a207472616e736665722066726f6d20696e636f72726563742060408201526437bbb732b960d91b606082015260800190565b60208082526032908201527f4552433732313a207472616e7366657220746f206e6f6e20455243373231526560408201527131b2b4bb32b91034b6b83632b6b2b73a32b960711b606082015260800190565b8082028115828204841417610650576106506137d0565b7f416363657373436f6e74726f6c3a206163636f756e7420000000000000000000815260008251613d27816017850160208701612fe7565b6f206973206d697373696e6720726f6c6560801b6017939091019283015250602701919050565b600060208284031215613d6057600080fd5b815161290781613063565b6001600160a01b0385811682528416602082015260408101839052608060608201819052600090613d9e9083018461300b565b9695505050505050565b600060208284031215613dba57600080fd5b815161290781612fb4565b600081613dd457613dd46137d0565b506000190190565b81810381811115610650576106506137d0565b600181815b80851115613e2a578160001904821115613e1057613e106137d0565b80851615613e1d57918102915b93841c9390800290613df4565b509250929050565b600082613e4157506001610650565b81613e4e57506000610650565b8160018114613e645760028114613e6e57613e8a565b6001915050610650565b60ff841115613e7f57613e7f6137d0565b50506001821b610650565b5060208310610133831016604e8410600b8410161715613ead575081810a610650565b613eb78383613def565b8060001904821115613ecb57613ecb6137d0565b029392505050565b60006129078383613e32565b600060ff831680613ef257613ef26139a2565b8060ff84160491505092915050565b60ff8181168382160290811690818114612c3457612c346137d0565b60ff8281168282160390811115610650576106506137d0565b634e487b7160e01b600052603160045260246000fd5b60ff8181168382160190811115610650576106506137d056fe584d424c2070726f746f636f6c206c697175696420746f6b656e207769746820546f6b656e20426f756e64204163636f756e742066756e6374696f6e616c6974794142434445464748494a4b4c4d4e4f505152535455565758595a6162636465666768696a6b6c6d6e6f707172737475767778797a303132333435363738392b2f9f2df0fed2c77648de5860a4cc508cd0818c85b8b8a1ab4ceeef8d981c8956a6a2646970667358221220406edc0600b89c4af2741ec563130518c1d47cb90d861a1da4ed683c97356f8e64736f6c63430008130033",
  "linkReferences": {},
  "deployedLinkReferences": {}
}