{
  "_format": "hh-sol-artifact-1",
  "contractName": "ChainDepositContract",
  "sourceName": "contracts/ChainDepositContract.sol",
  "abi": [
    {
      "inputs": [
        {
          "internalType": "address",
          "name": "_depositManager",
          "type": "address"
        },
        {
          "internalType": "address",
          "name": "_priceOracle",
          "type": "address"
        }
      ],
      "stateMutability": "nonpayable",
      "type": "constructor"
    },
    {
      "anonymous": false,
      "inputs": [
        {
          "indexed": true,
          "internalType": "address",
          "name": "token",
          "type": "address"
        },
        {
          "indexed": false,
          "internalType": "uint256",
          "name": "amount",
          "type": "uint256"
        },
        {
          "indexed": false,
          "internalType": "uint256",
          "name": "btcEquivalent",
          "type": "uint256"
        }
      ],
      "name": "BtcEquivalentCalculated",
      "type": "event"
    },
    {
      "anonymous": false,
      "inputs": [
        {
          "indexed": true,
          "internalType": "uint256",
          "name": "depositId",
          "type": "uint256"
        },
        {
          "indexed": false,
          "internalType": "uint256",
          "name": "oracleCosts",
          "type": "uint256"
        },
        {
          "indexed": false,
          "internalType": "uint256",
          "name": "contractCosts",
          "type": "uint256"
        },
        {
          "indexed": false,
          "internalType": "uint256",
          "name": "networkFees",
          "type": "uint256"
        },
        {
          "indexed": false,
          "internalType": "uint256",
          "name": "totalCosts",
          "type": "uint256"
        }
      ],
      "name": "CostsCalculated",
      "type": "event"
    },
    {
      "anonymous": false,
      "inputs": [
        {
          "indexed": true,
          "internalType": "uint256",
          "name": "depositId",
          "type": "uint256"
        },
        {
          "indexed": true,
          "internalType": "address",
          "name": "user",
          "type": "address"
        },
        {
          "indexed": true,
          "internalType": "address",
          "name": "token",
          "type": "address"
        },
        {
          "indexed": false,
          "internalType": "uint256",
          "name": "amount",
          "type": "uint256"
        },
        {
          "indexed": false,
          "internalType": "uint256",
          "name": "btcEquivalent",
          "type": "uint256"
        },
        {
          "indexed": false,
          "internalType": "uint256",
          "name": "costs",
          "type": "uint256"
        },
        {
          "indexed": false,
          "internalType": "uint256",
          "name": "netBtcEquivalent",
          "type": "uint256"
        }
      ],
      "name": "DepositCreated",
      "type": "event"
    },
    {
      "anonymous": false,
      "inputs": [
        {
          "indexed": true,
          "internalType": "uint256",
          "name": "depositId",
          "type": "uint256"
        },
        {
          "indexed": false,
          "internalType": "uint256",
          "name": "activationId",
          "type": "uint256"
        },
        {
          "indexed": false,
          "internalType": "string",
          "name": "intentData",
          "type": "string"
        }
      ],
      "name": "IntentCreated",
      "type": "event"
    },
    {
      "anonymous": false,
      "inputs": [
        {
          "indexed": true,
          "internalType": "address",
          "name": "previousOwner",
          "type": "address"
        },
        {
          "indexed": true,
          "internalType": "address",
          "name": "newOwner",
          "type": "address"
        }
      ],
      "name": "OwnershipTransferred",
      "type": "event"
    },
    {
      "inputs": [
        {
          "internalType": "address",
          "name": "token",
          "type": "address"
        },
        {
          "internalType": "uint256",
          "name": "decimals",
          "type": "uint256"
        }
      ],
      "name": "addSupportedToken",
      "outputs": [],
      "stateMutability": "nonpayable",
      "type": "function"
    },
    {
      "inputs": [
        {
          "internalType": "address",
          "name": "token",
          "type": "address"
        },
        {
          "internalType": "uint256",
          "name": "amount",
          "type": "uint256"
        }
      ],
      "name": "calculateBtcEquivalent",
      "outputs": [
        {
          "internalType": "uint256",
          "name": "",
          "type": "uint256"
        }
      ],
      "stateMutability": "nonpayable",
      "type": "function"
    },
    {
      "inputs": [
        {
          "internalType": "uint256",
          "name": "btcAmount",
          "type": "uint256"
        }
      ],
      "name": "calculateCosts",
      "outputs": [
        {
          "internalType": "uint256",
          "name": "",
          "type": "uint256"
        }
      ],
      "stateMutability": "view",
      "type": "function"
    },
    {
      "inputs": [
        {
          "internalType": "uint256",
          "name": "depositId",
          "type": "uint256"
        }
      ],
      "name": "createIntent",
      "outputs": [
        {
          "internalType": "uint256",
          "name": "",
          "type": "uint256"
        }
      ],
      "stateMutability": "nonpayable",
      "type": "function"
    },
    {
      "inputs": [
        {
          "internalType": "address",
          "name": "token",
          "type": "address"
        },
        {
          "internalType": "uint256",
          "name": "amount",
          "type": "uint256"
        }
      ],
      "name": "deposit",
      "outputs": [
        {
          "internalType": "uint256",
          "name": "",
          "type": "uint256"
        }
      ],
      "stateMutability": "nonpayable",
      "type": "function"
    },
    {
      "inputs": [],
      "name": "depositManager",
      "outputs": [
        {
          "internalType": "contract DepositManager",
          "name": "",
          "type": "address"
        }
      ],
      "stateMutability": "view",
      "type": "function"
    },
    {
      "inputs": [
        {
          "internalType": "uint256",
          "name": "",
          "type": "uint256"
        }
      ],
      "name": "deposits",
      "outputs": [
        {
          "internalType": "uint256",
          "name": "id",
          "type": "uint256"
        },
        {
          "internalType": "address",
          "name": "user",
          "type": "address"
        },
        {
          "internalType": "address",
          "name": "token",
          "type": "address"
        },
        {
          "internalType": "uint256",
          "name": "amount",
          "type": "uint256"
        },
        {
          "internalType": "uint256",
          "name": "btcEquivalent",
          "type": "uint256"
        },
        {
          "internalType": "uint256",
          "name": "costs",
          "type": "uint256"
        },
        {
          "internalType": "uint256",
          "name": "netBtcEquivalent",
          "type": "uint256"
        },
        {
          "internalType": "uint256",
          "name": "timestamp",
          "type": "uint256"
        },
        {
          "internalType": "bool",
          "name": "processed",
          "type": "bool"
        }
      ],
      "stateMutability": "view",
      "type": "function"
    },
    {
      "inputs": [
        {
          "internalType": "address",
          "name": "token",
          "type": "address"
        },
        {
          "internalType": "uint256",
          "name": "amount",
          "type": "uint256"
        }
      ],
      "name": "emergencyWithdraw",
      "outputs": [],
      "stateMutability": "nonpayable",
      "type": "function"
    },
    {
      "inputs": [
        {
          "internalType": "uint256",
          "name": "depositId",
          "type": "uint256"
        }
      ],
      "name": "getDeposit",
      "outputs": [
        {
          "components": [
            {
              "internalType": "uint256",
              "name": "id",
              "type": "uint256"
            },
            {
              "internalType": "address",
              "name": "user",
              "type": "address"
            },
            {
              "internalType": "address",
              "name": "token",
              "type": "address"
            },
            {
              "internalType": "uint256",
              "name": "amount",
              "type": "uint256"
            },
            {
              "internalType": "uint256",
              "name": "btcEquivalent",
              "type": "uint256"
            },
            {
              "internalType": "uint256",
              "name": "costs",
              "type": "uint256"
            },
            {
              "internalType": "uint256",
              "name": "netBtcEquivalent",
              "type": "uint256"
            },
            {
              "internalType": "uint256",
              "name": "timestamp",
              "type": "uint256"
            },
            {
              "internalType": "bool",
              "name": "processed",
              "type": "bool"
            }
          ],
          "internalType": "struct ChainDepositContract.Deposit",
          "name": "",
          "type": "tuple"
        }
      ],
      "stateMutability": "view",
      "type": "function"
    },
    {
      "inputs": [],
      "name": "getStats",
      "outputs": [
        {
          "internalType": "uint256",
          "name": "totalDepositsCount",
          "type": "uint256"
        },
        {
          "internalType": "uint256",
          "name": "totalBtcEquivalentAmount",
          "type": "uint256"
        },
        {
          "internalType": "uint256",
          "name": "totalCostsAmount",
          "type": "uint256"
        },
        {
          "internalType": "uint256",
          "name": "totalNetBtcEquivalentAmount",
          "type": "uint256"
        },
        {
          "internalType": "uint256",
          "name": "nextDepositIdValue",
          "type": "uint256"
        }
      ],
      "stateMutability": "view",
      "type": "function"
    },
    {
      "inputs": [
        {
          "internalType": "address",
          "name": "user",
          "type": "address"
        }
      ],
      "name": "getUserDeposits",
      "outputs": [
        {
          "internalType": "uint256[]",
          "name": "",
          "type": "uint256[]"
        }
      ],
      "stateMutability": "view",
      "type": "function"
    },
    {
      "inputs": [],
      "name": "nextDepositId",
      "outputs": [
        {
          "internalType": "uint256",
          "name": "",
          "type": "uint256"
        }
      ],
      "stateMutability": "view",
      "type": "function"
    },
    {
      "inputs": [],
      "name": "owner",
      "outputs": [
        {
          "internalType": "address",
          "name": "",
          "type": "address"
        }
      ],
      "stateMutability": "view",
      "type": "function"
    },
    {
      "inputs": [],
      "name": "priceOracle",
      "outputs": [
        {
          "internalType": "contract PriceOracle",
          "name": "",
          "type": "address"
        }
      ],
      "stateMutability": "view",
      "type": "function"
    },
    {
      "inputs": [
        {
          "internalType": "address",
          "name": "token",
          "type": "address"
        }
      ],
      "name": "removeSupportedToken",
      "outputs": [],
      "stateMutability": "nonpayable",
      "type": "function"
    },
    {
      "inputs": [],
      "name": "renounceOwnership",
      "outputs": [],
      "stateMutability": "nonpayable",
      "type": "function"
    },
    {
      "inputs": [
        {
          "internalType": "address",
          "name": "",
          "type": "address"
        }
      ],
      "name": "supportedTokens",
      "outputs": [
        {
          "internalType": "bool",
          "name": "",
          "type": "bool"
        }
      ],
      "stateMutability": "view",
      "type": "function"
    },
    {
      "inputs": [
        {
          "internalType": "address",
          "name": "",
          "type": "address"
        }
      ],
      "name": "tokenDecimals",
      "outputs": [
        {
          "internalType": "uint256",
          "name": "",
          "type": "uint256"
        }
      ],
      "stateMutability": "view",
      "type": "function"
    },
    {
      "inputs": [],
      "name": "totalBtcEquivalent",
      "outputs": [
        {
          "internalType": "uint256",
          "name": "",
          "type": "uint256"
        }
      ],
      "stateMutability": "view",
      "type": "function"
    },
    {
      "inputs": [],
      "name": "totalCosts",
      "outputs": [
        {
          "internalType": "uint256",
          "name": "",
          "type": "uint256"
        }
      ],
      "stateMutability": "view",
      "type": "function"
    },
    {
      "inputs": [],
      "name": "totalDeposits",
      "outputs": [
        {
          "internalType": "uint256",
          "name": "",
          "type": "uint256"
        }
      ],
      "stateMutability": "view",
      "type": "function"
    },
    {
      "inputs": [],
      "name": "totalNetBtcEquivalent",
      "outputs": [
        {
          "internalType": "uint256",
          "name": "",
          "type": "uint256"
        }
      ],
      "stateMutability": "view",
      "type": "function"
    },
    {
      "inputs": [
        {
          "internalType": "address",
          "name": "newOwner",
          "type": "address"
        }
      ],
      "name": "transferOwnership",
      "outputs": [],
      "stateMutability": "nonpayable",
      "type": "function"
    },
    {
      "inputs": [
        {
          "internalType": "address",
          "name": "",
          "type": "address"
        },
        {
          "internalType": "uint256",
          "name": "",
          "type": "uint256"
        }
      ],
      "name": "userDeposits",
      "outputs": [
        {
          "internalType": "uint256",
          "name": "",
          "type": "uint256"
        }
      ],
      "stateMutability": "view",
      "type": "function"
    }
  ],
  "bytecode": "0x60c060405260016006556000600755600060085560006009556000600a553480156200002a57600080fd5b5060405162001811380380620018118339810160408190526200004d91620000e4565b60016000556200005d3362000075565b6001600160a01b039182166080521660a0526200011c565b600180546001600160a01b038381166001600160a01b0319831681179093556040519116919082907f8be0079c531659141344cd1fd0a4f28419497f9722a3daafe3b4186f6b6457e090600090a35050565b80516001600160a01b0381168114620000df57600080fd5b919050565b60008060408385031215620000f857600080fd5b6200010383620000c7565b91506200011360208401620000c7565b90509250929050565b60805160a0516116c162000150600039600081816101880152610dac0152600081816102420152610bf601526116c16000f3fe608060405234801561001057600080fd5b50600436106101585760003560e01c80638da5cb5b116100c3578063bee5e5d21161007c578063bee5e5d2146103cc578063c59d4847146103d5578063ca56a8211461040c578063f2fde38b1461041f578063fb8c452814610432578063ff6f4a7a1461044557600080fd5b80638da5cb5b146102a45780638ee573ac146102b557806395ccea67146102d55780639f9fb968146102e8578063b02c43d014610308578063b8bc0ed4146103c357600080fd5b80636c7ac9d8116101155780636c7ac9d81461023d578063715018a614610264578063763191901461026c5780637d8820971461027f5780637ec1d421146102885780638070a4bd1461029b57600080fd5b806308f433331461015d5780632630c12f146101835780632a5bf6d2146101c257806347e7ef24146101e25780634d8e3d3b146101f557806368c4ac261461020a575b600080fd5b61017061016b366004611175565b61044e565b6040519081526020015b60405180910390f35b6101aa7f000000000000000000000000000000000000000000000000000000000000000081565b6040516001600160a01b03909116815260200161017a565b6101d56101d036600461119f565b61047f565b60405161017a91906111c1565b6101706101f0366004611175565b6104eb565b610208610203366004611175565b610873565b005b61022d61021836600461119f565b60026020526000908152604090205460ff1681565b604051901515815260200161017a565b6101aa7f000000000000000000000000000000000000000000000000000000000000000081565b6102086108ac565b61020861027a36600461119f565b6108c0565b61017060075481565b610170610296366004611205565b6108f4565b61017060065481565b6001546001600160a01b03166101aa565b6101706102c336600461119f565b60036020526000908152604090205481565b6102086102e3366004611175565b610964565b6102fb6102f6366004611205565b610a03565b60405161017a919061121e565b610371610316366004611205565b600460208190526000918252604090912080546001820154600283015460038401549484015460058501546006860154600787015460089097015495976001600160a01b039586169794909516959293919290919060ff1689565b60408051998a526001600160a01b0398891660208b015296909716958801959095526060870193909352608086019190915260a085015260c084015260e083015215156101008201526101200161017a565b61017060095481565b610170600a5481565b600754600854600954600a54600654604080519586526020860194909452928401919091526060830152608082015260a00161017a565b61017061041a366004611205565b610af1565b61020861042d36600461119f565b610d2e565b610170610440366004611175565b610da7565b61017060085481565b6005602052816000526040600020818154811061046a57600080fd5b90600052602060002001600091509150505481565b6001600160a01b0381166000908152600560209081526040918290208054835181840281018401909452808452606093928301828280156104df57602002820191906000526020600020905b8154815260200190600101908083116104cb575b50505050509050919050565b60006104f5610ec4565b6001600160a01b03831660009081526002602052604090205460ff166105585760405162461bcd60e51b8152602060048201526013602482015272151bdad95b881b9bdd081cdd5c1c1bdc9d1959606a1b60448201526064015b60405180910390fd5b600082116105a85760405162461bcd60e51b815260206004820152601760248201527f416d6f756e74206d75737420626520706f736974697665000000000000000000604482015260640161054f565b6040516323b872dd60e01b8152336004820152306024820152604481018390526001600160a01b038416906323b872dd906064016020604051808303816000875af11580156105fb573d6000803e3d6000fd5b505050506040513d601f19601f8201168201806040525081019061061f919061129b565b50600061062c8484610da7565b90506000610639826108f4565b9050600081831161064b576000610655565b61065582846112d3565b9050600081116106a75760405162461bcd60e51b815260206004820152601c60248201527f496e73756666696369656e742042544320616674657220636f73747300000000604482015260640161054f565b60068054600091826106b8836112e6565b9091555060408051610120810182528281523360208083018281526001600160a01b038d8116858701908152606086018e8152608087018d815260a088018d815260c089018d81524260e08b0190815260006101008c018181528e82526004808c528e83209d518e55995160018e81018054928c166001600160a01b0319938416179055985160028f01805491909b16911617909855945160038c01559251968a0196909655516005808a0191909155945160068901555160078089019190915592516008909701805497151560ff19989098169790971790965593855290825293832080549283018155835282200183905581549293506107b9836112e6565b919050555083600860008282546107d091906112ff565b9250508190555082600960008282546107e991906112ff565b9250508190555081600a600082825461080291906112ff565b90915550506040805187815260208101869052908101849052606081018390526001600160a01b03881690339083907f45abae59bf04f3f741265bfaf6b4752f95a0e485e3776ece4918f6b40aaed32b9060800160405180910390a4935050505061086d6001600055565b92915050565b61087b610f1d565b6001600160a01b039091166000908152600260209081526040808320805460ff191660011790556003909152902055565b6108b4610f1d565b6108be6000610f77565b565b6108c8610f1d565b6001600160a01b03166000908152600260209081526040808320805460ff191690556003909152812055565b60006103e86107d082606461090a866003611312565b610914919061133f565b905060006064610925876003611312565b61092f9190611353565b1115610943576109406001826112ff565b90505b60008161095084866112ff565b61095a91906112ff565b9695505050505050565b61096c610f1d565b816001600160a01b031663a9059cbb61098d6001546001600160a01b031690565b6040516001600160e01b031960e084901b1681526001600160a01b039091166004820152602481018490526044016020604051808303816000875af11580156109da573d6000803e3d6000fd5b505050506040513d601f19601f820116820180604052508101906109fe919061129b565b505050565b610a666040518061012001604052806000815260200160006001600160a01b0316815260200160006001600160a01b0316815260200160008152602001600081526020016000815260200160008152602001600081526020016000151581525090565b506000908152600460208181526040928390208351610120810185528154815260018201546001600160a01b039081169382019390935260028201549092169382019390935260038301546060820152908201546080820152600582015460a0820152600682015460c0820152600782015460e082015260089091015460ff16151561010082015290565b6000610afb610f1d565b6006548210610b415760405162461bcd60e51b8152602060048201526012602482015271125b9d985b1a590819195c1bdcda5d08125160721b604482015260640161054f565b60008281526004602052604090206008015460ff1615610b975760405162461bcd60e51b8152602060048201526011602482015270105b1c9958591e481c1c9bd8d95cdcd959607a1b604482015260640161054f565b600082815260046020819052604080832060088101805460ff1916600190811790915581015460038201546006830154935163df6ac84760e01b81526001600160a01b03928316958101959095526024850152604484019290925292917f00000000000000000000000000000000000000000000000000000000000000009091169063df6ac847906064016020604051808303816000875af1158015610c41573d6000803e3d6000fd5b505050506040513d601f19601f82011682018060405250810190610c659190611367565b60408051610120810182528454815260018501546001600160a01b039081166020830152600286015416918101919091526003840154606082015260048401546080820152600584015460a0820152600684015460c0820152600784015460e0820152600884015460ff161515610100820152909150600090610ce89083610fc9565b9050847f4ba4b720167a4219371ec9aa5bc12a0d7429bbee941422e03a1edadc76b50ebd8383604051610d1c9291906113a4565b60405180910390a2509150505b919050565b610d36610f1d565b6001600160a01b038116610d9b5760405162461bcd60e51b815260206004820152602660248201527f4f776e61626c653a206e6577206f776e657220697320746865207a65726f206160448201526564647265737360d01b606482015260840161054f565b610da481610f77565b50565b6000807f00000000000000000000000000000000000000000000000000000000000000006001600160a01b0316633a3610bc6040518163ffffffff1660e01b8152600401602060405180830381865afa158015610e08573d6000803e3d6000fd5b505050506040513d601f19601f82011682018060405250810190610e2c9190611367565b6001600160a01b038516600090815260036020526040812054919250819003610e53575060125b6000610e6082600a6114c2565b610e6a8487611312565b610e74919061133f565b60408051878152602081018390529192506001600160a01b038816917f5f7a9cc87cfc2edd3896984872540c526fb600059d1883f5dd59221d968db52a910160405180910390a295945050505050565b600260005403610f165760405162461bcd60e51b815260206004820152601f60248201527f5265656e7472616e637947756172643a207265656e7472616e742063616c6c00604482015260640161054f565b6002600055565b6001546001600160a01b031633146108be5760405162461bcd60e51b815260206004820181905260248201527f4f776e61626c653a2063616c6c6572206973206e6f7420746865206f776e6572604482015260640161054f565b600180546001600160a01b038381166001600160a01b0319831681179093556040519116919082907f8be0079c531659141344cd1fd0a4f28419497f9722a3daafe3b4186f6b6457e090600090a35050565b6060610fd88360000151611041565b610fe183611041565b610fee856020015161114a565b610ffb866040015161114a565b6110088760600151611041565b6110158860800151611041565b60405160200161102a969594939291906114ea565b604051602081830303815290604052905092915050565b6060816000036110685750506040805180820190915260018152600360fc1b602082015290565b8160005b8115611092578061107c816112e6565b915061108b9050600a8361133f565b915061106c565b60008167ffffffffffffffff8111156110ad576110ad61165f565b6040519080825280601f01601f1916602001820160405280156110d7576020820181803683370190505b5090505b8415611142576110ec6001836112d3565b91506110f9600a86611353565b6111049060306112ff565b60f81b81838151811061111957611119611675565b60200101906001600160f81b031916908160001a90535061113b600a8661133f565b94506110db565b949350505050565b606061086d826001600160a01b0316611041565b80356001600160a01b0381168114610d2957600080fd5b6000806040838503121561118857600080fd5b6111918361115e565b946020939093013593505050565b6000602082840312156111b157600080fd5b6111ba8261115e565b9392505050565b6020808252825182820181905260009190848201906040850190845b818110156111f9578351835292840192918401916001016111dd565b50909695505050505050565b60006020828403121561121757600080fd5b5035919050565b60006101208201905082518252602083015160018060a01b0380821660208501528060408601511660408501525050606083015160608301526080830151608083015260a083015160a083015260c083015160c083015260e083015160e0830152610100808401516112938285018215159052565b505092915050565b6000602082840312156112ad57600080fd5b815180151581146111ba57600080fd5b634e487b7160e01b600052601160045260246000fd5b8181038181111561086d5761086d6112bd565b6000600182016112f8576112f86112bd565b5060010190565b8082018082111561086d5761086d6112bd565b808202811582820484141761086d5761086d6112bd565b634e487b7160e01b600052601260045260246000fd5b60008261134e5761134e611329565b500490565b60008261136257611362611329565b500690565b60006020828403121561137957600080fd5b5051919050565b60005b8381101561139b578181015183820152602001611383565b50506000910152565b82815260406020820152600082518060408401526113c9816060850160208701611380565b601f01601f1916919091016060019392505050565b600181815b808511156114195781600019048211156113ff576113ff6112bd565b8085161561140c57918102915b93841c93908002906113e3565b509250929050565b6000826114305750600161086d565b8161143d5750600061086d565b8160018114611453576002811461145d57611479565b600191505061086d565b60ff84111561146e5761146e6112bd565b50506001821b61086d565b5060208310610133831016604e8410600b841016171561149c575081810a61086d565b6114a683836113de565b80600019048211156114ba576114ba6112bd565b029392505050565b60006111ba8383611421565b600081516114e0818560208601611380565b9290920192915050565b7f7b2274797065223a226272696467655f65786563757465222c0000000000000081526b113232b837b9b4ba24b2111d60a11b60198201528651600090611538816025850160208c01611380565b600b60fa1b60259184019182018190526e1130b1ba34bb30ba34b7b724b2111d60891b60268301528851611573816035850160208d01611380565b603592019182015267113ab9b2b9111d1160c11b6036820152865161159f81603e840160208b01611380565b61165161164461163e61162261161561160f6115fa6115ec6115e66115d1603e8b8d010161088b60f21b815260020190565b68113a37b5b2b7111d1160b91b815260090190565b8f6114ce565b61088b60f21b815260020190565b681130b6b7bab73a111d60b91b815260090190565b8b6114ce565b600b60fa1b815260010190565b6f11313a31a2b8bab4bb30b632b73a111d60811b815260100190565b876114ce565b607d60f81b815260010190565b9a9950505050505050505050565b634e487b7160e01b600052604160045260246000fd5b634e487b7160e01b600052603260045260246000fdfea2646970667358221220a58a4ed84fbd18230b94362c097bb4968f0eb1682ca6982024f2bdfacb8d03f564736f6c63430008130033",
  "linkReferences": {},
  "deployedLinkReferences": {}
}