{
  "_format": "hh-sol-artifact-1",
  "contractName": "ChainDepositContract",
  "sourceName": "contracts/ChainDepositContract.sol",
  "abi": [
    {
      "inputs": [
        {
          "internalType": "address",
          "name": "_depositManager",
          "type": "address"
        },
        {
          "internalType": "address",
          "name": "_priceOracle",
          "type": "address"
        }
      ],
      "stateMutability": "nonpayable",
      "type": "constructor"
    },
    {
      "anonymous": false,
      "inputs": [
        {
          "indexed": true,
          "internalType": "address",
          "name": "token",
          "type": "address"
        },
        {
          "indexed": false,
          "internalType": "uint256",
          "name": "amount",
          "type": "uint256"
        },
        {
          "indexed": false,
          "internalType": "uint256",
          "name": "btcEquivalent",
          "type": "uint256"
        }
      ],
      "name": "BtcEquivalentCalculated",
      "type": "event"
    },
    {
      "anonymous": false,
      "inputs": [
        {
          "indexed": true,
          "internalType": "uint256",
          "name": "depositId",
          "type": "uint256"
        },
        {
          "indexed": true,
          "internalType": "address",
          "name": "user",
          "type": "address"
        },
        {
          "indexed": true,
          "internalType": "address",
          "name": "token",
          "type": "address"
        },
        {
          "indexed": false,
          "internalType": "uint256",
          "name": "amount",
          "type": "uint256"
        },
        {
          "indexed": false,
          "internalType": "uint256",
          "name": "btcEquivalent",
          "type": "uint256"
        }
      ],
      "name": "DepositCreated",
      "type": "event"
    },
    {
      "anonymous": false,
      "inputs": [
        {
          "indexed": true,
          "internalType": "uint256",
          "name": "depositId",
          "type": "uint256"
        },
        {
          "indexed": false,
          "internalType": "uint256",
          "name": "activationId",
          "type": "uint256"
        },
        {
          "indexed": false,
          "internalType": "string",
          "name": "intentData",
          "type": "string"
        }
      ],
      "name": "IntentCreated",
      "type": "event"
    },
    {
      "anonymous": false,
      "inputs": [
        {
          "indexed": true,
          "internalType": "address",
          "name": "previousOwner",
          "type": "address"
        },
        {
          "indexed": true,
          "internalType": "address",
          "name": "newOwner",
          "type": "address"
        }
      ],
      "name": "OwnershipTransferred",
      "type": "event"
    },
    {
      "inputs": [
        {
          "internalType": "address",
          "name": "token",
          "type": "address"
        },
        {
          "internalType": "uint256",
          "name": "decimals",
          "type": "uint256"
        }
      ],
      "name": "addSupportedToken",
      "outputs": [],
      "stateMutability": "nonpayable",
      "type": "function"
    },
    {
      "inputs": [
        {
          "internalType": "address",
          "name": "token",
          "type": "address"
        },
        {
          "internalType": "uint256",
          "name": "amount",
          "type": "uint256"
        }
      ],
      "name": "calculateBtcEquivalent",
      "outputs": [
        {
          "internalType": "uint256",
          "name": "",
          "type": "uint256"
        }
      ],
      "stateMutability": "nonpayable",
      "type": "function"
    },
    {
      "inputs": [
        {
          "internalType": "uint256",
          "name": "depositId",
          "type": "uint256"
        }
      ],
      "name": "createIntent",
      "outputs": [
        {
          "internalType": "uint256",
          "name": "",
          "type": "uint256"
        }
      ],
      "stateMutability": "nonpayable",
      "type": "function"
    },
    {
      "inputs": [
        {
          "internalType": "address",
          "name": "token",
          "type": "address"
        },
        {
          "internalType": "uint256",
          "name": "amount",
          "type": "uint256"
        }
      ],
      "name": "deposit",
      "outputs": [
        {
          "internalType": "uint256",
          "name": "",
          "type": "uint256"
        }
      ],
      "stateMutability": "nonpayable",
      "type": "function"
    },
    {
      "inputs": [],
      "name": "depositManager",
      "outputs": [
        {
          "internalType": "contract DepositManager",
          "name": "",
          "type": "address"
        }
      ],
      "stateMutability": "view",
      "type": "function"
    },
    {
      "inputs": [
        {
          "internalType": "uint256",
          "name": "",
          "type": "uint256"
        }
      ],
      "name": "deposits",
      "outputs": [
        {
          "internalType": "uint256",
          "name": "id",
          "type": "uint256"
        },
        {
          "internalType": "address",
          "name": "user",
          "type": "address"
        },
        {
          "internalType": "address",
          "name": "token",
          "type": "address"
        },
        {
          "internalType": "uint256",
          "name": "amount",
          "type": "uint256"
        },
        {
          "internalType": "uint256",
          "name": "btcEquivalent",
          "type": "uint256"
        },
        {
          "internalType": "uint256",
          "name": "timestamp",
          "type": "uint256"
        },
        {
          "internalType": "bool",
          "name": "processed",
          "type": "bool"
        }
      ],
      "stateMutability": "view",
      "type": "function"
    },
    {
      "inputs": [
        {
          "internalType": "address",
          "name": "token",
          "type": "address"
        },
        {
          "internalType": "uint256",
          "name": "amount",
          "type": "uint256"
        }
      ],
      "name": "emergencyWithdraw",
      "outputs": [],
      "stateMutability": "nonpayable",
      "type": "function"
    },
    {
      "inputs": [
        {
          "internalType": "uint256",
          "name": "depositId",
          "type": "uint256"
        }
      ],
      "name": "getDeposit",
      "outputs": [
        {
          "components": [
            {
              "internalType": "uint256",
              "name": "id",
              "type": "uint256"
            },
            {
              "internalType": "address",
              "name": "user",
              "type": "address"
            },
            {
              "internalType": "address",
              "name": "token",
              "type": "address"
            },
            {
              "internalType": "uint256",
              "name": "amount",
              "type": "uint256"
            },
            {
              "internalType": "uint256",
              "name": "btcEquivalent",
              "type": "uint256"
            },
            {
              "internalType": "uint256",
              "name": "timestamp",
              "type": "uint256"
            },
            {
              "internalType": "bool",
              "name": "processed",
              "type": "bool"
            }
          ],
          "internalType": "struct ChainDepositContract.Deposit",
          "name": "",
          "type": "tuple"
        }
      ],
      "stateMutability": "view",
      "type": "function"
    },
    {
      "inputs": [],
      "name": "getStats",
      "outputs": [
        {
          "internalType": "uint256",
          "name": "totalDepositsCount",
          "type": "uint256"
        },
        {
          "internalType": "uint256",
          "name": "totalBtcEquivalentAmount",
          "type": "uint256"
        },
        {
          "internalType": "uint256",
          "name": "nextDepositIdValue",
          "type": "uint256"
        }
      ],
      "stateMutability": "view",
      "type": "function"
    },
    {
      "inputs": [
        {
          "internalType": "address",
          "name": "user",
          "type": "address"
        }
      ],
      "name": "getUserDeposits",
      "outputs": [
        {
          "internalType": "uint256[]",
          "name": "",
          "type": "uint256[]"
        }
      ],
      "stateMutability": "view",
      "type": "function"
    },
    {
      "inputs": [],
      "name": "nextDepositId",
      "outputs": [
        {
          "internalType": "uint256",
          "name": "",
          "type": "uint256"
        }
      ],
      "stateMutability": "view",
      "type": "function"
    },
    {
      "inputs": [],
      "name": "owner",
      "outputs": [
        {
          "internalType": "address",
          "name": "",
          "type": "address"
        }
      ],
      "stateMutability": "view",
      "type": "function"
    },
    {
      "inputs": [],
      "name": "priceOracle",
      "outputs": [
        {
          "internalType": "contract PriceOracle",
          "name": "",
          "type": "address"
        }
      ],
      "stateMutability": "view",
      "type": "function"
    },
    {
      "inputs": [
        {
          "internalType": "address",
          "name": "token",
          "type": "address"
        }
      ],
      "name": "removeSupportedToken",
      "outputs": [],
      "stateMutability": "nonpayable",
      "type": "function"
    },
    {
      "inputs": [],
      "name": "renounceOwnership",
      "outputs": [],
      "stateMutability": "nonpayable",
      "type": "function"
    },
    {
      "inputs": [
        {
          "internalType": "address",
          "name": "",
          "type": "address"
        }
      ],
      "name": "supportedTokens",
      "outputs": [
        {
          "internalType": "bool",
          "name": "",
          "type": "bool"
        }
      ],
      "stateMutability": "view",
      "type": "function"
    },
    {
      "inputs": [
        {
          "internalType": "address",
          "name": "",
          "type": "address"
        }
      ],
      "name": "tokenDecimals",
      "outputs": [
        {
          "internalType": "uint256",
          "name": "",
          "type": "uint256"
        }
      ],
      "stateMutability": "view",
      "type": "function"
    },
    {
      "inputs": [],
      "name": "totalBtcEquivalent",
      "outputs": [
        {
          "internalType": "uint256",
          "name": "",
          "type": "uint256"
        }
      ],
      "stateMutability": "view",
      "type": "function"
    },
    {
      "inputs": [],
      "name": "totalDeposits",
      "outputs": [
        {
          "internalType": "uint256",
          "name": "",
          "type": "uint256"
        }
      ],
      "stateMutability": "view",
      "type": "function"
    },
    {
      "inputs": [
        {
          "internalType": "address",
          "name": "newOwner",
          "type": "address"
        }
      ],
      "name": "transferOwnership",
      "outputs": [],
      "stateMutability": "nonpayable",
      "type": "function"
    },
    {
      "inputs": [
        {
          "internalType": "address",
          "name": "",
          "type": "address"
        },
        {
          "internalType": "uint256",
          "name": "",
          "type": "uint256"
        }
      ],
      "name": "userDeposits",
      "outputs": [
        {
          "internalType": "uint256",
          "name": "",
          "type": "uint256"
        }
      ],
      "stateMutability": "view",
      "type": "function"
    }
  ],
  "bytecode": "0x60c06040526001600655600060075560006008553480156200002057600080fd5b50604051620015e5380380620015e58339810160408190526200004391620000da565b600160005562000053336200006b565b6001600160a01b039182166080521660a05262000112565b600180546001600160a01b038381166001600160a01b0319831681179093556040519116919082907f8be0079c531659141344cd1fd0a4f28419497f9722a3daafe3b4186f6b6457e090600090a35050565b80516001600160a01b0381168114620000d557600080fd5b919050565b60008060408385031215620000ee57600080fd5b620000f983620000bd565b91506200010960208401620000bd565b90509250929050565b60805160a05161149f62000146600039600081816101670152610c070152600081816102210152610a67015261149f6000f3fe608060405234801561001057600080fd5b50600436106101375760003560e01c80638070a4bd116100b8578063b02c43d01161007c578063b02c43d014610328578063c59d4847146103c6578063ca56a821146103ea578063f2fde38b146103fd578063fb8c452814610410578063ff6f4a7a1461042357600080fd5b80638070a4bd146102675780638da5cb5b146102705780638ee573ac1461028157806395ccea67146102a15780639f9fb968146102b457600080fd5b806368c4ac26116100ff57806368c4ac26146101e95780636c7ac9d81461021c578063715018a614610243578063763191901461024b5780637d8820971461025e57600080fd5b806308f433331461013c5780632630c12f146101625780632a5bf6d2146101a157806347e7ef24146101c15780634d8e3d3b146101d4575b600080fd5b61014f61014a366004610fd0565b61042c565b6040519081526020015b60405180910390f35b6101897f000000000000000000000000000000000000000000000000000000000000000081565b6040516001600160a01b039091168152602001610159565b6101b46101af366004610ffa565b61045d565b604051610159919061101c565b61014f6101cf366004610fd0565b6104c9565b6101e76101e2366004610fd0565b61077a565b005b61020c6101f7366004610ffa565b60026020526000908152604090205460ff1681565b6040519015158152602001610159565b6101897f000000000000000000000000000000000000000000000000000000000000000081565b6101e76107b3565b6101e7610259366004610ffa565b6107c7565b61014f60075481565b61014f60065481565b6001546001600160a01b0316610189565b61014f61028f366004610ffa565b60036020526000908152604090205481565b6101e76102af366004610fd0565b6107fb565b6102c76102c2366004611060565b61089a565b60408051825181526020808401516001600160a01b0390811691830191909152838301511691810191909152606080830151908201526080808301519082015260a0808301519082015260c09182015115159181019190915260e001610159565b610383610336366004611060565b6004602081905260009182526040909120805460018201546002830154600384015494840154600585015460069095015493956001600160a01b0393841695929093169390919060ff1687565b604080519788526001600160a01b03968716602089015294909516938601939093526060850191909152608084015260a0830152151560c082015260e001610159565b60075460085460065460408051938452602084019290925290820152606001610159565b61014f6103f8366004611060565b610963565b6101e761040b366004610ffa565b610b89565b61014f61041e366004610fd0565b610c02565b61014f60085481565b6005602052816000526040600020818154811061044857600080fd5b90600052602060002001600091509150505481565b6001600160a01b0381166000908152600560209081526040918290208054835181840281018401909452808452606093928301828280156104bd57602002820191906000526020600020905b8154815260200190600101908083116104a9575b50505050509050919050565b60006104d3610d1f565b6001600160a01b03831660009081526002602052604090205460ff166105365760405162461bcd60e51b8152602060048201526013602482015272151bdad95b881b9bdd081cdd5c1c1bdc9d1959606a1b60448201526064015b60405180910390fd5b600082116105865760405162461bcd60e51b815260206004820152601760248201527f416d6f756e74206d75737420626520706f736974697665000000000000000000604482015260640161052d565b6040516323b872dd60e01b8152336004820152306024820152604481018390526001600160a01b038416906323b872dd906064016020604051808303816000875af11580156105d9573d6000803e3d6000fd5b505050506040513d601f19601f820116820180604052508101906105fd9190611079565b50600061060a8484610c02565b60068054919250600091908261061f836110b1565b909155506040805160e0810182528281523360208083018281526001600160a01b038b8116858701908152606086018c8152608087018b81524260a08901908152600060c08a018181528c82526004808a528c83209b518c55975160018c81018054928a166001600160a01b0319938416179055965160028d01805491909916911617909655925160038a0155905194880194909455925160058088019190915591516006909601805496151560ff1990971696909617909555928152918152928120805492830181558152918220018290556007805492935090610703836110b1565b9190505550816008600082825461071a91906110ca565b909155505060408051858152602081018490526001600160a01b03871691339184917fb1fd4a0105e23455acc585ac2766343681bbf1a6e4306d3e52f3b3b4ddeed42c910160405180910390a49150506107746001600055565b92915050565b610782610d78565b6001600160a01b039091166000908152600260209081526040808320805460ff191660011790556003909152902055565b6107bb610d78565b6107c56000610dd2565b565b6107cf610d78565b6001600160a01b03166000908152600260209081526040808320805460ff191690556003909152812055565b610803610d78565b816001600160a01b031663a9059cbb6108246001546001600160a01b031690565b6040516001600160e01b031960e084901b1681526001600160a01b039091166004820152602481018490526044016020604051808303816000875af1158015610871573d6000803e3d6000fd5b505050506040513d601f19601f820116820180604052508101906108959190611079565b505050565b6108ee6040518060e001604052806000815260200160006001600160a01b0316815260200160006001600160a01b031681526020016000815260200160008152602001600081526020016000151581525090565b50600090815260046020818152604092839020835160e0810185528154815260018201546001600160a01b039081169382019390935260028201549092169382019390935260038301546060820152908201546080820152600582015460a082015260069091015460ff16151560c082015290565b600061096d610d78565b60065482106109b35760405162461bcd60e51b8152602060048201526012602482015271125b9d985b1a590819195c1bdcda5d08125160721b604482015260640161052d565b60008281526004602052604090206006015460ff1615610a095760405162461bcd60e51b8152602060048201526011602482015270105b1c9958591e481c1c9bd8d95cdcd959607a1b604482015260640161052d565b600082815260046020819052604080832060068101805460ff19166001908117909155810154600382015482850154935163df6ac84760e01b81526001600160a01b03928316958101959095526024850152604484019290925292917f00000000000000000000000000000000000000000000000000000000000000009091169063df6ac847906064016020604051808303816000875af1158015610ab2573d6000803e3d6000fd5b505050506040513d601f19601f82011682018060405250810190610ad691906110dd565b6040805160e0810182528454815260018501546001600160a01b039081166020830152600286015416918101919091526003840154606082015260048401546080820152600584015460a0820152600684015460ff16151560c0820152909150600090610b439083610e24565b9050847f4ba4b720167a4219371ec9aa5bc12a0d7429bbee941422e03a1edadc76b50ebd8383604051610b7792919061111a565b60405180910390a2509150505b919050565b610b91610d78565b6001600160a01b038116610bf65760405162461bcd60e51b815260206004820152602660248201527f4f776e61626c653a206e6577206f776e657220697320746865207a65726f206160448201526564647265737360d01b606482015260840161052d565b610bff81610dd2565b50565b6000807f00000000000000000000000000000000000000000000000000000000000000006001600160a01b0316633a3610bc6040518163ffffffff1660e01b8152600401602060405180830381865afa158015610c63573d6000803e3d6000fd5b505050506040513d601f19601f82011682018060405250810190610c8791906110dd565b6001600160a01b038516600090815260036020526040812054919250819003610cae575060125b6000610cbb82600a611238565b610cc58487611244565b610ccf9190611271565b60408051878152602081018390529192506001600160a01b038816917f5f7a9cc87cfc2edd3896984872540c526fb600059d1883f5dd59221d968db52a910160405180910390a295945050505050565b600260005403610d715760405162461bcd60e51b815260206004820152601f60248201527f5265656e7472616e637947756172643a207265656e7472616e742063616c6c00604482015260640161052d565b6002600055565b6001546001600160a01b031633146107c55760405162461bcd60e51b815260206004820181905260248201527f4f776e61626c653a2063616c6c6572206973206e6f7420746865206f776e6572604482015260640161052d565b600180546001600160a01b038381166001600160a01b0319831681179093556040519116919082907f8be0079c531659141344cd1fd0a4f28419497f9722a3daafe3b4186f6b6457e090600090a35050565b6060610e338360000151610e9c565b610e3c83610e9c565b610e498560200151610fa5565b610e568660400151610fa5565b610e638760600151610e9c565b610e708860800151610e9c565b604051602001610e85969594939291906112a1565b604051602081830303815290604052905092915050565b606081600003610ec35750506040805180820190915260018152600360fc1b602082015290565b8160005b8115610eed5780610ed7816110b1565b9150610ee69050600a83611271565b9150610ec7565b60008167ffffffffffffffff811115610f0857610f08611416565b6040519080825280601f01601f191660200182016040528015610f32576020820181803683370190505b5090505b8415610f9d57610f4760018361142c565b9150610f54600a8661143f565b610f5f9060306110ca565b60f81b818381518110610f7457610f74611453565b60200101906001600160f81b031916908160001a905350610f96600a86611271565b9450610f36565b949350505050565b6060610774826001600160a01b0316610e9c565b80356001600160a01b0381168114610b8457600080fd5b60008060408385031215610fe357600080fd5b610fec83610fb9565b946020939093013593505050565b60006020828403121561100c57600080fd5b61101582610fb9565b9392505050565b6020808252825182820181905260009190848201906040850190845b8181101561105457835183529284019291840191600101611038565b50909695505050505050565b60006020828403121561107257600080fd5b5035919050565b60006020828403121561108b57600080fd5b8151801515811461101557600080fd5b634e487b7160e01b600052601160045260246000fd5b6000600182016110c3576110c361109b565b5060010190565b808201808211156107745761077461109b565b6000602082840312156110ef57600080fd5b5051919050565b60005b838110156111115781810151838201526020016110f9565b50506000910152565b828152604060208201526000825180604084015261113f8160608501602087016110f6565b601f01601f1916919091016060019392505050565b600181815b8085111561118f5781600019048211156111755761117561109b565b8085161561118257918102915b93841c9390800290611159565b509250929050565b6000826111a657506001610774565b816111b357506000610774565b81600181146111c957600281146111d3576111ef565b6001915050610774565b60ff8411156111e4576111e461109b565b50506001821b610774565b5060208310610133831016604e8410600b8410161715611212575081810a610774565b61121c8383611154565b80600019048211156112305761123061109b565b029392505050565b60006110158383611197565b80820281158282048414176107745761077461109b565b634e487b7160e01b600052601260045260246000fd5b6000826112805761128061125b565b500490565b600081516112978185602086016110f6565b9290920192915050565b7f7b2274797065223a226272696467655f65786563757465222c0000000000000081526b113232b837b9b4ba24b2111d60a11b601982015286516000906112ef816025850160208c016110f6565b600b60fa1b60259184019182018190526e1130b1ba34bb30ba34b7b724b2111d60891b6026830152885161132a816035850160208d016110f6565b603592019182015267113ab9b2b9111d1160c11b6036820152865161135681603e840160208b016110f6565b6114086113fb6113f56113d96113cc6113c66113b16113a361139d611388603e8b8d010161088b60f21b815260020190565b68113a37b5b2b7111d1160b91b815260090190565b8f611285565b61088b60f21b815260020190565b681130b6b7bab73a111d60b91b815260090190565b8b611285565b600b60fa1b815260010190565b6f11313a31a2b8bab4bb30b632b73a111d60811b815260100190565b87611285565b607d60f81b815260010190565b9a9950505050505050505050565b634e487b7160e01b600052604160045260246000fd5b818103818111156107745761077461109b565b60008261144e5761144e61125b565b500690565b634e487b7160e01b600052603260045260246000fdfea2646970667358221220b571738d0f26fa43c006fa6f91afb82f721d3a7bfa16394533811af5e217044964736f6c63430008130033",
  "linkReferences": {},
  "deployedLinkReferences": {}
}