{
  "_format": "hh-sol-artifact-1",
  "contractName": "PriceOracle",
  "sourceName": "contracts/PriceOracle.sol",
  "abi": [
    {
      "inputs": [
        {
          "internalType": "address",
          "name": "_pyth",
          "type": "address"
        },
        {
          "internalType": "bytes32",
          "name": "_btcUsdPriceId",
          "type": "bytes32"
        }
      ],
      "stateMutability": "nonpayable",
      "type": "constructor"
    },
    {
      "anonymous": false,
      "inputs": [
        {
          "indexed": false,
          "internalType": "uint256",
          "name": "activationId",
          "type": "uint256"
        },
        {
          "indexed": false,
          "internalType": "uint256",
          "name": "price",
          "type": "uint256"
        },
        {
          "indexed": false,
          "internalType": "bool",
          "name": "settled",
          "type": "bool"
        }
      ],
      "name": "ActivationProcessed",
      "type": "event"
    },
    {
      "anonymous": false,
      "inputs": [
        {
          "indexed": false,
          "internalType": "uint256",
          "name": "amount",
          "type": "uint256"
        },
        {
          "indexed": false,
          "internalType": "uint256",
          "name": "totalReleased",
          "type": "uint256"
        },
        {
          "indexed": false,
          "internalType": "uint256",
          "name": "remaining",
          "type": "uint256"
        }
      ],
      "name": "CoinsReleased",
      "type": "event"
    },
    {
      "anonymous": false,
      "inputs": [
        {
          "indexed": false,
          "internalType": "uint256",
          "name": "newPrice",
          "type": "uint256"
        },
        {
          "indexed": false,
          "internalType": "uint256",
          "name": "tokensMinted",
          "type": "uint256"
        }
      ],
      "name": "PriceUpdated",
      "type": "event"
    },
    {
      "anonymous": false,
      "inputs": [
        {
          "indexed": false,
          "internalType": "uint256",
          "name": "activationId",
          "type": "uint256"
        }
      ],
      "name": "SettlementFailed",
      "type": "event"
    },
    {
      "anonymous": false,
      "inputs": [
        {
          "indexed": false,
          "internalType": "uint256",
          "name": "proofOfFaith",
          "type": "uint256"
        },
        {
          "indexed": false,
          "internalType": "uint256",
          "name": "xymMinted",
          "type": "uint256"
        },
        {
          "indexed": false,
          "internalType": "uint256",
          "name": "xymNextPrice",
          "type": "uint256"
        }
      ],
      "name": "TokenomicsUpdated",
      "type": "event"
    },
    {
      "inputs": [],
      "name": "COIN_DIVIDE",
      "outputs": [
        {
          "internalType": "uint256",
          "name": "",
          "type": "uint256"
        }
      ],
      "stateMutability": "view",
      "type": "function"
    },
    {
      "inputs": [],
      "name": "COIN_RELEASE_TARGET",
      "outputs": [
        {
          "internalType": "uint256",
          "name": "",
          "type": "uint256"
        }
      ],
      "stateMutability": "view",
      "type": "function"
    },
    {
      "inputs": [],
      "name": "COIN_SUPPLY",
      "outputs": [
        {
          "internalType": "uint256",
          "name": "",
          "type": "uint256"
        }
      ],
      "stateMutability": "view",
      "type": "function"
    },
    {
      "inputs": [],
      "name": "GROWTH_FACTOR",
      "outputs": [
        {
          "internalType": "uint256",
          "name": "",
          "type": "uint256"
        }
      ],
      "stateMutability": "view",
      "type": "function"
    },
    {
      "inputs": [],
      "name": "NETWORK_FEE_PERCENT",
      "outputs": [
        {
          "internalType": "uint256",
          "name": "",
          "type": "uint256"
        }
      ],
      "stateMutability": "view",
      "type": "function"
    },
    {
      "inputs": [],
      "name": "PHI",
      "outputs": [
        {
          "internalType": "uint256",
          "name": "",
          "type": "uint256"
        }
      ],
      "stateMutability": "view",
      "type": "function"
    },
    {
      "inputs": [],
      "name": "SATOSHI_PRECISION",
      "outputs": [
        {
          "internalType": "uint256",
          "name": "",
          "type": "uint256"
        }
      ],
      "stateMutability": "view",
      "type": "function"
    },
    {
      "inputs": [],
      "name": "STARTING_PRICE",
      "outputs": [
        {
          "internalType": "uint256",
          "name": "",
          "type": "uint256"
        }
      ],
      "stateMutability": "view",
      "type": "function"
    },
    {
      "inputs": [
        {
          "internalType": "uint256",
          "name": "tokensToActivate",
          "type": "uint256"
        }
      ],
      "name": "activateBulkTokens",
      "outputs": [],
      "stateMutability": "nonpayable",
      "type": "function"
    },
    {
      "inputs": [],
      "name": "activateToken",
      "outputs": [],
      "stateMutability": "nonpayable",
      "type": "function"
    },
    {
      "inputs": [],
      "name": "activationCount",
      "outputs": [
        {
          "internalType": "uint256",
          "name": "",
          "type": "uint256"
        }
      ],
      "stateMutability": "view",
      "type": "function"
    },
    {
      "inputs": [
        {
          "internalType": "uint256",
          "name": "",
          "type": "uint256"
        }
      ],
      "name": "activationPrices",
      "outputs": [
        {
          "internalType": "uint256",
          "name": "",
          "type": "uint256"
        }
      ],
      "stateMutability": "view",
      "type": "function"
    },
    {
      "inputs": [
        {
          "internalType": "uint256",
          "name": "",
          "type": "uint256"
        }
      ],
      "name": "activationSettled",
      "outputs": [
        {
          "internalType": "bool",
          "name": "",
          "type": "bool"
        }
      ],
      "stateMutability": "view",
      "type": "function"
    },
    {
      "inputs": [],
      "name": "btcUsdPriceId",
      "outputs": [
        {
          "internalType": "bytes32",
          "name": "",
          "type": "bytes32"
        }
      ],
      "stateMutability": "view",
      "type": "function"
    },
    {
      "inputs": [
        {
          "internalType": "uint256",
          "name": "tokensToActivate",
          "type": "uint256"
        }
      ],
      "name": "calculateBulkCost",
      "outputs": [
        {
          "internalType": "uint256",
          "name": "",
          "type": "uint256"
        }
      ],
      "stateMutability": "view",
      "type": "function"
    },
    {
      "inputs": [
        {
          "internalType": "uint256",
          "name": "amount",
          "type": "uint256"
        }
      ],
      "name": "calculateNetworkFee",
      "outputs": [
        {
          "internalType": "uint256",
          "name": "",
          "type": "uint256"
        }
      ],
      "stateMutability": "pure",
      "type": "function"
    },
    {
      "inputs": [
        {
          "internalType": "uint256",
          "name": "_tokensMinted",
          "type": "uint256"
        }
      ],
      "name": "calculatePrice",
      "outputs": [
        {
          "internalType": "uint256",
          "name": "",
          "type": "uint256"
        }
      ],
      "stateMutability": "pure",
      "type": "function"
    },
    {
      "inputs": [],
      "name": "currentPrice",
      "outputs": [
        {
          "internalType": "uint256",
          "name": "",
          "type": "uint256"
        }
      ],
      "stateMutability": "view",
      "type": "function"
    },
    {
      "inputs": [],
      "name": "deactivateToken",
      "outputs": [],
      "stateMutability": "nonpayable",
      "type": "function"
    },
    {
      "inputs": [],
      "name": "getBtcPrice",
      "outputs": [
        {
          "internalType": "uint256",
          "name": "",
          "type": "uint256"
        }
      ],
      "stateMutability": "view",
      "type": "function"
    },
    {
      "inputs": [],
      "name": "getCoinDistributionStatus",
      "outputs": [
        {
          "internalType": "bool",
          "name": "canReleaseCoins",
          "type": "bool"
        },
        {
          "internalType": "uint256",
          "name": "nextReleaseAmount",
          "type": "uint256"
        },
        {
          "internalType": "uint256",
          "name": "releaseTarget",
          "type": "uint256"
        },
        {
          "internalType": "uint256",
          "name": "totalReleased",
          "type": "uint256"
        },
        {
          "internalType": "uint256",
          "name": "remaining",
          "type": "uint256"
        }
      ],
      "stateMutability": "view",
      "type": "function"
    },
    {
      "inputs": [],
      "name": "getCurrentPrice",
      "outputs": [
        {
          "internalType": "uint256",
          "name": "",
          "type": "uint256"
        }
      ],
      "stateMutability": "view",
      "type": "function"
    },
    {
      "inputs": [],
      "name": "getTokenomicsState",
      "outputs": [
        {
          "internalType": "uint256",
          "name": "_proofOfFaith",
          "type": "uint256"
        },
        {
          "internalType": "uint256",
          "name": "_xymMinted",
          "type": "uint256"
        },
        {
          "internalType": "uint256",
          "name": "_xymNextPrice",
          "type": "uint256"
        },
        {
          "internalType": "uint256",
          "name": "_xymPrevPrice",
          "type": "uint256"
        },
        {
          "internalType": "uint256",
          "name": "_xyDivisor",
          "type": "uint256"
        },
        {
          "internalType": "uint256",
          "name": "_xyReleased",
          "type": "uint256"
        },
        {
          "internalType": "uint256",
          "name": "_xyRemaining",
          "type": "uint256"
        },
        {
          "internalType": "uint256",
          "name": "_xyReleaseTarget",
          "type": "uint256"
        },
        {
          "internalType": "uint256",
          "name": "_xyNextAmount",
          "type": "uint256"
        }
      ],
      "stateMutability": "view",
      "type": "function"
    },
    {
      "inputs": [
        {
          "internalType": "bool",
          "name": "settlementSuccess",
          "type": "bool"
        }
      ],
      "name": "processActivationWithSettlement",
      "outputs": [],
      "stateMutability": "nonpayable",
      "type": "function"
    },
    {
      "inputs": [],
      "name": "proofOfFaith",
      "outputs": [
        {
          "internalType": "uint256",
          "name": "",
          "type": "uint256"
        }
      ],
      "stateMutability": "view",
      "type": "function"
    },
    {
      "inputs": [],
      "name": "pyth",
      "outputs": [
        {
          "internalType": "contract IPyth",
          "name": "",
          "type": "address"
        }
      ],
      "stateMutability": "view",
      "type": "function"
    },
    {
      "inputs": [
        {
          "internalType": "uint256",
          "name": "_tokensMinted",
          "type": "uint256"
        }
      ],
      "name": "setTokensMinted",
      "outputs": [],
      "stateMutability": "nonpayable",
      "type": "function"
    },
    {
      "inputs": [],
      "name": "tokensMinted",
      "outputs": [
        {
          "internalType": "uint256",
          "name": "",
          "type": "uint256"
        }
      ],
      "stateMutability": "view",
      "type": "function"
    },
    {
      "inputs": [],
      "name": "updatePrice",
      "outputs": [],
      "stateMutability": "nonpayable",
      "type": "function"
    },
    {
      "inputs": [],
      "name": "xyDivisor",
      "outputs": [
        {
          "internalType": "uint256",
          "name": "",
          "type": "uint256"
        }
      ],
      "stateMutability": "view",
      "type": "function"
    },
    {
      "inputs": [],
      "name": "xyNextAmount",
      "outputs": [
        {
          "internalType": "uint256",
          "name": "",
          "type": "uint256"
        }
      ],
      "stateMutability": "view",
      "type": "function"
    },
    {
      "inputs": [],
      "name": "xyReleaseTarget",
      "outputs": [
        {
          "internalType": "uint256",
          "name": "",
          "type": "uint256"
        }
      ],
      "stateMutability": "view",
      "type": "function"
    },
    {
      "inputs": [],
      "name": "xyReleased",
      "outputs": [
        {
          "internalType": "uint256",
          "name": "",
          "type": "uint256"
        }
      ],
      "stateMutability": "view",
      "type": "function"
    },
    {
      "inputs": [],
      "name": "xyRemaining",
      "outputs": [
        {
          "internalType": "uint256",
          "name": "",
          "type": "uint256"
        }
      ],
      "stateMutability": "view",
      "type": "function"
    },
    {
      "inputs": [],
      "name": "xymMinted",
      "outputs": [
        {
          "internalType": "uint256",
          "name": "",
          "type": "uint256"
        }
      ],
      "stateMutability": "view",
      "type": "function"
    },
    {
      "inputs": [],
      "name": "xymNextPrice",
      "outputs": [
        {
          "internalType": "uint256",
          "name": "",
          "type": "uint256"
        }
      ],
      "stateMutability": "view",
      "type": "function"
    },
    {
      "inputs": [],
      "name": "xymPrevPrice",
      "outputs": [
        {
          "internalType": "uint256",
          "name": "",
          "type": "uint256"
        }
      ],
      "stateMutability": "view",
      "type": "function"
    }
  ],
  "bytecode": "0x60c060405260016000556000600155600060025560006003556000600455600160055560006006556009633b9ac9ff6100389190610094565b6007556000600855633b9ac9ff600955610171600a556009600b5534801561005f57600080fd5b506040516112fd3803806112fd83398101604081905261007e916100b6565b6001600160a01b0390911660805260a0526100f0565b6000826100b157634e487b7160e01b600052601260045260246000fd5b500490565b600080604083850312156100c957600080fd5b82516001600160a01b03811681146100e057600080fd5b6020939093015192949293505050565b60805160a0516111e8610115600039600061042e0152600061049b01526111e86000f3fe608060405234801561001057600080fd5b50600436106102275760003560e01c80636d97e46b11610130578063b2a84502116100b8578063d7ea53ae1161007c578063d7ea53ae1461046a578063eb91d37e14610473578063f68231b41461047b578063f957417e1461048e578063f98d06f01461049657600080fd5b8063b2a8450214610429578063c17614e414610450578063cbd8283314610458578063d12f702914610251578063d74030141461046157600080fd5b806383e24813116100ff57806383e24813146103e657806386647b5e146103f15780639d1b464a146103fa578063a8aecfe514610403578063ae1042651461041657600080fd5b80636d97e46b146103985780636de9f32b146103a35780637a7fb535146103ac578063806fff1c146103de57600080fd5b80633a82d516116101b35780635c09a9f6116101825780635c09a9f61461034b5780635ce7e0301461036b57806366afe4b31461037e578063673a7e28146103875780636af411cd1461038f57600080fd5b80633a82d516146102d15780633ddb13b6146103305780634c1583b214610339578063583ee5bf1461034257600080fd5b80632650487d116101fa5780632650487d146102625780632c21c0c81461029557806334e7f4a5146102a857806339ce2508146102b25780633a3610bc146102c557600080fd5b8063065427361461022c578063207f12191461024857806320c8d7d81461025157806322f6f96114610259575b600080fd5b61023560045481565b6040519081526020015b60405180910390f35b610235600b5481565b610235600181565b61023560055481565b610285610270366004611063565b600d6020526000908152604090205460ff1681565b604051901515815260200161023f565b6102356102a3366004611063565b6104d5565b6102b06105f0565b005b6102b06102c036600461107c565b610617565b65048c27395000610235565b600354600454600554600654600754600854600954600a54600b5460408051998a5260208a0198909852968801959095526060870193909352608086019190915260a085015260c084015260e08301526101008201526101200161023f565b61023560075481565b61023560095481565b61023561017181565b610235610359366004611063565b600c6020526000908152604090205481565b6102b0610379366004611063565b6106ff565b61023561065281565b6102b061070f565b61023560025481565b610235633b9ac9ff81565b61023560015481565b6103b461075e565b6040805195151586526020860194909452928401919091526060830152608082015260a00161023f565b610235600381565b6102356305f5e10081565b61023560085481565b61023560005481565b610235610411366004611063565b610797565b610235610424366004611063565b6107ff565b6102357f000000000000000000000000000000000000000000000000000000000000000081565b610235600981565b61023560035481565b610235600a5481565b61023560065481565b600054610235565b6102b0610489366004611063565b610879565b6102b0610cd6565b6104bd7f000000000000000000000000000000000000000000000000000000000000000081565b6040516001600160a01b03909116815260200161023f565b600080821161052b5760405162461bcd60e51b815260206004820152601e60248201527f4d757374206163746976617465206174206c65617374203120746f6b656e000060448201526064015b60405180910390fd5b606482111561054c5760405162461bcd60e51b8152600401610522906110a5565b6000806005541161055e576001610562565b6005545b600454909150836401580c1ee9600061057a84610f66565b9050600061059061058b8587611107565b610f66565b90506108bc60006105a1848461111a565b905060006107d0826105b3858c61112d565b6105bd919061112d565b6105c7919061115a565b90506000816105d6898c61112d565b6105e09190611107565b9c9b505050505050505050505050565b6001541561061557600180549060006106088361116e565b919050555061061561070f565b565b806106585760405162461bcd60e51b815260206004820152601160248201527014d95d1d1b195b595b9d0819985a5b1959607a1b6044820152606401610522565b6002805490600061066883611185565b90915550506001805490600061067d83611185565b919050555061068a61070f565b60008054600280548352600c602090815260408085209390935581548452600d8152828420805460ff1916600190811790915591549354835194855290840152908201527f897d7b656908c4bea6dd14a762d00075fce0e9b4271d2a4d3bcd493a4d72d531906060015b60405180910390a150565b600181905561070c61070f565b50565b600061071c6001546107ff565b60008190556001546040519192507f945c1c4e99aa89f648fbfe3df471b916f719e16d960fcec0737d4d56bd696838916106f491848252602082015260400190565b60008060008060008060095411801561077a5750600a54600554115b9450600b549350600a549250600854915060095490509091929394565b60008060646107a760038561112d565b6107b1919061115a565b9050806000036107bf575060015b6107cd6305f5e1008261119e565b156107f9576305f5e1006107e1818361115a565b6107ec906001611107565b6107f6919061112d565b90505b92915050565b60008160000361081157506001919050565b600160006103e86108228584611107565b61082d90600161112d565b610837919061115a565b905080600003610848575092915050565b6000610854828461115a565b905060006108628285611107565b905080600003610870575060015b95945050505050565b600081116108c95760405162461bcd60e51b815260206004820152601e60248201527f4d757374206163746976617465206174206c65617374203120746f6b656e00006044820152606401610522565b60648111156108ea5760405162461bcd60e51b8152600401610522906110a5565b60008080600554116108fd576001610901565b6005545b60045490915060005b84811015610a3857600061091e8284611107565b90508382156109a257600060016109358587611107565b61093f919061111a565b90506108bc6000610950828561112d565b9050600061095f84600261112d565b61096b906103e861112d565b90506000610979828461115a565b90506109858187611107565b955089861161099c576109998a6001611107565b95505b50505050505b6108bc60006109b1828461112d565b905060006109c085600261112d565b6109cc906103e861112d565b905060006109da828461115a565b905060006109e88287611107565b905085811115610a03576109fc818c611107565b9a50610a1b565b610a0e866001611107565b610a18908c611107565b9a505b809950505050505050508080610a3090611185565b91505061090a565b508360026000828254610a4b9190611107565b925050819055508360016000828254610a649190611107565b925050819055508360046000828254610a7d9190611107565b90915550506005546006819055600090610a98576001610a9c565b6006545b6004549091508015610b1b576108bc6000610ab7828561112d565b90506000610ac684600261112d565b610ad2906103e861112d565b90506000610ae0828461115a565b90506000610aee8288611107565b905086811115610b02576005819055610b11565b610b0d876001611107565b6005555b5050505050610b21565b60016005555b8160055411610b3957610b35826001611107565b6005555b8460036000828254610b4b9190611107565b909155505060095415801590610b645750600a54600554115b15610c3b576000600b5490508060086000828254610b829190611107565b9091555050600754610b969060029061115a565b600755600854610baa90633b9ac9ff61111a565b60095560075415610bcd57600754600954610bc5919061115a565b600b55610bd4565b600954600b555b6103e8600a54610652610be7919061112d565b610bf1919061115a565b600a556008546009546040805184815260208101939093528201527f12b902226ea54a21aefb31c6dfb064bc1c4779d293391c832b415c484f4f3a509060600160405180910390a1505b600554600081905560025460408051918252602082019290925260018183015290517f897d7b656908c4bea6dd14a762d00075fce0e9b4271d2a4d3bcd493a4d72d5319181900360600190a160035460045460055460408051938452602084019290925282820152517f31ba426b73c86859899c292355b9e963ab7f78b00e6df209addf169517554e1f9181900360600190a1505050505050565b60028054906000610ce683611185565b909155505060018054906000610cfb83611185565b909155505060048054906000610d1083611185565b90915550506005546006819055600090610d2b576001610d2f565b6006545b6004549091508015610dae576108bc6000610d4a828561112d565b90506000610d5984600261112d565b610d65906103e861112d565b90506000610d73828461115a565b90506000610d818288611107565b905086811115610d95576005819055610da4565b610da0876001611107565b6005555b5050505050610db4565b60016005555b8160055411610dcc57610dc8826001611107565b6005555b60055460036000828254610de09190611107565b909155505060095415801590610df95750600a54600554115b15610ed0576000600b5490508060086000828254610e179190611107565b9091555050600754610e2b9060029061115a565b600755600854610e3f90633b9ac9ff61111a565b60095560075415610e6257600754600954610e5a919061115a565b600b55610e69565b600954600b555b6103e8600a54610652610e7c919061112d565b610e86919061115a565b600a556008546009546040805184815260208101939093528201527f12b902226ea54a21aefb31c6dfb064bc1c4779d293391c832b415c484f4f3a509060600160405180910390a1505b6005546000818155600254604080519182526020820193909352918201527f897d7b656908c4bea6dd14a762d00075fce0e9b4271d2a4d3bcd493a4d72d5319060600160405180910390a160035460045460055460408051938452602084019290925282820152517f31ba426b73c86859899c292355b9e963ab7f78b00e6df209addf169517554e1f9181900360600190a15050565b600081600003610f7857506000919050565b6103e88210611014576000610f8e60018461111a565b9050600083610fa2836402540be40061112d565b610fac919061115a565b9050600084610fbc81600261112d565b610fc6919061112d565b610fd0848061112d565b610fdf906402540be40061112d565b610fe9919061115a565b90506000610ff78284611107565b90506401580c1ee96110098183611107565b979650505050505050565b600060015b83811115801561102a575060648111155b1561105c5761103e816402540be40061115a565b6110489083611107565b91508061105481611185565b915050611019565b5092915050565b60006020828403121561107557600080fd5b5035919050565b60006020828403121561108e57600080fd5b8135801515811461109e57600080fd5b9392505050565b6020808252602c908201527f43616e6e6f74206163746976617465206d6f7265207468616e2031303020746f60408201526b6b656e73206174206f6e636560a01b606082015260800190565b634e487b7160e01b600052601160045260246000fd5b808201808211156107f9576107f96110f1565b818103818111156107f9576107f96110f1565b80820281158282048414176107f9576107f96110f1565b634e487b7160e01b600052601260045260246000fd5b60008261116957611169611144565b500490565b60008161117d5761117d6110f1565b506000190190565b600060018201611197576111976110f1565b5060010190565b6000826111ad576111ad611144565b50069056fea264697066735822122035c59ca71846f681fd20733f68275257009d097fbbb957c241e50451319ecdc064736f6c63430008130033",
  "linkReferences": {},
  "deployedLinkReferences": {}
}